:020000040800F2
:1000000000260020154E0008FD380008FF380008C3
:100010000139000803390008053900080000000014
:100020000000000000000000000000000739000888
:1000300009390008000000000B3900080D390008DC
:10004000314E0008354E0008394E00083D4E00087C
:10005000414E0008454E0008494E00084D4E00082C
:10006000514E0008554E0008594E00085D4E0008DC
:10007000614E0008654E0008694E00086D4E00088C
:10008000714E0008754E0008794E00087D4E00083C
:10009000D93B0008814E0008854E0008894E0008B3
:1000A0008D4E0008914E0008954E0008994E0008AC
:1000B0003F390008813900089D4E0008A14E000814
:1000C000A54E0008A94E0008AD4E0008B14E00082C
:1000D000B54E0008A9390008533A0008F33A000861
:1000E000B94E0008BD4E0008C14E000800000000D7
:1000F0000000000000000000000000000000000000
:100100000000000000000000C54E0008C94E0008B5
:10011000993B0008CD4E0008D14E0008D54E00088E
:10012000D94E0008DD4E0008E14E0008E54E0008FB
:10013000E94E0008ED4E0008F14E0008F54E0008AB
:10014000273C0008F94E0008FD4E0008014F00084A
:100150002DE9F04F82460FF25860A5B015461E46B5
:10016000D0E90023CDE9122303AF00207960B86203
:100170000DF1500900E045440020ADF8020012AB3B
:100180004FF0FF3229460DF1020001F0AEF8804633
:10019000B8F1010F08DA2878B0F1010868EB080817
:1001A0006FEA08004FEAD078BDF8020025280CBF9E
:1001B000A8F1010BC346BBF1010F0EDB2C4614F86E
:1001C000011B7868D0470028786000F0F880B86A92
:1001D000401CBBF1010BB862F1D1BDF8020025282B
:1001E00007D1002038617861B861F86138627862BF
:1001F00005E00028BFD1B86AE2E240F0010015F83E
:10020000011F2029F9D023290DD02B2904D02D2915
:1002100006D030290AD00CE040F0020080B2EEE7B0
:1002200040F00400FAE740F00800F7E740F0100063
:10023000F4E72A290ED13168316051F8042B31607E
:10024000002A3A6304D5514240F00400396380B279
:100250006D1C13E0002139630BE0396B6FF0004334
:10026000994205D001EB810302EB43013039396338
:100270006D1C2A78A2F130010A29EED329782E29A3
:1002800003D04FF0FF31F9621FE015F8011F2A2952
:1002900007D1316831606D1C51F8042B3160FA626E
:1002A00013E00021F9620BE0F96A6FF00043994214
:1002B00005D001EB810302EB43013039F9626D1C7B
:1002C0002A78A2F130010A29EED3B8860FF2E8406D
:1002D000297801F01BF808B115F8010B8DF84200E0
:1002E0009DF84200682802BF29786829622005D05D
:1002F0006C2804BF28786C2803D171208DF8420047
:100300006D1C14A8F86015F8014BB4F125002AD033
:100310001C3800F0DB80001F022840F2D780133821
:1003200000F0FB80093800F0D180801E00F065816C
:10033000401E00F03C81401E022840F2C780001F92
:1003400000F03581401F00F09280401E00F0E580F3
:10035000401E37D0C01E0BD0801E00F0DE80C01EB5
:1003600000F0DB806CE125208DF85000012070E169
:100370009DF842006C283068306016D050F8048B2D
:100380003060C7F80880FC6A002C04D5404600F0B5
:10039000C9FF044607E022460021404600F0DEFF88
:1003A00008B1A0EB08047C6154E150F8042B3060E4
:1003B00002A9504600F03EFA002840F14B814FF070
:1003C000FF30FDE131683160002251F8040B3160EB
:1003D0004FF03C0E0021CDE9020114A8B860DDE920
:1003E00002019142FC6808BF904201D1FA6AC2B191
:1003F00000F00F033033DBB23A2BA8BF2733AEF146
:1004000001020009A354964640EA0170090900223E
:10041000914208BF904204D0BA6804EB0E039A429E
:10042000E6D304EB0E01B960CEF13C00F96A7861C5
:10043000884207DA081AF8614FF6EF71B88E084063
:10044000B88607E1002940F1058197F8341001F0E2
:100450001401102940F0FE80396B3A69891AFA6953
:10046000891A081A0128C0F2F580F861F2E09DF8B7
:10047000420062281AD0682806D06A280CD06C285E
:100480001CD0712808D019E03068306050F8041B87
:100490003060B86A0880DDE03068306050F8042BC6
:1004A0003060B86AC117C2E90001D3E0306830603B
:1004B00050F8041B3060B86A0870CBE030683060D8
:1004C00050F8041B3060B86A0860C3E03068C01D93
:1004D00020F007023260D2E9000108323260CDE933
:1004E0000201002902D538692D2109E0B88E810763
:1004F00002D538692B2103E0C00705D538692021D2
:1005000009F80010401C386114A839690844B86023
:10051000214602A800F09AFB9CE09DF842006C285E
:100520000DD0712818BF6A2809D13068C01D20F08D
:1005300007023260D2E900010832326005E031681A
:10054000316051F8040B31600021CDE902019DF8C2
:100550004200682803D1DDE9020180B20BE0622885
:1005600003D1DDE90201C0B205E0742818BF7A2882
:1005700004D1DDE902010021CDE9020197F8340040
:10058000000731D5DDE902230020834208BF824203
:100590002AD044F02000782826D13869302109F883
:1005A0000010401C411C396109F800401CE09DF816
:1005B0004200314600F007F9CDE90201DDE90223EE
:1005C00000218B4202DA38692D2109E0B88E8107BB
:1005D00002D538692B2103E0C00705D538692021F1
:1005E00009F80010401C386114A839690844B86043
:1005F000214602A800F0A4FA2CE09DF842006C28E5
:1006000009D0012038613068306050F8041B306038
:100610008DF850101EE03068306001AA50F8041BBD
:100620003060ADF804100020ADF8060002A94FF0CC
:10063000FF30F862504600F0FDF800280AD5BEE60B
:1006400025208DF85000012038611CB189F8014047
:1006500002203861386B3969401AF969401A7969A2
:10066000401A396A401AB969401A796AA0EB010840
:1006700097F83400400711D42020B8F1010F8DF80D
:1006800000000BDB444601236A4602A9504600F0F5
:1006900007FE00287FF493AE641EF4D1D7F810B0A3
:1006A000BBF1000F14AC0DD014F8011B7868D047D3
:1006B000002878603FF483AEB86A401CBBF1010BA0
:1006C000B862F1D130208DF80000FC69012C0ADB02
:1006D00001236A4602A9504600F0E2FD00287FF49B
:1006E0006EAE641EF4D1D7F814B0BC68BBF1000F35
:1006F0000DD014F8011B7868D047002878603FF4CB
:100700005EAEB86A401CBBF1010BB862F1D130207B
:100710008DF800003C6A012C0ADB01236A4602A91D
:10072000504600F0BDFD00287FF449AE641EF4D1B0
:10073000B8687969D7F818B04418BBF1000F0DD02C
:1007400014F8011B7868D047002878603FF437AE72
:10075000B86A401CBBF1010BB862F1D130208DF8B2
:1007600000007C6A012C0ADB01236A4602A950467C
:1007700000F096FD00287FF422AE641EF4D197F8B5
:10078000340040077FF5F8AC2020B8F1010F8DF858
:100790000000FFF6F1AC01236A4602A9504600F0C2
:1007A0007FFD00287FF40BAEB8F10108F3D1E3E43C
:1007B0000000000000000000686A6C747A4C0000C1
:1007C00025B0BDE8F08F622826D068281DD06A28A1
:1007D00008D06C2827D0712804D0742823D07A2818
:1007E0000CD020E00868C01D20F007000860D0E9A8
:1007F0000023083008601946104670470A680A60EE
:1008000052F8040B0A60002170470A680A6052F827
:10081000040B0A6000B20BE00A680A6052F8040B8D
:100820000A6040B204E00A680A6052F8040B0A60E9
:10083000C11770472DE9F44F0D4694B0D5F830A09C
:10084000BAF1000F804648BF6FF0004A00F0B2FDD9
:10085000696B401801900FF67820D0E90023CDE9AC
:10086000022395F83800400702D40198412805D2A8
:1008700040200DF110090190002609E000F0A0FDD4
:100880005FEA0009F8D14FF0FF3056E1AAEB040A05
:10089000BAF1010FC0F2CE801498018802AA0DF1BE
:1008A000010000F0E5FD0028044600F1DE80149808
:1008B000008810B9641E00F1D880A245C0F2BA8049
:1008C000686901992218914280F0A2806E634042CB
:1008D000296A401AA969401A696A401AE969401AE6
:1008E000A96A461A95F83800400710D42020012E36
:1008F0008DF800000BDB374601236A462946404647
:1009000000F0CEFC002840F0B0807F1EF4D1D5F876
:1009100014B0BBF1000F4F460DD017F8011BA868AB
:10092000C0470028A86000F0A080E86A401CBBF126
:10093000010BE862F1D130208DF800002F6A012F01
:100940000ADB01236A462946404600F0A9FC00283C
:1009500040F08B807F1EF4D1D5F818B0EF68BBF162
:10096000000F0CD017F8011BA868C0470028A8602A
:100970007BD0E86A401CBBF1010BE862F2D1302069
:100980008DF800006F6A012F09DB01236A462946B2
:10099000404600F085FC002867D17F1EF5D1E8684D
:1009A000A969D5F81CB04718BBF1000F0CD017F897
:1009B000011BA868C0470028A86056D0E86A401C00
:1009C000BBF1010BE862F2D130208DF80000AF6A74
:1009D000012F09DB01236A462946404600F060FCEE
:1009E000002842D17F1EF5D195F8380040070DD57B
:1009F0002020012E8DF8000008DB01236A462946DD
:100A0000404600F04DFC80BB761EF6D100266E619C
:100A1000224668690DF10101484400F037FD68691C
:100A2000201868611498801C1490801E008800288B
:100A30007FF42CAF686B6969401A296A401AA9696A
:100A4000401A696A401AE969401AA96AA0EB010ACA
:100A500095F83800400710D4BAF1010F0DDB544669
:100A6000A8682021C047A86010B94FF0FF365DE0AC
:100A7000E86A401C641EE862F2D16B694A46294666
:100A8000404600F00DFC0028EFD12C6A012C0ADB57
:100A9000A8683021C0470028A860E6D0E86A401C5A
:100AA000641EE862F4D1AB69EA682946404600F06A
:100AB000F7FB0028D9D16C6A012C0ADBA868302129
:100AC000C0470028A860D0D0E86A401C641EE862D5
:100AD000F4D1E868A969EB6942182946404600F05C
:100AE000DFFB0028C1D1AC6A012C0ADBA8683021E9
:100AF000C0470028A860B8D0E86A401C641EE862BD
:100B0000F4D195F8380040070ED5BAF1010F0BDB90
:100B1000A8682021C0470028A860A6D0E86A401C29
:100B2000BAF1010AE862F3D16E616E6304A88145EF
:100B30001CBF484600F0E6FC304615B0BDE8F08F1B
:100B40002DE9F343054608462F696F2808BF08249E
:100B500005D041F02001782914BF0A2410243C2636
:100B6000D5E90023642818BF69289046994606D124
:100B700000218B4203DAD8F1000869EB4909002013
:100B8000814508BF80450CD1286B50B9082C38D15D
:100B900095F83800000734D530203B2687F83B0015
:100BA0002FE0701E00900646404649462246E31755
:100BB00000F0E8FC02F13000C0B23A2803DB9DF8F7
:100BC000041051390818B855494640462246E317E3
:100BD00000F0D8FC804689460020814508BF80454A
:100BE00003D0E868B9198842DBD3082C09D195F8FD
:100BF0003800000705D5B85D302802D0761E3020B9
:100C0000B855B919E960C6F13C00296BA861884262
:100C100008DA081A28624FF6EF71288F08402887F3
:100C2000BDE8F38300290ED595F8381001F01401C2
:100C3000102908D1696B6A69891A2A6A891A0E1AF9
:100C4000012EA8BF2E62BDE8F38300002DE9F24F0C
:100C500004468EB0D4E90001CDE9020104AF9DF84D
:100C6000380040F0200BBBF1610F0AD0206B002848
:100C700048BF062004D408BFBBF1670F01D1012093
:100C800020636168C1F30A5040F2FF7290421CD1A8
:100C9000080304BF2068002809D10320A0619DF843
:100CA000380061381A2835D30FF2386108E0032084
:100CB000A0619DF8380061381A2828D30FF21C6112
:100CC000E068032200F0E2FBBDE1012815DA2046CE
:100CD00000F0CFFC012810DB00250020BBF1610FE4
:100CE0001FD1E16830220A708A1CE2609DF838202A
:100CF000612A0CBF782258220FE0626840F2FE3170
:100D000061F31E52451A62604FF0FF30E6E70FF2C2
:100D1000C851D5E70FF2C851D2E74A706169891C02
:100D2000616110B90026002584E1BBF1610F40F03C
:100D30009880206BD4E900AB00284CBF2126461CCC
:100D4000DDE902010022002300F0B6FC36B23ABF12
:100D50008BF00040CDE902A0CDE902AB06F101081D
:100D60002D1FB8F1010F8DF810200DF1110736DBA2
:100D7000DDE902010022002300F0B6FC2FD21C2185
:100D800002A800F0C9FCDDE9020100F04BFDA8F16A
:100D90000708B8F1010F814609DB00F06FFD02463C
:100DA0000B46DDE9020100F081FDCDE90201F81DED
:100DB000072105E009F00F0200F8012D4FEA29197B
:100DC000B9F1010F01DB491EF4D5491E5CBF0022B9
:100DD00000F8012DF9D5C71DB8F1010FC8DA0DF1E2
:100DE0001100391AB142B8BF0E4636B230000DF1CB
:100DF00011072FD4884206DA04A90144497808294A
:100E0000A8BF0F2100DA002104AA024400E0761EE8
:100E100012F80139401E8B42F9D00F2904D104A9E0
:100E200001444A78521C4A70002802D504AF761C4F
:100E30002D1D36B2701E0DD439180A783032D2B258
:100E40003A2A03DB9DF838303A3B9A18401E01F8E5
:100E50000129F2D5206B002840F1EC80701E206340
:100E6000E8E0DDE902010022002300F025FC3CBFA0
:100E700081F00041CDE902012DB247F2975068435D
:100E80004B49DFF8309190FBF1F52DB2C5F1070A1F
:100E9000BAF1010F90461CDBDDE902675FEACA7018
:100EA00007D542464B463046394600F0BFFD064660
:100EB0000F464046494642464B464FEA6A0A00F012
:100EC000B5FDBAF1000F80468946E7D1CDE902674A
:100ED00024E0CAF1000A0026374F14E05FEACA7026
:100EE00007D542464B463046394600F09FFD064640
:100EF0000F464046494642464B4600F097FD4FEAB2
:100F00006A0A80468946BAF1000FE7D1DDE902019D
:100F100032463B4600F05CFECDE90201BBF1660FB4
:100F2000216BDFF898900CBF05F10A0006204618E7
:100F3000142EA8BF132630208DF810000DF11107D4
:100F4000012E3DDBDDE9020100F082FC07F1080122
:100F500004220A23B0FBF3F303EB8307A0EB470063
:100F6000303001F8010C0A20B3FBF0F000EB8007F1
:100F7000A3EB47033033521E01F8023DE9D1083E8E
:100F8000012E01F10807DBDBDDE9020100F060FC66
:100F900000F07EFC02460B46DDE9020100F086FC13
:100FA00000224B4600F042FDCDE90201CAE700BF36
:100FB000A0860100000024400000F03F84D7974144
:100FC0000DF11100381A0DF1110702E0401E6D1EDF
:100FD0007F1C39783029F9D0BBF1660F08BF691C36
:100FE00004D0BBF1650F0CBF01210021226B8E18CC
:100FF00036B2B042B8BF064636B231001AD481428A
:1010000004DA785C3528A8BF392000DA30207A1855
:10101000521E00E0761E12F80139491E8342F9D0B3
:10102000392802D1785C401C7854002902D57F1EF3
:10103000761C6D1C2DB29DF83810009533B23A46DF
:10104000204600F003F80FB0BDE8F08F2DE9F0471F
:1010500086B006468A4690461D4600F002FF012DE6
:10106000406A376B90F8009002DA01250FF2782879
:101070004AF02000BDF93840662808BF641C12D031
:10108000672878D114F1040F7BDBBC4279DA96F83B
:101090003800641C000702D4BD42B8BF2F4624B2FA
:1010A0003F1B48BF002724B2F068B169012C23DA46
:1010B0004A1C30234354012F03DA96F83800000706
:1010C00003D5F06800F80290521CE742B8BF7C429A
:1010D00024B260427062E719AF42B261B8BF3D46C8
:1010E000F068B3692DB2F5612A464146184400F014
:1010F000CDF9781BB062BCE022469542084416DA6E
:101100002A46414600F0C2F9B1696918601B012FF7
:10111000B161706203DA96F83800000705D5F0680F
:1011200000F80190F069401CF061B762A1E041460F
:1011300000F0ACF9B06920182D1B012F03DA96F8E6
:101140003810090703D5F16801F80090401CB06120
:101150002DB2AF42B8BF3D46F068B3692DB22A4602
:1011600008EB0401184400F091F9B0692818B06147
:10117000781B70627DE0BAF1610F14D14FF0700AF4
:1011800016E0BD4204DA96F83810090758BF2F461A
:101190007F1E48BF0027BAF1670F14BF4FF0450A02
:1011A0004FF0650A04E0BAF1410F08BF4FF0500A52
:1011B000B169F368481CB061012F18F8012B5A542B
:1011C00003DA96F83810090717D5F168431CB361A4
:1011D00001F80090012F10DB6D1E2DB2AF42B8BF99
:1011E0003D46F0682DB22A464146184400F04EF9BB
:1011F000B0692818B061781B7062F068B169014469
:10120000200081F800A004D42B20487001F10208CE
:1012100004E02D224A7001F102086442002502AF69
:1012200008E00A22684600F035FE019807F8010B35
:101230006D1C009C21B20129F3DA022D06DA4AF076
:101240002000652804BF302008F8010B4DB930207C
:1012500008F8010B07E06D1E02A8405D303008F869
:10126000010B012DF7DAF068B1690844A8EB000022
:10127000F06196F8380000F0140010280DD1706964
:10128000B1690818716A0818F1690818B16A081874
:10129000716B8842BCBF081A306206B0BDE8F087A7
:1012A000F8B504460D4616461F46002077B116F8DD
:1012B000011BA868A047A86030B1E86A401CE8623A
:1012C00000207F1EF3D1F2BD4FF0FF30F2BD0000D1
:1012D00000000000000000006E616E004E414E00F4
:1012E000696E6600494E46003000F8B504460D466A
:1012F00016461F4600F0D6FD3B463246294620469C
:1013000001B0BDE8F04000F0E4BD00000278C9B2D1
:101310008A421AB11CBF10F8012FF9E718BF00204C
:101320007047000000F10103810704D010F8011B91
:1013300089B18107FAD10268B2F10131914311F00C
:10134000803F04BF50F8042FF6E710F8011B11B1DD
:1013500010F8011BFBE7C01A70470000C9B28307F1
:1013600006D0521E22D310F8013B9942F7D11FE05C
:10137000083A13D302F1040241EA012141EA014192
:1013800050F8043B121F21BF4B40A3F1013C2CEA53
:10139000030C1CF0803FF3D0C9B2001F083210F8D4
:1013A000013B521E28BF91EA030FF8D818BF012055
:1013B000401E704780B500F075FD012002BD0000A1
:1013C00070B5054605F10F00C408AFF30080E400D6
:1013D000A54232D2082C04D2082402E0083000F0E2
:1013E00091F82248026811000CD1011D0A6802B36D
:1013F0001368A34238BF111DF8D310E01D68A54241
:101400000DD2191D0B68002BF8D11268011D00E0E8
:10141000191D0B6893420CD01D68A542F8D361B129
:101420000D682A68A2F10803A3420AD26A680A601A
:101430000FE000F071FD0028D0D1AFF30080002054
:1014400070BD2B190B60121B6E685E600B681A6012
:101450002C60096800291DBF4A68002A091D002167
:101460000160AFF3008005F1080070BD98380020DE
:1014700070B504460D46164600F014FD3246294666
:101480002046BDE8704000F017BD000062B38B0736
:1014900008D0521E11F8013B00F8013B00F02480F7
:1014A0008B07F6D1830740F0208000BF103A07D3A6
:1014B00030B4B1E83810103AA0E83810F9D230BC96
:1014C000530724BFB1E80810A0E8081044BF51F842
:1014D000043B40F8043BD20724BF31F8022B20F82C
:1014E000022B44BF0B7803707047083A07D3B1E86A
:1014F0000810083A40F8043B40F804CBF7D25307F1
:10150000E4E7000000B9704738B5A0F1080420688E
:10151000082833D310F0070F30D1AFF300801848FC
:10152000416809B18C4203D26160446017E01946FA
:101530004B680BB1A342FAD30B68CD18AC421BD356
:10154000A54204D12268D2180A600C4607E04A6816
:101550001AB1236823449A420ED362604C606168DA
:1015600051B12268A3188B4206D10023036008689A
:101570008018206048686060AFF3008031BD0000D3
:10158000983800201B4213D1094236D12AB1844633
:10159000B0FBF2F002FB10C2704700F0D3BCFCD3EA
:1015A0000022002370470B0002000021002070473A
:1015B000904271EB030CF6D370B5B1FA81F4B3FA33
:1015C00083F52C1BA340C4F1200532FA05F6334302
:1015D000A2405FF00046E64002E05B085FEA3202AC
:1015E000841A71EB030524BF204629467641F4D3C3
:1015F00002000B003000002170BD012ACFD970B568
:10160000140C20D0B1FA81F4B2FA82F5C4F12004AE
:101610006419B4F12006D6D3B2405FF00044F44020
:10162000002502E052085FEA3303C61A71EB020E8E
:1016300024BF3046714664416D41F3D302000B0074
:101640002000290070BD0C46B1FBF2F102FB1145F0
:101650002D0445EA1045B5FBF2F402FB145580B2A7
:1016600040EA0545B5FBF2F002FB105240EA0440A7
:1016700070BD30B4436803F000420121C3F313038B
:101680004360002B04BF0368002B08D10DE0036802
:10169000DD0F45EA440444605B000360491E446872
:1016A000E302F4D5C4F31303436043681A43426072
:1016B000084630BC704700004FF4001C1CEB410F83
:1016C00094BF1CEB430F09E041EA030C50EA4C0CB9
:1016D00052EA0C0C03D2994208BF9042704714BFE3
:1016E0008B428242704700004FF4001C1CEB410FFC
:1016F00094BF1CEB430F09E041EA030C50EA4C0C89
:1017000052EA0C0C03D28B4208BF8242704714BFCE
:10171000994290427047000070B504460D466068DB
:10172000C0F30A5040F2FF71884207D1606800039D
:1017300004BF2068002817D0022070BD20B92046C1
:10174000FFF797FF012866DA012D0FDB40F2FF71EA
:10175000091A8D420AD36068002847BF00202F492C
:1017600000202F49C4E90001012070BD4142A94277
:10177000616806DA6FF31E51401941EA005060605B
:1017800040E0401E63684519012205F1350062F30F
:101790001F53352801F00041636003D361600020CE
:1017A000206070BD002015F11F0F04DA206823604F
:1017B0000022203562606A4212D0401E25688041B6
:1017C000C2F12003C0439D4045EAD0702568666899
:1017D000D54006FA03F32B4323606368D34063606C
:1017E00062680A43B0F1004F626003D80DD12078DF
:1017F000C0070AD52068401C2060206828B96068AE
:10180000401C60604FF0FF3070BD6068884204BFCC
:1018100020680028F6D1002070BD00BF0000F0FF56
:101820000000F07FF446400D40EAC120490006D296
:1018300000F014F8004248BF6FF00040604700F02D
:101840000DF84FF0004188428CBF08464042604787
:10185000400D40EAC120490080F00D8040F000407A
:10186000490DA1F58061491C05D4D1F11F0154BF78
:10187000C840C01770474FF000007047010040F1AA
:101880000980F446404200F005F851F000416047FD
:10189000010000BF09D0B0FA80F18840C91CC1F531
:1018A0008461090501EBD02140057047F0B44FF089
:1018B000004591EA030F44BF6B4000F045BB00BFF9
:1018C000841A71EB030604D26E40001BB141121959
:1018D00073414FF4001C1CEB410F34BF7CEB4306FB
:1018E00084E00C0DA4EB1356362E7DDC012E43DC78
:1018F00045EAC32343EA525312BFD20292025B0865
:10190000240545EAC12141EA5051D2EBC02099415A
:1019100025D407D1B0FA80F610FA06F164D0002081
:10192000203608E0B1FA81F6B140C6F1200220FA73
:1019300002F21143B0404FEAF474B4EB465434F071
:1019400001064FEA74040AD8D6F50016760D04F0A5
:101950000044F04061FA06F25040F1404840C00AAD
:1019600040EA415021F0004128BF5FEA500550F1A4
:10197000000044EBD12137E045EAC323DB0A45EA06
:10198000C121C90AB6F120050EDD42EA0242120C5D
:10199000C5F1200603FA06F6EB4042EA06056D4261
:1019A000984161F100010DE062FA06F5F240554000
:1019B00063FA06FC82EA0C02F3405A406D42904101
:1019C00061EB030111F4801F05D1641E620502D092
:1019D0006D004041494121F48011430875F10043F5
:1019E00050F1000041EB0451F0BC70471CEB410F7B
:1019F00015D223F0004352EA43060BD04FEA4C0CB9
:101A0000BCEB410F04D80C0D661E342EB7DDEBE79E
:101A1000801A994150EA410608BF0021E4E708BF57
:101A20001CEB430F28BF6FF00001DDE7B0B581EA82
:101A3000030C0CF0004C40F2FF7515EA11541DBF69
:101A400015EA1357AC42AF4239E0E41923EA455393
:101A500043F48013C90241F0004141EA505EC702DD
:101A60001100A7FB020200284FF00000EEFB01204E
:101A70004FF00001E3FB072118BF42F001024018BC
:101A800000214941E3FB0E01A4F580640F0302D25B
:101A900052004041494154F101046CDD470872F1A4
:101AA000004250F1000051EB0451A1F580115CBFE0
:101AB00041EA0C01B0BD4CEA05510020B0BD05EA79
:101AC0001357AC4214BFAF4241E050EA410E1CBF75
:101AD00052EA430E02E061460020B0BD24423C447D
:101AE0001BD15FEA070EF6D0090302BF01460020B2
:101AF000AEF1140EB1FA81F7AEEB070401FA07FE5E
:101B00000C37C7F1200100FA07F7C8404EEA000E73
:101B100023EA455343F48013A2E733F00043B3FABA
:101B200083F704BFB2FA82FE77440B3FE41BB7F1A0
:101B3000200E2FBF02FA0EF3BB40C7F1200E22FA8F
:101B40000EFE38BF43EA0E03BA40641C82E750EA37
:101B5000410E14BF52EA430E6FF000014FF400171C
:101B600017EB430F8ABF194617EB410FB5E74CEA55
:101B700005510020B0BDD4F10104B4F120070FDA03
:101B8000C4F12007520828BF42F0010210FA07F5FD
:101B900001FA07F7E1BF2A43E0403843E1400FE094
:101BA000352C98DCC7F1200452EA400220FA07F2F3
:101BB00018BF42F0010231FA07F0A1400A430021A8
:101BC00072F1004250F1000051EB0C01B0BD000079
:101BD0002DE9F04140F2FF7581EA030C0CF0004C56
:101BE00015EA11541DBF15EA1357AC42AF42E9E0A4
:101BF000BC41C1F31301C3F31303801A994143F4A9
:101C0000801304D2641E4000494180185941C90222
:101C100041EA5051B1FBF3F603FB1611A2FB067526
:101C2000D7EBC020A94102D2761E80185941C902C3
:101C300041EA5051B1FBF3FE03FB1E11A2FB0E75EE
:101C4000D7EBC020A94103D2AEF1010E8018594153
:101C5000890241EA9051760546EA8E2EB1FBF3F6F1
:101C600003FB1611A2FB0675D7EB8020A94102D217
:101C7000761E80185941C90241EA50514EEA060EBB
:101C8000B1FBF3F603FB1611A2FB0675D7EBC020E0
:101C9000A94102D2761E80185941C90241EA505129
:101CA000B1FBF3F703FB1711A2FB0735D3EBC02001
:101CB000A94167F100070CBF004247F0010766F336
:101CC000D5274FEA1E31B80814F5806414DDBD072E
:101CD00075F1004250EB0E5051EB045111F5801F8D
:101CE0005CBF41EA0C01BDE8F0814CF07F6141F03E
:101CF000E0410020BDE8F081BD076D0840EA0E50CC
:101D000041F48011D4F10104B4F120060ADAC4F1DF
:101D100020060200E04001FA06F3E1401843B24019
:101D200015430EE0342C14DCC6F1200445EA4005CE
:101D30006D0820FA06F2154321FA06F0A1400D4382
:101D4000002175F1004250F1000051EB0C01BDE89B
:101D5000F08100205FEA0C01BDE8F081CFB9921854
:101D60005B41B3FA83F704BFB2FA82F6BF190B3FA7
:101D7000B7F120062FBF02FA06F3BB40C7F12006D9
:101D800022FA06F638BF3343BA401CB1E419641E88
:101D90002FE77F4231F00041B1FA81F404BFB0FA7D
:101DA00080F6A4190B3CB4F120062FBF00FA06F10F
:101DB000A140C4F1200620FA06F638BF3143A04006
:101DC0003C1B16E7AC421ABF05EA1357AF4214E0BA
:101DD00050EA41061CBF52EA4306BFE750EA4107FA
:101DE000304661461CBF41EA0551BDE8F08152EA28
:101DF000430C08BFC143BDE8F08100204FF400163A
:101E000016EB410F98BF16EB430F08BF16EB410FBF
:101E100024BFC14305E016EB430F0CBF61464CEAFB
:101E20000551BDE8F081000080B5134800F0F6F8D8
:101E30000FF24C020FF244010160426241600FF266
:101E40004402826381600FF24402C160016141611A
:101E500081618162C16201634163C2630164416463
:101E600001BD10B5044800F0D9F80446206808B94F
:101E7000FFF7DAFF204610BDFC2000200000000024
:101E80002E00000066616C73650000007472756559
:101E90000000000091FBF2F303FB1211C0E90031D6
:101EA0007047000080B5DFF80C0000F0B7F88069DB
:101EB00002BD00008C21002030B430B90FF2480080
:101EC000D0E90045C2E900451BE00170012030BCAB
:101ED000704730B431B90FF23800D0E90045C3E99A
:101EE00000450EE01AB930BC6FF00100704708B130
:101EF0000A7802800978481E804130BCC043C00F78
:101F00007047002030BC7047000000000000000057
:101F100000000000000000000749086808B1002028
:101F200070470648C008C00008600549C908C900D4
:101F3000091A0160704700BFA8380020072600205A
:101F4000002E002070470000841A71EB030603D2B4
:101F5000001BB141121973414FF4001C1CEB410FDF
:101F600034BF7CEB430443E00C0DA4EB1356352E39
:101F700050DC45EAC323DB0A45EAC121C912B6F1A8
:101F800020050DDD63FA05F6EB4086EA03051242F3
:101F900018BF45F00105C01851F100010CD213E043
:101FA00062FA06F5F2405540F3415A40B340F3401F
:101FB0005A408018594107D349085FEA30005FEA68
:101FC000350528BF45F0010501F58011420875F17E
:101FD000004250F1000041EB0451F0BC4FF4001CF2
:101FE0001CEB410F38BF70470020090D09057047F1
:101FF0001CEB410F10D252EA43060BD0BCEB410F51
:1020000005D80C0DAB43661E342EB5DD02E0AB43A4
:1020100080185941F0BC7047F0BC70477047000011
:1020200062B670477047000072B67047704710B5CF
:102030000446FFF7F9FFDFF8E402016842689142C5
:102040000AD00978217000F20712016891420CBF92
:1020500000F10801491C2DE028E070B50546FFF7A6
:10206000E3FFDFF8EC4220686268014682422FBF3E
:10207000561A4FF480701018461AFFF7D1FFB6B207
:10208000FF2E0CDAFFF7D0FF6068057004F207112D
:10209000606888420CBF04F10800401C01E0002089
:1020A00070BD6060FFF7BCFF012070BDFFF7B8FF97
:1020B000002010BD0160FFF7B3FF012010BD70B517
:1020C0000546FFF7B1FFDFF87C44206862680146EF
:1020D00082422FBF561A4FF480701018461AFFF72D
:1020E0009FFFB6B2FF2E0CDAFFF79EFF6068057007
:1020F00004F20711606888420CBF04F10800401C1C
:10210000CFE7002070BD10B50446FFF78DFFDFF864
:1021100034040168426891420AD00978217000F2C3
:102120000712016891420CBF00F10801491CC1E788
:10213000BCE770B50546FFF777FFDFF8304420684D
:102140006268014682422FBF561A4FF48070101801
:10215000461AFFF765FFB6B2FF2E0CDAFFF764FFF1
:102160006068057004F20711606888420CBF04F1D2
:102170000800401C95E7002070BD30B587B00121F4
:10218000052000F085FB01214FF4003000F089FBB1
:1021900002A800F01FFC4FF4E130029000200390F1
:1021A000ADF810000C20ADF8120002A9DFF8B04421
:1021B000DFF8B054204600F0BFFB01208DF802008C
:1021C00069460820ADF8000004208DF80300284679
:1021D00000F066FC0420ADF80000694601208DF88F
:1021E000020018208DF80300284600F059FC012257
:1021F00040F22771204600F003FC012240F22551F5
:10220000204600F0FDFB26208DF8040001208DF80B
:10221000050000208DF8060001208DF8070001A8B8
:1022200000F0A5FC0121204600F0E0FB07B030BD26
:1022300010B586B001214FF4002000F032FB4FF4BE
:102240000060ADF8000004208DF803006946DFF857
:102250002444204600F024FC4FF48060ADF80000D8
:10226000694601208DF8020018208DF803002046F1
:1022700000F016FC4FF4E130019000200290ADF820
:102280000C00ADF810000C20ADF80E0001A9DFF82D
:10229000E843204600F050FB0121204600F0A6FB59
:1022A00006B010BD0021204600F0A0FB40F22775CB
:1022B00000222946204600F0A3FB40F225560022CA
:1022C0003146204600F09CFB40F22667002239464A
:1022D000204600F095FB2946204600F0D8FB394601
:1022E000204600F0D4FB31462046BDE8F44000F023
:1022F000CEBBF8B5DFF88403C0780128FAD1DFF847
:102300006843CFE738B50446DFF8745300202860EF
:1023100000F079FC2868A042FAD331BD541C00209B
:102320000020BDE8F0812DE9F041DFF85853044664
:1023300028680E4650B9300008D0B6F5836F05DC2A
:10234000DFF83873F878012800D103E0E8E70000EF
:102350005C1D0020DFF808832178404600F068FB10
:102360000020F870721EA8802A60611CA81DFFF76B
:102370008DF8012240F22771404600F041FB012018
:10238000BDE8F0812DE9F04104468846FFF74CFE98
:102390006C4F38687A680026014682422FBF551A72
:1023A0004FF480701018451AFFF73AFEADB2FF2DBA
:1023B0000FDAFFF739FE7968A020087007F20711DD
:1023C000786888420CBF07F10800401C7860FFF76E
:1023D00027FE5FFA88F0FFF772FE5FFA88F708E0E1
:1023E000A05DC719FFF76BFE761C00F00CFCFFB276
:1023F000F6B24645F4DB3846FFF761FE012240F2B3
:102400002771DFF85C020FF2A82700F0F9FA0FF24B
:10241000882000F009FC002605E0A15D384600F0A8
:1024200003FC761CF6B24645F7DBBDE8F08138B513
:10243000FFF7FAFD434C20686268014682422FBFD5
:10244000551A4FF480701018451AFFF7E9FDADB228
:10245000FF2D0FDAFFF7E8FD6168A020087004F295
:102460000711606888420CBF04F10800401C6060DE
:10247000FFF7D6FDFFF7D8FD20686268014682426B
:102480002FBF551A4FF480701018451AFFF7C8FD7A
:10249000ADB2FF2D0FDAFFF7C7FD616804200870A9
:1024A00004F20711606888420CBF04F10800401C68
:1024B0006060FFF7B5FD0220FFF701FE00F0A3FB0F
:1024C0000220FFF7FCFD00F09EFB9220FFF7F7FDD6
:1024D00000F099FB0120FFF7F2FD00F094FB9B2038
:1024E000FFF7EDFD012240F22771DFF874010FF2D2
:1024F000C01400F085FA0FF2A01000F095FB022145
:10250000204600F091FB0221204600F08DFB922135
:10251000204600F089FB2046BDE83440012100F050
:1025200083BBDFF864118A88B2F5836F08DA0A6822
:1025300032B98A88531C8B801144887100F0C2BB69
:1025400070470000641E00208178012901BF0178D6
:1025500002294078032808D14C49012008704C49D1
:1025600008700FF2541000F05FBB70476C1F002022
:10257000F8B5FFF759FD394801684268914217D014
:102580000C78444D00F2071291420CBF00F1080193
:10259000491C0160FFF744FD287818B1022817D0C4
:1025A0000AD357E0A02C57D10120287000200DE05D
:1025B000BDE8F140FFF734BD022028704FF482706F
:1025C0002E18002030807480687820186870F1BD63
:1025D0004FF482702E18308877886A782918B842AC
:1025E0000C7104D2401CA11830806970F1BD944276
:1025F0001AD10FF2D4000FF2B80700F015FB002437
:1026000006E0E4B22819641C0179384600F00CFB9E
:102610003188E0B28842F4D314A000F005FB318881
:10262000281DFFF791FF15E00FF2B4000FF28007AD
:1026300000F0FAFA002405E02819641C01793846F4
:1026400000F0F2FA3188E4B2491C8C42F4DB08A0B5
:1026500000F0EAFA00202870F1BD00006C1F002095
:102660000044004000080140004800400D0A0000FE
:102670000A00000000100140004C0040F82100203A
:10268000A4380020C0320020301400201014002094
:1026900012140020E03600200D0A5B45494150200D
:1026A0003E3E3E3E3E3E3E204D4D43555D3A00008F
:1026B00030782530325820000D0A52656164795413
:1026C0006F557064617461000D0A5B4D4D43552078
:1026D0003E3E3E3E3E3E3E20454941505D3A000072
:1026E0000A5B4D4D4355203E3E3E3E3E3E3E20451C
:1026F0004941505D3A2D2D2D3E4552524F523A00E0
:102700008048814A016841F001010160416811403F
:1027100041607E4A016811400160016821F4802116
:102720000160416821F4FE014160016821F0A0517F
:1027300001604FF47F0181600021C16270477149DF
:102740000A6822F480320A60B0F5803F0A6822F4F9
:1027500080220A6003D0B0F5802F04D0704708684B
:1027600040F4803002E0086840F4A0200860704720
:1027700081B00020009063490A68009B5B1C0093B5
:10278000009BB3F5A06F01D09203F5D509688903CA
:1027900048BF012001B070475D4A136823F47413E9
:1027A00002E05C49086070471843084310607047B6
:1027B00057490A68920840EA820008607047544806
:1027C000006800F00C00704751490A6822F0F002DE
:1027D0001043086070474E490A6822F4E062F7E748
:1027E0004B490A6822F4605242EAC0000860704710
:1027F00070B447490A6802F00C02082A25D10A6819
:102800000B68C2F383420D2A14BF921C0622DB031D
:1028100002D4414B5A4319E08C6A8B6A03F00F03D0
:102820005B1CE40358BF3D4C0BD58C6A8D6A3B4E54
:10283000C4F30314641CC5F30325B6FBF4F4AD1C08
:102840006C43B4FBF3F35A4300E0344A02600B6874
:10285000334A0468C3F30313D35CDC4044600B6861
:102860004468C3F30223D35CDC4084600B68446893
:10287000C3F3C223D35CDC40C4600968C368C1F3FE
:1028800081311144097CB3FBF1F1016170BC7047E7
:10289000244A0029116814BF084321EA000010608F
:1028A0007047214A0029116814BF084321EA00003B
:1028B000106070471D4A0029116814BF084321EABF
:1028C0000000106070471A4A0029116814BF0843BD
:1028D00021EA00001060704741090A4A012908BF37
:1028E000116803D002290CBF116A516A00F01F0061
:1028F000C14001F0010070470E48016841F080714D
:1029000001607047001002400000FFF0FFFFF6FE7C
:10291000041002406000424200093D0000127A00AB
:1029200074200020181002401C1002400C100240BD
:10293000101002402410024030B5044685B00D4608
:10294000208A4CF6FF710840E988084320824EF641
:10295000F311A0890840A988084329890843698997
:102960000843A0814FF6FF41A08A0840A989084387
:10297000A0826846FFF73CFF1548296884420CBFD7
:102980000398029819225043A28912044CBF4900AF
:102990008900B0FBF1F16420B1FBF0F00001020905
:1029A000642303FB1211A289120406D5C900323137
:1029B000B1FBF3F101F0070105E009013231B1FB90
:1029C000F3F101F00F010843208105B030BD000094
:1029D000003801404FF41651016000218180C18010
:1029E00001810C2141810021818170470029818969
:1029F00012BF41F400514DF6FF72114081817047C2
:102A00000B065B0F4FF0010C01F01F01012B0CFABC
:102A100001F108BF0C3003D0022B0CBF1030143072
:102A2000002A026814BF114322EA010101607047C5
:102A3000C1F30801818070478088C0F308007047A7
:102A400000880022084218BF01221046704723E088
:102A500030B40A46130600215B0F012402F01F0563
:102A6000012B04FA05F508BF838903D0022B0CBFA4
:102A7000038A838A120A008804FA02F22B4010406B
:102A8000002B30BC1CBF00280121084670470122E2
:102A9000090A02FA01F189B2C943018070470000B6
:102AA0002DE9F041CC78002204F00F03E40644BF86
:102AB0008C7823430C88E5B21DB3D0F800C0012503
:102AC0000F2605FA02F707EA0408B84514D14FEAC1
:102AD000820E06FA0EF82CEA080C03FA0EFE4EEAF5
:102AE0000C0C91F803E0BEF1280F08BF476103D03A
:102AF000BEF1480F08BF0761521C082AE1D3C0F895
:102B000000C0FF2C27DDD0F804C0002201250F26CD
:102B100002F1080705FA07F707EA0408B84515D1D6
:102B20004FEA820E06FA0EF82CEA080C03FA0EFEA3
:102B30004EEA0C0C91F803E0BEF1280F08BF476184
:102B400091F803E0BEF1480F08BF0761521C082A44
:102B5000DED3C0F804C0BDE8F08101617047416177
:102B6000704700001C4908431C490860704770B456
:102B70000378C4781A460121ECB1184B1B684478DD
:102B800003F4E063C3F5E0631B0AC3F10405AC4042
:102B900085780F26DE4006EA05032343104C1B010F
:102BA000A354007800F01F0291400E4A400942F8F9
:102BB000201070BC704703F01F0001FA00F00A49B2
:102BC000520941F8220070BC7047084A114008437E
:102BD00007490860704700000000FA050CED00E0AE
:102BE00000E400E000E100E080E100E080FFFF1F82
:102BF00008ED00E00949086070470949086070471E
:102C000008490860704705494AF6AA2008607047DD
:102C100002494CF6CC40086070470000003000408C
:102C200004300040083000400EB400B582B003A963
:102C3000009102466B460121034878440A30FDF7B3
:102C400087FA06BC5DF810FB9921000010B584B02E
:102C500001210220FFF725FE2A4C204600F054F8FF
:102C60000020ADF80600ADF80A0001A941F2873056
:102C7000ADF808004020ADF80400204600F018F937
:102C80001D208DF8000006208DF8010000208DF831
:102C9000020001208DF803006846FFF768FF00215D
:102CA000204600F05EF900220121204600F051F993
:102CB0000121204600F061F90021204600F03FF993
:102CC00004B010BD10B50F4C0021204600F049F9AA
:102CD0000121204600F033F92046BDE810400122D2
:102CE0000DE010B5074C0021204600F028F9002126
:102CF000204600F036F92046BDE8104000220121B0
:102D000000F027B90004004080B5DFF8781288424F
:102D100008D101214FF40060FFF7CCFD00214FF4F2
:102D20000060C0E0B0F1804F06D101210120FFF723
:102D3000CAFD002101208CE0DFF84C12884206D148
:102D400001210220FFF7BFFD0021022081E0DFF812
:102D50003C12884206D101210420FFF7B4FD002176
:102D6000042076E0DFF82812884206D101210820ED
:102D7000FFF7A9FD002108206BE0DFF81812884258
:102D800006D101211020FFF79EFD0021102060E0F8
:102D9000DFF80412884206D101212020FFF793FDBD
:102DA0000021202055E0DFF8F411884208D10121EC
:102DB0004FF40050FFF77EFD00214FF4005072E009
:102DC000DFF8DC11884208D101214FF40020FFF721
:102DD00071FD00214FF4002065E0DFF8C811884242
:102DE00008D101214FF48010FFF764FD00214FF45A
:102DF000801058E0DFF8B011884208D101214FF46B
:102E00000010FFF757FD00214FF400104BE0DFF8F2
:102E10009C11884206D101214020FFF754FD00217A
:102E2000402016E0DFF88811884206D10121802079
:102E3000FFF749FD002180200BE0DFF87811884280
:102E40000BD101214FF48070FFF73DFD00214FF4BD
:102E50008070BDE80440FFF736BDDFF85C118842A2
:102E600008D101214FF48030FFF724FD00214FF4F9
:102E7000803018E0DFF84411884208D101214FF476
:102E80000030FFF717FD00214FF400300BE0DFF8B2
:102E9000301188420BD101214FF48020FFF70AFD49
:102EA00000214FF48020BDE80440FFF703BD01BDC1
:102EB00010B4DFF8D020038890421CBFDFF8DC405C
:102EC000A0420ED0B0F1804F1CBFDFF8BC40A04242
:102ED00007D0DFF8B840A0421CBFDFF8B440A042E2
:102EE00004D14FF68F7423404C882343DFF8A4406D
:102EF000A0421CBFDFF8A040A04204D04FF6FF4420
:102F00002340CC882343038090428B8883851CBF59
:102F1000DFF8882090420B8803850AD0DFF89820DC
:102F200090421FBFDFF894209042DFF89420904237
:102F300001D1097A01860121818210BC70470029E4
:102F4000018812BF41F001014FF6FE72114001806D
:102F50007047002A828914BF114322EA010181814E
:102F6000704781847047038A8089002208400B42A1
:102F70001CBF002801221046704700BFC9430182D0
:102F800070470000002C0140000400400008004091
:102F9000000C0040001000400014004000340140CC
:102FA000004C014000500140005401400018004016
:102FB000001C00400020004000400140004401404F
:102FC000004801402DE9F04190460278012A1D4653
:102FD00008D18026069A437893421CD06FF00100F6
:102FE000BDE8F081022A08BF4FF48066F2D0042ABF
:102FF00018BF032A04D0182A09D14078182802D112
:103000000020BDE8F0816FF00500BDE8F0814FF0D1
:10301000FF30BDE8F0818378D243D2B2934218BF2B
:103020006FF0020030D1721D914218BF6FF00300A3
:103030002AD13346C71C002241F2210C9CB28CB12C
:1030400017F8014B5B1E82EA04224FF0080E540071
:10305000120446BF8CEA040292B2A2B2BEF1010E83
:10306000F5D1EBE7014411F8023D497841EA03212B
:10307000914218BF6FF0040006D1C11C3246404691
:10308000FEF704FA2E600120BDE8F08131B50C4650
:10309000154601216846FFF746F90128F9D19DF848
:1030A0000000062802D10020286031BD152806D175
:1030B0002868401C28600628A4BF0420207031BD69
:1030C0002DE9F047D0B00E461446994605A90022D6
:1030D000002300279446A1E88C1001A90025A1E84F
:1030E0008C10D64F3978052900F2A481DFE811F061
:1030F00006000F00590068002C017501012038708E
:103100007A60BA607A70CE49C868CA6092E1DFF826
:103110003083D8F80C1040F6B832914209D3C8F881
:103120000C3007F1080239464320FFF7AFFF3D702E
:1031300080E13168002900F07D817A68D2B2009286
:103140004B462246FFF73EFF0021316040B270B18E
:1031500001281ED1E07810B905203870EEE0022079
:103160003870022578687970401C7860E6E07878DD
:1031700028B1796007F108023946062003E007F11B
:10318000080239461520FFF781FF7878401C7870D7
:10319000D4E0797007F1080239461520FFF776FF71
:1031A000CCE00320387007F1080239460620FFF70B
:1031B0006DFF07F1080239464320FFF767FF39E149
:1031C000DFF87C82D8F80C1040F6B832914203D375
:1031D000C8F80C300420FEE03168002900F02A8194
:1031E0007A68D2B200924B462246FFF7EBFE40B21D
:1031F000002860D0012840F0868078689149401C02
:1032000078604FF4807200207870012509A800F0E2
:1032100079FAD9F80000C11000EB11714FEA2119B9
:10322000B0EB091118BF09F101094FF0000A17E0CE
:10323000204605A9042211F8013B00F8013B521E6B
:1032400011F8013B00F8013B11F8013B00F8013B8C
:1032500011F8013B00F8013BEDD10AF1010A1034ED
:10326000CA4521D201A82146042211F8013B00F8E9
:10327000013B521E11F8013B00F8013B11F8013BE4
:1032800000F8013B11F8013B00F8013BEDD101AA28
:1032900005A909A800F056FA0028C9D007F10802CC
:1032A00039461520FFF7F2FE07F1080239460620DD
:1032B000FFF7ECFE40E0787848B1012038707D607F
:1032C00007F1080239460620FFF7E0FE17E0152057
:1032D0008DF8000001216846FFF725F80128F9D193
:1032E0009DF80000062808BFBD6008D0152806D14B
:1032F000B868401CB8600628A4BF042038707878ED
:10330000401C787018E015207D708DF800000121B8
:103310006846FFF708F80128F9D19DF80000062853
:1033200008BFBD6008D0152806D1B868401CB86039
:103330000628A4BF0420387000203060D8F80C00A4
:103340000020C8F80C0075E006208DF8000001216F
:103350006846FEF7E8FF0128F9D19DF8000006282D
:1033600008BFBD6008D0152806D1B868401CB860F9
:103370000628A4BF0420387018208DF80000012111
:103380006846FEF7D0FF0128F9D19DF80000062815
:1033900008BFBD6008D0152806D1B868401CB860C9
:1033A0000628A4BF0420387018208DF800000121E1
:1033B0006846FEF7B8FF0128F9D19DF800000628FD
:1033C00008BFBD6004D0152802D1B868401CB860A1
:1033D0004FF0FF35002038702CE006208DF80000FB
:1033E00001216846FEF79FFF0128F9D19DF80000F2
:1033F000062808BFBD6004D0152802D1B868401C5B
:10340000B860002038704FF0FF350F4800F0ECF93D
:1034100004280FD10FF23800FFF706FC41F2883084
:10342000FEF770FF02210948FFF799FB42F2107086
:10343000FEF768FF284650B0BDE8F0878C380020C2
:10344000743800209C20002000E00308000C01409C
:103450000D0A5570646174615375636365737321FC
:10346000210000001FB5040000200AE010EB8102DB
:10347000A25C6B4603EB80035A54491C0429F5DB1C
:10348000401C042801DA0021F8E7102269462000D8
:10349000FDF7FCFF1FBD10B4002204E0835C8C5CD0
:1034A00063408354521C102AF8DB10BC7047002282
:1034B00003E0835CCB5C8354521C102AF9DB704719
:1034C0001CB46A4600230024C2E900348DF80000D1
:1034D00000200022012213E06B46134413F8013C44
:1034E0005B006C46A3546B46134413F8013C1B0667
:1034F00005D56B469B5C93F01B036C46A354521C92
:10350000082AE9DB002209E0C9B20B00134113F0DD
:1035100001036C46A45C63435840521C082AF3DB49
:10352000C0B216BC70472DE9FF4104000D0068468B
:10353000102100F0C5F9002600E0761C042E1EDAEA
:10354000002717E018EB8700215C05EB860010F8D8
:103550000800FFF7B5FF694616EB8702895C484013
:10356000694616EB8702885418F10108B8F1040F78
:10357000E8DB7F1C042FE0DA5FF00008F6E710229A
:1035800069462000FDF782FFBDE8FF8138B50400E1
:103590000D002000FFF766FF606861685FEA316038
:1035A0006060A068A1685FEA3140A060E068E168FF
:1035B0005FEA3120E0602000FFF754FF4E49200011
:1035C000FFF775FF29002000FFF765FF4B4920003A
:1035D000FFF7A9FF31BD38B504000D002000FFF74B
:1035E00041FF606861685FEA31606060A068A1685F
:1035F0005FEA3140A060E068E1685FEA3120E060A6
:103600002000FFF72FFF3C492000FFF750FF290063
:103610002000FFF740FF31BDF0B40268921F03683D
:103620005B1C9B004068002411F8245001EB8406C9
:10363000767855EA062501EB8406B67855EA064504
:1036400001EB8406F67855EA066540F82450641CC0
:103650009442E9D300EB840151F8041CB4FBF2F569
:1036600002FB1545002D1DD1224DC1F30726AD5D8E
:10367000204EC1F30747F65D55EA06251D4E0F0E95
:10368000F65D55EA06451B4E01F0FF01715C55EAF7
:103690000161B4FBF2F51A4E06EB850555F8045CA2
:1036A00069401CE0082A1AD1B4FBF2F502FB15456B
:1036B000042D14D10F4D01F0FF06AD5D0D4EC1F389
:1036C0000727F65D55EA06250A4EC1F30747F65D62
:1036D00055EA0645074E090E715C55EA0161A51AC7
:1036E00050F82550694040F82410641C9C42B1D326
:1036F000F0BC7047EC490008EC4A0008044E000892
:103700002C4D000880B5002801D0002901D10120EE
:103710000FE0802A05D0C02A0CD0B2F5807F0CD0F3
:103720000EE00A22026010F108024260FFF774FF07
:10373000002002BD0C220260F5E70E220260F2E7D3
:103740000120F6E770B50C001100002803D0002C12
:1037500001D0002901D1012022E0426810F10803C4
:103760009A4201D002201BE0056846681022200022
:10377000FDF78CFEA80006EB80012000FFF78BFE12
:103780006D1E06E0A80006EB80012000FFF7FEFE9C
:103790006D1E002DF6D131002000FFF71CFF002028
:1037A00070BD0000DFF800110A6802F0380206E080
:1037B000DFF8F4100A6822F010020A600A68104369
:1037C00008607047FFE7DFF8E400DFF8E41001600D
:1037D000DFF8E01001607047FFE7DFF8DC00016808
:1037E00041F080010160704738B505464FF4302044
:1037F00000F031F8042813D1DFF8BC40206840F015
:10380000020020606560206840F0400020604FF4B6
:10381000302000F020F8216841F6FD72114021604F
:1038200032BD70B504460D464FF4005000F013F859
:1038300004280FD1DFF88060306840F0010030606C
:1038400025804FF4005000F006F8316841F6FE7212
:103850001140316070BD194A13680421DB0748BF6D
:1038600001210ED413685B0748BF022109D41368F5
:10387000DB0606D5032104E01368DB0648BF0321FD
:10388000401E01290BD158B113680421DB0748BF42
:103890000121F5D413685B07EED50221F0E700B9EA
:1038A0000521084670470000002002400420024025
:1038B00023016745AB89EFCD102002400C20024068
:1038C000002200F001B8000000B500BF13009646CA
:1038D0009446103928BFA0E80C50FAD85FEA417C22
:1038E00028BF0CC048BF40F8042BC90728BF20F8E8
:1038F000022B48BF00F8012B00BD00007047FEE717
:10390000FEE7FEE7FEE7704770477047DFF86403A5
:103910000168491C0160D848B0F8BA140A001CBFFD
:10392000491EA0F8BA14D54801780A0006D0491EED
:103930000170C9B211B9D24900200870704780B532
:1039400001214FF08040FFF70EFB012817D1012124
:103950004FF08040FFF711FBCA480168491C016025
:103960004168491C41608168491C8160C168491CEB
:10397000C1600169491C01614169491C416101BD86
:1039800010B5C14C01212046FFF7EDFA01280AD1FC
:1039900001212046FFF7F1FAFFF7A3F9BB48818820
:1039A00001600021818010BD70B5B94C40F22776CE
:1039B00031462046FFF74CF801281FD131462046FA
:1039C000FFF765F8B34D286858B1A888411CA98055
:1039D000284481792046FFF72BF82868401E28608C
:1039E00070BD002231462046FFF70AF82046BDE8A8
:1039F0007040012240F22661FFF702B840F22665CE
:103A000029462046FFF724F878B129462046FFF7DB
:103A10003EF8002229462046FEF7F2FF9D4900208D
:103A2000086001209C49087070BD40F22555294668
:103A30002046FFF70DF858B129462046FFF727F832
:103A40002046FEF7F9FFBDE87040C0B2FEF769BD41
:103A500070BD38B5914C40F2277529462046FEF7D7
:103A6000F7FF012818D129462046FFF710F86846CD
:103A7000FEF749FB28B19DF800102046FEF7D8FF5D
:103A80000AE0002229462046FEF7BAFF012240F252
:103A900026612046FEF7B4FF40F2266529462046FF
:103AA000FEF7D6FF70B129462046FEF7F0FF002250
:103AB00029462046FEF7A4FF764900200860012031
:103AC0007549087040F2255529462046FEF7C0FF8B
:103AD00070B129462046FEF7DAFF2046FEF7ACFF1C
:103AE0006F4909780129C0B200D152E0FEF721FBED
:103AF00031BD38B56B4C40F2277529462046FEF79C
:103B0000A7FF012818D129462046FEF7C0FF6846C6
:103B1000FEF78DFA28B19DF800102046FEF788FFC9
:103B20000AE0002229462046FEF76AFF012240F201
:103B300026612046FEF764FF40F2266529462046AE
:103B4000FEF786FF70B129462046FEF7A0FF00224F
:103B500029462046FEF754FF4E4900200860012008
:103B60004D49087040F2255529462046FEF770FF62
:103B700070B129462046FEF78AFF2046FEF75CFF1B
:103B8000474909780129C0B200D102E0FEF765FA81
:103B900031BDFEF7C6FC31BD38B5434C40F225556A
:103BA00029462046FEF754FF30B12046FEF744FF79
:103BB00029462046FEF76BFF40F22775294620462E
:103BC000FEF746FF012806D129462046BDE83840C9
:103BD0000022FEF715BF31BD10B5344C86B004216C
:103BE000204600F0FFF8012808BF042106D0082174
:103BF000204600F0F7F8012801D108215AE00221FF
:103C0000204600F04BF901AA0021204600F0ACF854
:103C100001A984B068461422FDF748FC0FBC00F0EF
:103C200075F906B010BD10B5214C86B004212046B0
:103C300000F0D8F8012808BF042106D0082120464A
:103C400000F0D0F8012801D1082133E002212046FC
:103C500000F024F901AA0021204600F085F801A90E
:103C600084B068461422FDF721FC0FBC00F07EF9F9
:103C700006B010BDA4380020002E00206D380020B2
:103C800070380020743800200004004030140020F8
:103C900000380140C0320020FB21002000440040D9
:103CA0001214002000480040004C00400064004016
:103CB00000680040204600F0F1F806B010BD00009A
:103CC00070B48268520113D5002200EB02104FF449
:103CD000C0731844036803F0010303600C7A4B7A45
:103CE000250011D104680D6843EA4553234311E0D0
:103CF0008268120148BF0122E7D48268D20048BF1F
:103D00000222E2D404222CE005684E6844EAC6048C
:103D100023432B4303608B7A03F00F038B724368BA
:103D20001B091B01436043688C7A234343604C7B2F
:103D30008B7B240444EA03630C7B43EA0423CC7AA0
:103D4000234383604C7C8B7C240444EA03630C7C17
:103D5000C97B43EA04231943C160016841F00101B2
:103D60000160104670BC704710B400EB01134FF4B3
:103D7000D87423441C6814F0040414721C6807BF30
:103D8000640D1460E40854601C6804F0020454726A
:103D90005C6804F00F0494725C68240AD4749C6814
:103DA000D4729C68240A14739C68240C54739C6815
:103DB000240E9473DC68D473DC68240A1474DC6801
:103DC000240C5474DB681B0E937429B9C16841F04C
:103DD0002001C16010BC7047016941F02001016100
:103DE00010BC70470246002053690B4255D0012990
:103DF00021D0022924D0042927D0082928D010292D
:103E000029D020292CD040292DD0B1F5807F33D066
:103E1000B1F5007F33D0B1F5806F33D0B1F5006FCD
:103E200032D0B1F5004F34D0B1F5803F1ED0B1F59E
:103E3000003F1ED070479168334A11422DD02BE0CD
:103E4000D16811F0030F28D026E0D168090722E0DD
:103E5000D168C9061FE0116911F0030F1DD01BE0E6
:103E60001169090717E01169C90614E051680907CB
:103E700011E05168C9060EE09169C9070BE091692C
:103E8000890708E0916905E0916911F0700F04D08D
:103E900002E05168490700D50120704701291CD074
:103EA00004291DD008291DD020291ED040291ED04C
:103EB000B1F5807F1CBFB1F5007FB1F5806F1FD0D9
:103EC000B1F5006F18BFB1F5004F17D0B1F5803FC5
:103ED00010D0B1F5003F0FD070470B49816070479B
:103EE000082100E01021C1607047082100E0102186
:103EF00001617047082104E0102102E00021816186
:103F00000421416070470000010101000FB4F8B5C1
:103F1000FEF78AF8DFF8A0406068216888423CBF5D
:103F20004FF420628018401A142190FBF1F5FEF73F
:103F300077F8EDB27F2D0EDAFEF776F806A9ECC918
:103F4000606804F6F411ECC0606888420CBF04F1AC
:103F50000800143003E0F2BC00205DF814FB606040
:103F6000FEF75EF8F2BC01205DF814FB0FB4F8B563
:103F7000FEF75AF8DFF844406068216888423CBF89
:103F80004FF420628018401A142190FBF1F5FEF7DF
:103F900047F8EDB27F2D0EDAFEF746F806A9ECC918
:103FA000606804F6F411ECC0606888420CBF04F14C
:103FB00008001430D3E7CEE700000020080A0020F4
:103FC0000FB400B585B00B98022832D19DF82200BD
:103FD0008DF80A0001916946069800909DF820002E
:103FE0008DF808009DF821008DF809009DF8230048
:103FF0008DF80B009DF824008DF80C009DF825002D
:104000008DF80D009DF826008DF80E009DF8270014
:104010008DF80F009DF828008DF810009DF82900FC
:104020008DF811009DF82A008DF81200DFF8F800D5
:1040300032E0012832D19DF822008DF80A0001916A
:104040006946069800909DF820008DF808009DF8BC
:1040500021008DF809009DF823008DF80B009DF8D4
:1040600024008DF80C009DF825008DF80D009DF8BA
:1040700026008DF80E009DF827008DF80F009DF8A2
:1040800028008DF810009DF829008DF811009DF88A
:104090002A008DF812001148FFF712FE05B05DF8F6
:1040A00014FB02680021D21E022A13D94FF4F873C0
:1040B000D21A02D0121F0DD00DE04273C2724274A8
:1040C0000121827B962A1CBFA62AB62A03D186220A
:1040D000827300E001210846704700000064004040
:1040E000F0B587B0FDF7A0FF104801684268914223
:1040F00018D0F8C901AA1439F8C200F6F412914296
:104100000CBF00F1080114310160FDF789FF01A91E
:1041100084B068461422FDF7C9F90FBC00F031F8ED
:1041200007B0F0BD28E0000000680040000000205B
:10413000F0B587B0FDF778FF0E48016842689142FC
:104140001AD0F8C901AA1439F8C200F6F412914243
:104150000CBF00F1080114310160FDF761FF01A9F6
:1041600084B068461422FDF7A1F90FBC00F022F8D4
:1041700007B0F0BD080A002007B0BDE8F040FDF729
:104180004FBF0FB470B588B00CA97CC902A87CC021
:1041900002A8FFF786FF0220019002A984B06846BA
:1041A0001422FDF783F90FBCFFF70AFF08B070BCBB
:1041B0005DF814FB0FB400B583B00120019004A991
:1041C00084B068461422FDF771F90FBCFFF7F8FEC2
:1041D00003B05DF814FB000038B504464F4D402194
:1041E0002846FEF734FCE1B22846FEF721FC4021C8
:1041F0002846FEF725FC0028F9D0204632BD80B5C0
:104200000FF22C12136800938DF803000421684606
:10421000FEF7B8F801BD80B57A20FEF75DFB0146D8
:104220000FF2E010FEF700FD7C20FEF755FB014683
:104230000FF2E810FEF7F8FC7D20FEF74DFB01467B
:104240000FF2F010FEF7F0FC7E20FEF745FB014672
:104250000FF2FC10FEF7E8FC7F20FEF73DFB014665
:104260000FF20820FEF7E0FCFEF746FBBDE8024037
:1042700026A0FEF7D9BC10B500F0A6F924480068C6
:104280004FF47A71B0FBF1F0401EB0F1807F08D29C
:104290002049214A4860F0201070002088600720E3
:1042A000086000F0BBF91F49002008700FF284007D
:1042B000FEF7BAFC0FF2BC00FEF7B6FC0FF2F402F8
:1042C0000FF2E4010FF2D800FEF7AEFC0FF2F0009F
:1042D000FEF7AAFCFFF79FFF1348144900688842C5
:1042E0000BD10F4C02212046FEF739FC3220FEF79D
:1042F00009F802212046FEF730FC00F036FAFEF7FE
:1043000037F9FFF7EDFEFFF713FFF6E70D0A0000A0
:104310009820002010E000E023ED00E0004C004079
:10432000000C01401214002000E003080255015562
:10433000840192000D0A2A2A2A2A2A2A2A2A2A2AAB
:104340002A2A2A2A2A2A2A2A2A2A2A2A2A2A2A2ACD
:104350002A2A2A2A2A2A2A2A2A2A2A2A2A2A2A2ABD
:104360002A2A2A2A2A2A2A2A2A2A2A2A2A2A2A2AAD
:104370002A0000000D0A4C46204D42416E64726FC7
:104380006964204545456D6375426F6F746C6F615C
:10439000646572204275696C642061743A000000A3
:1043A00025732025730000004170722031392032BE
:1043B0003031370031343A30393A333600000000BA
:1043C0000D0A2A2A2A2A2A2A2A2A2A2A2A2A2A2A8A
:1043D0002A2A2A2A2A2A2A2A2A2A2A2A2A2A2A2A3D
:1043E0002A2A2A2A2A2A2A2A2A2A2A2A2A2A2A2A2D
:1043F0002A2A2A2A2A2A2A2A2A2A2A2A2A0D0A0D77
:104400000A0000000D0A5243435F464C41475F508B
:10441000494E5253542069733A2564000D0A5243A1
:10442000435F464C41475F5346545253542069738F
:104430003A2564000D0A5243435F464C41475F49A9
:104440005744475253542069733A256400000000D2
:104450000D0A5243435F464C41475F57574447520A
:1044600053542069733A2564000000000D0A52433A
:10447000435F464C41475F4C50575252535420695A
:10448000733A25640000000080B5FEF739F94FF457
:104490008030FEF754F9FEF76BF9474901280870A0
:1044A00023D11020FFF784F90220FFF77BF90020C9
:1044B000FEF78AF90020FEF793F90020FEF78BF94A
:1044C0004FF4E0114FF48030FEF766F90120FEF75B
:1044D00068F93920FEF700FA0028FAD00220FEF72A
:1044E00067F9FEF76CF90828FBD101BDF8B5012189
:1044F0001C20FEF7CDF9314C324D314E0220208088
:1045000021460320A0704FF480571020E070284609
:10451000FEF7C6FA02212846FEF721FB4FF4806021
:10452000208021461020E0700120A0703046FEF768
:10453000B7FA4FF40070208021461020E07001206F
:10454000A0703046FEF7ACFA4FF480702080214610
:104550004820E0700120A0703046FEF7A1FA4FF429
:104560000060208021464820E0703046FEF798FA2F
:104570001820E070278021463046FEF791FA482047
:10458000E070278021462846FEF78AFA4FF4005053
:10459000208021461820E0702846FEF781FA4FF46B
:1045A00000713046FEF7D9FA3046BDE8F4404FF4CA
:1045B0008061FEF7D2BA000071380020A0380020D8
:1045C00000080140000C014080B5FFF75DFFFFF7D8
:1045D0008DFF01214FF0C050FEF763F9012000F07C
:1045E00027F9FEF733FBFDF7C8FDFDF721FE00F0CC
:1045F00025F900214FF00060FEF7E7FABDE8024020
:104600004FF44070FEF7AEBA80B5FEF76AFB00F0DB
:1046100051F9BDE80140FDF76CBE000080B57D207A
:10462000FEF75AF908B1FEF767F945F25550FEF763
:10463000E1FA0320FEF7E1FA40F6C410FEF7E0FAD3
:10464000FEF7E1FABDE80140FEF7E2BA38B563488B
:1046500063490068604C884204BF6078002816D126
:104660000220FFF7CCFD5F48416940F6B832914225
:104670000CD300214161A07840B9FEF7C4FA0220B2
:10468000FFF7BDFDBDE83140FDF7D1BE31BD0020D3
:10469000A0704F4D0FF26810FEF7C6FA28684D491A
:1046A0000840B0F1005F09D1FFF7AEFF6868A06174
:1046B0006060286880F3088860688047FEE74648A5
:1046C000434BC361484B8360484B0361484BC36015
:1046D0000220107000200860704770B582B0154647
:1046E000002200924FF488623B4CA6186B4632467B
:1046F000FEF7E6FC01280ED0022803D0B0F1FF3F00
:104700001ED073BD0FF20C10FEF78EFAA0680100E8
:1047100010D080470EE02DA0FEF786FA236918001E
:1047200004D00098E16982B230469847E069009968
:104730000818E0612B480169B1B10021016173BD26
:104740000FF2E000FEF770FAE068010018BF804742
:1047500000206061A0602061E0602870A0702148A6
:10476000416909B10021416173BD10B51A4C20782F
:1047700018B102280BD002D31BE01E4800E01E48EF
:10478000606118480169B1B10021016113E01B4863
:10479000606142F21072002060701248016991421B
:1047A00009D300210161217001206070FEF72BFA0E
:1047B00001E001202070FEF726FA6369224604F129
:1047C000200104F12600BDE8104018472E0000002B
:1047D000008000080000FE2F1014002000E00308F5
:1047E0000255015574380020294C0008ED4B000893
:1047F000714C00084D460008BF460008DB46000823
:104800000A0D52756E546F5573657250726F6772F0
:10481000616D00000D0A557064617461696E672EE8
:10482000000000000D0A594D5F4558495400000032
:10483000014908607047000020000E4200B585B0B5
:1048400001210120FEF72DF84FF08040FEF75CFAC1
:104850000020ADF80600ADF80A0001A940F2E730EB
:10486000ADF808004720ADF804004FF08040FEF797
:104870001FFB1C208DF800000A208DF8010000208D
:104880008DF8020001208DF803006846FEF76FF9ED
:1048900000214FF08040FEF764FB012201214FF020
:1048A0008040FEF756FB01214FF08040FEF747FBAA
:1048B00005B000BD80B5002201214FF08040FEF719
:1048C00048FBBDE8044000214FF08040FEF737BBB5
:1048D0004048414A82B0016841F0010101604168ED
:1048E000114041603D4A016811400160016821F4B6
:1048F00080210160416821F4FE014160016821F0DE
:10490000A05101604FF47F0181600021C1620191DB
:104910000091016841F480310160016801F40031C7
:1049200000910199491C0191009919B90199B1F5BA
:10493000A06FF2D10168490C01F0010100910099CA
:10494000012941D126490A6842F010020A600A682A
:10495000920892000A600A6842F002020A60416806
:10496000204A416041684160416841F48061416092
:10497000C16A1140C162C16A41F4833141F044010E
:10498000C162016841F08061016001680901FCD5E4
:10499000416821F47C114160416841F4E8114160B3
:1049A000016841F08071016001688901FCD54168AE
:1049B000890889004160416841F002014160416815
:1049C00001F00C010829FAD14FF000600649086097
:1049D00002B07047001002400000FFF0FFFFF6FE3B
:1049E0000020024000F0FEFF08ED00E0637C777BD2
:1049F000F26B6FC53001672BFED7AB76CA82C97DDB
:104A0000FA5947F0ADD4A2AF9CA472C0B7FD93266B
:104A1000363FF7CC34A5E5F171D8311504C723C36F
:104A20001896059A071280E2EB27B27509832C1AB3
:104A30001B6E5AA0523BD6B329E32F8453D100ED0D
:104A400020FCB15B6ACBBE394A4C58CFD0EFAAFBF1
:104A5000434D338545F9027F503C9FA851A3408FB9
:104A6000929D38F5BCB6DA2110FFF3D2CD0C13ECD1
:104A70005F974417C4A77E3D645D197360814FDC66
:104A8000222A908846EEB814DE5E0BDBE0323A0A4A
:104A90004906245CC2D3AC629195E479E7C8376DCE
:104AA0008DD54EA96C56F4EA657AAE08BA78252EF3
:104AB0001CA6B4C6E8DD741F4BBD8B8A703EB5667C
:104AC0004803F60E613557B986C11D9EE1F898116D
:104AD00069D98E949B1E87E9CE5528DF8CA1890D5C
:104AE000BFE6426841992D0FB054BB1652096AD5F2
:104AF0003036A538BF40A39E81F3D7FB7CE33982D3
:104B00009B2FFF87348E4344C4DEE9CB547B943221
:104B1000A6C2233DEE4C950B42FAC34E082EA16669
:104B200028D924B2765BA2496D8BD12572F8F66440
:104B300086689816D4A45CCC5D65B6926C704850BB
:104B4000FDEDB9DA5E154657A78D9D8490D8AB0070
:104B50008CBCD30AF7E45805B8B34506D02C1E8F99
:104B6000CA3F0F02C1AFBD0301138A6B3A911141D5
:104B70004F67DCEA97F2CFCEF0B4E67396AC7422BE
:104B8000E7AD3585E2F937E81C75DF6E47F11A713C
:104B90001D29C5896FB7620EAA18BE1BFC563E4B75
:104BA000C6D279209ADBC0FE78CD5AF41FDDA83337
:104BB0008807C731B11210592780EC5F60517FA977
:104BC00019B54A0D2DE57A9F93C99CEFA0E03B4DA6
:104BD000AE2AF5B0C8EBBB3C83539961172B047E1A
:104BE000BA77D626E169146355210C7D70B582B081
:104BF0000D46044616460095FEF705F8751902E0C5
:104C00000098801C00900098A8420BD22188009840
:104C1000FEF707FE34F8020B009909888842EFD0AE
:104C2000002076BD012076BD00207CB500900424D4
:104C3000FEF7C8FD4FF4483001900C4E0198C50AAC
:104C4000400518BF6D1C0AE0FDF7DDFF009806EB7C
:104C5000C020FEF7C9FD04460098401C0090009853
:104C6000A84201D2042CEFD073BD000000800008E0
:104C7000FEF7B2BDF0B4016844688368014401EBFB
:104C80005402E40748BF4B44914202D1F0BC0C30BF
:104C9000704711F8015B15F0030604BF11F8014BD2
:104CA000E61C2C090F2C07D111F8014B0F3403E03F
:104CB00011F8017B03F8017B761EF9D1002CE3D0BB
:104CC000AD0811F8016B05F00305032D08BF11F8BD
:104CD000015B06EB05256D42A41C1D44D4D015F8DC
:104CE000016B03F8016B641EF9D1CDE719E050F8B0
:104CF000041BCB0744BFA9F101035918121F00235D
:104D0000042A41F8043BF9D25FEA827C0B4604D5C1
:104D10004FF0000CA1F800C09B1CD10744BF00213C
:104D2000197050F8042B002AE1D1704701000000EF
:104D30000200000004000000080000001000000055
:104D40002000000040000000800000001B00000068
:104D50003600000010B5074979441831064C7C44F0
:104D6000163404E00A68081D114488470146A14230
:104D7000F8D110BD080000002400000071FFFFFF03
:104D8000AC0A0000002E002000000000E9FEFFFF3A
:104D900074010000E80100000000002000F00BF8A2
:104DA000002801D0FFF7D6FF0020AFF30080FFF707
:104DB00062FA00F002F80120704700F001B800002C
:104DC0000746384600F002F8FBE7000080B5AFF375
:104DD0000080024A11001820ABBEFBE7260002004B
:104DE00038B504460D46284600F006F8A84218BF1C
:104DF0000024204632BD00000149FFF7EDB900BF95
:104E0000BC2000200E0B0D09090E0B0D0D090E0B19
:104E10000B0D090E0148804701480047D1480008A2
:104E2000254E0008AFF30080AFF30080FFF7B6FF18
:104E3000FFF7FEBFFFF7FEBFFFF7FEBFFFF7FEBFA6
:104E4000FFF7FEBFFFF7FEBFFFF7FEBFFFF7FEBF96
:104E5000FFF7FEBFFFF7FEBFFFF7FEBFFFF7FEBF86
:104E6000FFF7FEBFFFF7FEBFFFF7FEBFFFF7FEBF76
:104E7000FFF7FEBFFFF7FEBFFFF7FEBFFFF7FEBF66
:104E8000FFF7FEBFFFF7FEBFFFF7FEBFFFF7FEBF56
:104E9000FFF7FEBFFFF7FEBFFFF7FEBFFFF7FEBF46
:104EA000FFF7FEBFFFF7FEBFFFF7FEBFFFF7FEBF36
:104EB000FFF7FEBFFFF7FEBFFFF7FEBFFFF7FEBF26
:104EC000FFF7FEBFFFF7FEBFFFF7FEBFFFF7FEBF16
:104ED000FFF7FEBFFFF7FEBFFFF7FEBFFFF7FEBF06
:104EE000FFF7FEBFFFF7FEBFFFF7FEBFFFF7FEBFF6
:104EF000FFF7FEBFFFF7FEBFFFF7FEBFFFF7FEBFE6
:104F0000FFF7FEBF20020800002004F2FF0001F1BD
:104F1000FF01F1FF01F1FF01F1FF01F1FF01F1FFDD
:104F200001F1FF01F1FF01F15E012002100A0020F2
:104F300004F2FF0001F1FF01F1FF01F1FF01F1FFB8
:104F400001F1FF01F1FF01F1FF01F1FF01F17B012F
:104F5000F002FF8000080001F1FF01F1FF01F1FF05
:104F600001F1FF01F1FF01F1FF01F1A20120025C5B
:104F70001C002004FDEF2C08F404F1641D002064E3
:104F80001D08F404F16C1E00206C1E082002741F22
:104F9000002004FDF3440B200201020304047C05FD
:104FA00006070809020406580C61141C0500A24AF1
:104FB000048DF8119A2010158DF812006946DFF85B
:104FC0006C00FFF7C7FF28E040F20140009008188E
:104FD000800C02040101E837002038380020E8374F
:104FE00004F4042DF9200020E0206852FF01F113A1
:084FF00044412CF5A0D602019A
:0400000508004E257C
:00000001FF
