:020000040800F2
:20000000901B0020ED010008090A00080B0A00080F0A0008130A0008170A00080000000078
:200020000000000000000000000000001B0A00081D0A0008000000001F0A0008210A000800
:20004000070200080702000807020008070200080702000807020008070200080702000818
:200060000702000807020008070200080702000807020008070200080702000807020008F8
:200080000702000807020008070200080702000807020008070200080702000807020008D8
:2000A00007020008070200080702000807020008490A00087D0A00080702000807020008F0
:2000C0000702000807020008070200080702000807020008A50A0008590B00080702000897
:2000E0000702000807020008070200080000000000000000000000000000000000000000CD
:20010000000000000000000007020008070200080702000807020008070200080702000879
:20012000070200080702000807020008070200080702000807020008070200080702000837
:200140000702000807020008070200080702000800F002F800F03AF80AA090E8000C82445B
:200160008344AAF10107DA4501D100F02FF8AFF2090EBAE80F0013F0010F18BFFB1A43F072
:20018000010318471C3B00003C3B0000103A24BF78C878C1FAD8520724BF30C830C144BF8E
:2001A00004680C60704700000023002400250026103A28BF78C1FBD8520728BF30C148BFA9
:2001C0000B6070471FB51FBD10B510BD03F031FD1146FFF7F7FF00F052F803F04FFD03B427
:2001E000FFF7F2FF03BC03F053FD00000948804709480047FEE7FEE7FEE7FEE7FEE7FEE708
:20020000FEE7FEE7FEE7FEE704480549054A064B704700003D1800085101000890150020DD
:20022000901B0020901700209017002030B5224800684FF47A72B0FBF2F1481EB0F1807FEB
:2002400000D31BE0481E4FF0E022506150170F22002807DA13071D0E184B00F00F04241FE9
:200260001D5503E013071C0E154B1C5400BF00204FF0E02290610720106100BF30BD00BF01
:2002800000F082FDFFF7D2FF00F035F84FF400510C4801F074FF4FF480710A4801F071FFD8
:2002A0004FF40041084801F06CFF03E000F0E5F801F0C4F9FAE700005400002018ED00E076
:2002C00000E400E000100140000C0140012080F3138800BF00BFBFF34F8F8D48006800F44E
:2002E000E0608C490843001D89490860BFF34F8F00BF00BFFEE710B57D2002F04BF808B104
:2003000002F063FA45F2555001F0DAFF032001F0DAFF40F6C41001F0D9FF01F0DAFF01F06D
:20032000DDFF10BD10B57C4800687C490840B0F1005F11D100F036FD774840687849086081
:2003400008460068774908607349086880F3088800BF74480068804710BD70B504460D4657
:20036000164671480068714988421AD170480078B8B97048406940F6B831884204D30020AF
:200380006C494861012000E00020A0B16A48007888B94FF40041694801F0F1FE00F0FBFF23
:2003A00009E0002064490870FFF7BCFF64A000F0E3FF00BFFEE770BD10B5574B634C23601E
:2003C000634B644C2360644B644C2360644B654C23600223137000230B6010BDF8B505467C
:2003E0000E461446002000906B465F4A3146284600F0B4F9B0F1FF3F2CD0012810D00228B5
:2004000039D15448006810B15248006880474948006918B100204749086100E000BF2AE0BF
:200420004E48006838B1009882B2484801684E484A4B1B689847454800680099084443491D
:2004400008603C48006918B100203A49086100E000BF10E04348006810B142480068804776
:200460000020424908603B4908603C4908603D490860207000BF00BFF8BD10B53C4800781E
:2004800020B101280ED0022834D117E03948374908602848006918B100202649086100E07B
:2004A00000BF2BE03448314908602248006918B100202049086100E000BF1FE02F482B49FD
:2004C000086000201A4908701A48006942F21071884204D3002017490861012000E000208E
:2004E00038B100202249087001201149087001F0F0FE03E001201E49087000BF00BF01F0EC
:20050000E8FE1B4A1E49881D184B1B68984710BD0CED00E00000FA05004000080000FE2FA5
:20052000240000202000002000E00308025501551C000020A00800201D000020000C014011
:200540000A0DD4CBD0D0CAA7B0DC210010000020D9050008000000209D050008080000201F
:2005600019060008040000209C0400200C000020280000205B030008B9030008DD030008EA
:200580007C00002001B5002000994A05520D03D0012202EBD12000E0C80A08BDF8B506465E
:2005A0000C4617463546009401F093FE0EE02988009801F062FB288800990988884201D001
:2005C0000020F8BDAD1C0098801C0090E01900998842ECD80120F4E738B504240025002043
:2005E000009001F002FA4FF44830FFF7CBFF05460CE001F06EFE0A4A1314009903FB01203C
:2006000001F038FA04460098401C00900098A84201D2042CEDD038BD10B501F0F2F910BD44
:200620000040000830B502460B460020002116E012F8015B80EA052008210EE010F4004F5E
:2006400005D041F2210484EA4004A0B203E04FF6FF7404EA40004C1EA1B20029EED11C00DF
:20066000A3F10105ABB2E3D130BD2DE9F04704460D4617469846DDF820900026B246207882
:20068000012801D180261DE02078022801D1460218E02078042802D15520BDE8F087207828
:2006A000032801D10020F8E72078182807D16078182801D10020F0E76FF00500EDE74FF036
:2006C000FF30EAE76078484502D06FF00100E4E7A0786FEA0901C9B2884202D06FF00200C5
:2006E000DBE7701D854202D06FF00300D5E7B1B2E01CFFF797FF8246681E215CA81E205CFC
:2007000041EA0020504502D06FF00400C5E73246E11C384603F013FAC8F800600120BCE741
:2007200037B50D46144600BF0121684600F05AFD0128F9D19DF80000062802D10020206021
:200740000BE09DF80000152807D12068401C20602068052801DD042028703EBD2DE9F84305
:2007600007460C46154698464FF00009002696480078062813D2DFE800F003138491F8F6FA
:20078000002092490860924908609249087001208D4908709048C06800208F49C8600FE1E1
:2007A0008D48C06840F6B831884204D300208A49C860012000E0002040B1854A8249432052
:2007C000FFF7AEFF002080490870F9E0206800B9F6E07E480078009043462A463846216857
:2007E000FFF743FF46B2002020601EB3012E38D1E87850B979480078012806D1052072499E
:20080000087000207549087013E0714A6E490620FFF786FF02206C49087081466B480068D3
:20082000401C6A49086000206A4908706C4800F082FA1FE06748007840B10020634908608B
:20084000634A61490620FFF76BFF04E0604A5E491520FFF765FF5F480078401C5D4908705E
:2008600008E000205B490870594A57491520FFF757FF00BF00BF5848C06800205649C86063
:200880009EE0032050490870514A4320FFF748FF5148C06800205049C86091E04E48C0689A
:2008A00040F6B831884204D300204B49C860012000E0002018B104204349087080E02068A2
:2008C00000B97DE041480078009043462A4638462168FFF7CAFE46B2002020603E4800692C
:2008E00018B100203C49086100E000BFBEB1012E02D0552E27D118E04FF001093348006873
:20090000401C32490860002032490870304A2E490620FFF705FF0020304908701CE02C4AF1
:2009200029491520FFF7FCFE16E0002027490860012025490870264A0620FFF7F1FE01208F
:200940002649087008E0002022490870204A1E491520FFF7E5FE00BF00BF1F48C0680020B9
:200960001D49C8602CE018E0FFE7194A16490620FFF7D6FE164A14491820FFF7D1FE144A35
:2009800011491820FFF7CCFE4FF0FF3900200E49087014A000F0F0FC12E00D4A0A4906204D
:2009A000FFF7BEFE4FF0FF39002007490870114801F060F8042802D10FA000F0DDFC00BF4E
:2009C00000BF4846BDE8F8832C00002030000020340000202D000020A0080020380000204D
:2009E00020A107000D0ABDD3CAD5B4EDCEF3A3A1A3A1000000E003080D0AC9FDBCB6CDEA0E
:200A0000B3C9A3A1A3A10000704700BFFEE700BFFEE700BFFEE700BFFEE770477047704766
:200A20007E480068401C7D4908607D48007850B17B480078401E7A4908700846007810B95D
:200A4000002078490870704710B500240121880702F0CFFD012810D10121800702F0DAFDB2
:200A600000BF08E0704850F82400401C6E4941F82400601C84B2062CF4DB10BD10B50121D4
:200A80006A4802F0B6FD01280BD10121674802F0C1FD00F029FA664880886549086000207A
:200AA000888010BD10B540F22771624802F076FF012825D140F227715E4802F099FF5E4802
:200AC000006880B15C4882888088401C5A4B9880981D815C574802F0DDFE57480068401E4B
:200AE0005549086037E0002240F22771514802F070FE012240F226614E4802F06AFE2AE01E
:200B000040F226614B4802F049FF88B140F22661484802F06DFF002240F22661454802F015
:200B200058FE00204449086001204449087012E040F225513F4802F031FF60B140F2255128
:200B40003C4802F055FF3B4802F0A8FEC4B2204600F045FC00BF10BD10B540F22771384808
:200B600002F01CFF012825D140F22771344802F03FFF3148006880B12F4882888088401CDC
:200B80002D4B9880981D815C2D4802F083FE2A480068401E284908603FE0002240F227712F
:200BA000274802F016FE012240F22661244802F010FE32E040F22661214802F0EFFE88B12C
:200BC00040F226611E4802F013FF002240F226611B4802F0FEFD002017490860012017495E
:200BE00008701AE040F22551154802F0D7FEA0B140F22551124802F0FBFE114802F04EFEE2
:200C0000C4B210480078012803D1204600F0E7FB02E0204600F0FAFB00BF10BD4800002038
:200C20004C00002051000020A0080020000400407C00002000380140B80800204000002076
:200C4000004400401D00002010B501F059FB4FF4803001F07CFB01F0B9FB56490870084664
:200C60000078012825D1102000F0B4FE022000F09DFE002001F01DFC002001F02CFC0020DB
:200C800001F020FC4FF4E0114FF4803001F0C7FB012001F0D0FB00BF392001F07BFB0028E9
:200CA000FAD0022001F0F7FB00BF01F0FDFB0828FBD110BD10B501217C2001F03CFD4FF602
:200CC000FF703D4908800020C8703C4801F0ACF939493B4801F0A8F937493A4801F0A4F9FE
:200CE0003549394801F0A0F93349384801F09CF900217C2001F01FFD0121182001F01BFDBC
:200D00004FF404502C4908801020C870012088702C4801F089F90121082001F00CFD4FF450
:200D20000040254908801020C87001208870244801F07AF910BD01B502E00098401E009041
:200D400000980028F9D108BD10B545F2555001F0B7FA042001F0B7FA4FF49C7001F0B6FA4B
:200D6000002001F0ADFA01F0B9FA01F0B2FA10BD704710B500214FF0006002F08BFE4FF4B3
:200D8000407002F04FFE10BD10B5FFF75DFFFFF7F0FFFFF78FFF00F05DF800F017F900F0E2
:200DA00017F810BD10B500F09FF800F047F800F08FF910BD3E0000203A0000200008014096
:200DC000000C01400010014000140140001801401FB54FF47A740121084601F0B9FCE006C6
:200DE00001F00EFD0020ADF80200ADF80600601EADF804004720ADF800006946E00601F0CC
:200E0000D3FD1C208DF80C000A208DF80D0000208DF80E0001208DF80F0003A802F007FE6F
:200E20000021E00602F0B0FB01221146900702F032F90121880702F013F91FBD10B500226E
:200E40000121880702F027F900214FF0804002F007F910BD1FB541F288340121022001F0F8
:200E600077FC2C4801F0CCFC0020ADF80200ADF80600601E80B2ADF804004020ADF8000002
:200E80006946244801F090FD1D208DF80C0006208DF80D0000208DF80E0001208DF80F00CB
:200EA00003A802F0C4FD00211A4802F06DFB00220121184802F0EFF80121164802F0AAFB63
:200EC0000021144802F0CCF81FBD10B50021114802F05AFB01210F4802F0C2F801221146DE
:200EE0000C4802F0D8F810BD10B50021094802F0B7F80021074802F047FB00220121054802
:200F000002F0C9F810BD10B504462146014802F03BFB10BD0004004000B587B0012144F215
:200F2000090001F008FC02A802F024FC4FF4964002900020ADF80E00ADF80C00ADF8100013
:200F40000C20ADF8120002A9FE4802F0AAFB4020ADF8180001208DF81A0018208DF81B0071
:200F600006A9F94801F060F88020ADF8180001208DF81A0004208DF81B0006A9F24801F07D
:200F800053F80121042001F01EF9012240F22771EC4802F01EFC012240F22551E94802F09D
:200FA00018FC25208DF8040001208DF8050000208DF8060001208DF8070001A802F037FD7D
:200FC0000121E04802F0F9FB07B000BD00B587B00121052001F0AFFB0121480401F0B8FB8D
:200FE00002A802F0C7FB4FF4E13002900020ADF80E00ADF80C00ADF810000C20ADF8120091
:2010000002A9D24802F04DFB0820ADF8180004208DF81B0006A9CE4801F006F80420ADF8AB
:20102000180001208DF81A0018208DF81B0006A9C74800F0F9FF012240F22771C34802F070
:20104000C8FB012240F22551C04802F0C2FB26208DF8040001208DF8050000208DF8060026
:2010600001208DF8070001A802F0E1FC0121B74802F0A3FB07B000BD10B500BFB54800782D
:201080000128FBD10021AF4802F097FB002240F22771AC4802F09DFB002240F22551A9489A
:2010A00002F097FB002240F22661A64802F091FB40F22771A34802F09BFC40F22661A14885
:2010C00002F096FC40F225519E4802F091FC10BD10B500BF9F4800780128FBD100219B48D6
:2010E00002F06BFB002240F22771984802F071FB002240F22551954802F06BFB002240F21B
:201100002661924802F065FB40F227718F4802F06FFC40F226618D4802F06AFC40F2255190
:201120008A4802F065FC10BD00218B4A116000BF894909688142FBD300BF00BF704700BFCF
:2011400000BF00BF00BF00BF00BF00BF00BF00BF00BF00BF704700B5FFF7F1FFFFF7EFFFE3
:20116000FFF7EDFFFFF7EBFFFFF7E9FF00BD00B5FFF7F1FFFFF7EFFF00BD00B5002000BF42
:2011800003E0FFF7F4FF411CC8B23228F9DB00BD00B5002000BF03E0FFF7E9FF411CC8B295
:2011A0000A28F9DB00BD00B5002000BF03E0FFF7DEFF411CC8B20528F9DB00BD70B504461E
:2011C0002146624802F066FBC82501E0FFF7C3FF80215E4802F0CCFB18B9681EC0B2050057
:2011E000F4D170BD70B505460C465C48006818BB002C21DDB4F5836F1EDC5648007801285E
:201200001AD115F8011B514802F044FB002051490870601E5149086000208880621E294627
:201220004E48801D02F08BFC012240F22771474802F0CFFA012070BD0020FCE701B50121A2
:201240006846FFF7CFFF08BD10B50446F02C08D0F32C0AD0FC2C0CD0FF2C0ED1FFF7EEFF6A
:201260000BE0F020FFF7EAFF07E0F320FFF7E6FF03E0FC20FFF7E2FF00BF00BF10BD70B579
:201280000546EE78002036490870012035490870711D2846FFF7A6FF012801D0002070BD91
:2012A0000020304908703048007830B12E480078FFF7CAFF00202C4908704FF4FA640FE002
:2012C00027480078FF2801D10120E8E724480078FC2801D10020E2E7FFF749FF601E84B289
:2012E000002CEDD10020DAE710B504462046FFF7C6FF10BD70B505460C461848006800BBE1
:20130000002C37DDB4F5836F34DC12480078012830D115F8011B0B4802F0BCFA00200D494C
:201320000870601E0D49086000208880621E29460A48801D02F003FC012240F227710148CC
:2013400014E017E000380140000C014000440040000801404000002048000020B808002067
:2013600041000020430000204400002002F031FA012070BD0020FCE770B5044600252046DD
:2013800002F0BEFB85B200BF29462046FFF72AFF0128F9D170BD70B500252E20D44908706B
:2013A00090204870212088700120C8705520087108464578022404E0CD48005D4540601CBD
:2013C000C4B2CB48C078C01CA042F5DAC848C078001DC7490D540846FFF786FF70BD10B52E
:2013E0000446C4488088B0F5836F00DB10BDC148006800B1FAE7BF498888411CBD4A9180C0
:20140000911D0C54FFF761FD00BFEFE72DE9F0410546002600242F461420B7490870B748D9
:201420000078322802DB0020B4490870B448B34909784754B1480078002837D1B048AF49C3
:201440000978405C2E2803D10120AC490870F2E0AB48AA490978405CF0280CD0F32811D0F2
:20146000FC2816D0FF281BD10120A6490870FF20A549087015E00120A2490870F020A249CE
:2014800008700EE001209F490870F3209E49087007E001209B490870FC209B49087000E037
:2014A00000BF00BF002094490870C4E093480078012822D1924891490978405C912816D0B6
:2014C0008F488E490978405C552810D08F480078012803D1F3208E49087002E0F320FFF74B
:2014E000B3FE00208549087083490870A3E083480078401C814908709DE080480078032845
:201500000CD17F487D490978405C82490870084600782F2801DD0020087087E077480078D0
:201520000328FADD754801787A480078001D81427CDB73484678022404E07148005D4640E3
:20154000601CC4B273480078C01C8442F5DD6C4970480078001D085CB04255D100206749A4
:2015600008700120674908706B48007800EBC00101EB0010694901EB400090F831005528C3
:2015800036D000240DE05E48005D6349097801EBC10202EB0111614A02EB41010855601CA3
:2015A000C4B2312CEFDB55205B49097801EBC10202EB0111594A02EB410181F8310056482C
:2015C0000078132805DA54480078401C5249087002E00020504908704C480078012803D1DA
:2015E000FF204B4908700EE0FF20FFF72DFE0AE046480078012803D1FC204549087002E0A1
:20160000FC20FFF721FE17E000203C4908703A4908703E480078012804D1F0203C49087081
:2016200003E003E0F020FFF70FFE05E033480078401C3249087000BFBDE8F08130B5FF21D0
:20164000374A384B1B78132B02DD0023354C2370002049E0334B1B7803EBC30404EB03138B
:201660002E4C04EB430393F83130552B2FD1FF212C4B1B7803EBC30404EB0313274C04EB09
:2016800043035B78912B22D1264B1B7803EBC30404EB0313214C04EB43039B78612B05D1AD
:2016A0000123214C2370214C237000E000BF00BFAA231C4C247804EBC40505EB0414174DB3
:2016C00005EB440484F8313000BF00BF00BF154B1B785B1C134C237023461B78132B01DD44
:2016E00000232370431CD8B21428B3DB30BD0000121500207C0000204C00002051000020D4
:20170000E0140020420000204100002043000020440000204E0000204F000020F810002026
:201720000255015550000020280000201D0000200CB50020019000909148006840F48030E0
:201740008F49086000BF8E48006800F4003000900198401C0190009818B90198B0F5A06F5C
:20176000F1D18748006810F4003F02D00120009001E000200090009801285AD181480068FC
:2017800040F010007F4908600846006820F0030008600846006840F00200086078484068F0
:2017A000774948600846406848600846406840F4806048600846C06A734908407049C86212
:2017C0000846C06A714908436D49C8620846006840F08060086000BF6948006810F0006F37
:2017E000FAD06748406820F47C10654948600846406840F4E81048600846006840F0807032
:20180000086000BF5E48006810F0007FFAD05C48406820F003005A4948600846406840F07A
:201820000200486000BF5648406800F00C000828F9D10CBD10B5FFF77BFF10BD10B55048DB
:20184000006840F001004E49086008464068504908404B494860084600684E4908404849B7
:2018600008600846006820F4802008600846406820F4FE0048600846006820F0A050086060
:201880004FF47F0088600020C862FFF7D3FF4FF000604149086010BDF0B500210020002325
:2018A0000024002200250026354F7F6807F00C0121B1042908D008294BD10BE0374FDFF8BC
:2018C000E0C0CCF800704AE0344FDFF8D4C0CCF8007044E02A4F7F6807F47010284F7F688B
:2018E00007F48033800C0D2801D0801C00E0062033B92C4F4743DFF8A8C0CCF8007027E09B
:201900001F4FFF6A07F480341D4FFF6A07F00F077A1C44B9214FB7FBF2F74743DFF880C020
:20192000CCF8007014E0164FFF6AC7F303177D1C134FFF6AC7F30327BE1C184FB7FBF5F7B6
:201940007743B7FBF2F74743DFF854C0CCF8007005E0124FDFF848C0CCF8007000BF00BFB2
:20196000074F7F68C7F30317DFF83CC01CF807100B4F3F68CF40DFF828C0CCF80070F0BDA8
:20198000001002400020024000F0FEFF440601000000FFF0FFFFF6FE08ED00E000127A0019
:2019A0005400002000093D005800002001460020FE4A106800F03800084310607047FB49F0
:2019C000096821F00801F94A116011460968014311607047F549096821F01001F34A116015
:2019E00011460968014311607047F148EF494860F04848607047EE48EC494860ED48486013
:201A00007047EA48006940F08000E84908617047E648006940F08000E449086170470420BB
:201A2000E249C96811F0010F01D001200EE0DF49C96811F0040F01D0022007E0DB49C968BD
:201A400011F0100F01D0032000E00420704700B502460423FFF7E3FF034603E0FFF7DFFFBB
:201A60000346521E012B01D1002AF7D102B90523184600BD30B5044604254FF43020FFF7DE
:201A8000E6FF0546042D17D1C848006940F00200C649086108464461006940F040000861A5
:201AA0004FF43020FFF7D3FF0546C048006941F6FD710840BD490861284630BD10B504246B
:201AC0004FF43020FFF7C3FF0446042C16D1B748006940F00400B54908610846006940F070
:201AE000400008614FF43020FFF7B1FF0446AF48006941F6FB710840AC490861204610BDDE
:201B000000B502460423FFF78AFF034603E0FFF786FF0346521E012B01D1002AF7D102B917
:201B20000523184600BD10B504244FF43020FFF7E7FF0446042C16D19C48006940F0040024
:201B40009A4908610846006940F0400008614FF43020FFF7D5FF04469448006941F6FB711A
:201B6000084092490861204610BD00208F49C96911F0020F01D0012000E00020704730B5DC
:201B8000A5250424FFF7F1FF00B100254FF43020FFF75DFF0446042C3AD1854883498860AC
:201BA000844888600846006940F0200008610846006940F0400008614FF43020FFF747FFA2
:201BC0000446042C1BD17948006941F6DF710840764908610846006940F010000861764860
:201BE0000580E002FFF733FF0446052C10D06F48006941F6EF7108406C49086108E0052CC5
:201C000006D06A48006941F6EF71084067490861204630BD78B506460C46042500200090E4
:201C2000E802FFF714FF0546042D24D15F48006940F001005D4908613480E802FFF707FF56
:201C40000546042D10D1B01C0090200C00990880E802FFF7FCFE05465448006941F6FE71AE
:201C600008405249086106E05048006941F6FE7108404E490861284678BD70B504460D46DE
:201C80000426F002FFF7E3FE0646042E11D14748006940F00100454908612580F002FFF744
:201CA000D6FE06464148006941F6FE7108403F490861304670BD70B505460E460424E002C2
:201CC000FFF7C5FE0446042C17D1394837498860384888600846006940F0100008612E808A
:201CE000E002FFF7B4FE0446052C06D02F48006941F6EF7108402D490861204670BD2DE9C2
:201D0000F04304464FF6FF763746B046B1460425E443E6B2C4F30727C4F307484FEA146999
:201D2000E802FFF794FE0546042D49D120481F498860204888600846006940F01000086133
:201D4000FF2E06D01C4808300680E802FFF77FFE0546042D08D1FF2F06D017480A30078088
:201D6000E802FFF774FE0546042D0AD1B8F1FF0F07D011480C30A0F80080E802FFF767FE3A
:201D80000546042D0AD1B9F1FF0F07D00A480E30A0F80090E802FFF75AFE0546052D0FD011
:201DA0000248006941F6EF71084007E00020024023016745AB89EFCD00F8FF1F664908615A
:201DC0002846BDE8F08330B5054604244FF43020FFF73DFE0446042C41D160485E4988609E
:201DE0005F4888600846006940F0200008610846006940F0400008614FF43020FFF727FEA6
:201E00000446042C22D15448006941F6DF710840514908610846006940F0100008611DB150
:201E200000205049088002E0A5204E4908804FF43020FFF70CFE0446052C10D046480069B6
:201E400041F6EF7108404449086108E0052C06D04148006941F6DF7108403F4908612046A6
:201E600030BDF0B505460E46174604243B483A4988603B488860E002FFF7E9FD0446042C1B
:201E800019D13548006940F010003349086147F0F800304328433349891C0880E002FFF7BF
:201EA000D6FD0446052C06D02B48006941F6EF710840294908612046F0BD2748C069800835
:201EC00070472548006A704700202349096811F0200F01D0012000E00020704729B11E4AA5
:201EE000126902431C4B1A6104E01B4A12698243194B1A61704701460020012908D1164A57
:201F0000D26912F0010F01D0012008E0002006E0114AD2680A4201D0012000E0002070470A
:201F20000D49C860704704200B49C96811F0010F01D001200EE00849C96811F0040F01D06B
:201F4000022007E00449C96811F0100F01D0032000E00420704700000020024023016745F9
:201F6000AB89EFCD00F8FF1F10B50446CA48844208D10121042000F005FC0021042000F02F
:201F800001FC46E0C548844208D10121082000F0F9FB0021082000F0F5FB3AE0C048844233
:201FA00008D10121102000F0EDFB0021102000F0E9FB2EE0BB48844208D10121202000F0F7
:201FC000E1FB0021202000F0DDFB22E0B648844208D10121402000F0D5FB0021402000F0AA
:201FE000D1FB16E0B148844208D10121802000F0C9FB0021802000F0C5FB0AE0AC488442FC
:2020000007D10121801500F0BDFB0021A01500F0B9FB10BD10B50121084600F0B3FB00214E
:20202000012000F0AFFB10BD2DE9F041024600250026002000230024002791F803C00CF068
:202040000F0591F803C01CF0100F03D091F802C04CEA050591F800C0BCF1000F31D0146815
:2020600000202BE04FF0010C0CFA00F3B1F800C00CEA03069E4220D183004FF00F0C0CFAD4
:2020800003F7BC4305FA03FC4CEA040491F803C0BCF1280F06D14FF0010C0CFA00FCC2F8FC
:2020A00014C00AE091F803C0BCF1480F05D14FF0010C0CFA00FCC2F810C0401C0828D1D334
:2020C0001460B1F800C0BCF1FF0F34DD546800202EE000F1080C4FF0010808FA0CF3B1F876
:2020E00000C00CEA03069E4221D183004FF00F0C0CFA03F7BC4305FA03FC4CEA040491F8AE
:2021000003C0BCF1280F05D100F1080C08FA0CF8C2F8148091F803C0BCF1480F07D100F1D0
:20212000080C4FF0010808FA0CF8C2F81080401C0828CED35460BDE8F0814FF6FF710180C6
:20214000022181700421C17070470246002093680B4201D0012000E00020704701468868CE
:2021600080B2704702460020D3680B4201D0012000E0002070470146C86880B2704701611B
:202180007047416170470AB1016100E041617047C16070474FF480320A4382618161826117
:2021A00082698269704702460020424B18684FF68073184040EA021008433E4B186070474E
:2021C0003D49C8617047F0B50A46002300240021002500F00046B6F1004F02D1354EF1693B
:2021E00001E0344E7168C0F3034583B200F44016B6F5401F08D121F070612E4E766826F0F4
:2022000070662C4F7E6012E000F48016B6F5801F06D1032606FA05F4A14341F0706106E004
:20222000460D360103FA06F6B14341F0706122B1460D360103FA06F6314300F00046B6F17E
:20224000004F02D11B4EF16101E01A4E7160F0BD30B500228B071C0F0F2303FA04F2154B91
:2022600008338C1053F824309343124C08348D1044F8253023468C1053F824308C07240FE0
:2022800000FA04F423430B4C08348D1044F8253030BD0A490860704700080140000C014030
:2022A000001001400014014000180140001C0140002001400000014000002042DC00204280
:2022C0000E49086070470D49486070470B49886070474AF6AA200949086070474CF6CC4017
:2022E00006490860704701460020044AD2680A4201D0012000E0002070470000003000401C
:20230000F948006840F00100F749086008464068F6490840F449486008460068F44908409E
:20232000F14908600846006820F4802008600846406820F4FE0048600846006820F0A050C3
:2023400008604FF47F0088600020C8627047E649096821F48031E44A11601146096821F488
:2023600080211160B0F5803F03D0B0F5802F0ED106E0DD49096841F48031DB4A116007E001
:20238000D949096841F4A021D74A116000E000BF00BF704710B501460022002300204A1141
:2023A000012A02D1D04C236806E0022A02D1CE4C236A01E0CC4C636A01F01F02012494401B
:2023C0001C4201D0012000E0002010BD38B5002000900024002500BF3120FFF7DBFF0546CF
:2023E0000098401C00900098B0F5A06F01D0002DF2D03120FFF7CEFF08B1012400E0002457
:20240000204638BD01460020B74A106820F0F80040EAC10010607047B64908607047024601
:202420000020B14B586820F4741042EA01031843AD4B58607047AF490866704702460020B1
:20244000A94BD86AAC4B184042EA01031843A64BD862704701460020A34AD06A20F0F000FC
:202460000843D0627047014600209F4AD06A20F470600843D06270479E49886670470146B3
:202480000020994AD06A20F470400843D062704798490867704701460020934A506820F0F4
:2024A00003000843506070478F48406800F00C007047014600208C4A506820F0F0000843F5
:2024C0005060704701460020874A506820F4E06008435060704701460020834A506820F49F
:2024E000605040EAC1005060704729B17E4A527A02437D4B5A7204E07B4A527A82437A4B94
:202500005A7270477D490860704701460020764A506820F440400843506070477849086005
:2025200070477749091D086070470021754A11706D4A82F82010012802D0042808D103E03A
:202540000121704A117004E005216E4A117000E000BF00BF70476C49086070476249096AD4
:202560000143614A1162704767494439086070472DE9F041002100220025002300260024DA
:2025800000278C46DFF86081D8F8048008F00C0121B1042907D0082959D109E0DFF86C8153
:2025A000C0F8008058E0DFF86481C0F8008053E0DFF83481D8F8048008F47012DFF82881A6
:2025C000D8F8048008F48035920C0D2A01D0921C00E0062235B9DFF8388102FB08F8C0F867
:2025E000008033E0DFF80081D8F82C8008F48036DFF8F480D8F82C8008F00F0808F10104EE
:2026000046B9DFF80881B8FBF4F808FB02F8C0F800801BE0DFF8D080D8F82C80C8F3031813
:2026200008F10107DFF8C080D8F82C80C8F3032808F1020CDFF8D480B8FBF7F808FB0CF845
:20264000B8FBF4F808FB02F8C0F8008004E0DFF8BC80C0F8008000BF00BFDFF88C80D8F846
:20266000048008F0F0010909DFF8A88018F80130D0F8008028FA03F8C0F80480DFF868803B
:20268000D8F8048008F4E061090ADFF8888018F80130D0F8048028FA03F8C0F80880DFF8F6
:2026A0004880D8F8048008F46051C90ADFF8648018F80130D0F8048028FA03F8C0F80C80D5
:2026C000DFF82480D8F8048008F44041890BDFF8488018F80130D0F80C80B8FBF3F8C0F890
:2026E0001080BDE8F0810000001002400000FFF0FFFFF6FE00004242F0FFFEFFD800424235
:20270000C4054242201002408004424200127A0000093D00680000207800002029B1354AA7
:2027200052690243334B5A6104E0324A52698243304B5A61704729B12E4A926902432D4B89
:202740009A6104E02B4A926982432A4B9A61704729B1284AD2690243264BDA6104E0254A73
:20276000D2698243234BDA61704729B1214A926A0243204B9A6204E01E4A926A82431D4B97
:202780009A62704729B11B4AD2680243194BDA6004E0184AD2688243164BDA60704729B1B9
:2027A000144A12690243134B1A6104E0114A12698243104B1A6170470F49086070470F4947
:2027C000C86470470B49C87170470A48406A40F0807008494862704701460020054A926854
:2027E0000A4201D0012000E00020704701498872704700000010024040044242000042424B
:2028000010B50446FE48844208D10121C014FFF7B9FF0021E014FFF7B5FFC4E0B4F1804F49
:2028200008D101210846FFF7BAFF00210120FFF7B6FFB8E0F348844208D101210220FFF707
:20284000AEFF00210220FFF7AAFFACE0EE48844208D101210420FFF7A2FF00210420FFF770
:202860009EFFA0E0E948844208D101210820FFF796FF00210820FFF792FF94E0E448844260
:2028800008D101211020FFF78AFF00211020FFF786FF88E0DF48844208D101212020FFF73C
:2028A0007EFF00212020FFF77AFF7CE0DA48844208D101214014FFF765FF00216014FFF753
:2028C00061FF70E0D548844209D10121C804FFF759FF00214FF40020FFF754FF63E0D04827
:2028E000844209D101210805FFF74CFF00214FF48010FFF747FF56E0CA48844209D101218E
:202900004805FFF73FFF00214FF40010FFF73AFF49E0C548844208D101214020FFF73FFF08
:2029200000214020FFF73BFF3DE0C048844208D101218020FFF733FF00218020FFF72FFF53
:2029400031E0BB48844208D101218015FFF727FF0021A015FFF723FF25E0B648844209D160
:2029600001210804FFF70EFF00214FF48030FFF709FF18E0B048844209D101214804FFF720
:2029800001FF00214FF40030FFF7FCFE0BE0AB48844208D101218804FFF7F4FE00214FF43C
:2029A0008020FFF7EFFE10BD00220288944B98420ED0994B98420BD0B0F1804F08D0914BC7
:2029C000984205D0904B984202D0904B984204D14FF68F731A404B881A438D4B984207D0DD
:2029E0008C4B984204D04FF6FF431A40CB881A4302808B8883850B880385814B98420BD088
:202A0000854B984208D08B4B984205D08A4B984202D08A4B984201D10B7A03860123838276
:202A2000704770B5002400220023058C4FF6FE7635400584028C8388048B4FF68F752C402C
:202A4000B51E2C400D882C43751E2A400D892A434D882A436A4DA8420BD06F4DA84208D0F7
:202A6000744DA84205D0744DA84202D0734DA84213D14FF6F7752A404D892A434FF6FB75B8
:202A80002A408D882A434FF6FF652B404FF6FF552B408D892B43CD892B4383800483CD880B
:202AA0008586028470BD70B5002400220023058C4FF6EF7635400584028C8388048B48F62B
:202AC000FF752C404FF6FF452C400D884FF6FF7606EA05252C434FF6DF752A400D8906EAC0
:202AE00005152A434D8806EA05152A43444DA84202D0494DA8421DD14FF67F752A404D89CF
:202B00004FF6FF7606EA05152A434FF6BF752A408D8806EA05152A434FF6FF352B404FF2F0
:202B2000FF752B408D8906EA85052B43CD8906EA85052B4383800483CD880587028470BD5C
:202B400070B5002400220023058C4FF6FF6635400584028C8388848B4FF68F752C404FF60C
:202B6000FC752C400D882C434FF6FF552A400D894FF6FF7606EA05252A434D8806EA0525AB
:202B80002A431F4DA84202D0234DA8421DD14FF2FF752A404D894FF6FF7606EA05252A4322
:202BA0004FF6FF352A408D8806EA05252A434EF6FF752B404DF6FF752B408D8906EA051531
:202BC0002B43CD8906EA05152B4383808483CD888587028470BD70B5002200230024058C7C
:202BE0004EF6FF7635400584038C8488828B48F6FF752A404FF6FF452A400D8820E00000D2
:202C0000002C01400004004000080040000C0040001000400014004000340140004C0140C9
:202C2000005001400054014000180040001C004000200040004001400044014000480140CB
:202C40004FF6FF7606EA05252A434DF6FF752B400D8906EA05352B434D8806EA05352B4376
:202C6000FA4DA84202D0FA4DA84208D14BF6FF752C408D894FF6FF7606EA85152C43848059
:202C80008283CD88A0F84050038470BD828B4FF2FF331A408283828B4FF6FF7303EA01234A
:202CA0001A4382837047F0B50C461546002200210026078C4EF6FF7C07EA0C070784828B52
:202CC000018C4FF6FF7707EA043640F6FF473A404FF6FF7707EA05273A434FF6FF7707EA8A
:202CE00003373A43D94FB8420ED0D94FB8420BD0B0F1804F08D0D74FB84205D0D64FB842C4
:202D000002D0D64FB84206D14DF6FF77394046F48057394305E047F6FF57394044F480572C
:202D2000394382830184F0BD828B4FF6F3731A408283828B0A4382837047F0B50C46154661
:202D4000002200210026078C4FF6FF6C07EA0C070784828B018C4FF6FF7707EA04264FF683
:202D60000C773A404FF6FF7707EA03172F433A43B64FB8420ED0B64FB8420BD0B0F1804F7A
:202D800008D0B44FB84205D0B34FB84202D0B34FB84206D14FF6FF57394046F48077394327
:202DA00005E04FF2FF57394044F48077394382830184F0BD028B4FF2FF331A400283028BD0
:202DC0004FF6FF7303EA01231A4302837047F0B50C461546002200210026078C4FF6EF7C94
:202DE00007EA0C070784028B018C4FF6FF7707EA041640F6FF473A404FF6FF7707EA033788
:202E00003A434FF6FF7707EA05273A438F4FB8420ED08F4FB8420BD0B0F1804F08D08D4F53
:202E2000B84205D08C4FB84202D08C4FB84206D14FF6DF77394046F01007394305E04FF669
:202E40005F77394044F01007394302830184F0BD028B4FF6F3731A400283028B0A4302832F
:202E60007047F0B50C46154600220021068C4FF6FE773E400684028B018C4FF60C7632405F
:202E80007E1C06EA03162E433243704EB0420ED06F4EB0420BD0B0F1804F08D06D4EB0429C
:202EA00005D06D4EB04202D06C4EB04206D14FF6FD76314044F00106314305E04FF6F576CE
:202EC000314044F00106314302830184F0BD70B505460C465D4885420ED05D4885420BD0C8
:202EE000B5F1804F08D05B48854205D05A48854202D05A48854200D100E000BF208850B981
:202F00002389A28861882846FFF7ABFFE1882846FFF79EFF25E0208804280AD12389A288F0
:202F200061882846FFF753FFE1882846FFF742FF17E0208808280AD12389A288618828460D
:202F4000FFF7FBFEE1882846FFF7EEFE09E02389A28861882846FFF7A6FEE1882846FFF74C
:202F600095FE70BD2DE9F04105460C4600260127608808B9022600E00026A088012801D165
:202F8000022700E001272088A0B92389A28861882846FFF766FFE1882846FFF759FF2389A6
:202FA0003A4631462846FFF712FFE1882846FFF701FF13E02389A28861882846FFF707FFBC
:202FC000E1882846FFF7F6FE23893A4631462846FFF747FFE1882846FFF73AFFBDE8F081C7
:202FE0000A884B881A438B881A43CB881A430B891A434B891A438B891A43A0F844207047A9
:203000004FF6FF71818000210180C1804180017270470021018041808180C1800181418143
:203020008181C1817047002101804180012181800021C18001817047002101804180818010
:20304000C18001814181818170470000002C0140003401400004004000080040000C004078
:2030600021B1028842F00102028004E002884FF6FE731A400280704731B1B0F8442042F462
:203080000042A0F8442005E0B0F84420C2F30E02A0F8442070471AB183890B43838102E07E
:2030A00083898B43838170478182704741EA0203A0F8483070471AB183890B43838102E0BF
:2030C00083898B438381704701894FF6F8721140018170470A46002101894FF68F731940FD
:2030E00011430181704730B504460D4629462046FFF7F0FF208940F00700208130BD2DE983
:20310000F04104460D4616461F46602D06D13B46012231462046FFF75AFE05E03B46012264
:2031200031462046FFF79DFE29462046FFF7D2FF208940F007002081BDE8F08130B50C46B7
:2031400000210189C9B24FF6FF7505EA0325154325432943018130BD2DE9F04105460E46F8
:2031600017469846002443463A4631462846FFF7E5FF2C894FF6F870044044F007044FF6FE
:203180008F70044044F070042C81BDE8F081F0B504460D4616461F463B46324629462046B0
:2031A000FFF7CCFF208940F480402081F0BD0185828270470A46002101884FF68F73194088
:2031C000114301807047F0B50C4615461E460021002200230189028B038C4FF6F877394074
:2031E00021434FF6FC473A4040F201173A434FF6DD773B404FF6FF7707EA06172F433B43D5
:20320000018102830384F0BD0A460021018B4FF68F7319401143018370470A460021018B4A
:2032200048F6FF7319404FF6FF7303EA02231943018370470A460021818B4FF68F73194008
:203240001143818370470A460021818B48F6FF7319404FF6FF7303EA0223194381837047F9
:2032600021B1028842F08002028004E002884FF67F731A400280704721B1828842F0040270
:20328000828004E082884FF6FB731A408280704721B1828842F00802828004E082884FF62B
:2032A000F7731A408280704721B1828842F00102828004E082884FF6FE731A4082807047C7
:2032C0000A460021018B4FF6F77319401143018370470A460021018B4FF2FF7319404FF60C
:2032E000FF7303EA02231943018370470A460021818B4FF6F77319401143818370470A46CF
:203300000021818B4FF2FF7319404FF6FF7303EA02231943818370470A460021018B4FF652
:20332000FB7319401143018370470A460021018B4FF6FF3319404FF6FF7303EA0223194345
:20334000018370470A460021818B4FF6FB7319401143818370470A460021818B4FF6FF33A6
:2033600019404FF6FF7303EA02231943818370470A460021018B4FF67F73194011430183AF
:2033800070470A460021018BC1F30E014FF6FF7303EA02231943018370470A460021818BD9
:2033A0004FF67F7319401143818370470A460021818BC1F30E014FF6FF7303EA0223194309
:2033C000818370470A460021018C4FF6FD7319401143018470470A460021018C4FF6F773E9
:2033E00019401143018470470A460021018C4FF6DF7319404FF6FF7303EA0213194301845C
:2034000070470A460021018C4FF67F7319404FF6FF7303EA02131943018470470A460021A5
:20342000018C4FF6FF5319404FF6FF7303EA02231943018470470A460021018C4FF2FF73FD
:2034400019404FF6FF7303EA02231943018470470A460021018C4DF6FF7319404FF6FF73EF
:2034600003EA023319430184704730B5002301248C40A3B2048C9C430484048C02FA01F5CB
:20348000ADB22C43048430BD30B5002304248C40A3B2048C9C430484048C02FA01F5ADB2C0
:2034A0002C43048430BD70B50346002000241846183001258D40ACB21D8CA5431D8409B193
:2034C000082909D100EB6100056825F0700505600568154305600EE00D1FC5F34E0528447E
:2034E000056825F4E045056005684FF6FF7606EA02263543056070BD21B1028842F00202E1
:20350000028004E002884FF6FD731A400280704721B1028842F00402028004E002884FF6AA
:20352000FB731A400280704721B1828842F08002828004E082884FF67F731A4082807047C0
:2035400002884FF6F7731A40028002880A430280704782884FF68F731A40828082880A4342
:203560008280704702894FF6F8731A40028102890A430281704702894FF67F731A400281C9
:2035800002890A43028170478184704781857047818670470187704781877047A0F84010FC
:2035A000704702884FF6FF431A40028002880A43028070470146888E70470146088F7047AE
:2035C0000146888F70470146B1F8400070470146888C70470146088D704702460020138A45
:2035E0000B4201D0012000E000207047CA430282704730B50246002000230024158A05EA6B
:203600000103958905EA010413B10CB1012000E0002030BDCA4302827047000010B50446AE
:20362000FB48844209D101218803FFF7ABF800214FF48040FFF7A6F832E0F648844209D1B9
:2036400001214804FFF7ABF800214FF40030FFF7A6F825E0F048844209D101218804FFF7BA
:203660009EF800214FF48020FFF799F818E0EB48844209D10121C804FFF791F800214FF48D
:203680000020FFF78CF80BE0E548844208D101210805FFF784F800214FF48010FFF77FF8D7
:2036A00010BD2DE9F04786B005460E460024A24600BFA1460027B08900B100BF2F462C8A6E
:2036C0004CF6FF700440F08804432C82AC894EF6F3100440B08831890843718908430443FF
:2036E000AC81AC8A4FF6FF400440B0890443AC8201A8FEF73DFFC648874202D1DDF810A0E8
:2037000001E0DDF80CA0A88910F4004F08D00AEBCA0000EB0A1031684900B0FBF1F807E0CA
:203720000AEBCA0000EB0A1031688900B0FBF1F86420B8FBF0F004012009642101FB1089B0
:20374000A88910F4004F08D0322000EBC900B0FBF1F000F00700044308E0322000EB0910FF
:203760006421B0FBF1F000F00F0004432C8106B0BDE8F0874FF41651016000218180C18005
:2037800001810C21418100218181704710B502460020108A4FF2FF0318400B884C882343AF
:2037A0008C882343CC8823431843108210BD0021018041808180C180704721B1828942F4AC
:2037C0000052828104E082894DF6FF731A4082817047F0B503460024002600250020A1F5C9
:2037E00010676A3F00D100BF1846C1F3421401F01F06012707FA06F5012C01D10C3004E058
:20380000022C01D1103000E014301AB107682F43076002E00768AF430760F0BD1AB1838A02
:203820000B43838202E0838A8B4383827047028A4FF6F0731A400282028A0A430282704796
:2038400082894FF2FF731A40828182890A438281704721B1828942F00202828104E0828936
:203860004FF6FD731A4082817047028A4FF6DF731A400282028A0A430282704721B1028A0C
:2038800042F48042028204E0028A4BF6FF731A4002827047C1F30802828070470146888826
:2038A000C0F308007047818941F0010181817047028BD2B20283028B42EA012202837047F2
:2038C000028B02F47F420283028B0A430283704721B1828A42F02002828204E0828A4FF69E
:2038E000DF731A408282704721B1828A42F01002828204E0828A4FF6EF731A40828270478F
:2039000021B1828A42F00802828204E0828A4FF6F7731A408282704721B1828942F4004280
:20392000828103E08289C2F30E028281704721B1828A42F40062828204E0828A4FF2FF73FA
:203940001A4082827047828A4FF6FB731A408282828A0A438282704721B1828A42F002020D
:20396000828204E0828A4FF6FD731A408282704702460020B1F5007F00D100BF13880B4284
:2039800001D0012000E00020704701F40072B2F5007F00D100BFCA430280704770B50246AE
:2039A0000024002300250020A1F510666A3E00D100BFC1F3421501F01F03012606FA03F3FC
:2039C000012D02D19689334006E0022D02D1168A334001E0968A33400C12012606FA04F4A8
:2039E0001688344013B10CB1012000E0002070BD10B500220023A1F510646A3C00D100BF9C
:203A00000A1201249440A3B2DC43048010BD0000003801400044004000480040004C0040BB
:203A20000050004031490143314A1160704770B5002100230F22C4780CB32D4C246804F403
:203A4000E064C4F5E064210AC1F10403CA40447804FA03F18478144021430901254C0678DC
:203A6000A155047804F01F050124AC4005786D114FF0E02606EB8505C5F8004109E004788D
:203A800004F01F050124AC401B4D0678761145F8264070BD194A0A400243154B1B1F1A60BA
:203AA000704739B1124A121D12680243104B1B1D1A6006E00E4A121D126882430C4B1B1DD3
:203AC0001A607047042808D14FF0E021096941F004014FF0E022116107E04FF0E02109697C
:203AE00021F004014FF0E022116170470000FA050CED00E000E400E080E100E080FFFF1FCC
:203B000010B5431C02E010F8011B71B18107FAD14FF0013202C88C1A8C4314EAC211F9D0BB
:203B2000C01A0A0603D0C01E10BDC01A10BD0A0401D0801E10BD0902FCD0401E10BD032AFD
:203B400040F2308010F0030C00F0158011F8013BBCF1020F624498BF11F801CB00F8013BE6
:203B600038BF11F8013BA2F1040298BF00F801CB38BF00F8013B11F0030300F02880083A49
:203B8000C0F0088051F8043B083A51F804CBA0E80810F5E7121D5CBF51F8043B40F8043B46
:203BA000AFF30080D20724BF11F8013B11F801CB48BF11F8012B24BF00F8013B00F801CBF6
:203BC00048BF00F8012B704770477047704710B5203AC0F00B80B1E81850203AA0E8185039
:203BE000B1E81850A0E81850BFF4F5AF5FEA027C24BFB1E81850A0E8185044BF18C918C026
:203C0000BDE810405FEA827C24BF51F8043B40F8043B08BF7047D20728BF31F8023B48BFDB
:203C200011F8012B28BF20F8023B48BF00F8012B7047754600F028F8AE4605006946534625
:203C400020F00700854618B020B5FCF7DDFABDE820404FF000064FF000074FF000084FF005
:203C6000000B21F00701AC46ACE8C009ACE8C009ACE8C009ACE8C0098D4670470446AFF344
:203C800000802046FCF7ABFA004870472C15002001491820ABBEFEE7260002007047000097
:203CA000C03C0008000000207C0000008C0100083C3D00087C000020141B0000A8010008D2
:203CC00000000000000000000000000000000000004000080000000000000000000000009C
:203CE0000000000000000000000000000000000000000000000000000000000000000000C4
:203D000001000000000000000000000000000000000000000090D00300000000000000003F
:1C3D20000102030406070809000000000102030401020304060708090204060819
:204000003072002065410008E5590008E7590008EB590008EF590008F359000800000000B2
:20402000000000000000000000000000F7590008F959000800000000FB590008FD59000814
:204040007F4100087F4100087F410008DD6700087F4100087F4100087F4100087F4100089C
:204060007F4100087F4100087F4100087F4100087F4100087F4100087F4100087F41000800
:204080007F4100087F4100087F4100087F410008976700087F4100087F4100088D5F000876
:2040A0007F4100087F4100087F4100087F410008715E0008775F00087F4100087F4100089B
:2040C0007F4100087F4100087F4100087F4100087F410008B15F0008DB5F00083162000803
:2040E0007F4100087F4100087F410008000000000000000000000000000000000000000068
:2041000000000000000000007F4100087F4100087F410008736700087F4100087F410008D5
:204120007F4100087F4100087F4100087F4100087F4100087F4100087F4100087F4100083F
:20414000B56700087F4100087F4100087F410008DFF80CD019F0F0FB004800476F4D0008E9
:20416000307200200648804706480047FEE7FEE7FEE7FEE7FEE7FEE7FEE7FEE7FEE7FEE7E1
:20418000816800085141000810B5002807DA0A07140EF74A00F00F031B1FD45403E00A07FA
:2041A000130EF44A135410BD08B504F0F3F801214FF0C05004F0F2FC012004F07BFA0120D2
:2041C00004F069FA0121480604F0E8FC0121880604F0E4FC0121042004F0D3FC0121082069
:2041E00004F0CFFC0021102004F0CBFC0021202004F0C7FC0021012004F0C3FC00210120A5
:2042000004F0B2FC0021022004F0AEFC0021042004F0AAFC0021102004F0A6FC00214020D4
:2042200004F0A2FC00214FF4804004F0AAFC00214FF4003004F0B2FC00214FF4802004F000
:20424000ADFC00214FF4002004F0A8FC00214FF4801004F0A3FC00214FF4007004F091FCBD
:2042600000214FF4806004F08CFC0021012004F095FC0021022004F091FC0021042004F0BA
:204280008DFC0021082004F089FC0021102004F085FC0021202004F081FC00214FF4005087
:2042A00004F06FFC00214FF4002004F06AFC00214FF4801004F065FC00214FF4001004F010
:2042C00060FC0220ADF8000004208DF803006946A94804F069F84FF40070ADF80000102092
:2042E0008DF8030001208DF802006946A24804F05BF84FF48060ADF8000010208DF803002E
:2043000001208DF8020069469B4804F04DF84FF48070ADF8000048208DF8030001208DF8BC
:2043200002006946944804F03FF84FF40060ADF8000048208DF8030069468F4804F034F8E7
:204340004FF48050ADF8000018208DF803006946894804F029F84FF48050ADF80000482030
:204360008DF803006946854804F01EF84FF40050ADF8000018208DF8030069467F4804F0CD
:2043800013F808BD08B58020ADF8000048208DF803006946794804F007F84020ADF80000F3
:2043A00003208DF8020018208DF803006946734803F0FAFF0121042004F0C5F808BD012060
:2043C0006F4981F8310000216D4880F8A51000206B4981F8240070473EB500252021694846
:2043E00004F08DF8082168460BF0D1F9002409E01DF804006449095D884201D0681CC5B2D9
:20440000601CC4B2082CF3DB14200FF033FB75B1002407E05C480119012220460BF0DCF9FF
:20442000601CC4B2082CF5DB14200FF023FB082168460BF0ACF92021524804F062F8012173
:204440004E4804F05CF83EBD704708B54FF4E06002F0C8FA1C208DF8000001208DF8010070
:204460008DF802008DF80300684602F0C0FA1D208DF8000001208DF8010002208DF80200C1
:2044800001208DF80300684602F0B1FA26208DF8000001208DF8010002208DF802000120EC
:2044A0008DF80300684602F0A2FA27208DF8000001208DF8010002208DF8020001208DF876
:2044C0000300684602F093FA35208DF8000001208DF8010002208DF8020001208DF80300D9
:2044E000684602F084FA25208DF8000001208DF8010002208DF8020001208DF8030068462D
:2045000002F075FA14208DF8000001208DF8010002208DF8020001208DF80300684602F0E8
:2045200066FA40208DF8000001208DF8010002208DF8020001208DF80300684602F057FA4C
:2045400017208DF8000002208DF8010000208DF8020001208DF80300684602F048FA0021A4
:20456000481EFFF711FE08BD10B50AF06CFA10BD18ED00E000E400E000080140000C0140DA
:204580001C160020001001400000002000B58BB0684603F0D5FAFE4803F012FAFD480090DE
:2045A000FD4801900020029001200390002004908020059040000690800007902020089011
:2045C0000002099000200A906946F14803F09AFA0121EF4803F0C1FA0BB000BD00B585B0AE
:2045E000684602F0B7FA0020009001208DF804008DF805004FF4602002900020039001205D
:204600008DF810006946E3484C3802F080FA052301220421DF484C3802F011FB0121DD48DB
:204620004C3802F0ABFA0121DA484C3802F09BFAD8484C3802F0B9FA00BFD6484C3802F074
:20464000B9FA0028F9D1D3484C3802F0BDFA00BFD0484C3802F0BDFA0028F9D10121CD4840
:204660004C3802F0C0FA05B000BD1CB503F0D0FA4FF4807003F051FB0821002003F0A8FFB5
:204680004FF4807000900C208DF8050000208DF8040001208DF80600684603F0C7FA4FF4A7
:2046A000003003F03AFB4FF40030009008208DF8050000208DF804008DF80600684603F018
:2046C000B5FA1CBD1FB54FF4165000900020ADF80400ADF80600ADF80800ADF80C000C2047
:2046E000ADF80A006946AD4805F0A3FA012240F22551AA4805F035FB002240F22771A74818
:2047000005F02FFB0121A54805F01FFB4FF4E13000900020ADF80400ADF80600ADF8080057
:20472000ADF80C000C20ADF80A0069469C4805F080FA012240F22551994805F012FB00221B
:2047400040F22771964805F00CFB0121944805F0FCFA4FF4964000900020ADF80400ADF8B5
:204760000600ADF80800ADF80C000C20ADF80A0069468C4805F05DFA012240F2255189488F
:2047800005F0EFFA002240F22771864805F0E9FA0121844805F0D9FA4FF49640009000202A
:2047A000ADF80400ADF80600ADF80800ADF80C000C20ADF80A0069467B4805F03AFA0122AE
:2047C00040F22551784805F0CCFA002240F22771754805F0C6FA0121734805F0B6FA1FBDFA
:2047E00000B587B04FF40C7070490880C920704908804FF4FA606F49088040006E49088047
:204800004FF6FF70ADF814000020ADF81000ADF81600ADF8120004A94FF0804004F08CFBBD
:2048200001223F21900704F08AFF0020ADF80000ADF802005D480088ADF806000020ADF8D8
:20484000080069464FF0804004F0B3FB00214FF0804004F0FDFF0020ADF802005448008805
:20486000ADF8060069464FF0804004F0E4FB00214FF0804004F0F5FF0020ADF802004D48A8
:204880000088ADF8060069464FF0804004F020FC00214FF0804004F0F1FF0020ADF802005C
:2048A00045480088ADF8060069464FF0804004F05AFC00214FF0804004F0E9FF00221E21E3
:2048C0004FF0804004F0AFFE0121880704F090FE07B000BD10B5394800684FF47A71B0FB0A
:2048E000F1F4601EB0F1807F00D30FE0601E4FF0E02148610F214FF0FF30FFF745FC002097
:204900004FF0E02188610720086100BF10BD08B503F040FD0220ADF8000010208DF80300E6
:2049200001208DF802006946254803F03DFD0120ADF8000010208DF8030001208DF8020060
:204940006946204803F030FD8020ADF8000010208DF8030003208DF8020069461A4803F075
:2049600023FD1020ADF800008DF8030001208DF802006946124803F017FD4FF40050ADF8CA
:20498000000010208DF8030001208DF802001DE0080002404C240140C81500200050004032
:2049A000004400400048004000380140BC000020BE000020C0000020C200002014000020C2
:2049C00000100140000C0140000801406946FE4803F0EAFC4FF40070ADF8000010208DF815
:2049E000030001208DF802006946F74803F0DCFC0120ADF8000010208DF8030001208DF82F
:204A000002006946F04803F0CFFC8020ADF8000010208DF8030001208DF802006946EA4869
:204A200003F0C2FC2020ADF8000010208DF8030001208DF802006946E44803F0B5FC4020A1
:204A4000ADF8000010208DF8030001208DF802006946DD4803F0A8FC4FF40040ADF80000BE
:204A600010208DF8030001208DF802006946D74803F09AFC0820ADF8000004208DF8030006
:204A80006946D34803F090FC0420ADF8000001208DF8020018208DF803006946CC4803F0E6
:204AA00083FC4FF40060ADF8000004208DF803006946C64803F078FC4FF48060ADF8000097
:204AC00001208DF8020018208DF803006946BF4803F06AFC0420ADF800008DF8030069465F
:204AE000BC4803F061FC4FF48050ADF8000001208DF8020018208DF803006946B24803F0A6
:204B000053FC8020ADF8000048208DF803006946AE4803F049FC4020ADF8000003208DF887
:204B200002001C208DF803006946A84803F03CFC0121042003F007FD0220ADF80000482079
:204B40008DF803006946A24803F02EFC4FF48040ADF8000004208DF8030069469B4803F03E
:204B600023FC0120ADF8000048208DF803006946974803F019FC0220ADF8000010208DF84E
:204B8000030001208DF802006946904803F00CFC2020ADF8000048208DF8030069468A4892
:204BA00003F002FC1020ADF8000000208DF803006946874803F0F8FB2020ADF8000000201E
:204BC0008DF803006946824803F0EEFB0820ADF8000001208DF8020010208DF8030069461C
:204BE000794803F0E1FB0420ADF8000001208DF8020014208DF803006946734803F0D4FBCC
:204C00004020ADF8000010208DF8030001208DF8020069466E4803F0C7FB4FF40070ADF8BD
:204C2000000010208DF8030001208DF802006946674803F0B9FB4FF48060ADF80000102017
:204C40008DF8030001208DF802006946604803F0ABFB4FF48070ADF8000048208DF803006C
:204C600001208DF802006946594803F09DFB4FF40060ADF8000048208DF80300694654482E
:204C800003F092FB4FF48050ADF8000018208DF8030069464E4803F087FB4FF48050ADF8AA
:204CA000000048208DF803006946484803F07CFB4FF40050ADF8000018208DF803006946B4
:204CC000424803F071FB0120ADF8000010208DF8030001208DF8020069463C4803F064FB40
:204CE0002020ADF8000010208DF8030001208DF802006946344803F057FB08BD10B5012153
:204D00004FF0C05003F04AFF012003F0D3FC012003F0C1FC0121084603F033FF012148064F
:204D200003F03CFF0121880603F038FF01213C2003F027FF0121572003F016FF0121880386
:204D400003F01FFF0121480403F028FF0121880403F024FF0121080503F020FF0121084645
:204D600003F01CFF0121480203F00BFF10BD4FF48041480301F06EFE0EF050FCFFF7BEFF46
:204D8000FFF7C5FDFFF7A6FDFFF72AFDFFF79AFCFFF76BFCFFF722FCFFF7F8FBFFF7E4FBEA
:204DA00015F04EF8FFF751FBFFF74EFB0221064803F0A5FB4FF40051034803F0A2FB4FF471
:204DC0000041024808E0000000100140000C0140000801400014014003F093FB01200AF088
:204DE0007CFE0120F54948710FF04DFE0EF041FE09F0FEFD0221F24803F083FBFFF7ECFAFC
:204E000014200EF037FE0221ED4803F078FB2021EB4803F074FB0EF0EAFB4FF47A70E94955
:204E2000A1F84000002088830220E749087048700120E64988700220C87008720120E44982
:204E40000870022048700872E04908720C20DD4981F82800002081F829000120DB498870F1
:204E60000220C8700A20D74988814881C8200881642008810020D7490870D7490870D149D4
:204E800081F82400D54908700120D54908700020D4490870D4490870D4490870D449487272
:204EA000D44811F036F80120C64981F831000021C44880F868100020C4498874CE49C87038
:204EC000CE49A1F87200CE490880CE490880CE4948600870BB490883CC490880CC49087082
:204EE000B8498876CB4948700870CB498880C9498870C24981F84400C8490880C84908705F
:204F0000C8490870C8490870C8490870C8490881086048600120C7490870AA49C871002057
:204F2000C549A1F85A02FDE303F093FBA548C08900285BD14FF48061C04803F0E0FA4FF447
:204F40000071BE4803F0DBFABC480830006810F0020F08D10220A94981F8340081F8350015
:204F600081F836001BE09748808A50B9A34890F83600022805D10120A04981F8350081F8BB
:204F800036009048408A50B99C4890F83400022805D10120994981F8340081F83500A74843
:204FA0000830006810F0010F0BD1864890F8A200052815D001208649087002208349487449
:204FC0000EE08048C08A58B97E4890F8A200052806D07E48007C012802D000207B494874F0
:204FE0000EF060FC4FF47A707649C88110F0F3FF14F078FF8948008808B917F0C5F9754819
:205000000078042820D17D4890F8350002281BD16C48008AC0B97948C07A1E280FD16948DA
:20502000C079012810D06748008B68B16548807E50B907F01AFA32206249088204E006F0BB
:205040004AFC32205F4908826C4890F83500012831D15C4890F8AB0010F0010F0BD0594887
:2050600090F8A100022804D0564890F8A100042801D106F089F8534890F8AB0000F002000D
:2050800002280BD14F4890F8A100022804D04D4890F8A100042801D106F0F4F9494890F894
:2050A000AB0000F00400042805D15348007A012801D106F079FA474800780C287DD2DFE885
:2050C00000F006F5F4F3F2F1F0EFEEEDECEB4FF400515B4803F013FA0121594803F00FFA94
:2050E0008021574803F00BFA4FF40071544803F008FA0121524803F002FA8021504803F05C
:20510000FEF932200EF0B6FC00200FF041FDFFF756F900202B49087103F09BFA40F2DC5001
:205120002849488003E02748408800B903E0254800790028F7D000BF01202249087103F0F4
:2051400088FA05F018FD1F4991F83000002105F07FF811F057F98021384803F0D2F90121C3
:20516000174803F0CCF900203649087016F0E2FD14F028FF17F008F90221314803F0C1F9A0
:2051800010212F4803F0BDF901210D4803F0B9F901210B4803F0B3F90121094803F0B1F97E
:2051A0000021084880F8631090F85E0005284BD10220124981F841004AE038E3B600002012
:2051C000000C01401C160020DC150020F8150020EC150020D4000020D5000020D6000020F2
:2051E000D70000209E0000209F000020D8000020F2030020441A002010160020FC0300204B
:20520000DA000020DE00002090000020DC000020A0000020A60000207E000020E6000020C0
:20522000E8000020E9000020EC000020ED0000201C1A0020B0000020060F002000080140A0
:2052400000100140C80900200020FA4981F8410003F0FFF9C8200EF00DFC0FF071F9642028
:205260000EF008FC03F0F5F90FF06AF964200EF001FCFFF787F80221EF4803F042F9ED4838
:2052800090F83600022812D10120EC4908700221E94803F036F916E088E13BE018E0E5E0C8
:2052A000FBE07AE023E1FFE10CE1C6E050E0E14890F83400022803D10920E049087002E083
:2052C0000620DE4908704FF4FA60DD494882B2E2D84890F83500022807D10120D749087050
:2052E0000221D54803F00DF907E0D24890F83400012802D10620D1490870D14890F824003F
:2053000038B90120CE4981F8240091F824000DF048FC90E20920C949087009F070FD1C2012
:2053200009F0D1FD0221C44803F0E9F80120C44981F8240091F824000DF033FC01200AF0E4
:20534000CCFB0120BF4948710020BF49087072E2BE488078022802D10120BD4908700020F6
:205360000AF0BBFB4FF40041BA4803F0C8F810F031FC12F0B5FBB24890F85E0010B9142088
:2053800009F0F8FB0020AE4981F8240091F824000DF007FC0EF045FE4DE2A94890F85E0079
:2053A000042812D10FF0F2F9044654B1052C08D0062C06D00B2C04D00020A14981F85E00A8
:2053C00002E09F4880F85E4000BF01200AF085FB01209C4948710221974803F090F80A202E
:2053E0000EF048FB4FF40051934803F08AF809F001FD09F0FFFC96200EF03CFB01218E48BA
:2054000003F07FF880218C4803F07BF84FF40071894803F076F81021874803F072F8802163
:205420008D4803F06CF801218A4803F068F80FF08AFB022081490870FDE1FEF7B5FE8748BC
:2054400002F052FF0A200EF015FB00BFBFF34F8F8348006800F4E06082490843001D80491F
:205460000860BFF34F8F00BF00BFFEE710F0B2FB10F001F910F0A7F97148B0F8840028B9C4
:205480007048407910B100200AF027FB09F022FB0EF07DFE09F006FDCDE110F09BFB10F0CF
:2054A000EAF810F090F96648B0F8840028B96548407910B100200AF010FB09F0F3FC0EF094
:2054C00046FDB8E110F086FB10F094FC10F0D3F810F079F95A48B0F8840028B95948407999
:2054E00010B100200AF0F9FA0EF031FDA3E110F071FB10F07FFC10F0BEF810F064F950489C
:20550000B0F8840028B94F48407910B100200AF0E4FA0EF0D3FC09F0DDFA5348007801289C
:2055200006D100205049087001200DF0C0F83CE04D480078022806D100204B490870042013
:205540000DF0B5F831E048480078032806D100204549087008200DF0AAF826E04248007891
:20556000042805D10020404908700CF09CFC1CE03D480078052805D100203B4908700CF060
:2055800029FD12E038480078062805D10020364908700CF095F908E033480078072804D177
:2055A0000020314908700CF022FA44E110F012FB10F020FC10F05FF810F005F92048B0F80E
:2055C000840028B91F48407910B100200AF085FA09F068FC0EF072FC09F07CFA22480078D2
:2055E000012806D100202049087001200DF05FF859E01D480078022806D100201A49087023
:2056000004200DF054F84EE017480078032806D100201549087008200DF049F843E012483D
:205620000078042822D100200F4908700CF03BFC39E00000FC03002000100140D400002033
:205640001C160020B6000020D8000020F8150020D6000020000C014000080140001401401C
:205660000CED00E00000FA0508000020D3480078052805D10020D14908700CF0ABFC12E04D
:20568000CE480078062805D10020CC4908700CF017F908E0C9480078072804D10020C7491A
:2056A00008700CF0A4F9C6E010F094FA10F0A2FB0FF0E1FFC24890F83D1590F83C058142B9
:2056C0002BD0BF4890F83D05401CC1B2BC4880F83D1590F83D05142803DB0021B84880F8E4
:2056E0003D15B74B93F83D3503EB4304B54B03EB44031A79B24B93F83D3503EB4304B14B31
:2057000003EB44035988AE4B93F83D3503EB4304AC4B33F8140009F022FCAB48B0F88400DC
:2057200088B900E088E0A84890F8240058B941F28830A549A1F88400A4484079A0B1002027
:205740000AF0CBF910E0A048C07901280CD1A04890F84200012807D19B4890F8240018B961
:2057600001209B4981F8430009F0B4F993480078012806D100209149087001200CF097FF4A
:2057800052E08E480078022806D100208B49087004200CF08CFF47E088480078032806D100
:2057A00000208649087008200CF081FF3CE083480078042805D10020804908700CF073FBB2
:2057C00032E07E480078052805D100207B4908700CF000FC28E079480078062805D10020BD
:2057E000764908700CF06CF81EE074480078072805D10020714908700CF0F9F814E06F48F1
:205800000078082806D100206C4908700B200DF05FF809E069480078092805D10020674954
:205820000870012005F075FC0EF0FBFB03E000206849087000BF00BFFFF776BB08B502F0F5
:20584000A9FD4FF40070ADF8000010208DF8030001208DF8020069465F4802F0A5FD4FF4BD
:205860008060ADF8000010208DF8030001208DF802006946584802F097FD4FF48070ADF896
:20588000000048208DF8030001208DF802006946514802F089FD4FF40060ADF80000482000
:2058A0008DF8030069464C4802F07EFD4FF48050ADF8000018208DF803006946464802F009
:2058C00073FD4FF48050ADF8000048208DF803006946424802F068FD4FF40050ADF80000E8
:2058E00018208DF8030069463C4802F05DFD08BD08B54FF4C06001F075F840208DF8000041
:2059000000208DF8010002208DF8020001208DF80300684601F06BF808BD10B501214FF0A2
:20592000C05003F03BF9012002F0B5FE01F0F0FA012003F036F800BF612002F051FF0028A3
:20594000FAD04FF4007003F02FF8012003F032F803F0E0F903F0D6F90121022003F076F93E
:2059600003F0D0F949F6404003F0A6F903F0CAF910BD704708B50420ADF8000010208DF8A5
:20598000030001208DF802006946154802F00CFD0421134802F0B5FD32200EF06BF8042159
:2059A0000F4802F0ACFD0420ADF800008DF8030069460B4802F0F8FC08BD000008000020CF
:2059C000C80900208C0E00201C160020B6000020FC030020D400002000080140000C01404B
:2059E00000100140704700BFFEE700BFFEE700BFFEE700BFFEE77047704770473EB5FB48B4
:205A00000068401CF9490860F9480088401CF8490880F8480088401CF6490880F648008879
:205A2000401CF5490880F5480EF046F980B10021F34880F8B2140078401CF149087008462B
:205A40000078142190FBF1F201FB1200EC490870EC48008820B1EB480088401EE949088010
:205A6000E948008820B1E8480088401EE6490880E648008820B1E5480088401EE349088081
:205A8000E3480088002804DDE1480088401EE0490880E048007850B1DE480078401EDD49C7
:205AA00008700846007810B90020DB490870DB48B0F8C004F8B1D948B0F8C004401E81B2CD
:205AC000D648A0F8C014B0F8C004A0B900240FE0D248007BC0EB0011D0480E3000EB810051
:205AE000005D0DF80400684610F06FFA601CC4B2092CEDDD00BFCA48B0F8480438B1C8487A
:205B0000B0F84804401E81B2C548A0F84814C548008A20B1C348008A401EC2490882C14806
:205B2000C08A20B1BF48C08A401EBE49C882BD48408A20B1BB48408A401EBA494882B948B1
:205B4000808A20B1B748808A401EB6498882B548008B20B1B348008B401EB2490883B2483D
:205B6000406820B1B0484068401EAF494860AF48B0F8800030B1AD48B0F88000401EAB499F
:205B8000A1F88000A748408820B1A6484088401EA4494880A348B0F8840030B1A148B0F812
:205BA0008400401E9F49A1F88400A148008820B19F480088401E9E4908809E48C06820B1A1
:205BC0009C48C068401E9B49C8609B48C08B20B19948C08B401E9849C8839048B0F8C20454
:205BE00038B18E48B0F8C204401E81B28B48A0F8C2148C48B0F8640038B18A48B0F86400FF
:205C0000401E81B28748A0F864108C48008820B18A480088401E894908808948B0F85A0204
:205C200030B18748B0F85A02401E8549A1F85A027C48B0F8700038B17A48B0F87000401E92
:205C400081B27848A0F870107948B0F8480B38B17748B0F8480B401E81B27548A0F8481B91
:205C60007048C08920B16F48C089401E6D49C8817448008820B173480088401E71490880FD
:205C80007148008A20B17048008A401E6E4908826E48008820B16D480088401E6B49088029
:205CA0006B48008820B16A480088401E6849088050480088322805DB012066490870002045
:205CC0004C4908800120644908706449087064480088401C62490880084600884EF66021DE
:205CE00088421FDB4F4890F82900401C4D4981F82900084690F829003C2810DB002081F81D
:205D00002900084690F82800401C81F82800084690F82800182802DB002081F82800002063
:205D20004F4908804F48406820B14E484068401E4C4948604C48406820B14B484068401EB4
:205D4000494948603B48406820B13A484068401E3849486033488089012804DB314880894E
:205D6000401E304988813F48806820B13D488068401E3C4988603D480DF09EFF18B10020C3
:205D80003A49123988733948801C0DF095FF18B1012036491239C8753248C08920B131488E
:205DA000C089401E2F49C8811E48B0F86600012807DD1C48B0F86600401E81B21948A0F8FE
:205DC0006610174890F84A0438B1154890F84A04401EC1B2124880F84A141648808A20B1C2
:205DE0001448808A401E134988823EBDC8000020800300200E00002010000020C4090020A8
:205E000010050020DE000020DA000020DC000020E6000020E9000020EE000020C80900204B
:205E2000621100201C1600209000002078040020F21E0020F8150020FC030020B2000020E3
:205E4000060F0020D20000201C1A0020A20000202E010020C4000020C5000020CC000020FF
:205E60000C000020DC150020EC150020EA1E002010B50221480703F084FE90B3022148073B
:205E800003F090FEFE4890F85E00062802D110F0DDFB15E0FA4890F85E000B2802D110F059
:205EA000D5FB0DE0F64890F85E00082802D110F0CDFB05E0F24890F85E0008B910F065FC0F
:205EC0004FF0804003F03EFEEE49088008460088ED4A1288104481B24FF0804003F020FE97
:205EE00048E0FFE70421080703F04BFEA0B10421080703F057FE4FF0804003F026FEE14917
:205F0000088008460088E14A1288104481B24FF0804003F007FE2DE00821C80603F031FEBA
:205F2000A0B10821C80603F03DFE4FF0804003F00FFED449088008460088D54A1288104464
:205F400081B24FF0804003F0EFFD13E01021880603F028FE4FF0804003F0FDFDC9490880DF
:205F600008460088CB4A1288104481B24FF0804003F0DCFD10BD10B50421C74803F001FE92
:205F800018B10421C44803F00DFE10BD10B54FF4807001F0B1FE30B14FF4807001F0BDFEE4
:205FA0007C2008F0E7FD4FF4807001F0B6FE10BD08B540F22551B94803F0B8FF38B1B748CC
:205FC00003F034FFC0B20090684611F092FD40F22771B24803F0AAFF08BD70B500260024C7
:205FE00040F22551AE4803F0A1FF002874D0AC4803F01CFFC5B21420AA490870AA48007882
:20600000322802DB0020A8490870A848A64909784554A5480078002837D1A448A2490978DA
:20602000405C2E2803D101209F490870F3E09F489D490978405CF0280CD0F32811D0FC2848
:2060400016D0FF281BD1012099490870FF209949087015E0012096490870F0209549087080
:206060000EE0012092490870F3209249087007E001208F490870FC208E49087000E000BFF6
:2060800000BF002087490870C5E087480078012823D1864884490978405C912816D08348AE
:2060A00081490978405C552810D083480078012803D1F3208149087002E0F32009F037FCE6
:2060C00000207949087077490870A4E076480078401C754908709EE09EE073480078032888
:2060E0000CD1724870490978405C75490870084600782F2801DD0020087087E06A480078D9
:206100000328FADD684801786D480078001D81427CDB66484678022404E06448005D4640EB
:20612000601CC4B266480078C01C8442F5DD5F4963480078001D085CB04255D100205A49AC
:20614000087001205A4908705E48007800EBC00101EB00105C4901EB400090F831005528BE
:2061600036D000240DE05148005D5649097801EBC10202EB0111544A02EB41010855601C9E
:20618000C4B2312CEFDB55204E49097801EBC10202EB01114C4A02EB410181F83100494827
:2061A0000078132805DA47480078401C4549087002E00020434908703F480078012803D1E2
:2061C000FF203E4908700EE0FF2009F0B0FB0AE039480078012803D1FC203849087002E019
:2061E000FC2009F0A4FB17E000202F4908702D49087031480078012804D1F0202F49087007
:2062000003E003E0F02009F092FB05E026480078401C2549087000BF40F22551204803F053
:2062200085FE20B140F225511D4803F0A9FE70BD7FB540F22551254803F078FE00287CD010
:20624000224803F0F3FDC0B203902148B0F8C00480B900211E4880F8BE14007B401C1C49D1
:2062600008730846007B142190FBF1F201FB1200174908730A211648A0F8C0142AE000004F
:206280001C1600200A000020BC000020BE000020C0000020C2000020000400400038014049
:2062A00000440040E9000020EE000020A61E002099000020980000209A0000209B00002079
:2062C000EB000020EC000020BE1A002000480040C80900209DF80C10007BC0EB0012F7480E
:2062E00000EB82020E3890F8BE041154F3480E3890F8BE04401CC1B2F0480E3880F8BE14D8
:2063000090F8BE04322804DB3121EC480E3880F8BE14EA480E38007BC0EB0011E74810F8FE
:206320002100EE2812D10021E4480E38A0F8C014007BC0EB0011E14800E018E210F82100E1
:206340008DF8000068460FF040FE0BE2DB480E38007BC0EB0011D94810F82100AA2814D13F
:206360000120D6490E3908700021D4480E38A0F8C014007BC0EB0011D04810F821008DF832
:20638000000068460FF021FEECE1CC480E38007BC0EB0011C94810F82100552814D1002017
:2063A000C6490E3908700021C4480E38A0F8C014007BC0EB0011C14810F821008DF8000042
:2063C00068460FF002FECDE1BC480E38007BC0EB0011BA4810F82100142863D1B7480E3801
:2063E00090F8BE040528B0DD002500240CE0B3480E38007BC0EB0011B04800EB8100005D2B
:206400002844C5B2601CC4B2052CF0DB85F0FF05AA480E38007BC0EB0011A84800EB810067
:206420004079A84238D10120A5494871A3480E38007BC0EB0011A14810F82100A04908700D
:206440009E480E38007BC0EB00119C4800EB810040789B49487099480E38007BC0EB0011D7
:20646000964800EB810080789549887093480E38007BC0EB0011914800EB8100C078904956
:20648000C8708E480E38007BC0EB00118B4800EB810000798A490871002188480E38A0F89E
:2064A000C0145FE185480E38007BC0EB0011834810F82100F1281FD180480E3890F8BE0429
:2064C0000928EEDD00217D480E38A0F8C01400240CE07A480E38007BC0EB0011774800EB2F
:2064E0008100005D0DF80400601CC4B2092CF0DD68460FF06AFD35E170480E38007BC0EB73
:2065000000116E4810F8210003283ED16D48C07838BB6D4890F85E0007280ED06A4890F88F
:206520005E00042809D0072066498870664890F85E004870012008700AE0634890F85E00CA
:20654000072805D15F4988705F4890F85E0048705D4890F831005C4981F83200002081F80A
:20656000310001205749C870002154480E38A0F8C014007BC0EB0011504810F821008DF805
:20658000000068460FF021FDECE04C480E38007BC0EB0011494810F8210005282ED14948DC
:2065A000C078B8B1484890F85E00072809D1454840784449887008468078072801D001208A
:2065C000087000203F49C8703F4890F832003E4981F8310000203B49C870002137480E382F
:2065E000A0F8C014007BC0EB0011344810F821008DF8000068460FF0E8FCB3E02F480E38ED
:20660000007BC0EB00112D4810F821005228BBD12A480E3890F8BE04052874DD00250024D6
:206620000CE026480E38007BC0EB0011234800EB8100005D2844C5B2601CC4B2052CF0DB7E
:2066400085F0FF051D480E38007BC0EB00111B4800EB81004079A8426CD118480E38007B0F
:20666000C0EB0011154800EB81008078132804D10121164880F8031A5CE010480E38007B23
:20668000C0EB00110D4800EB81008078142804D100210E4880F8031A4CE008480E38007B2B
:2066A000C0EB0011054800EB8100807815280FD1012004490870052088703BE0D609002033
:2066C000E0000020101600201C160020F21E00204748007BC0EB001145480E3000EB8100F5
:2066E0008078162810D100214148A0F8C014EE208DF8000068460FF068FC40F225513D489C
:2067000003F03EFC7FBD2DE03948007BC0EB001137480E3000EB8100807811280AD1364898
:2067200090F85E00042805D101203449087007203349087000212E48A0F8C01400240CE02D
:206740002B48007BC0EB001129480E3000EB8100005D0DF80400601CC4B2052CF0DD684670
:206760000FF033FC40F22551224803F009FC00BFC8E710B540F22551224803F0D7FB48B1DE
:20678000204803F053FBC4B200BF40F225511D4803F0F6FB10BD00B587B002AA00211A4842
:2067A00000F09FFE0698009002A80FC808F0A3F907B000BD00B587B002AA0021134800F091
:2067C00090FE142202A9124816F08AFC0698009002A80FC808F08FF907B000BD10B50220DA
:2067E00002F0BCFA10B1022002F0C8FA10BD0000C8090020004800401C1600209E00002004
:206800009F000020005000400064004000680040A003002010B501F099FF4FF4803001F0E8
:20682000BCFF01F0F9FF0446012C24D1102001F091FA022001F07AFA002002F060F800208B
:2068400002F06FF8A00202F063F84FF4C011200402F00BF8012002F014F800BF392001F09B
:20686000BFFF0028FAD0022002F03BF800BF02F041F80828FBD110BD10B5FFF7CBFF10BD1C
:2068800010B55048006840F001004E490860084640684D4908404B494860084600684B49A9
:2068A0000840484908600846006820F4802008600846406820F4FE0048600846006820F04F
:2068C000A05008604FF47F0088600020C862FFF7D3FF4FF000603E49086010BDF0B5002183
:2068E000002000230024002200250026354F7F6807F00C0121B1042908D008294BD10BE046
:20690000344FDFF8D4C0CCF800704AE0314FDFF8C8C0CCF8007044E02A4F7F6807F4701019
:20692000284F7F6807F48033800C0D2801D0801C00E0062033B9294F4743DFF89CC0CCF832
:20694000007027E01F4FFF6A07F480341D4FFF6A07F00F077A1C44B91E4FB7FBF2F7474333
:20696000DFF874C0CCF8007014E0164FFF6AC7F303177D1C134FFF6AC7F30327BE1C154FBC
:20698000B7FBF5F77743B7FBF2F74743DFF848C0CCF8007005E00F4FDFF83CC0CCF800701D
:2069A00000BF00BF074F7F68C7F30317DFF830C01CF80710084F3F68CF40DFF81CC0CCF8D2
:2069C0000070F0BD001002400000FFF0FFFFF6FE08ED00E000127A001400002000093D008C
:2069E0001800002031490143314A1160704770B5002100230F22C4780CB32D4C246804F46C
:206A0000E064C4F5E064210AC1F10403CA40447804FA03F18478144021430901254C0678EC
:206A2000A155047804F01F050124AC4005786D114FF0E02606EB8505C5F8004109E004789D
:206A400004F01F050124AC401B4D0678761145F8264070BD194A0A400243154B1B1F1A60CA
:206A6000704739B1124A121D12680243104B1B1D1A6006E00E4A121D126882430C4B1B1DE3
:206A80001A607047042808D14FF0E021096941F004014FF0E022116107E04FF0E02109698C
:206AA00021F004014FF0E022116170470000FA050CED00E000E400E080E100E080FFFF1FDC
:206AC00010B50446FA48844208D10121401502F07FF80021601502F07BF817E0F5488442F1
:206AE00008D10121001502F073F80021201502F06FF80BE0F048844208D10121C80302F0D9
:206B000067F800214FF4004002F062F810BD30B50246002000235068E84C20400D790C68A3
:206B200044EA0524204350609068E54C2040D1E902542C434D7944EA450420439060D06A19
:206B400020F470000C7C641EE4B2234340EA0350D06230BD00210160017141718160C16067
:206B600001210174704721B1826842F00102826003E0826822F001028260704721B18268BD
:206B800042F48072826003E0826822F480728260704710B50023CBB21AB144681C4344609E
:206BA00002E044689C43446010BD816841F0080181607047014600208A6812F0080F01D0F9
:206BC000012000E000207047816841F0040181607047014600208A6812F0040F01D00120C6
:206BE00000E00020704721B1826842F4A002826003E0826822F4A0028260704701460020E3
