:020000040800F2
:10000000901E0020650100086509000867090008C6
:100010006B0900086F090008730900080000000060
:100020000000000000000000000000007709000848
:1000300079090008000000007B0900087D0900081C
:100040007F0100087F0100087F0100087F01000890
:100050007F0100087F0100087F0100087F01000880
:100060007F0100087F0100087F0100087F01000870
:100070007F0100087F0100087F0100087F01000860
:100080007F0100087F0100087F0100087F01000850
:100090007F0100087F0100087F0100087F01000840
:1000A0007F0100087F0100087F0100087F01000830
:1000B000BD090008F10900087F0100087F01000860
:1000C0007F0100087F0100087F0100087F01000810
:1000D0007F010008190A0008CD0A0008910B0008EA
:1000E0007F0100087F0100087F0100080000000078
:1000F0000000000000000000000000000000000000
:1001000000000000000000007F0100087F010008DF
:100110007F0100087F0100087F0100087F010008BF
:100120007F0100087F0100087F0100087F010008AF
:100130007F0100087F0100087F0100087F0100089F
:100140007F0100087F0100087F0100087F0100088F
:10015000DFF80CD004F018FF00480047DB0100086E
:10016000901E00200648804706480047FEE7FEE74D
:10017000FEE7FEE7FEE7FEE7FEE7FEE7FEE7FEE757
:10018000A52200085101000830B5264800684FF448
:100190007A72B0FBF2F1481EB0F1807F00D31BE011
:1001A000481E4FF0E022506150170F22002807DA56
:1001B00013071D0E1C4B00F00F04241F1D5503E0F8
:1001C00013071C0E194B1C5400BF00204FF0E022F7
:1001D00090610720106100BF30BD00BF01F0ABF897
:1001E000FFF7D2FF00F041F84FF40051104803F040
:1001F000F0F94FF400410F4803F0EDF94FF480712E
:100200000C4803F0E8F900200B4908700B4908700E
:100210008021074803F0DFF903E000F003F901F063
:100220006AFFFAE75800002018ED00E000E400E063
:1002300000100140000C01401D0000201E000020A5
:10024000012080F3138800BF00BFBFF34F8F9B488E
:10025000006800F4E0609A490843001D974908606F
:10026000BFF34F8F00BF00BFFEE710B57D2003F046
:10027000BBFA08B103F0D3FC45F2555003F04AFA3B
:10028000032003F04AFA40F6C41003F049FA03F0E1
:100290004AFA03F04DFA10BD10B58A4800688A4941
:1002A0000840B0F1005F11D101F055F88548406871
:1002B00086490860084600688549086081490868E1
:1002C00080F3088800BF82480068804710BD70B581
:1002D00004460D4616467F4800687F4988422ED165
:1002E0007E48007858BB7E48406940F6B831884265
:1002F00004D300207A494861012000E0002028B39F
:100300007848007810BB03F00EFA4FF400417648AD
:1003100003F05FF97548007870B9012073490870DF
:1003200000F083FE0221704803F055F9012000F02F
:1003300028FE2C2000F025FE01F0E4FB06E0002062
:1003400068490870FFF7A8FF00BFFEE770BD10B551
:100350005C4B674C2360674B674C2360674B684C72
:100360002360684B684C23600223137000230B60EA
:1003700010BDF8B505460E461446002000906B46A9
:10038000624A3146284600F0BBF9B0F1FF3F2CD05D
:10039000012810D0022843D15748006810B15648B0
:1003A000006880474E48006918B100204C49086138
:1003B00000E000BF34E05248006838B1009882B2D3
:1003C0004B48016851484E4B1B68984748480068A5
:1003D00000990844464908604148006918B1002066
:1003E0003F49086100E000BF1AE04748006810B1CB
:1003F0004548006880470020454908603E4908603C
:100400003F49086040490860207036490870344808
:10041000406918B100203249486100E000BF00BFC8
:1004200000BFF8BD10B53B48007820B101280ED0C0
:10043000022834D117E03848354908602848006957
:1004400018B100202649086100E000BF2BE03348C6
:100450002F4908602248006918B10020204908612E
:1004600000E000BF1FE02E482949086000201B491A
:1004700008701B48006942F21071884204D30020C2
:1004800017490861012000E0002038B1002021490F
:10049000087001201149087003F045F903E00120BC
:1004A0001C49087000BF00BF03F03DF9194A1D49FF
:1004B000881D174B1B68984710BD00000CED00E02D
:1004C0000000FA05008000080000FE2F2400002034
:1004D0002000002000E00308025501551C00002008
:1004E000A40800201D000020000C01401E00002078
:1004F000100000207D0500080000002041050008D4
:1005000008000020BD05000804000020A004002011
:100510000C00002028000020CF0200084F03000834
:10052000730300088000002001B5002000994A05EF
:10053000520D03D0012202EBD12000E0C80A08BD11
:10054000F8B506460C4617463546009403F0EBF81E
:100550000EE02988009802F0BAFD288800990988E1
:10056000884201D00020F8BDAD1C0098801C00908E
:10057000E01900998842ECD80120F4E738B504244A
:1005800000250020009002F05AFC4FF44830FFF79D
:10059000CBFF05460CE003F0C6F80A4A1314009995
:1005A00003FB012002F090FC04460098401C0090E0
:1005B0000098A84201D2042CEDD038BD10B502F04D
:1005C0004AFC10BD0080000830B502460B460020F2
:1005D000002116E012F8015B80EA052008210EE0F8
:1005E00010F4004F05D041F2210484EA4004A0B287
:1005F00003E04FF6FF7404EA40004C1EA1B200294C
:10060000EED11C00A3F10105ABB2E3D130BD2DE961
:10061000F04704460D4617469846DDF82090002620
:10062000B2462078012801D180261DE020780228DA
:1006300001D1460218E02078042802D10020BDE84C
:10064000F0872078032801D10020F8E720781828C7
:1006500007D16078182801D10020F0E76FF005007D
:10066000EDE74FF0FF30EAE76078484502D06FF0E1
:100670000100E4E7A0786FEA0901C9B2884202D01C
:100680006FF00200DBE7701D854202D06FF00300BF
:10069000D5E7B1B2E01CFFF797FF8246681E215CE8
:1006A000A81E205C41EA0020504502D06FF00400F3
:1006B000C5E73246E11C384604F04CFCC8F800603F
:1006C0000120BCE737B50D46144600BF012168463E
:1006D00001F0B9F90128F9D19DF80000062802D1EE
:1006E000002020600BE09DF80000152807D120684D
:1006F000401C20602068052801DD042028703EBDD4
:100700002DE9F84307460C46154698464FF0000978
:1007100000268D480078062813D2DFE800F0031386
:100720007582DEF40020894908608949086089499A
:1007300008700120844908708748C06800208649F5
:10074000C860FDE08448C06840F6B831884204D3F0
:1007500000208149C860012000E0002040B17C4AAF
:1007600079494320FFF7AEFF002077490870E7E0A2
:10077000206800B9E4E075480078009043462A46B6
:1007800038462168FFF743FF46B200202060A6B13B
:10079000012E29D1E87818B905206B4908700BE0C3
:1007A000022069490870814668480068401C674912
:1007B00008600020674908701FE06648007840B173
:1007C000002062490860624A5F490620FFF77AFF0D
:1007D00004E05F4A5C491520FFF774FF5D4800782C
:1007E000401C5C49087008E000205A490870584ACB
:1007F00055491520FFF766FF00BF00BF5648C06887
:1008000000205549C8609BE003204F490870504ABA
:100810000620FFF757FF4E4A4B494320FFF752FF90
:100820008EE04D48C06840F6B831884204D30020BD
:100830004949C860012000E0002018B10420424965
:1008400008707DE0206800B97AE0404800780090A8
:1008500043462A4638462168FFF7D9FE46B20020B3
:1008600020608EB1012E28D14FF001093748006871
:10087000401C36490860002036490870344A324925
:100880000620FFF71FFF21E03248007850B100201A
:100890002E49086001202C4908702D4A0620FFF7D8
:1008A00011FF04E02A4A28491520FFF70BFF2948C9
:1008B0000078401C2749087008E00020254908708E
:1008C000234A21491520FFF7FDFE00BF00BF224843
:1008D000C06800202049C86032E01D4A1A4906203D
:1008E000FFF7F0FE1A4A18491820FFF7EBFE184AE6
:1008F00015491820FFF7E6FE4FF0FF390020124996
:1009000008701DE0FFE7124A0F490620FFF7DAFEE4
:100910004FF0FF3900200C490870104802F0D4FA5B
:1009200004280CD1C1020E4802F055FE4FF47A6043
:1009300000F061FF4FF40051094802F04AFE00BF89
:1009400000BF4846BDE8F8832C000020300000209E
:10095000340000202D000020A408002000E003083F
:1009600000100140704700BFFEE700BFFEE700BF78
:10097000FEE700BFFEE7704770477047B548006864
:10098000401CB4490860B448B0F8BA0438B1B24861
:10099000B0F8BA04401E81B2AF48A0F8BA14AF480C
:1009A000007850B1AD480078401EAC490870084648
:1009B000007810B90020AA490870704710B50024CB
:1009C0000121880704F03FF8012810D10121800798
:1009D00004F04AF800BF08E0A24850F82400401C88
:1009E000A04941F82400601C84B2062CF4DB10BD41
:1009F00010B501219C4804F026F801280BD10121F3
:100A0000994804F031F800F04DFD984880889749E6
:100A100008600020888010BD10B540F2277194480E
:100A200004F0E6F9012825D140F22771904804F03E
:100A300009FA9048006880B18E4882888088401CFE
:100A40008C4B9880981D815C894804F04DF9894849
:100A50000068401E8749086037E0002240F2277195
:100A6000834804F0E0F8012240F22661804804F057
:100A7000DAF82AE040F226617D4804F0B9F988B13D
:100A800040F226617A4804F0DDF9002240F2266146
:100A9000774804F0C8F800207649086001207649BC
:100AA000087012E040F22551714804F0A1F960B1DC
:100AB00040F225516E4804F0C5F96D4804F018F96C
:100AC000C4B2204601F0ACF800BF10BD10B540F232
:100AD00027716A4804F08CF9012825D140F227716A
:100AE000664804F0AFF96348006880B161488288C5
:100AF0008088401C5F4B9880981D815C5F4804F0A3
:100B0000F3F85C480068401E5A4908603FE0002244
:100B100040F22771594804F086F8012240F226611C
:100B2000564804F080F832E040F22661534804F061
:100B30005FF988B140F22661504804F083F9002241
:100B400040F226614D4804F06EF8002049490860E3
:100B50000120494908701AE040F22551474804F045
:100B600047F9A0B140F22551444804F06BF94348DD
:100B700004F0BEF8C4B242480078012803D12046F0
:100B800001F04EF802E0204601F096F900BF10BDDA
:100B900010B540F227713B4804F02AF9012825D10D
:100BA00040F22771374804F04DF93248006880B1AF
:100BB000304882888088401C2E4B9880981D815C2C
:100BC000304804F091F82B480068401E294908601D
:100BD0003FE0002240F227712A4804F024F8012265
:100BE00040F22661274804F01EF832E040F2266108
:100BF000244804F0FDF888B140F22661214804F051
:100C000021F9002240F226611E4804F00CF8002071
:100C1000184908600120184908701AE040F225516F
:100C2000184804F0E5F8A0B140F22551154804F049
:100C300009F9144804F05CF8C4B21148007801289E
:100C400003D1204600F0ECFF02E0204601F034F929
:100C500000BF10BD48000020161500204C000020E9
:100C600051000020A4080020000400408000002063
:100C700000380140BC080020400000200044004033
:100C80001D0000200048004010B5044624B1082192
:100C9000B04802F09EFC03E00821AE4802F09BFC45
:100CA00010BD10B5044624B10421AA4802F091FCFD
:100CB00003E00421A74802F08EFC10BD10B501240A
:100CC0000120FFF7EEFF0120FFF7DEFF0821A1481A
:100CD00002F065FC20B104219E4802F060FC08B9D6
:100CE000002405E00020FFF7DCFF0020FFF7CCFF29
:100CF000204610BD10B50020FFF7C6FF0020FFF70B
:100D0000D0FF0120FFF7C0FF0120FFF7CAFF10BD91
:100D10002DE9F0410646802400270FE0264203D04B
:100D20000120FFF7BEFF02E00020FFF7BAFF01201D
:100D3000FFF7AAFF0020FFF7A7FF6410002CEDD1FA
:100D40000120FFF7AEFF0120FFF79EFF002507E01F
:100D50000421804802F023FC00B903E0681CC5B2FE
:100D6000642DF5DB00BF04217A4802F018FC074629
:100D70000020FFF789FF3846BDE8F08170B50546D1
:100D8000002680240120FFF78CFF0DE00120FFF7F3
:100D90007BFF04216F4802F002FC012800D12643AA
:100DA0000020FFF771FF6410002CEFD11DB100206F
:100DB000FFF777FF02E00120FFF773FF0120FFF745
:100DC00063FF0020FFF760FF304670BD70B504463A
:100DD0000D46012D02D144F0010401E024F001048C
:100DE00003260AE0FFF76AFF00B906E02046FFF796
:100DF0008FFF08B9012070BD00BF3000A6F10101CE
:100E0000CEB2EFD100BFF6E72DE9F04180460D46A6
:100E100014461E46032716E000214046FFF7D6FF82
:100E200000B910E02846FFF773FF012800D10AE05F
:100E300003E02078FFF76CFF641C3000A6F101018D
:100E4000CEB2F6D104E03800A7F10101CFB2E3D170
:100E500000BFFFF74FFF17B90020BDE8F081012068
:100E6000FBE72DE9F04180460E4614461D46032758
:100E70001DE000214046FFF7A9FF00B917E030460A
:100E8000FFF746FF012800D111E001214046FFF79E
:100E90009DFF00B90BE004E02846FFF76FFF2070CC
:100EA000641C2800A5F10101CDB2F5D104E03800A1
:100EB000A7F10101CFB2DCD100BFFFF71BFF17B9CB
:100EC0000020BDE8F0810120FBE738B504460D465F
:100ED000009501236A4621468A20FFF795FF38BD19
:100EE00038B5044601236A4621468A20FFF7B9FF38
:100EF0009DF8000038BD70B504460D46C4F30721C7
:100F0000FF20FFF7E2FFE0B22946FFF7DEFF70BDEA
:100F100010B50446C4F30721FF20FFF7D6FFE0B267
:100F2000FFF7DEFF10BD38B504460D4600950123DE
:100F30006A4621465820FFF767FF38BD38B504469A
:100F400001236A4621465820FFF78BFF9DF80000D9
:100F500038BD00000010014070B5FF20FFF7C0FF52
:100F6000054640F60930FFF7D3FF044644F001017F
:100F70000920FFF7AAFF2946FF20FFF7A6FF70BD53
:100F800070472DE9F041054600241DE0012D02D0F7
:100F90002C2D0CD105E02B48065D0146601C0F5C32
:100FA00007E02948065D0146601C0F5C01E0BDE8D2
:100FB000F08100BFFF2F02D1FF2E00D108E039469B
:100FC0003046FFF782FFA41C42F202008442DDD3C8
:100FD00000BF0021FF20FFF778FF00BFE7E710B553
:100FE0000446282C13D007DC84B1012C0BD0022C32
:100FF0000AD0032C15D108E0292C0CD02A2C0BD0B8
:101000002B2C0ED109E000BF00BF00BF00BF20465F
:10101000FFF7B7FF06E000BF00BF2046FFF7B1FFB4
:1010200000E010BD00BF00BFFBE710B5202107485E
:1010300002F0D1FA322000F0DEFB2021034802F05A
:10104000C8FA10BDCA4F00088251000800100140C4
:1010500010B502F07FFB4FF4803002F0A2FB02F0EB
:10106000DFFBC149087008460078012825D110200F
:1010700001F0DAFE022001F0C3FE002002F043FC82
:10108000002002F052FC002002F046FC4FF4E01178
:101090004FF4803002F0EDFB012002F0F6FB00BFC0
:1010A000392002F0A1FB0028FAD0022002F01DFC3A
:1010B00000BF02F023FC0828FBD110BD10B50121B0
:1010C0007C2002F062FD4FF6FF70A84908800020E6
:1010D000C870A74802F0D2F9A449A64802F0CEF998
:1010E000A249A54802F0CAF9A049A44802F0C6F9ED
:1010F0009E49A34802F0C2F900217C2002F045FD80
:1011000010BD10B501211C2002F03FFD4FF400502E
:10111000964908801020C87001208870964802F017
:10112000ADF94FF40040914908801020C8700120AB
:101130008870904802F0A2F94FF480708B490880C3
:101140001020C870012088708A4802F097F90820A2
:1011500086490880032088701020C870864802F0F5
:101160008DF9042081490880032088701420C870FC
:10117000814802F083F920207C4908800320887090
:101180001020C8707C4802F079F94FF480507749FC
:1011900008804820C870774802F070F94FF400507A
:1011A000724908801820C870724802F067F94FF43D
:1011B00080606E4908801020C870012088706C48DB
:1011C00002F05CF94FF40070684908801020C87084
:1011D00001208870664802F051F9022063490880B6
:1011E0001020C870634802F049F980205F490880E8
:1011F0001020C870012088705F4802F03FF94FF45A
:1012000000715B4802F0E5F94FF48061584802F044
:10121000E0F910BD00B587B05A4801F0FBF85A4814
:1012200001F0F8F804A801F019FA684601F095F900
:1012300000208DF816008DF817008DF818008DF835
:1012400019008DF81A008DF81B008DF812008DF82A
:1012500013000C208DF8140001208DF815000420D7
:10126000ADF8100004A9474801F0EDF800208DF812
:1012700016008DF817008DF818008DF819008DF8FC
:101280001A008DF81B008DF812008DF813000C2049
:101290008DF8140001208DF815000420ADF8100021
:1012A00004A9394801F0CFF800208DF80A008DF824
:1012B0000B0001208DF80C000020ADF80000ADF807
:1012C0000200ADF80400ADF80600ADF808000120FA
:1012D0008DF80D00684601F040F9002001F0CEF9CC
:1012E00007B000BD01B502E00098401E00900098D4
:1012F0000028F9D108BD10B545F2555002F00AFAA0
:10130000042002F00AFA4FF49C7002F009FA00205F
:1013100002F000FA02F00CFA02F005FA10BD704774
:1013200010B500214FF0006003F0DEFD4FF4407077
:1013300003F0A2FD10BD10B5FFF78AFEFFF7F0FF26
:10134000FFF7BCFEFFF7DDFE00F062F800F075F974
:1013500000F01CF810BD10B500F0A4F800F04CF837
:1013600000F01DFA10BD00003C00002038000020F5
:1013700000080140000C0140001001400014014031
:101380000018014000640040006800401FB54FF4A1
:101390007A740121084602F005FCE00602F05AFCCE
:1013A0000020ADF80200ADF80600601EADF80400A4
:1013B0004720ADF800006946E00602F01FFD1C2042
:1013C0008DF80C000A208DF80D0000208DF80E001D
:1013D00001208DF80F0003A803F053FD0021E00663
:1013E00003F0FCFA01221146900703F07EF8012178
:1013F000880703F05FF81FBD10B5002201218807A0
:1014000003F073F800214FF0804003F053F810BD53
:101410001FB541F288340121022002F0C3FB2C48A1
:1014200002F018FC0020ADF80200ADF80600601EC6
:1014300080B2ADF804004020ADF8000069462448B1
:1014400002F0DCFC1D208DF80C0006208DF80D004C
:1014500000208DF80E0001208DF80F0003A803F086
:1014600010FD00211A4803F0B9FA002201211848A2
:1014700003F03BF80121164803F0F6FA0021144866
:1014800003F018F81FBD10B50021114803F0A6FAAB
:1014900001210F4803F00EF8012211460C4803F019
:1014A00024F810BD10B50021094803F003F800210D
:1014B000074803F093FA00220121054803F015F8CC
:1014C00010BD10B504462146014803F087FA10BD4F
:1014D0000004004000B587B0012144F2090002F089
:1014E00054FB02A803F070FB4FF4964002900020DA
:1014F000ADF80E00ADF80C00ADF810000C20ADF802
:10150000120002A9FE4803F0F6FA4020ADF81800D8
:1015100001208DF81A0018208DF81B0006A9F94843
:1015200001F0ACFF8020ADF8180001208DF81A0002
:1015300004208DF81B0006A9F24801F09FFF01214D
:10154000042002F06AF8012240F22771EC4803F00F
:101550006AFB012240F22551E94803F064FB252093
:101560008DF8040001208DF8050000208DF806009C
:1015700001208DF8070001A803F083FC0121E04859
:1015800003F045FB07B000BD00B587B00121052081
:1015900002F0FBFA0121480402F004FB02A803F068
:1015A00013FB4FF4E13002900020ADF80E00ADF8CF
:1015B0000C00ADF810000C20ADF8120002A9D248C2
:1015C00003F099FA01208DF81A000820ADF81800F0
:1015D00004208DF81B0006A9CC4801F04FFF042021
:1015E000ADF8180001208DF81A0018208DF81B00A6
:1015F00006A9C64801F042FF012240F22771C24805
:1016000003F011FB012240F22551BF4803F00BFB10
:1016100026208DF8040001208DF8050000208DF8AB
:10162000060001208DF8070001A803F02AFC012123
:10163000B54803F0ECFA07B000BD00B587B0012152
:10164000092002F0A2FA0121880402F0ABFA02A8F4
:1016500003F0BAFA4FF4964002900020ADF80E0065
:10166000ADF80C00ADF810000C20ADF8120002A986
:10167000A74803F040FA01208DF81A00C002ADF827
:10168000180004208DF81B0006A99E4801F0F6FE04
:101690004FF48060ADF8180001208DF81A00182072
:1016A0008DF81B0006A9974801F0E8FE012240F2E0
:1016B0002771974803F0B7FA012240F22551944868
:1016C00003F0B1FA27208DF8040001208DF8050001
:1016D00000208DF8060001208DF8070001A803F016
:1016E000D0FB01218A4803F092FA07B000BD10B583
:1016F00000BF884800780128FBD10021804803F012
:1017000086FA002240F227717D4803F08CFA00220D
:1017100040F225517A4803F086FA002240F2266111
:10172000774803F080FA40F22771754803F08AFB8E
:1017300040F22661724803F085FB40F22551704863
:1017400003F080FB10BD10B500BF7248007801287F
:10175000FBD100216C4803F05AFA002240F22771B5
:10176000694803F060FA002240F22551664803F010
:101770005AFA002240F22661634803F054FA40F21C
:101780002771614803F05EFB40F226615E4803F07A
:1017900059FB40F225515C4803F054FB10BD10B5D5
:1017A00000BF5C4800780128FBD10021584803F0B5
:1017B0002EFA002240F22771554803F034FA002235
:1017C00040F22551524803F02EFA002240F22661E1
:1017D0004F4803F028FA40F227714D4803F032FBDE
:1017E00040F226614A4803F02DFB40F2255148485B
:1017F00003F028FB10BD10B50446002046490860E0
:1018000000BF01F090FF44480068A042F9D300BF38
:1018100000BF10BD00BF00BF00BF00BF00BF00BFC2
:1018200000BF00BF00BF00BF00BF704700B5FFF79B
:10183000F1FFFFF7EFFFFFF7EDFFFFF7EBFFFFF71C
:10184000E9FF00BD00B5FFF7F1FFFFF7EFFF00BDB7
:1018500000B5002000BF03E0FFF7F4FF411CC8B251
:101860003228F9DB00BD00B5002000BF03E0FFF720
:10187000E9FF411CC8B20A28F9DB00BD00B5002011
:1018800000BF03E0FFF7DEFF411CC8B20528F9DB0B
:1018900000BD70B5044621461B4803F025FAC82553
:1018A00001E0FFF7C3FF8021174803F08BFA18B956
:1018B000681EC0B20500F4D170BD70B505460C4677
:1018C0001648006860BB002C33DDB4F5836F30DC54
:1018D0001048007801282CD115F8011B0A4803F0A4
:1018E00003FA00200B490870601E0C4908600020B4
:1018F0008880621E29460948801D03F02BFB10E0FA
:1019000000380140000C0140004400400008014044
:10191000004800404000002048000020BC08002093
:1019200007E0012240F22771FD4803F07CF9012015
:1019300070BD0020FCE701B501216846FFF7BDFF3F
:1019400008BD10B50446F02C08D0F32C0AD0FC2CAE
:101950000CD0FF2C0ED1FFF7EEFF0BE0F020FFF7CD
:10196000EAFF07E0F320FFF7E6FF03E0FC20FFF7C4
:10197000E2FF00BF00BF10BD70B50546EE78002045
:10198000E84908700120E8490870711D2846FFF7F2
:1019900094FF012801D0002070BD0020E2490870AA
:1019A000E248007830B1E1480078FFF7CAFF002034
:1019B000DE4908704FF4FA640FE0DA480078FF2837
:1019C00001D10120E8E7D7480078FC2801D10020A8
:1019D000E2E7FFF737FF601E84B2002CEDD1002054
:1019E000DAE710B504462046FFF7C6FF10BD70B514
:1019F00005460C46CE48006818BB002C21DDB4F526
:101A0000836F1EDCCB48007801281AD115F8011B22
:101A1000C94803F069F90020C6490870601EC4492E
:101A2000086000208880621E2946C148801D03F09E
:101A300091FA012240F22771BF4803F0F4F8012027
:101A400070BD0020FCE770B505460C46B84800683C
:101A500018BB002C21DDB4F5836F1EDCB54800787F
:101A600001281AD115F8011BB44803F03DF90020F4
:101A7000B0490870601EAE49086000208880621E70
:101A80002946AB48801D03F065FA012240F2277118
:101A9000AA4803F0C8F8012070BD0020FCE770B52B
:101AA00004460025204603F067FA85B200BF2946A8
:101AB0002046FFF702FF0128F9D170BD70B500255F
:101AC0002E209F49087090204870212088700120A6
:101AD000C8705520087108464578022404E09848EB
:101AE000005D4540601CC4B29548C078C01CA0424F
:101AF000F5DA9348C078001D91490D540846FFF768
:101B000070FF70BD3EB50025A0208DF800000420B8
:101B10008DF8010002208DF802008DF803000120ED
:101B20008DF804008DF80500012405E01DF804007F
:101B30002844C5B2601CC4B29DF80100401CA042FC
:101B4000F4DA9DF80100801C0DF800509DF80100AA
:101B5000C11C6846FFF777FF3EBD3EB50025A020BB
:101B60008DF8000007208DF8010001208DF802009B
:101B70008DF8030000208DF80400012405E01DF815
:101B800004002844C5B2601CC4B29DF80100401C8A
:101B9000A042F4DA9DF80100801C0DF800509DF879
:101BA0000100C11C6846FFF74EFF3EBDFEB504466E
:101BB0000026A0208DF8000007208DF801000120EC
:101BC0008DF8020002208DF8030000208DF804003B
:101BD000E0B28DF80500E0B200128DF80600E0B228
:101BE00000148DF80700E0B200168DF808000125FA
:101BF00005E01DF805003044C6B2681CC5B29DF86A
:101C00000100401CA842F4DA9DF80100801C0DF888
:101C100000609DF80100C11C6846FFF714FFFEBD7F
:101C200010B5044647488088B0F5836F00DB10BDCF
:101C30004448006800B1FAE742498888411C414A9B
:101C40009180911D0C54FFF71EFC00BFEFE72DE9BA
:101C5000F0410546002600242F4614203A4908701A
:101C60003A480078322802DB0020384908703848AA
:101C700036490978475435480078002837D1344828
:101C800032490978405C2E2803D101202F49087081
:101C90000FE12F482D490978405CF0280CD0F3283B
:101CA00011D0FC2816D0FF281BD10120294908702B
:101CB000FF201C49087015E0012026490870F0201B
:101CC000184908700EE0012022490870F3201549D8
:101CD000087007E001201F490870FC2011490870B6
:101CE00000E000BF00BF002017490870E1E017487E
:101CF000007801283FD1164814490978405C9128A2
:101D000033D0134811490978405C55282DD0064836
:101D10000078012820D1F320044908701FE000005A
:101D20000044004041000020430000204400002007
:101D3000BC0800204000002000380140004800405E
:101D4000741A0020800000204C0000205100002068
:101D5000E414002042000020F320FFF7F2FD0020F1
:101D6000FC490870FC490870A3E0FA480078401C60
:101D7000F84908709DE0F748007803280CD1F7482F
:101D8000F4490978405CF6490870084600782F2825
:101D900001DD0020087087E0EE4800780328FADDB6
:101DA000EC480178EE480078001D81427CDBEB486E
:101DB0004678022404E0E948005D4640601CC4B255
:101DC000E7480078C01C8442F5DDE449E448007827
:101DD000001D085CB04255D10020DE49087001208A
:101DE000E0490870E048007800EBC00101EB00100A
:101DF000DE4901EB400090F83100552836D0002430
:101E00000DE0D648005DD849097801EBC10202EB2C
:101E10000111D64A02EB41010855601CC4B2312CB5
:101E2000EFDB5520D049097801EBC10202EB01112B
:101E3000CE4A02EB410181F83100CB4800781328EB
:101E400005DAC9480078401CC749087002E0002044
:101E5000C5490870C6480078012803D1FF20C5494C
:101E600008700EE0FF20FFF76CFD0AE0C048007824
:101E7000012803D1FC20BF49087002E0FC20FFF7D5
:101E800060FD17E00020B3490870B3490870B848F6
:101E90000078012804D1F020B649087003E003E07F
:101EA000F020FFF74EFD05E0AA480078401CA94944
:101EB000087000BFBDE8F08170B501460022002027
:101EC0000B46AD4CB4F8BA4484B90025AA4C84F84A
:101ED000B7546479641CA84D6C712C466479142540
:101EE00094FBF5F605FB1644A34D6C710A25A24C34
:101EF000A4F8BA546479C4EB04159F4CE41D04EBB8
:101F00008505E41F94F8B7442B559B4C94F8B744CF
:101F1000641CE5B2984C84F8B75494F8B744322C5A
:101F200003DB3125944C84F8B754934C6479C4EBAB
:101F30000415914CE41D14F82540A02C7CD18E4C46
:101F400094F8B744052C7CDD8B4C94F8B754647935
:101F5000C4EB0416884CE41D04EB86046478A41CCE
:101F6000A5426EDD002201200CE0834C6479C4EBB5
:101F70000415814CE41D04EB8504245C1444E2B296
:101F8000441CE0B27C4C6479C4EB04157A4CE41D2B
:101F900004EB85046478641C8442E6DA764C647948
:101FA000C4EB0415744CE41D04EB8505E41F64794F
:101FB000C4EB0416704CE41D04EB86046478A41C86
:101FC0002C5D944239D16C4C6479C4EB04156A4C95
:101FD000E41D04EB8504E478052C29D0002010E0F2
:101FE000654C6479C4EB0415634CE41D04EB850473
:101FF000245C624D624E367805EB06152C54441C69
:10200000E0B25D4C6479C4EB04155B4CE41D04EB59
:1020100085046478A41C8442E2DA594C2478641C58
:10202000574D2C702C4624780A2C01DB00242C7090
:102030000025514CA4F8BA5403E000254E4C84F816
:10204000B75470BD30B5FF214E4A4F4B1B78132B50
:1020500002DD00234C4C2370002049E04A4B1B78E2
:1020600003EBC30404EB0313404C04EB430393F86A
:102070003130552B2FD1FF21434B1B7803EBC30489
:1020800004EB0313394C04EB43035B78912B22D10F
:102090003D4B1B7803EBC30404EB0313334C04EBFD
:1020A00043039B78612B05D10123384C2370384CB6
:1020B000237000E000BF00BFAA23334C247804EB58
:1020C000C40505EB0414294D05EB440484F83130B4
:1020D00000BF00BF00BF2C4B1B785B1C2A4C237039
:1020E00023461B78132B01DD00232370431CD8B239
:1020F0001428B3DB30BD274A1278214B1B789A4253
:1021000000D170471D4A234B1B7802EB03129178D4
:102110001A4A204B1B7802EB0312D07802290AD10D
:10212000032805D10122194B1A70194B1A7000E0CF
:1021300000BF00BF00BF00BF164A1278521C154BEB
:102140001A701A4612780A2A01DB00221A7000BFA0
:10215000D7E70000510000204C000020E4140020CC
:102160004E000020420000204F000020FC10002004
:10217000430000204400002016150020D419002040
:102180005400002002550155500000202800002076
:102190001D000020550000200CB50020019000908B
:1021A0009148006840F480308F49086000BF8E4835
:1021B000006800F4003000900198401C01900098E5
:1021C00018B90198B0F5A06FF1D18748006810F4F4
:1021D000003F02D00120009001E000200090009814
:1021E00001285AD18148006840F010007F490860FA
:1021F0000846006820F0030008600846006840F0C8
:10220000020008607848406877494860084640689E
:1022100048600846406840F4806048600846C06AEC
:10222000734908407049C8620846C06A714908434A
:102230006D49C8620846006840F08060086000BFD1
:102240006948006810F0006FFAD06748406820F4D1
:102250007C10654948600846406840F4E8104860D2
:102260000846006840F08070086000BF5E48006863
:1022700010F0007FFAD05C48406820F003005A4913
:1022800048600846406840F00200486000BF564879
:10229000406800F00C000828F9D10CBD10B5FFF71C
:1022A0007BFF10BD10B55048006840F001004E495A
:1022B000086008464068504908404B494860084655
:1022C00000684E490840484908600846006820F404
:1022D000802008600846406820F4FE0048600846F8
:1022E000006820F0A05008604FF47F008860002054
:1022F000C862FFF7D3FF4FF000604149086010BD8E
:10230000F0B5002100200023002400220025002633
:10231000354F7F6807F00C0121B1042908D0082946
:102320004BD10BE0374FDFF8E0C0CCF800704AE04B
:10233000344FDFF8D4C0CCF8007044E02A4F7F68F7
:1023400007F47010284F7F6807F48033800C0D2845
:1023500001D0801C00E0062033B92C4F4743DFF842
:10236000A8C0CCF8007027E01F4FFF6A07F4803444
:102370001D4FFF6A07F00F077A1C44B9214FB7FBC6
:10238000F2F74743DFF880C0CCF8007014E0164F36
:10239000FF6AC7F303177D1C134FFF6AC7F30327B8
:1023A000BE1C184FB7FBF5F77743B7FBF2F747436F
:1023B000DFF854C0CCF8007005E0124FDFF848C0D9
:1023C000CCF8007000BF00BF074F7F68C7F303174A
:1023D000DFF83CC01CF807100B4F3F68CF40DFF818
:1023E00028C0CCF80070F0BD001002400020024070
:1023F00000F0FEFF440601000000FFF0FFFFF6FEC4
:1024000008ED00E000127A005800002000093D00AD
:102410005C00002010B50446FE48844209D1012129
:10242000480601F0E6FB00214FF0007001F0E1FBEF
:1024300008E00121880601F0DCFB00214FF08060FC
:1024400001F0D7FB10BD30B5024600200023146810
:1024500024F002041460146844F00104146000E0E5
:102460005B1C546814F0010F03D1A3F57F44FF3CBB
:10247000F6D1546814F0010F01D100206CE08C7982
:10248000012C04D1146844F08004146003E0146843
:1024900024F080041460CC79012C04D1146844F039
:1024A0004004146003E0146824F0400414600C7AC3
:1024B000012C04D1146844F02004146003E0146873
:1024C00024F0200414604C7A012C04D1146844F0E8
:1024D0001004146003E0146824F0100414608C7A73
:1024E000012C04D1146844F00804146003E014685B
:1024F00024F008041460CC7A012C04D1146844F050
:102500000404146003E0146824F0040414608C785C
:10251000A407CD7844EA05640D7944EA05444D7971
:1025200044EA05540D886D1E2C43D461146824F0D0
:1025300001041460002300E05B1C546814F0010FD8
:1025400003D0A3F57F44FF3CF6D1546814F0010F8B
:1025500001D0002000E0012030BD10B50021837AB9
:10256000012202FA03F1AC4A126842F00102AA4BBE
:102570001A60A94A1C3212688A43A74B1C331A609E
:10258000027BCAB9A44A0C3212688A43A24B0C33AC
:102590001A604288C38842EA03439F4A4032847AE1
:1025A00042F834300288838842EA03439A4A403230
:1025B000847A02EBC4025360027B012A19D1964A45
:1025C0000C3212680A43944B0C331A604288038819
:1025D00042EA0343904A4032847A42F83430C28857
:1025E000838842EA03438C4A4032847A02EBC40275
:1025F0005360C27A3AB9884A121D12688A43864BE0
:102600001B1D1A6006E0844A121D12680A43824BA1
:102610001B1D1A60028932B97F4A143212688A433C
:102620007D4B14331A600289012A06D17A4A14328A
:1026300012680A43784B14331A60427B012A06D190
:10264000754A1C3212680A43734B1C331A60724A73
:10265000126822F00102704B1A6010BD00218171D6
:10266000C171017241728172C1728170C1700321A6
:102670000171022141710121018070476649096899
:1026800041F00101644A11601146096843F60E7277
:102690009143614A11601146096841EA00211160C5
:1026A0001146096821F001011160704721B10268EB
:1026B00042F48032026003E0026822F48032026059
:1026C0007047E1B1026842F0800202604FF4C272CA
:1026D000125842F480734FF4C27213504FF4CA720E
:1026E000125842F480734FF4CA7213504FF4D272EE
:1026F000125842F480734FF4D27213501BE00268F8
:1027000022F0800202604FF4C272125822F48073E9
:102710004FF4C27213504FF4CA72125822F48073ED
:102720004FF4CA7213504FF4D272125822F48073CD
:102730004FF4D2721350704710B5024600209368D0
:1027400003F08063B3F1806F00D110E0936803F071
:102750000063B3F1006F01D1012008E0936803F03A
:102760008053B3F1805F01D1022000E004200428EF
:1027700079D002F5C07303EB00131B6803F001046A
:1027800002F5C07303EB00131C600B7A7BB94B7A24
:102790000C8843EA445302F5C07404EB0014246827
:1027A000234302F5C07404EB0014236010E00B7A9D
:1027B0004C6843EAC4034C7A234302F5C07404EB2B
:1027C00000142468234302F5C07404EB0014236052
:1027D0008B7A03F00F038B7202F5C07303EB0013C7
:1027E0005B6823F00F0402F5C07303EB00135C6019
:1027F00002F5C07303EB00135B688C7A234302F588
:10280000C07404EB001463608B7B1C064B7B44EAB2
:10281000034403E000640040006600400B7B44EA90
:102820000323CC7A234302F5C07404EB0014A360A5
:102830008B7C1C064B7C44EA03440B7C44EA032358
:10284000CC7B234302F5C07404EB0014E36002F573
:10285000C07303EB00131B6843F0010402F5C0735F
:1028600003EB00131C6010BD10B50246002321B11C
:10287000012907D002290FD109E09068F84C00EA3D
:1028800004030BE09068F74C00EA040306E090684C
:10289000F54C00EA040301E0002300BF00BFF34C45
:1028A000181BA34216D007DC83B16FF080601818A4
:1028B0000ED0022818D111E0B0F5007F10D0EC4CFA
:1028C000001909D0B0F5003F0ED10BE002230DE056
:1028D00000230BE0002309E0002307E0012305E0CB
:1028E000012303E0012301E0002300BF00BFD8B2B1
:1028F00010BD21B1012907D002290FD109E082685A
:1029000042F0800282600AE0826842F40042826003
:1029100005E0826842F40002826000E000BF00BF70
:10292000704710B500F5D87303EB01131B6803F073
:1029300004031372137A53B900F5D87303EB011330
:102940001B6840F2FF7404EA5353136009E000F57A
:10295000D87303EB01131B686FF0604404EAD303E0
:10296000536000F5D87303EB01131B6803F00203F7
:10297000537200F5D87303EB01135B6803F00F0388
:10298000937200F5D87303EB01135B681B0AD374D1
:1029900000F5D87303EB01139B68D37200F5D8736D
:1029A00003EB01139B681C0A147300F5D87303EB47
:1029B00001139B681C0C547300F5D87303EB0113CF
:1029C0009B681B0E937300F5D87303EB0113DB6850
:1029D000D37300F5D87303EB0113DB681C0A14747E
:1029E00000F5D87303EB0113DB681C0C547400F57D
:1029F000D87303EB0113DB681B0E937421B9C36812
:102A000043F02003C36003E0036943F02003036144
:102A100010BD21B9C26842F02002C26003E0026921
:102A200042F02002026170470246002019B9D368C3
:102A300003F0030006E0012903D1136903F003004A
:102A400000E00020704710B502460B4600204FF60C
:102A5000FF71BBB9146824F0020444F0010414604F
:102A600000E0491E546804F00304012C01D0002941
:102A7000F7D1546804F00304012C01D0002032E0A7
:102A8000012030E0012B13D1146824F003041460FA
:102A900000E0491E546814F0030F01D00029F8D15A
:102AA000546814F0030F01D000201CE001201AE04C
:102AB000022B17D1146824F0010444F002041460BE
:102AC00000E0491E546804F00304022C01D00029E0
:102AD000F7D1546804F00304022C01D0002002E076
:102AE000012000E0002010BD014600200A6822F00D
:102AF000010242F002020A604A6802F00302022A5E
:102B000000D10120704701464FF6FF7200200B688C
:102B100023F002030B6000E0521E4B6803F0020337
:102B2000022B01D1002AF7D14B6803F00203022BDC
:102B300000D001207047014600208A6902F0700031
:102B40007047014600208A69100E70470146002038
:102B50008A69C2F3074070471AB143690B43436166
:102B600002E043698B434361704710B50246002081
:102B700011F4700F08D09369C1F31304234201D0FC
:102B800001202DE000202BE011F0807F08D0536859
:102B9000C1F31304234201D0012021E000201FE0F3
:102BA00011F0006F08D09368C1F31304234201D0E1
:102BB000012015E0002013E011F0007F08D0D36859
:102BC000C1F31304234201D0012009E0002007E0F3
:102BD0001369C1F31304234201D0012000E0002057
:102BE00010BD0022234B994202D10023836111E0E2
:102BF000C1F3130211F0007F01D0C2600AE011F0AE
:102C0000806F01D0026105E011F0006F01D0826099
:102C100000E042607047024600200A4201D00120D5
:102C200000E00020704770B504460D46002660693C
:102C3000284272D0B5F5807F69D01DDC082D42D0C6
:102C400006DC012D2DD0022D31D0042D7FD134E0B2
:102C5000102D3ED0202D42D0402D78D145E00000EF
:102C60000300000400030008000003100001000836
:102C70000001FFF77000F030B5F5004F61D009DCBE
:102C8000B5F5007F4AD0B5F5806F4DD0B5F5006F32
:102C90005DD150E0B5F5803F2DD0B5F5003F56D160
:102CA0002FE0A0685549FFF7B6FF064651E0E068FF
:102CB0000321FFF7B0FF06464BE0E0680821FFF76D
:102CC000AAFF064645E0E0681021FFF7A4FF06468C
:102CD0003FE020690321FFF79EFF064639E02069A7
:102CE0000821FFF798FF064633E020691021FFF71F
:102CF00092FF06462DE060680821FFF78CFF06462C
:102D000027E060681021FFF786FF064621E0A069F2
:102D10000121FFF780FF06461BE01BE0A0690221AE
:102D2000FFF779FF064614E0A0690421FFF773FF5F
:102D300006460EE00BE0A0697021FFF76CFF064627
:102D400007E060680421FFF766FF064601E0002601
:102D500000BF00E00026304670BDB1F5007F3AD0DC
:102D60000FDC202928D006DC01291CD004291DD025
:102D7000082940D11DE0402921D0B1F5807F3AD10A
:102D800026E0B1F5004F31D006DCB1F5806F25D0DB
:102D9000B1F5006F2FD124E0B1F5803F12D0B1F52D
:102DA000003F28D111E0154A826025E00822C26068
:102DB00022E01022C2601FE0082202611CE0102203
:102DC000026119E00822426016E01022426013E01E
:102DD0000422426010E0042242600DE004224260BE
:102DE0000AE0002282610422426005E00022826142
:102DF0000422426000E000BF00BF704701010100F3
:102E000001460020FE4A106800F0380008431060B8
:102E10007047FB49096821F00801F94A1160114621
:102E20000968014311607047F549096821F01001F4
:102E3000F34A116011460968014311607047F14877
:102E4000EF494860F04848607047EE48EC494860F8
:102E5000ED4848607047EA48006940F08000E84962
:102E600008617047E648006940F08000E449086165
:102E700070470420E249C96811F0010F01D0012018
:102E80000EE0DF49C96811F0040F01D0022007E00D
:102E9000DB49C96811F0100F01D0032000E00420C5
:102EA000704700B502460423FFF7E3FF034603E043
:102EB000FFF7DFFF0346521E012B01D1002AF7D195
:102EC00002B90523184600BD30B5044604254FF469
:102ED0003020FFF7E6FF0546042D17D1C8480069EA
:102EE00040F00200C649086108464461006940F0AC
:102EF000400008614FF43020FFF7D3FF0546C0487B
:102F0000006941F6FD710840BD490861284630BDA1
:102F100010B504244FF43020FFF7C3FF0446042CFF
:102F200016D1B748006940F00400B5490861084669
:102F3000006940F0400008614FF43020FFF7B1FF16
:102F40000446AF48006941F6FB710840AC4908618E
:102F5000204610BD00B502460423FFF78AFF034652
:102F600003E0FFF786FF0346521E012B01D1002A22
:102F7000F7D102B90523184600BD10B504244FF45B
:102F80003020FFF7E7FF0446042C16D19C48006967
:102F900040F004009A4908610846006940F040008A
:102FA00008614FF43020FFF7D5FF044694480069CC
:102FB00041F6FB71084092490861204610BD00208F
:102FC0008F49C96911F0020F01D0012000E00020F3
:102FD000704730B5A5250424FFF7F1FF00B10025A7
:102FE0004FF43020FFF75DFF0446042C3AD18548AA
:102FF00083498860844888600846006940F0200062
:1030000008610846006940F0400008614FF4302034
:10301000FFF747FF0446042C1BD17948006941F6AD
:10302000DF710840764908610846006940F01000E9
:10303000086176480580E002FFF733FF0446052C5F
:1030400010D06F48006941F6EF7108406C49086183
:1030500008E0052C06D06A48006941F6EF71084087
:1030600067490861204630BD78B506460C46042500
:1030700000200090E802FFF714FF0546042D24D13C
:103080005F48006940F001005D4908613480E80252
:10309000FFF707FF0546042D10D1B01C0090200C4F
:1030A00000990880E802FFF7FCFE054654480069D5
:1030B00041F6FE7108405249086106E05048006937
:1030C00041F6FE7108404E490861284678BD70B54A
:1030D00004460D460426F002FFF7E3FE0646042EE2
:1030E00011D14748006940F0010045490861258039
:1030F000F002FFF7D6FE06464148006941F6FE7130
:1031000008403F490861304670BD70B505460E461F
:103110000424E002FFF7C5FE0446042C17D1394809
:1031200037498860384888600846006940F01000D8
:1031300008612E80E002FFF7B4FE0446052C06D09D
:103140002F48006941F6EF7108402D49086120467B
:1031500070BD2DE9F04304464FF6FF763746B04682
:10316000B1460425E443E6B2C4F30727C4F3074895
:103170004FEA1469E802FFF794FE0546042D49D191
:1031800020481F498860204888600846006940F050
:1031900010000861FF2E06D01C4808300680E802A7
:1031A000FFF77FFE0546042D08D1FF2F06D01748F4
:1031B0000A300780E802FFF774FE0546042D0AD1A5
:1031C000B8F1FF0F07D011480C30A0F80080E802DA
:1031D000FFF767FE0546042D0AD1B9F1FF0F07D0AE
:1031E0000A480E30A0F80090E802FFF75AFE0546A4
:1031F000052D0FD00248006941F6EF71084007E045
:103200000020024023016745AB89EFCD00F8FF1F86
:10321000664908612846BDE8F08330B505460424B8
:103220004FF43020FFF73DFE0446042C41D16048A6
:103230005E4988605F4888600846006940F0200069
:1032400008610846006940F0400008614FF43020F2
:10325000FFF727FE0446042C22D15448006941F6AA
:10326000DF710840514908610846006940F01000CC
:1032700008611DB100205049088002E0A5204E4998
:1032800008804FF43020FFF70CFE0446052C10D0C8
:103290004648006941F6EF7108404449086108E07A
:1032A000052C06D04148006941F6DF7108403F49CE
:1032B0000861204630BDF0B505460E461746042489
:1032C0003B483A4988603B488860E002FFF7E9FDE7
:1032D0000446042C19D13548006940F010003349E8
:1032E000086147F0F800304328433349891C0880BF
:1032F000E002FFF7D6FD0446052C06D02B480069F6
:1033000041F6EF710840294908612046F0BD274881
:10331000C069800870472548006A7047002023492B
:10332000096811F0200F01D0012000E00020704753
:1033300029B11E4A126902431C4B1A6104E01B4A60
:1033400012698243194B1A61704701460020012916
:1033500008D1164AD26912F0010F01D0012008E00D
:10336000002006E0114AD2680A4201D0012000E0A4
:10337000002070470D49C860704704200B49C96898
:1033800011F0010F01D001200EE00849C96811F0C9
:10339000040F01D0022007E00449C96811F0100FA2
:1033A00001D0032000E0042070470000002002400C
:1033B00023016745AB89EFCD00F8FF1F10B5044628
:1033C000CA48844208D10121042000F005FC0021F4
:1033D000042000F001FC46E0C548844208D10121E8
:1033E000082000F0F9FB0021082000F0F5FB3AE08E
:1033F000C048844208D10121102000F0EDFB0021DB
:10340000102000F0E9FB2EE0BB48844208D10121E6
:10341000202000F0E1FB0021202000F0DDFB22E075
:10342000B648844208D10121402000F0D5FB00219C
:10343000402000F0D1FB16E0B148844208D10121C0
:10344000802000F0C9FB0021802000F0C5FB0AE0CD
:10345000AC48844207D10121801500F0BDFB00215A
:10346000A01500F0B9FB10BD10B50121084600F011
:10347000B3FB0021012000F0AFFB10BD2DE9F041AE
:10348000024600250026002000230024002791F892
:1034900003C00CF00F0591F803C01CF0100F03D00F
:1034A00091F802C04CEA050591F800C0BCF1000F8C
:1034B00031D0146800202BE04FF0010C0CFA00F31F
:1034C000B1F800C00CEA03069E4220D183004FF001
:1034D0000F0C0CFA03F7BC4305FA03FC4CEA040496
:1034E00091F803C0BCF1280F06D14FF0010C0CFA83
:1034F00000FCC2F814C00AE091F803C0BCF1480F08
:1035000005D14FF0010C0CFA00FCC2F810C0401CB1
:103510000828D1D31460B1F800C0BCF1FF0F34DD2E
:10352000546800202EE000F1080C4FF0010808FA62
:103530000CF3B1F800C00CEA03069E4221D18300CF
:103540004FF00F0C0CFA03F7BC4305FA03FC4CEAEE
:10355000040491F803C0BCF1280F05D100F1080C58
:1035600008FA0CF8C2F8148091F803C0BCF1480FB7
:1035700007D100F1080C4FF0010808FA0CF8C2F866
:103580001080401C0828CED35460BDE8F0814FF66F
:10359000FF710180022181700421C17070470246D1
:1035A000002093680B4201D0012000E0002070470A
:1035B0000146886880B2704702460020D3680B42FB
:1035C00001D0012000E0002070470146C86880B2A9
:1035D000704701617047416170470AB1016100E0C5
:1035E00041617047C16070474FF480320A43826185
:1035F0008161826182698269704702460020424B84
:1036000018684FF68073184040EA021008433E4B9A
:10361000186070473D49C8617047F0B50A460023FD
:1036200000240021002500F00046B6F1004F02D131
:10363000354EF16901E0344E7168C0F3034583B241
:1036400000F44016B6F5401F08D121F070612E4EEF
:10365000766826F070662C4F7E6012E000F48016CB
:10366000B6F5801F06D1032606FA05F4A14341F002
:10367000706106E0460D360103FA06F6B14341F0EB
:10368000706122B1460D360103FA06F6314300F0AF
:103690000046B6F1004F02D11B4EF16101E01A4E17
:1036A0007160F0BD30B500228B071C0F0F2303FAA9
:1036B00004F2154B08338C1053F824309343124C0A
:1036C00008348D1044F8253023468C1053F82430EC
:1036D0008C07240F00FA04F423430B4C08348D109C
:1036E00044F8253030BD0A490860704700080140A1
:1036F000000C01400010014000140140001801407E
:10370000001C014000200140000001400000204258
:10371000DC0020420E49086070470D494860704740
:103720000B49886070474AF6AA200949086070472B
:103730004CF6CC4006490860704701460020044A18
:10374000D2680A4201D0012000E00020704700004A
:1037500000300040F948006840F00100F749086077
:1037600008464068F6490840F44948600846006841
:10377000F4490840F14908600846006820F48020B8
:1037800008600846406820F4FE004860084600686B
:1037900020F0A05008604FF47F0088600020C862CD
:1037A0007047E649096821F48031E44A1160114606
:1037B000096821F480211160B0F5803F03D0B0F595
:1037C000802F0ED106E0DD49096841F48031DB4AE3
:1037D000116007E0D949096841F4A021D74A116076
:1037E00000E000BF00BF704710B501460022002373
:1037F00000204A11012A02D1D04C236806E0022A97
:1038000002D1CE4C236A01E0CC4C636A01F01F0266
:10381000012494401C4201D0012000E0002010BD92
:1038200038B5002000900024002500BF3120FFF7AC
:10383000DBFF05460098401C00900098B0F5A06F93
:1038400001D0002DF2D03120FFF7CEFF08B10124C6
:1038500000E00024204638BD01460020B74A106829
:1038600020F0F80040EAC10010607047B6490860D7
:10387000704702460020B14B586820F4741042EAA9
:1038800001031843AD4B58607047AF490866704755
:1038900002460020A94BD86AAC4B184042EA01030B
:1038A0001843A64BD862704701460020A34AD06A4D
:1038B00020F0F0000843D0627047014600209F4A84
:1038C000D06A20F470600843D06270479E498866D1
:1038D000704701460020994AD06A20F4704008439E
:1038E000D062704798490867704701460020934AA4
:1038F000506820F003000843506070478F484068CC
:1039000000F00C007047014600208C4A506820F0FF
:10391000F00008435060704701460020874A506815
:1039200020F4E06008435060704701460020834A5D
:10393000506820F4605040EAC1005060704729B1DF
:103940007E4A527A02437D4B5A7204E07B4A527A95
:1039500082437A4B5A7270477D490860704701462E
:103960000020764A506820F4404008435060704779
:103970007849086070477749091D08607047002141
:10398000754A11706D4A82F82010012802D004286F
:1039900008D103E00121704A117004E005216E4A4C
:1039A000117000E000BF00BF70476C4908607047AD
:1039B0006249096A0143614A1162704767494439A3
:1039C000086070472DE9F041002100220025002306
:1039D0000026002400278C46DFF86081D8F8048098
:1039E00008F00C0121B1042907D0082959D109E0B8
:1039F000DFF86C81C0F8008058E0DFF86481C0F81F
:103A0000008053E0DFF83481D8F8048008F47012A5
:103A1000DFF82881D8F8048008F48035920C0D2A4C
:103A200001D0921C00E0062235B9DFF8388102FB94
:103A300008F8C0F8008033E0DFF80081D8F82C8067
:103A400008F48036DFF8F480D8F82C8008F00F08EE
:103A500008F1010446B9DFF80881B8FBF4F808FB67
:103A600002F8C0F800801BE0DFF8D080D8F82C8086
:103A7000C8F3031808F10107DFF8C080D8F82C80DC
:103A8000C8F3032808F1020CDFF8D480B8FBF7F87C
:103A900008FB0CF8B8FBF4F808FB02F8C0F800804B
:103AA00004E0DFF8BC80C0F8008000BF00BFDFF892
:103AB0008C80D8F8048008F0F0010909DFF8A880AC
:103AC00018F80130D0F8008028FA03F8C0F8048014
:103AD000DFF86880D8F8048008F4E061090ADFF8AC
:103AE000888018F80130D0F8048028FA03F8C0F86C
:103AF0000880DFF84880D8F8048008F46051C90ACB
:103B0000DFF8648018F80130D0F8048028FA03F850
:103B1000C0F80C80DFF82480D8F8048008F4404115
:103B2000890BDFF8488018F80130D0F80C80B8FB1A
:103B3000F3F8C0F81080BDE8F081000000100240EA
:103B40000000FFF0FFFFF6FE00004242F0FFFEFF24
:103B5000D8004242C4054242201002408004424242
:103B600000127A0000093D006C0000207C0000205B
:103B700029B1354A52690243334B5A6104E0324A53
:103B800052698243304B5A61704729B12E4A92697B
:103B900002432D4B9A6104E02B4A926982432A4BDF
:103BA0009A61704729B1284AD2690243264BDA61EB
:103BB00004E0254AD2698243234BDA61704729B178
:103BC000214A926A0243204B9A6204E01E4A926A9A
:103BD00082431D4B9A62704729B11B4AD268024347
:103BE000194BDA6004E0184AD2688243164BDA6057
:103BF000704729B1144A12690243134B1A6104E059
:103C0000114A12698243104B1A6170470F490860CC
:103C100070470F49C86470470B49C87170470A481C
:103C2000406A40F0807008494862704701460020B1
:103C3000054A92680A4201D0012000E00020704746
:103C4000014988727047000000100240400442425F
:103C50000000424210B50446FE48844208D10121CA
:103C6000C014FFF7B9FF0021E014FFF7B5FFC4E06F
:103C7000B4F1804F08D101210846FFF7BAFF0021B7
:103C80000120FFF7B6FFB8E0F348844208D10121D4
:103C90000220FFF7AEFF00210220FFF7AAFFACE0F1
:103CA000EE48844208D101210420FFF7A2FF002141
:103CB0000420FFF79EFFA0E0E948844208D10121DB
:103CC0000820FFF796FF00210820FFF792FF94E0FD
:103CD000E448844208D101211020FFF78AFF002127
:103CE0001020FFF786FF88E0DF48844208D10121D9
:103CF0002020FFF77EFF00212020FFF77AFF7CE0E5
:103D0000DA48844208D101214014FFF765FF002101
:103D10006014FFF761FF70E0D548844209D10121AA
:103D2000C804FFF759FF00214FF40020FFF754FFAC
:103D300063E0D048844209D101210805FFF74CFF18
:103D400000214FF48010FFF747FF56E0CA48844235
:103D500009D101214805FFF73FFF00214FF4001072
:103D6000FFF73AFF49E0C548844208D101214020CD
:103D7000FFF73FFF00214020FFF73BFF3DE0C04839
:103D8000844208D101218020FFF733FF00218020E9
:103D9000FFF72FFF31E0BB48844208D10121801595
:103DA000FFF727FF0021A015FFF723FF25E0B64806
:103DB000844209D101210804FFF70EFF00214FF4CE
:103DC0008030FFF709FF18E0B048844209D1012193
:103DD0004804FFF701FF00214FF40030FFF7FCFE1D
:103DE0000BE0AB48844208D101218804FFF7F4FEC0
:103DF00000214FF48020FFF7EFFE10BD0022028863
:103E0000944B98420ED0994B98420BD0B0F1804F12
:103E100008D0914B984205D0904B984202D0904BDD
:103E2000984204D14FF68F731A404B881A438D4B3A
:103E3000984207D08C4B984204D04FF6FF431A406B
:103E4000CB881A4302808B8883850B880385814B3E
:103E500098420BD0854B984208D08B4B984205D0A6
:103E60008A4B984202D08A4B984201D10B7A038642
:103E700001238382704770B5002400220023058C43
:103E80004FF6FE7635400584028C8388048B4FF60E
:103E90008F752C40B51E2C400D882C43751E2A4072
:103EA0000D892A434D882A436A4DA8420BD06F4D95
:103EB000A84208D0744DA84205D0744DA84202D043
:103EC000734DA84213D14FF6F7752A404D892A4306
:103ED0004FF6FB752A408D882A434FF6FF652B402D
:103EE0004FF6FF552B408D892B43CD892B43838083
:103EF0000483CD888586028470BD70B500240022BD
:103F00000023058C4FF6EF7635400584028C8388BC
:103F1000048B48F6FF752C404FF6FF452C400D886A
:103F20004FF6FF7606EA05252C434FF6DF752A404B
:103F30000D8906EA05152A434D8806EA05152A4328
:103F4000444DA84202D0494DA8421DD14FF67F757D
:103F50002A404D894FF6FF7606EA05152A434FF6AB
:103F6000BF752A408D8806EA05152A434FF6FF35AE
:103F70002B404FF2FF752B408D8906EA85052B43B8
:103F8000CD8906EA85052B4383800483CD88058788
:103F9000028470BD70B5002400220023058C4FF60A
:103FA000FF6635400584028C8388848B4FF68F75BD
:103FB0002C404FF6FC752C400D882C434FF6FF55D6
:103FC0002A400D894FF6FF7606EA05252A434D88DB
:103FD00006EA05252A431F4DA84202D0234DA842D8
:103FE0001DD14FF2FF752A404D894FF6FF7606EA44
:103FF00005252A434FF6FF352A408D8806EA052518
:104000002A434EF6FF752B404DF6FF752B408D89E8
:1040100006EA05152B43CD8906EA05152B43838057
:104020008483CD888587028470BD70B5002200230B
:104030000024058C4EF6FF7635400584038C848879
:10404000828B48F6FF752A404FF6FF452A400D88BF
:1040500020E00000002C0140000400400008004067
:10406000000C0040001000400014004000340140EB
:10407000004C014000500140005401400018004035
:10408000001C00400020004000400140004401406E
:10409000004801404FF6FF7606EA05252A434DF613
:1040A000FF752B400D8906EA05352B434D8806EA3E
:1040B00005352B43FA4DA84202D0FA4DA84208D14B
:1040C0004BF6FF752C408D894FF6FF7606EA851575
:1040D0002C4384808283CD88A0F84050038470BD37
:1040E000828B4FF2FF331A408283828B4FF6FF732D
:1040F00003EA01231A4382837047F0B50C46154644
:10410000002200210026078C4EF6FF7C07EA0C07F0
:104110000784828B018C4FF6FF7707EA043640F65E
:10412000FF473A404FF6FF7707EA05273A434FF635
:10413000FF7707EA03373A43D94FB8420ED0D94F39
:10414000B8420BD0B0F1804F08D0D74FB84205D05D
:10415000D64FB84202D0D64FB84206D14DF6FF77BF
:10416000394046F48057394305E047F6FF57394058
:1041700044F48057394382830184F0BD828B4FF62B
:10418000F3731A408283828B0A4382837047F0B5AF
:104190000C461546002200210026078C4FF6FF6CC6
:1041A00007EA0C070784828B018C4FF6FF7707EA3A
:1041B00004264FF60C773A404FF6FF7707EA0317CD
:1041C0002F433A43B64FB8420ED0B64FB8420BD049
:1041D000B0F1804F08D0B44FB84205D0B34FB842C9
:1041E00002D0B34FB84206D14FF6FF57394046F4DC
:1041F0008077394305E04FF2FF57394044F4807728
:10420000394382830184F0BD028B4FF2FF331A40A1
:104210000283028B4FF6FF7303EA01231A430283E2
:104220007047F0B50C461546002200210026078C89
:104230004FF6EF7C07EA0C070784028B018C4FF6E0
:10424000FF7707EA041640F6FF473A404FF6FF773C
:1042500007EA03373A434FF6FF7707EA05273A4361
:104260008F4FB8420ED08F4FB8420BD0B0F1804F75
:1042700008D08D4FB84205D08C4FB84202D08C4F39
:10428000B84206D14FF6DF77394046F01007394380
:1042900005E04FF65F77394044F010073943028359
:1042A0000184F0BD028B4FF6F3731A400283028B38
:1042B0000A4302837047F0B50C46154600220021E0
:1042C000068C4FF6FE773E400684028B018C4FF63B
:1042D0000C7632407E1C06EA03162E433243704EA3
:1042E000B0420ED06F4EB0420BD0B0F1804F08D02C
:1042F0006D4EB04205D06D4EB04202D06C4EB04211
:1043000006D14FF6FD76314044F00106314305E019
:104310004FF6F576314044F00106314302830184C3
:10432000F0BD70B505460C465D4885420ED05D482F
:1043300085420BD0B5F1804F08D05B48854205D04F
:104340005A48854202D05A48854200D100E000BF59
:10435000208850B92389A28861882846FFF7ABFFDF
:10436000E1882846FFF79EFF25E0208804280AD12F
:104370002389A28861882846FFF753FFE1882846F1
:10438000FFF742FF17E0208808280AD12389A28876
:1043900061882846FFF7FBFEE1882846FFF7EEFE1E
:1043A00009E02389A28861882846FFF7A6FEE188F4
:1043B0002846FFF795FE70BD2DE9F04105460C46F5
:1043C00000260127608808B9022600E00026A088A0
:1043D000012801D1022700E001272088A0B9238904
:1043E000A28861882846FFF766FFE1882846FFF724
:1043F00059FF23893A4631462846FFF712FFE188E4
:104400002846FFF701FF13E02389A2886188284628
:10441000FFF707FFE1882846FFF7F6FE23893A46B3
:1044200031462846FFF747FFE1882846FFF73AFF65
:10443000BDE8F0810A884B881A438B881A43CB88E1
:104440001A430B891A434B891A438B891A43A0F8E4
:10445000442070474FF6FF71818000210180C180A8
:104460004180017270470021018041808180C180BC
:10447000018141818181C18170470021018041809A
:10448000012181800021C1800181704700210180CC
:1044900041808180C180018141818181704700001C
:1044A000002C01400034014000040040000800409E
:1044B000000C004021B1028842F00102028004E0B9
:1044C00002884FF6FE731A400280704731B1B0F88F
:1044D000442042F40042A0F8442005E0B0F8442013
:1044E000C2F30E02A0F8442070471AB183890B432F
:1044F000838102E083898B43838170478182704787
:1045000041EA0203A0F8483070471AB183890B438F
:10451000838102E083898B438381704701894FF651
:10452000F8721140018170470A46002101894FF657
:104530008F73194011430181704730B504460D4611
:1045400029462046FFF7F0FF208940F00700208130
:1045500030BD2DE9F04104460D4616461F46602D3C
:1045600006D13B46012231462046FFF75AFE05E0C0
:104570003B46012231462046FFF79DFE2946204654
:10458000FFF7D2FF208940F007002081BDE8F081CD
:1045900030B50C4600210189C9B24FF6FF7505EA16
:1045A0000325154325432943018130BD2DE9F04101
:1045B00005460E4617469846002443463A4631467D
:1045C0002846FFF7E5FF2C894FF6F870044044F0C9
:1045D00007044FF68F70044044F070042C81BDE84E
:1045E000F081F0B504460D4616461F463B4632465E
:1045F00029462046FFF7CCFF208940F480402081E7
:10460000F0BD0185828270470A46002101884FF67D
:104610008F731940114301807047F0B50C46154661
:104620001E460021002200230189028B038C4FF6D5
:10463000F877394021434FF6FC473A4040F20117E2
:104640003A434FF6DD773B404FF6FF7707EA061710
:104650002F433B43018102830384F0BD0A460021BE
:10466000018B4FF68F7319401143018370470A463F
:104670000021018B48F6FF7319404FF6FF7303EAE0
:1046800002231943018370470A460021818B4FF6AC
:104690008F7319401143818370470A460021818B33
:1046A00048F6FF7319404FF6FF7303EA02231943DC
:1046B0008183704721B1028842F08002028004E0C9
:1046C00002884FF67F731A400280704721B18288BA
:1046D00042F00402828004E082884FF6FB731A40A5
:1046E0008280704721B1828842F00802828004E013
:1046F00082884FF6F7731A408280704721B1828812
:1047000042F00102828004E082884FF6FE731A4074
:10471000828070470A460021018B4FF6F7731940DB
:104720001143018370470A460021018B4FF2FF734A
:1047300019404FF6FF7303EA0223194301837047C0
:104740000A460021818B4FF6F7731940114381838C
:1047500070470A460021818B4FF2FF7319404FF6D4
:10476000FF7303EA02231943818370470A4600213D
:10477000018B4FF6FB7319401143018370470A46C2
:104780000021018B4FF6FF3319404FF6FF7303EA08
:1047900002231943018370470A460021818B4FF69B
:1047A000FB7319401143818370470A460021818BB6
:1047B0004FF6FF3319404FF6FF7303EA0223194304
:1047C000818370470A460021018B4FF67F731940A1
:1047D0001143018370470A460021018BC1F30E018A
:1047E0004FF6FF7303EA02231943018370470A4619
:1047F0000021818B4FF67F731940114381837047ED
:104800000A460021818BC1F30E014FF6FF7303EAC4
:1048100002231943818370470A460021018C4FF619
:10482000FD7319401143018470470A460021018C31
:104830004FF6F77319401143018470470A4600216F
:10484000018C4FF6DF7319404FF6FF7303EA021332
:104850001943018470470A460021018C4FF67F738B
:1048600019404FF6FF7303EA02131943018470479E
:104870000A460021018C4FF6FF5319404FF6FF7393
:1048800003EA02231943018470470A460021018C80
:104890004FF2FF7319404FF6FF7303EA02231943E7
:1048A000018470470A460021018C4DF6FF731940C0
:1048B0004FF6FF7303EA023319430184704730B5A2
:1048C000002301248C40A3B2048C9C430484048CF8
:1048D00002FA01F5ADB22C43048430BD30B500239B
:1048E00004248C40A3B2048C9C430484048C02FAFC
:1048F00001F5ADB22C43048430BD70B503460020F1
:1049000000241846183001258D40ACB21D8CA543FB
:104910001D8409B1082909D100EB6100056825F063
:10492000700505600568154305600EE00D1FC5F3B1
:104930004E052844056825F4E045056005684FF6F6
:10494000FF7606EA02263543056070BD21B1028874
:1049500042F00202028004E002884FF6FD731A4022
:104960000280704721B1028842F00402028004E014
:1049700002884FF6FB731A400280704721B182888B
:1049800042F08002828004E082884FF67F731A40F2
:104990008280704702884FF6F7731A4002800288BF
:1049A0000A430280704782884FF68F731A408280D4
:1049B00082880A438280704702894FF6F8731A4052
:1049C000028102890A430281704702894FF67F7390
:1049D0001A40028102890A4302817047818470472C
:1049E000818570478186704701877047818770474E
:1049F000A0F84010704702884FF6FF431A4002802B
:104A000002880A43028070470146888E704701463B
:104A1000088F70470146888F70470146B1F8400003
:104A200070470146888C70470146088D70470246E2
:104A30000020138A0B4201D0012000E000207047C3
:104A4000CA430282704730B502460020002300248A
:104A5000158A05EA0103958905EA010413B10CB131
:104A6000012000E0002030BDCA43028270470000F0
:104A700010B50446FB48844209D101218803FFF7A1
:104A8000ABF800214FF48040FFF7A6F832E0F6487B
:104A9000844209D101214804FFF7ABF800214FF40B
:104AA0000030FFF7A6F825E0F048844209D1012143
:104AB0008804FFF79EF800214FF48020FFF799F853
:104AC00018E0EB48844209D10121C804FFF791F8AE
:104AD00000214FF40020FFF78CF80BE0E5488442FA
:104AE00008D101210805FFF784F800214FF4801058
:104AF000FFF77FF810BD2DE9F04786B005460E465A
:104B00000024A24600BFA1460027B08900B100BF23
:104B10002F462C8A4CF6FF700440F08804432C8208
:104B2000AC894EF6F3100440B0883189084371898E
:104B300008430443AC81AC8A4FF6FF400440B0897F
:104B40000443AC8201A8FEF73DFFC648874202D16C
:104B5000DDF810A001E0DDF80CA0A88910F4004FEA
:104B600008D00AEBCA0000EB0A1031684900B0FB1C
:104B7000F1F807E00AEBCA0000EB0A10316889007F
:104B8000B0FBF1F86420B8FBF0F0040120096421C7
:104B900001FB1089A88910F4004F08D0322000EBE7
:104BA000C900B0FBF1F000F00700044308E0322038
:104BB00000EB09106421B0FBF1F000F00F0004439A
:104BC0002C8106B0BDE8F0874FF41651016000213A
:104BD0008180C18001810C21418100218181704748
:104BE00010B502460020108A4FF2FF0318400B88D0
:104BF0004C8823438C882343CC882343184310825A
:104C000010BD0021018041808180C180704721B1A9
:104C1000828942F40052828104E082894DF6FF735A
:104C20001A4082817047F0B5034600240026002513
:104C30000020A1F510676A3F00D100BF1846C1F3FC
:104C4000421401F01F06012707FA06F5012C01D1D5
:104C50000C3004E0022C01D1103000E014301AB105
:104C600007682F43076002E00768AF430760F0BDA5
:104C70001AB1838A0B43838202E0838A8B43838247
:104C80007047028A4FF6F0731A400282028A0A4382
:104C90000282704782894FF2FF731A4082818289B3
:104CA0000A438281704721B1828942F002028281E7
:104CB00004E082894FF6FD731A4082817047028AB0
:104CC0004FF6DF731A400282028A0A43028270475B
:104CD00021B1028A42F48042028204E0028A4BF649
:104CE000FF731A4002827047C1F308028280704746
:104CF00001468888C0F308007047818941F00101AE
:104D000081817047028BD2B20283028B42EA012278
:104D100002837047028B02F47F420283028B0A43B4
:104D20000283704721B1828A42F02002828204E02D
:104D3000828A4FF6DF731A408282704721B1828ADD
:104D400042F01002828204E0828A4FF6EF731A402A
:104D50008282704721B1828A42F00802828204E096
:104D6000828A4FF6F7731A408282704721B1828996
:104D700042F40042828103E08289C2F30E02828102
:104D8000704721B1828A42F40062828204E0828A02
:104D90004FF2FF731A4082827047828A4FF6FB738C
:104DA0001A408282828A0A438282704721B1828AB3
:104DB00042F00202828204E0828A4FF6FD731A40BA
:104DC0008282704702460020B1F5007F00D100BF0B
:104DD00013880B4201D0012000E00020704701F44D
:104DE0000072B2F5007F00D100BFCA430280704755
:104DF00070B502460024002300250020A1F51066AE
:104E00006A3E00D100BFC1F3421501F01F03012625
:104E100006FA03F3012D02D19689334006E0022DF4
:104E200002D1168A334001E0968A33400C120126E3
:104E300006FA04F41688344013B10CB1012000E0E6
:104E4000002070BD10B500220023A1F510646A3C5B
:104E500000D100BF0A1201249440A3B2DC430480B5
:104E600010BD0000003801400044004000480040F0
:104E7000004C00400050004031490143314A11606C
:104E8000704770B5002100230F22C4780CB32D4C5D
:104E9000246804F4E064C4F5E064210AC1F1040369
:104EA000CA40447804FA03F184781440214309018C
:104EB000254C0678A155047804F01F050124AC4068
:104EC00005786D114FF0E02606EB8505C5F8004129
:104ED00009E0047804F01F050124AC401B4D06785E
:104EE000761145F8264070BD194A0A400243154B19
:104EF0001B1F1A60704739B1124A121D1268024313
:104F0000104B1B1D1A6006E00E4A121D12688243E8
:104F10000C4B1B1D1A607047042808D14FF0E0218C
:104F2000096941F004014FF0E022116107E04FF000
:104F3000E021096921F004014FF0E022116170477E
:104F40000000FA050CED00E000E400E080E100E084
:104F500080FFFF1F40EA01039B0703D009E008C957
:104F6000121F08C0042AFAD203E011F8013B00F82E
:104F7000013B521EF9D27047421C10F8011B002958
:104F8000FBD1801A70470000064C074D06E0E06830
:104F900040F0010394E8070098471034AC42F6D380
:104FA000FBF7DAF84C5300086C53000802E008C81D
:104FB000121F08C1002AFAD170477047002001E093
:104FC00001C1121F002AFBD17047FF0002CB03FF73
:104FD00004000606070208800F001F00400141116F
:104FE0004215430444E045094600470048004B0091
:104FF000500E5100520053055400560057005F00F8
:10500000600066006700680069026A206BF06C202F
:105010006DD06E106F10D400E716E802E900EA00C8
:10502000EB40EC30ED21F600F716F801F900FA003C
:10503000FB40FC30FD31FF010193024E04000500EE
:1050400006000702081509F00A0F0BD00CCC0D0062
:105050001080115C12111380148015001780184401
:105060001A101B001C271D7F1E001F00205021123C
:1050700022F023D824BC25B826442738280029004C
:105080002A782B442C302D142EA52FE630D0310059
:1050900032003345341A350036E3372838AF400044
:1050A00041804200C038C1C7C2D1C303C40EC51677
:1050B000C620C704C800C906CA06CB56CC10CD54BA
:1050C000D000D1F0D2F0D3F0D480D500D610D72ABA
:1050D000D800D904DA80DB80DC20E000E105E2D9E9
:1050E000E307E433E531E600E72AE801E900EA03F3
:1050F000F630F700F800F900FA38FF02018002E00C
:1051000003740419057D061F0780081209000A05AB
:105110000B0E0C970D810E200F031040110012256D
:1051200013001400150D16E01701180019DA1A0003
:105130001B001C521D601E11200021004010410068
:1051400042054301446445F44600470A4836491085
:105150004A004B004C004D444E04E400F800F98036
:10516000FF04E001E1E0FF06400C4100420143C0C2
:1051700044004601480749114A004B304C404D1746
:10518000FFFFFF0002CB03FF0400060607020880B2
:105190000F001F00400241114215432544E04541E4
:1051A0004605472048004B00500E51005200530561
:1051B0005400560057005F006000660067006800FA
:1051C00069026A206BF06C206DD06E106F10D400F5
:1051D000E716E802E900EA00EB40EC30ED21F600CA
:1051E000F716F801F900FA00FB40FC30FD31FF0131
:1051F0000193024E0400050006000702081509F09D
:105200000A0F0BD00CCC0D001080115C1211138012
:1052100014801500178018441A101B001C271D7FCE
:105220001E001F002050211222F023D824BC25B8D4
:1052300026442738280029002A782B442C302D14A6
:105240002EA52FE630D0310032003345341A350018
:1052500036E3372838AF400041804200C038C1C72C
:10526000C2D1C303C40EC516C620C704C800C906F0
:10527000CA06CB56CC10CD54D000D1F0D2F0D3F02A
:10528000D480D500D610D72AD800D904DA80DB80A4
:10529000DC20E000E105E2D9E307E433E531E60094
:1052A000E72AE801E900EA03F630F700F800F90020
:1052B000FA38FF02018002E00300042005F1061F16
:1052C0000780081209000A040B0E0C140D810E5001
:1052D0000F0310421100122513001400152216E0CE
:1052E0001701180019DA1A001B001C521D601E104D
:1052F000200021004010410042054301446445F470
:105300004600470A483649104A004B004C004D44BD
:105310004E048185828583858480878588858985FB
:105320008A70E400F800F980FF04E001E1E0FF0684
:10533000400C4100420143C0440046014807491166
:105340004A004B304C404D17FFFF00006C530008E3
:105350000000002080000000AC4F0008EC53000863
:1053600080000020101E0000BC4F0008000000005C
:1053700000000000000000000000000000800008A5
:10538000000000000000000000000000000000001D
:10539000000000000000000000000000000000000D
:1053A00000000000000000000000000001000000FC
:1053B00000000000000000000000000000000000ED
:1053C000000000000090D00300000000000000007A
:1053D000010203040607080900000000010203049B
:0C53E00001020304060708090204060885
:04000005080001519D
:00000001FF
