:10000000E882002031EF0000D9B50000DBB5000028
:10001000DDB50000DFB50000E1B500000000000024
:10002000000000000000000000000000E3B5000038
:10003000E5B5000000000000E7B50000E9B50000EC
:100040007DEF000081EF000085EF000031BF000070
:100050008DEF000091EF000095EF000099EF000098
:1000600021BA0000A1EF0000A5EF0000A9EF0000F9
:10007000ADEF0000B1EF0000B5EF0000B9EF0000F8
:10008000BDEF0000C1EF0000C5EF0000C9EF0000A8
:100090001FBE0000D1EF0000D5EF0000D9EF000037
:1000A000DDEF0000E1EF0000E5EF0000E9EF000008
:1000B00029B90000F1EF0000F5EF0000F9EF0000B2
:1000C000FDEF000001F0000005F0000009F0000065
:1000D0000DF0000043BA00006DBA0000C3BA000082
:1000E0001DF0000045BF000025F0000000000000EA
:1000F0000000000000000000000000000000000000
:10010000000000000000000029F000002DF00000B9
:10011000D7BD0000FBBD000039F000003DF000003D
:1001200041F0000045F0000049F000004DF00000F3
:1001300051F0000055F0000059F000005DF00000A3
:100140004DBE000065F0000069F000006DF0000099
:1001500010B4DFF880482100047B14F001040C7215
:10016000447B641C220000242300DBB2092B05D24F
:10017000D40703D492B252085B1CF6E74B72C478E2
:1001800014F00F048C7284888C81C488CC81042480
:100190009C400C8210BC704770B504000D00002616
:1001A000012002F08EFD10222100280002F038FE0E
:1001B0002878492802D16878542803D0DFF8180835
:1001C00002F0EEFFA8680600F0B2A860A86800027E
:1001D000A860360AA868F1B20843A860A8680002BF
:1001E000A860360AA868F1B20843A860A8680002AF
:1001F000A860360AA868F1B20843A86070BD38B597
:100200000400DFF8D057DFF8D4176068FFF7C4FFA9
:10021000DFF8C807FFF79CFF60681030286060684F
:10022000298A08181030686031BDF8B504000D0047
:10023000E4B2DFF8AC07205C06000421FF2003F0E5
:1002400000F93000C0B203F009F90700EDB2002D4B
:1002500007D057F00101C9B23000C0B203F0F1F885
:1002600005E017F0FE013000C0B203F0EAF8F1BD7E
:1002700070B50400E4B2002C03D02000C0B202F03C
:1002800020FDDFF860070078022803D10320050075
:1002900006000BE0DFF84C070078002803D00020B0
:1002A0000500060002E0032005000600042002F01D
:1002B00000FDEDB2092D06D200212800C0B2FFF7E3
:1002C000B4FF6D1CF5E7F6B2002E01D103F04EFA33
:1002D00070BD70B504000D00012002F0F2FC042096
:1002E00002F0E7FC2600EDB2F6B2B54206D30021DB
:1002F0003000C0B2FFF799FF761CF4E770BD00B57F
:100300008DB00120FFF7B4FFDFF8DC1684B068463B
:10031000402203F017FC0FBC00F038F8DFF8CC16D1
:1003200084B06846402203F00DFC0FBC00F02EF8AC
:10033000DFF8BC1684B06846402203F003FC0FBC13
:1003400000F024F80DB000BD00B58DB00120FFF71E
:100350008FFFDFF8A01684B06846402203F0F2FB5E
:100360000FBC00F013F80DB000BD00B58DB001203A
:10037000FFF77EFFDFF8801684B06846402203F066
:10038000E1FB0FBC00F002F80DB000BD0FB4F0B5FA
:1003900083B0DFF850060078002823D0DFF8345609
:1003A0000D9F9DF83D0006003C00012003F064F81D
:1003B00003F0C4F903F0A7F903F097F92000FFF761
:1003C0001EFF207B0190286800902B8A109A92B221
:1003D000297A3000C0B203F036F900213000C0B2F3
:1003E00003F054FAF7BC5DF814FB0FB42DE9FC419F
:1003F000189CDFF8E065DDF83480270045460120D1
:1004000003F03AF803F09AF903F07DF903F06DF97F
:10041000012002F056FC2800FFF7F1FE287B019036
:1004200030680090338A109A92B2317A3800C0B2A4
:1004300003F009F900213800C0B203F027FABDE843
:10044000F3015DF814FB80B503F026F903F02FF8F3
:1004500001BD80B502F012FCFFF7F5FF01BD0FB43E
:10046000F8B5DFF870550B9F9DF8350006003C008D
:1004700000213000C0B2FFF7D8FEF1BC5DF814FBDC
:100480000FB4F8B5DFF84C550B9F9DF8350006000A
:100490003C00012002F0F0FF03F050F903F033F9C3
:1004A00003F023F901202872082068720B98007865
:1004B000002805D00B98407B10F00F00A87201E0D7
:1004C0000020A8720B98C089A8810B98008AE88147
:1004D0004FF4806028820B984068103028600B9899
:1004E0004068298A08181030686069683000C0B216
:1004F00003F069F8EA89A9893000C0B203F03CF83A
:10050000E8890090AB89099A92B20898D0F5A0606A
:10051000A989411A89B23000C0B203F06FF8697A34
:100520003000C0B202F0FAFF207BFF2805D0217B0B
:100530003000C0B203F0A8FA04E000213000C0B2DD
:1005400003F08AFA00213000C0B203F006F801215E
:100550003000C0B202F0D0FFA87A002806D0AA7AF4
:10056000697A3000C0B203F081F801E003F0E6F8E8
:10057000F6B2DFF8881451F82610080000F20D00DA
:100580000E994FF47062114201D0102101700120C8
:1005900002F097FBA87A002803D03000C0B203F025
:1005A00027FA3100C9B23000C0B203F0ECF8F1BC58
:1005B0005DF814FB0FB42DE9F843189CDFF81464C0
:1005C000DDF8348027004546012002F055FF03F096
:1005D000B5F803F098F803F088F80120307208208D
:1005E00070720D980078002805D00D98407B10F0AF
:1005F0000F00B07201E00020B0720D98C089B08188
:100600000D98008AF0814FF4806030820D98406828
:10061000103030600D984068318A081810307060D2
:1006200071683800C0B202F0CEFFF289B18938009B
:10063000C0B202F0A1FFF0890090B3890B9A92B288
:100640000A98D0F5A060B189411A89B23800C0B2C9
:1006500002F0D4FF717A3800C0B202F05FFF287B4D
:10066000FF2805D0297B3800C0B203F00DFA04E062
:1006700000213800C0B203F0EFF900213800C0B209
:1006800002F06BFF01213800C0B202F035FFB07AF2
:10069000002806D0B27A717A3800C0B202F0E6FFC4
:1006A00001E003F04BF8FFB2D44850F82700814630
:1006B00009F20D0910984FF47061084205D010201E
:1006C00089F80000012002F0FCFA012002F0F9FA9A
:1006D000B07A002803D03800C0B203F089F939009D
:1006E000C9B23800C0B203F04EF801213800C0B2E0
:1006F00002F002FF3900C9B23800C0B203F043F87B
:10070000BDE8F1035DF814FB0FB400B58DB0032014
:100710000C900EA984B06846402203F013FA0FBC77
:10072000FFF763FE03200C900EA984B068464022B8
:1007300003F008FA0FBCFFF73DFF01200C900EA953
:1007400084B06846402203F0FDF90FBCFFF74DFE70
:1007500001200C900EA984B06846402203F0F2F903
:100760000FBCFFF727FF012002F0ABFA042002F0D4
:10077000A0FA00210320FFF758FD0DB05DF814FB2F
:100780000FB4F8B5934D0B9F9DF8350006003C0063
:10079000012002F071FE02F0D1FF02F0B4FF02F07E
:1007A000A4FF01202872082068720B9800780028A6
:1007B00005D00B98407B10F00F00A87201E00020DC
:1007C000A8720B98C089A8810B98008AE8814FF421
:1007D000806028820B984068103028600B98406831
:1007E000298A08181030686069683000C0B202F0C9
:1007F000EAFEEA89A9893000C0B202F0BDFEE889AC
:100800000090AB89099A92B20898D0F5A060A989A6
:10081000411A89B23000C0B202F0F0FE697A3000AD
:10082000C0B202F07BFE207BFF2805D0217B300088
:10083000C0B203F029F904E000213000C0B203F097
:100840000BF900213000C0B202F087FE0021300019
:10085000C0B202F051FEA87A002806D0AA7A697ABE
:100860003000C0B202F002FF01E002F067FFF6B212
:10087000624951F82610080000F20D000E994FF45D
:100880007062114201D010210170012002F019FAAA
:10089000A87A002803D03000C0B203F0A9F83100D4
:1008A000C9B23000C0B202F06EFFF1BC5DF814FBBB
:1008B0000FB42DE9F04782B0464D0F9F9DF84500DB
:1008C00006003C0001202872082068720F9800780A
:1008D000002805D00F98407B10F00F00A87201E0AF
:1008E0000020A8720F98C089A8810F98008AE8811B
:1008F0004FF4806028820F984068103028600F986D
:100900004068298A08181030686069683000C0B2F1
:1009100002F059FEEA89A9893000C0B202F02CFE2B
:10092000E8890090AB890D9A92B20C98D0F5A0603E
:10093000A989411A89B23000C0B202F05FFEA87ADC
:10094000002806D0AA7A697A3000C0B202F08EFE82
:1009500001E002F0F3FE012002F0B3F93100C9B268
:100960003000C0B202F064FF5FF00008F6B2012E62
:1009700002D0F6B2022E02D10120804601E0002012
:1009800080465FF0000A03201C4900FB081000F2BB
:10099000B400814699F8010082465FFA8AFABAF1FA
:1009A000070F01D11AF1010A5FEA0A1A99F8020049
:1009B00010F00F0050EA0A0A5146C9B25FEA480037
:1009C000401DC0B202F06BF9BDE8F3075DF814FBFF
:1009D00000000000B47500206CEE00000C760020D2
:1009E00040EF0000D97600200000002040360020B3
:1009F0004049002080100020804B0020087100201A
:100A0000F0B58DB004000D00DFF8C80A90F8300092
:100A1000E4B2A0421FD0DFF8BC0A90F830000228F0
:100A200002D0E4B2062C08D1DFF8A80ADFF8A41A35
:100A300091F8301080F8321004E0DFF8980A0021B5
:100A400080F83210DFF88C0A80F83040DFF81007A9
:100A50000121017003E0DFF8080700210170DFF8D1
:100A6000740ADFF8701A91F8311080F83310DFF84B
:100A7000640A80F83150DFF8EC064068DFF8581A55
:100A80000860E4B2002C11D0022C35D012D3042C13
:100A900000F01F8176D3062C00F0B781C0F0708182
:100AA000082C00F0E782C0F0A38230E30120FFF7BA
:100AB000DFFB2CE3FFF748FCDFF8AC1684B0684698
:100AC000402203F03FF80FBCFFF7DAFC0126202E8E
:100AD00011DA4020DFF8901600FB061184B068465A
:100AE000402203F02FF80FBCFFF7E2FE142003F0C2
:100AF00055F8761CEBE70AE3EDB2002D03D0022D8A
:100B000027D00ED33DE00120FFF7B2FBDFF85C16E3
:100B100084B06846402203F015F80FBCFFF7F4FDDF
:100B20002FE00120FFF7A4FBDFF8441684B06846ED
:100B3000402203F007F80FBCFFF728FCDFF830165F
:100B400084B06846402202F0FDFF0FBCFFF7DCFDD9
:100B500017E00120FFF78CFBDFF8181684B0684619
:100B6000402202F0EFFF0FBCFFF710FCDFF8041685
:100B700084B06846402202F0E5FF0FBCFFF7C4FDD9
:100B8000FFE7C4E2FFF7BBFBDFF8D40500780028DD
:100B900014D00126042E07DA2022310089B2082061
:100BA00002F08BFF761CF5E720220221012002F0E3
:100BB00084FF20220C21012002F07FFFDFF81C19A6
:100BC00084B06846402202F0BDFF0FBCFFF758FC1E
:100BD000DFF80C090078022816D3DFF80409007842
:100BE0000A2811D2DFF8F80800784021DFF8F4284D
:100BF00001FB0020B0F1800184B06846402202F081
:100C0000A1FF0FBCFFF73CFCDFF8D40800790228F5
:100C100016D3DFF8CC0800790A2811D2DFF8C00813
:100C200000794021DFF8C02801FB0020B0F18001ED
:100C300084B06846402202F085FF0FBCFFF720FC1D
:100C4000DFF89C08C079022816D3DFF89408C07931
:100C50000A2811D2DFF88808C0794021DFF88C28F3
:100C600001FB0020B0F1800184B06846402202F010
:100C700069FF0FBCFFF704FCDFF86408C0780228A6
:100C800016D3DFF85C08C0780A2811D2DFF85008C4
:100C9000C0784021DFF8582801FB0020B0F1800126
:100CA00084B06846402202F04DFF0FBCFFF7E8FB1E
:100CB000DFF8C41484B06846402202F043FF0FBC42
:100CC000FFF7DEFBDFF8B4044068DFF80C180860BB
:100CD0001DE2DFF88C04012101700120FFF7C8FA42
:100CE000EDB2002D03D0022D2BD015D347E0DFF855
:100CF000901484B06846402202F024FF0FBCFFF736
:100D000045FBDFF87C1484B06846402202F01AFFED
:100D10000FBCFFF7B5FB32E0DFF8681484B068461B
:100D2000402202F00FFF0FBCFFF730FBDFF8541436
:100D300084B06846402202F005FF0FBCFFF7E4FCD8
:100D40001DE0DFF8441484B06846402202F0FAFE49
:100D50000FBCFFF71BFBDFF8341484B06846402259
:100D600002F0F0FE0FBCFFF711FBDFF81C1484B09B
:100D70006846402202F0E6FE0FBCFFF781FBC6E1A9
:100D8000FFF7F3FADFF8081484B06846402202F057
:100D9000D9FE0FBCFFF774FBDFF8F81384B0684688
:100DA000402202F0CFFE0FBCFFF76AFBDFF8E8132A
:100DB00084B06846402202F0C5FE0FBCFFF760FB1E
:100DC000DFF8D81384B06846402202F0BBFE0FBCA7
:100DD000FFF756FBDFF8C81384B06846402202F0E4
:100DE000B1FE0FBCFFF74CFBDFF8B81384B06846C8
:100DF000402202F0A7FE0FBCFFF742FBDFF86403BE
:100E00004068DFF8D416086081E1EDB2002D08D00B
:100E1000022D63D03DD3042D00F0C580C0F09A8030
:100E2000E5E0CF480078002805D0CD4802210170C8
:100E30000120FFF71DFA00210020FFF7F6F9DFF887
:100E4000681384B06846402202F07CFE0FBCFFF7B6
:100E50009DFAC3480078002803D100210720FFF73E
:100E6000E4F9BF480078002809D0CF4984B068462B
:100E7000402202F067FE0FBCFFF702FB08E0CA4900
:100E800084B06846402202F05DFE0FBCFFF710FD03
:100E9000ADE0C64984B06846402202F053FE0FBC64
:100EA000FFF706FDDFF82C06407F002802D001285E
:100EB0000AD012E0BE4984B06846402202F042FEE9
:100EC0000FBCFFF7DDFA08E0BA4984B0684640225B
:100ED00002F038FE0FBCFFF7D3FA88E0B64984B0C1
:100EE0006846402202F02EFE0FBCFFF7E1FCDFF85F
:100EF000E405C07F002805D0022817D00CD30328B2
:100F00001ED026E0AD4984B06846402202F01AFEA9
:100F10000FBCFFF7B5FA1CE0A94984B0684640222F
:100F200002F010FE0FBCFFF7ABFA12E0A54984B047
:100F30006846402202F006FE0FBCFFF7A1FA08E067
:100F4000A14984B06846402202F0FCFD0FBCFFF7C7
:100F500097FA4CE000210020FFF767F980480078FD
:100F600000280ED07E48022101700120FFF780F991
:100F7000964984B06846402202F0E4FD0FBCFFF7BA
:100F800005FA77480078002803D100210720FFF7F1
:100F90004CF98E4984B06846402202F0D3FD0FBC64
:100FA000FFF76EFA23E08A4984B06846402202F0D7
:100FB000C9FD0FBCFFF764FADFF81805807F002831
:100FC00002D001280AD012E0824984B0684640224B
:100FD00002F0B8FD0FBCFFF753FA08E07E4984B079
:100FE0006846402202F0AEFD0FBCFFF749FA8EE0E2
:100FF0000120FFF73DF9DFF8EC1484B06846402289
:1010000002F0A0FD0FBCFFF7C1F9744984B0684637
:10101000402202F097FD0FBCFFF7B8F9564984B0A3
:101020006846402202F08EFD0FBCFFF7AFF94C4836
:101030000078002814D00126042E07DA402231005F
:1010400089B2082002F039FD761CF5E74022022122
:10105000012002F032FD40220C21012002F02DFD82
:101060005E4984B06846402202F06CFD0FBCFFF779
:1010700007FA4CE0EDB2002D49D139480221017048
:101080000120FFF7F5F8564984B06846402202F087
:1010900059FD0FBCFFF77AF9514984B068464022E8
:1010A00002F050FD0FBCFFF7EBF94E4984B06846E3
:1010B000402202F047FD0FBCFFF762FB4A480021C7
:1010C0008171042001F0F5FD242001F0E1FD07000D
:1010D000FFB2252001F0DCFD50EA07200600B6B281
:1010E00041488079801F142101FB0066B6B2310AA5
:1010F000C9B2242001F0D3FD3100C9B2252001F08E
:10110000CEFD0121364890F85D03FFF78EF82900E7
:10111000C9B22000C0B200F079F80DB0F0BD33487C
:1011200033490978017031483249097841702F48B4
:101130003149097881702D483049097841712B482F
:101140002F490978817129482E490978C1712748AA
:101150000A490978C17025482B49097801717047FF
:10116000D9760020B45F002080100020C02D002020
:10117000C02E0020002F002040490020BC5F00202E
:10118000002E0020802E0020802D00200044002012
:10119000804B002080220020C0260020003A002042
:1011A000803C0020004B0020C0450020004600206D
:1011B000003F0020403F002040460020002C00203F
:1011C000402C0020802C0020C02C002080470020D4
:1011D000C02F00200031002040310020402E002090
:1011E000801E0020C021002044760020A075002031
:1011F000845F00208C5F0020945F00209C5F0020B3
:10120000A45F0020AC5F0020C45F002030B58DB02B
:1012100004000D00AF48AF4991F8311080F8331049
:10122000AC4880F83150E4B2032C10D0C0F0DA861C
:10123000052C00F05E84C0F06886072C00F0CE8597
:10124000C0F04082082C00F0FD8300F0CBBEEDB270
:10125000102D16D19F48002180F83110DFF8880D3D
:1012600090F8380040219D4A01FB002010F1400118
:1012700084B06846402202F065FC0FBCFFF718FB03
:101280008AE097480078022814D3954800780A2805
:1012900010D2934800784021924A01FB0020B0F11F
:1012A000800184B06846402202F04CFC0FBCFFF77E
:1012B000E7F809E0DFF8341D84B06846402202F008
:1012C00041FC0FBCFFF7DCF885480079022814D3F5
:1012D000834800790A2810D2814800794021824A47
:1012E00001FB0020B0F1800184B06846402202F08A
:1012F00029FC0FBCFFF7C4F809E0DFF8F41C84B048
:101300006846402202F01EFC0FBCFFF7B9F8744893
:10131000C079022814D37248C0790A2810D27048C4
:10132000C0794021714A01FB0020B0F1800184B0F6
:101330006846402202F006FC0FBCFFF7A1F809E066
:10134000DFF8B01C84B06846402202F0FBFB0FBC03
:10135000FFF796F86248C078022814D36048C07836
:101360000A2810D25E48C0784021614A01FB002063
:10137000B0F1800184B06846402202F0E3FB0FBC6C
:10138000FFF77EF808E05A4984B06846402202F030
:10139000D9FB0FBCFFF774F8EDB2002D07D0022D7A
:1013A00000F0DA804FD3032D00F0458188E1DFF8AB
:1013B000481C84B06846402202F0C4FB0FBCFFF713
:1013C0004EF8DFF8381C84B06846402202F0BAFBC1
:1013D0000FBCFFF744F8DFF8100C90F838004021FC
:1013E0003E4A01FB002010F1400184B068464022D3
:1013F00002F0A8FB0FBCFFF743F8DFF8040C4068CD
:1014000035490860DFF8FC0B03210170DFF8F40BAD
:101410000078DFF8F41B405CDFF8F01B0870DFF8A1
:10142000E40B0078DFF8E01B405C40212A4A126898
:1014300001FB002184B06846402202F083FB0FBC10
:10144000FFF71EF83CE1254984B06846402202F0CF
:1014500079FB0FBCFFF714F821480079032815D356
:101460001F4800790A2811D21D4800794021DFF871
:10147000882B01FB0020B0F1C00184B068464022F7
:1014800002F060FB0FBCFEF7FBFF09E0DFF8681B12
:1014900084B06846402202F055FB0FBCFEF7DFFF28
:1014A0000F48C079032825D30D48C0790A2821D2D6
:1014B0000B48C0794021DFF8442B01FB0020B0F13C
:1014C000C00184B06846402202F03CFB0FBCFEF72E
:1014D000D7FF19E0E05F00205C76002000000020CC
:1014E0001C7600200032002000380020003600204A
:1014F00000340020DFF8041B84B06846402202F06C
:1015000021FB0FBCFEF7ABFFDFF8F40A4068DFF801
:10151000181C0860DFF8EC0A03210170DFF8E40A08
:101520000078DFF8E41A405CDFF8E01A0870DFF8B2
:10153000D40A0078DFF8D01A405C4021DFF8E82BAD
:10154000126801FB002184B06846402202F0FAFADA
:101550000FBCFEF795FFB3E0DFF89C1A84B0684635
:10156000402202F0EFFA0FBCFEF779FFDFF88C1A89
:1015700084B06846402202F0E5FA0FBCFEF76FFF28
:10158000DFF8A81B84B06846402202F0DBFA0FBCEB
:10159000FEF776FFDFF8981B84B06846402202F021
:1015A000D1FA0FBCFEF76CFFDFF8880B4068DFF85C
:1015B000781B0860DFF84C0A04210170DFF86C0C1E
:1015C000C07DDFF8401A0978DFF83C2A8854DFF83C
:1015D0003C1A0870DFF82C0A0078DFF82C1A405CFF
:1015E0004021DFF8442B126801FB002184B06846DB
:1015F000402202F0A7FA0FBCFEF742FFDFF8040A10
:101600000078DFF8041A405C4021DFF81C2B1268D8
:1016100001FB002090F82D004021DFF80C2B126810
:1016200001FB002184B06846402202F08BFA0FBC17
:10163000FEF726FF44E0DFF8C01984B06846402278
:1016400002F080FA0FBCFEF70AFFDFF8B01984B091
:101650006846402202F076FA0FBCFEF700FFDFF882
:10166000CC1A84B06846402202F06CFA0FBCFEF738
:1016700007FFDFF88C094068DFF8AC1A0860DFF874
:10168000840903210170DFF87C090078DFF87819FC
:10169000405CDFF878190870DFF868090078DFF837
:1016A0006819405C4021DFF8802A126801FB0021A4
:1016B00084B06846402202F045FA0FBCFEF7E0FE17
:1016C00000F090BCEDB2002D09D0022D00F0B580E5
:1016D0005CD3042D00F05F81C0F00681B1E1DFF83A
:1016E000500B4068DFF8401A0860DFF81809002145
:1016F0000170DFF810090078DFF80C19405CDFF8A2
:101700000C19087001F0A2F9DFF8F8180978DFF871
:10171000F828895C4022DFF8103A1B6802FB01318F
:1017200091F82C1088421CD1DFF8D8080078DFF837
:10173000D818405C4021DFF8F029126801FB002036
:1017400090F82D004021DFF8E029126801FB00210C
:1017500084B06846402202F0F5F90FBCFEF790FE17
:1017600013E0DFF8A0080078DFF89C18405C402107
:10177000DFF8B429126801FB002184B068464022DA
:1017800002F0E0F90FBCFEF77BFE5AE1DFF8A40A95
:101790004068DFF894190860DFF8680801210170DB
:1017A000DFF860080078DFF86018405CDFF85C184C
:1017B000087001F04BF9DFF84C180978DFF8482879
:1017C000895C4022DFF860391B6802FB013191F827
:1017D0002C1088421CD1DFF82C080078DFF828187C
:1017E000405C4021DFF84029126801FB002090F89E
:1017F0002D004021DFF83029126801FB002184B060
:101800006846402202F09EF90FBCFEF739FE13E055
:10181000DFF8F0070078DFF8F017405C4021DFF8D0
:101820000829126801FB002184B06846402202F0BA
:1018300089F90FBCFEF724FE03E1DFF8FC094068DC
:10184000DFF8E4180860DFF8BC0702210170DFF858
:10185000B4070078DFF8B017405CDFF8B017087005
:1018600001F0F4F8DFF89C170978DFF89C27895C11
:101870004022DFF8B4381B6802FB013191F82C10CC
:1018800088421CD1DFF87C070078DFF87C17405CC9
:101890004021DFF89428126801FB002090F82D0009
:1018A0004021DFF88428126801FB002184B06846DB
:1018B000402202F047F90FBCFEF7E2FD13E0DFF82B
:1018C00044070078DFF84017405C4021DFF85828D3
:1018D000126801FB002184B06846402202F032F910
:1018E0000FBCFEF7CDFDACE0DFF850094068DFF833
:1018F00038180860DFF80C0705210170DFF80407CD
:101900000078DFF80417405CDFF80017087001F07A
:101910009DF8DFF8F0160978DFF8EC26895C4022A4
:10192000DFF804381B6802FB013191F82C10884263
:101930001CD1DFF8D0060078DFF8CC16405C4021DF
:10194000DFF8E427126801FB002090F82D00402109
:10195000DFF8D427126801FB002184B068464022DA
:1019600002F0F0F80FBCFEF78BFD13E0DFF89406F1
:101970000078DFF89416405C4021DFF8AC2712684D
:1019800001FB002184B06846402202F0DBF80FBC66
:10199000FEF776FD55E0DFF8A8084068DFF8881705
:1019A0000860DFF8600606210170DFF8580600784D
:1019B000DFF85416405CDFF85416087001F046F862
:1019C000DFF840160978DFF84026895C4022DFF80E
:1019D00058371B6802FB013191F82C1088421CD14A
:1019E000DFF820060078DFF82016405C4021DFF8A1
:1019F0003827126801FB002090F82D004021DFF805
:101A00002827126801FB002184B06846402202F0BA
:101A100099F80FBCFEF734FD13E0DFF8E805007815
:101A2000DFF8E415405C4021DFF8FC26126801FB7A
:101A3000002184B06846402202F084F80FBCFEF713
:101A40001FFDCFE2DFF8F00B4068DFF8DC1608601E
:101A5000DFF8B00507210170DFF8A8050078DFF88E
:101A6000A815405CDFF8A415087000F0EFFFDFF860
:101A700094150978DFF89025895C4022DFF8A836B4
:101A80001B6802FB013191F82C1088421CD1DFF851
:101A900074050078DFF87015405C4021DFF8882677
:101AA000126801FB002090F82D004021DFF8782615
:101AB000126801FB002184B06846402202F042F81F
:101AC0000FBCFEF7DDFC13E0DFF838050078DFF827
:101AD0003815405C4021DFF85026126801FB0021D8
:101AE00084B06846402202F02DF80FBCFEF7C8FC17
:101AF00078E2DFF8F40490F82D00E12815D3DFF840
:101B0000E80490F82D00E338022190FBF1F0402129
:101B1000DFF8282B01FB002184B06846402202F048
:101B200011F80FBCFEF7ACFC20E0DFF8BC0490F825
:101B30002D00E0280AD1DFF8081B84B06846402257
:101B400002F000F80FBCFEF79BFC0FE0DFF89804F2
:101B500090F82D00FE2809D1DFF8E41B84B0684618
:101B6000402201F0EFFF0FBCFEF78AFCDFF878049B
:101B700090F82E00E12815D3DFF86C0490F82E00C1
:101B8000E338022190FBF1F04021DFF8B82B01FB94
:101B9000002184B06846402201F0D4FF0FBCFEF75C
:101BA0006FFC20E0DFF8400490F82E00E0280AD116
:101BB000DFF8941B84B06846402201F0C3FF0FBCDD
:101BC000FEF75EFC0FE0DFF8200490F82E00FE2800
:101BD00009D1DFF8781B84B06846402201F0B2FFDB
:101BE0000FBCFEF74DFCDFF8000490F82300000660
:101BF0000AD5DFF85C1B84B06846402201F0A2FFE2
:101C00000FBCFEF73DFC5DE0DFF8DC0390F824003C
:101C1000112816D033284BD055283ED0662831D015
:101C2000882824D0992817D0CC284BD1DFF8241B42
:101C300084B06846402201F085FF0FBCFEF720FC0F
:101C400040E0DFF8141B84B06846402201F07AFFC0
:101C50000FBCFEF715FC35E0DFF8001B84B06846CA
:101C6000402201F06FFF0FBCFEF70AFC2AE0DFF80C
:101C7000F01A84B06846402201F064FF0FBCFEF702
:101C8000FFFB1FE0DFF8DC1A84B06846402201F059
:101C900059FF0FBCFEF7F4FB14E0DFF8CC1A84B058
:101CA0006846402201F04EFF0FBCFEF7E9FB09E059
:101CB000DFF8B81A84B06846402201F043FF0FBC39
:101CC000FEF7DEFBC84890F8230040060AD5DFF88F
:101CD000A01A84B06846402201F034FF0FBCFEF722
:101CE000CFFB60E0C04890F8220000280ED01128F9
:101CF0000DD0222816D033281FD0442828D05528AC
:101D000031D066283AD0772843D04CE04BE0DFF85A
:101D1000641A84B06846402201F014FF0FBCFEF73D
:101D2000AFFB40E0DFF8501A84B06846402201F073
:101D300009FF0FBCFEF7A4FB35E0DFF8401A84B0C2
:101D40006846402201F0FEFE0FBCFEF799FB2AE038
:101D5000DFF82C1A84B06846402201F0F3FE0FBC75
:101D6000FEF78EFB1FE0DFF81C1A84B068464022A5
:101D700001F0E8FE0FBCFEF783FB14E0DFF8081A61
:101D800084B06846402201F0DDFE0FBCFEF778FB10
:101D900009E0DFF8F81984B06846402201F0D2FE6D
:101DA0000FBCFEF76DFB904890F82A0004280AD17A
:101DB000DFF8DC1984B06846402201F0C3FE0FBC96
:101DC000FEF75EFB09E0DFF8CC1984B068464022DC
:101DD00001F0B8FE0FBCFEF753FB03E1DFF8680C1F
:101DE0000078022816D3DFF8600C00780A2811D298
:101DF000DFF8540C007840217C4A01FB0020B0F150
:101E0000800184B06846402201F09CFE0FBCFEF7C2
:101E100037FB08E0754984B06846402201F092FE25
:101E20000FBCFEF72DFBDFF8200C0079022816D33B
:101E3000DFF8140C00790A2811D2DFF80C0C0079B5
:101E400040216B4A01FB0020B0F1800184B068465C
:101E5000402201F077FE0FBCFEF712FB08E0644958
:101E600084B06846402201F06DFE0FBCFEF708FB0F
:101E7000DFF8D40BC079022816D3DFF8CC0BC07979
:101E80000A2811D2DFF8C00BC0794021594A01FB62
:101E90000020B0F1800184B06846402201F052FE7B
:101EA0000FBCFEF7EDFA08E0524984B068464022C4
:101EB00001F048FE0FBCFEF7E3FADFF88C0BC078A8
:101EC000022817D3DFF8800BC0780A2812D2DFF877
:101ED000780BC0784021DFF8A82B01FB0020B0F17F
:101EE000800184B06846402201F02CFE0FBCFEF752
:101EF000C7FA09E0DFF8881B84B06846402201F089
:101F000021FE0FBCFEF7BCFA6CE0C84890F8310027
:101F1000022867D1DFF86C0B407800280AD0DFF880
:101F2000681B84B06846402201F00CFE0FBCFEF72F
:101F3000A7FA09E0DFF8501B84B06846402201F0A0
:101F400001FE0FBCFEF78BFADFF8380B8078002813
:101F50000AD0DFF8381B84B06846402201F0F2FD59
:101F60000FBCFEF78DFA09E0DFF8201B84B068464D
:101F7000402201F0E7FD0FBCFEF771FADFF8040B19
:101F8000C07800280AD0DFF8081B84B068464022D9
:101F900001F0D8FD0FBCFEF773FA09E0DFF8F01A84
:101FA00084B06846402201F0CDFD0FBCFEF757FA21
:101FB000DFF8D00A007900280AD0DFF8241C84B0AA
:101FC0006846402201F0BEFD0FBCFEF759FA09E059
:101FD000DFF80C1C84B06846402201F0B3FD0FBC52
:101FE000FEF73DFA0DB030BDD8730020003200205E
:101FF0000038002000360020004000200042002071
:10200000BC5F0020DC760020A0750020DA7600207E
:1020100070B58CB004000D001600F6B2012E33D15D
:10202000DFF8C00B0078DFF8C01BDFF8C02B127898
:102030004254DFF8B80B007840213B4A126801FB9C
:10204000002184B06846402201F07CFD0FBCFEF701
:1020500017FADFF8900B0078DFF88C1B405C40210A
:10206000314A126801FB002090F82D0040212E4AD1
:10207000126801FB002184B06846402201F062FD35
:102080000FBCFEF7FDF94BE0F6B2002E46D1DFF8AB
:10209000540B0078DFF8501BDFF8502B12784254B5
:1020A000DFF8400B0078DFF8401B405C40211E4AFF
:1020B000126801FB002090F82D0040211A4A126896
:1020C00001FB002184B06846402201F03BFD0FBCBB
:1020D000FEF7D6F9DFF81C0BDFF8101B0978C17585
:1020E000DFF80C0B4078022809D1DFF8080BC07D1F
:1020F000C000D0F1F500C0B200F0A4FD08E0DFF8A8
:10210000F40AC07D0001D0F1D500C0B200F09AFD04
:10211000DFF8E00AC07D002802D101E0F6B2032E0C
:102120000CB070BD000000005C76002000000020B4
:1021300080490020C45F002070B58CB004000D0001
:102140001600F6B2012E1AD1DFF8980A0078DFF8EF
:10215000981ADFF8982A12784254DFF8900A00782B
:102160004021DFF8942A126801FB002184B0684600
:10217000402201F0E7FC0FBCFEF782F953E0F6B213
:10218000002E4ED1DFF85C0A0078DFF85C1ADFF829
:102190005C2A12784254DFF8540A00784021DFF8B4
:1021A000582A126801FB002090F82C00DFF84C1A26
:1021B0000870DFF8480A0078002805D0022819D0F6
:1021C00006D3032828D02EE01848012101742AE004
:1021D000164890F83000032804D1144890F83100D4
:1021E000002803D000210320FFF710F80F4800213A
:1021F000417418E00D4890F83000032804D10B48D2
:1022000090F83100012803D001210320FEF7FEFFE2
:1022100006480121417406E002210320FEF7F6FF83
:1022200001E0F6B2032E0CB070BD0000E05F0020AC
:10223000845F00208C5F0020945F00209C5F002062
:10224000A45F00202DE9F0418CB004000D001600C1
:10225000F6B2012E49D1DFF88C090078DFF8881931
:10226000DFF888291278425400F0F0FBDFF8741987
:102270000978DFF87429895C4022DFF87C391B6813
:1022800002FB013191F82C1088421CD1DFF854096F
:102290000078DFF85419405C4021DFF85C291268AF
:1022A00001FB002090F82D004021DFF84C29126836
:1022B00001FB002184B06846402201F043FC0FBCC2
:1022C000FEF7DEF8B5E1DFF8240900784021DFF8F9
:1022D0002829126801FB002184B06846402201F0E1
:1022E00031FC0FBCFEF7CCF8A3E1F6B2002E40F0B3
:1022F0009E81DFF8F0080078DFF8EC18DFF8EC28B2
:1023000012784254DFF8E40800784021DFF8E8282A
:10231000126801FB002090F82C00DFF8E01808702C
:10232000DFF8D00890F83000062803D0082800F025
:1023300016817EE1DFF8BC0890F83100002808D053
:1023400002285BD017D3042800F0C680C0F0B2800A
:1023500004E1DFF898080078032802D0042805D0AB
:1023600008E001210620FEF74BFB03E002210620D6
:10237000FEF746FBF2E0DFF8740800780028012839
:102380003BD8DFF87008DFF8641809784177DFF888
:102390005C0800784021DFF86028126801FB00200B
:1023A00090F82D004021DFF85028126801FB002131
:1023B00084B06846402201F0C5FB0FBCFEF760F810
:1023C000DFF83008407F002802D001280BD014E04D
:1023D000DFF82C1884B06846402201F0B3FB0FBC34
:1023E000FEF74EF809E0DFF81C1884B0684640227A
:1023F00001F0A8FB0FBCFEF743F8AFE0DFF8EC07F5
:1024000000780028032854D8DFF8E807DFF8DC1745
:102410000978C177DFF8D40700784021DFF8D827A2
:10242000126801FB002090F82D004021DFF8C8273A
:10243000126801FB002184B06846402201F082FB53
:102440000FBCFEF71DF8DFF8AC07C07F002805D0F1
:10245000022819D00DD3032821D02AE0DFF8A817CD
:1024600084B06846402201F06DFB0FBCFEF708F80F
:102470001FE0DFF8981784B06846402201F062FB45
:102480000FBCFDF7FDFF14E0DFF8841784B0684649
:10249000402201F057FB0FBCFDF7F2FF09E0DFF827
:1024A000741784B06846402201F04CFB0FBCFDF766
:1024B000E7FF53E0DFF834070078032802D0042850
:1024C00005D008E004210620FEF79AFA03E0002177
:1024D0000820FEF795FA41E0DFF810070078401E6B
:1024E00001283BD8DFF80C07DFF81017097881774F
:1024F000DFF8F80600784021DFF8FC26126801FBBF
:10250000002090F82D004021DFF8EC26126801FB36
:10251000002184B06846402201F014FB0FBCFDF797
:10252000AFFFDFF8D006807F002802D001280BD053
:1025300014E0DFF8E41684B06846402201F002FBA4
:102540000FBCFDF79DFF09E0DFF8D01684B06846A8
:10255000402201F0F7FA0FBCFDF792FF69E0DFF8C7
:102560008C060078401E092804D90A3818D0401E6D
:1025700023D045E0DFF8A806807906280FD2DFF8DF
:10258000A0068079DFF89816DFF8602612784254AA
:10259000DFF88C068079401CDFF8841688712FE004
:1025A000DFF87C068079002806D0DFF87406807991
:1025B000401EDFF86C16887122E0DFF86406002107
:1025C00081715FF0010800200700FFB2062F0ED2D4
:1025D000FFB2DFF84C06385C082801D000208046A6
:1025E000FFB2DFF83C06002139547F1CEDE75FFAAB
:1025F00088F8B8F1000F03D000210620FEF700FA9A
:102600000027042000F055FBBFB2DFF814068079E4
:10261000142101FB0077BFB2390AC9B2242000F0AF
:102620003EFB3900C9B2252000F039FB01E0F6B2CB
:10263000032E0CB0BDE8F081AC5F002080220020AA
:102640000026002070B504000D001600F6B2012E21
:1026500005D1DFF8D0054FF4FA6101806FE0F6B2E2
:10266000002E53D1DFF8BC0500210180DFF884057E
:1026700090F83000022848D0032834D0062802D031
:1026800008283DD05BE0DFF86C0590F831000028A9
:1026900024D0022804D003D304281FD005D321E07E
:1026A00000210620FEF7ACF91CE008210320FDF70D
:1026B00010FE00210020FDF70CFEDFF83805022196
:1026C00080F83010DFF82C05002180F83110DFF899
:1026D00058054068DFF82015086003E00321062054
:1026E000FEF78EF92BE0DFF80C0590F83100022898
:1026F00005D1DFF80005417C0320FEF787FD1EE0D1
:1027000003210620FEF77CF919E018E0F6B2022E4C
:1027100013D1DFF810050088012810D1DFF8040577
:1027200000210180DFF8CC0490F83000022806D1A7
:1027300003210620FEF764F901E0F6B2032E70BD16
:10274000C025002040260020C0290020802900202C
:10275000003A0020403A0020C03A0020803B002090
:10276000C03B0020403B0020803A0020003B00207E
:10277000C03D0020003C0020403C0020803C002068
:10278000C03C0020003D0020403D0020803D002056
:10279000404B0020004B002030B58DB0DFF85804CE
:1027A0000068DFF884144968884213D1DFF87C049C
:1027B0000078401E042828D8DFF87004002101703A
:1027C000DFF86C0400210170DFF86804002101705B
:1027D000002036E1DFF820040068DFF85C14496867
:1027E000884212D1DFF844040078032804D1DFF8CE
:1027F0003C040121017008E0DFF83004007804286F
:1028000003D1DFF8280402210170DFF820040078EA
:10281000012860D0022815D0032800F0A0800428E9
:1028200000F0A380052800F0BD80062800F0C980D4
:10283000072800F0D980082800F0E980FE2800F081
:10284000EA80F1E0DFF8A40300784021DFF8A82354
:10285000126801FB002090F82600DFF89013087042
:1028600000F0F4F8DFF8841309784022DFF88833A9
:102870001B6802FB013191F82C10884219D1DFF856
:102880006C0300784021DFF87023126801FB002000
:1028900090F82D004021DFF86023126801FB002131
:1028A00084B06846402201F04DF90FBCFDF7E8FD09
:1028B00010E0DFF8380300784021DFF83C2312688D
:1028C00001FB002184B06846402201F03BF90FBCB7
:1028D000FDF7D6FDA8E0C54800784021DFF81823B1
:1028E000126801FB002090F82400C049087000F035
:1028F000ADF8BE4909784022DFF8FC321B6802FBC4
:10290000013191F82C10884218D1B8480078402144
:10291000DFF8E422126801FB002090F82D0040212E
:10292000DFF8D422126801FB002184B068464022FF
:1029300001F008F90FBCFDF7A3FD0FE0AB480078EC
:102940004021DFF8B422126801FB002184B0684600
:10295000402201F0F7F80FBCFDF792FD64E0002281
:1029600000210020FFF76EFE5EE0A04800784021C5
:10297000DFF88422126801FB002090F827009B49B1
:1029800008709A4800784021DFF86C22126801FB39
:10299000002184B06846402201F0D4F80FBCFDF756
:1029A0006FFD41E000229148017800208F4B1B7899
:1029B0004024DFF844522D6804FB03535B689847BA
:1029C00032E0DFF83002807812280CD0DFF82402E1
:1029D00080780B2804D1DFF81C021221417002E03C
:1029E000122001F045FA1FE0DFF808028078032882
:1029F0000CD0DFF8000280780B2804D1DFF8F40156
:102A00000321417002E0032001F032FA0CE00B20B8
:102A100001F02EFA08E0DFF81C020178DFF810025E
:102A20000078FDF7EDFFFFE7DFF8000200210170FD
:102A3000DFF8FC0100210170DFF8F80100210170CE
:102A400000200DB030BD00001C760020694890F8D1
:102A50003000062812D1674890F83100012804D0D0
:102A6000022805D0042806D008E06248407F06E02E
:102A70006048C07F03E05F48807F00E0FE20704731
:102A800000340020DC750020C04400208044002079
:102A900040440020F8B504000D0016005548807829
:102AA00012282AD1654800780B2806D025D30D2896
:102AB00013D00AD30E2818D01FE0604800210170FF
:102AC00000215F4801F096FF17E05C48002101708B
:102AD00001215B4801F08EFF0FE058480021017092
:102AE0000221574801F086FF07E054480021017099
:102AF0000321534801F07EFFFFE700200700FFB2EB
:102B000040203D49096800FB0710006B4FF6FF713C
:102B1000884229D0FFB240203749096800FB0710DE
:102B2000006BA4B2A0421DD2A4B2FFB24020324931
:102B3000096800FB0710806B844213D2FFB240206B
:102B40002D49096800FB0710406BADB2A84209D2BD
:102B5000ADB2FFB240202849096800FB0710C06BE6
:102B6000854201D37F1CCAE7FFB240202249096891
:102B700000FB0710006B4FF6FF71884201D1002067
:102B80002DE0FFB240201C49096800FB0710806A55
:102B900016490870FFB240201749096800FB07106A
:102BA00090F82C0015490870F6B2012E07D0F6B245
:102BB000002E04D0F6B2022E01D0F6B2032E32005F
:102BC000D2B23900C9B20020FFB24023DFF828C0DA
:102BD000DCF800C003FB07C35B6898470120F2BD27
:102BE00000440020DC760020A0750020DA7600206A
:102BF00034760020E05F00205C760020DB76002049
:102C0000003F0020403F0020002C0020402C0020EE
:102C1000802C0020C02C00200031002040310020FA
:102C2000447600208E760020B45F0020D876002005
:102C3000D6760020D7760020BC5F0020D476002016
:102C40000068004010B50400012000F032F82100B7
:102C5000C9B2112000F023F810BD50F8041B61B177
:102C600050F8042BD30744BFA9F101039A1800239D
:102C700042F8043B091FFAD1EFE7704780B5002006
:102C800000F017F800F06DFAC82000F087FF01BDD2
:102C900010B504002000C0B200F0E0FB10BD38B554
:102CA00004000D002900C9B22000C0B200F0C9FB29
:102CB00031BD10B504002100C9B2FF2000F0C1FBF6
:102CC00010BD70B50400002500260020FFF7F1FFBD
:102CD00000200500EDB2E4B2A54212D2FF2102208D
:102CE000FFF7DDFF002006000220FFF7D1FF4006BE
:102CF00005D4761C4FF6FF70B6B28642F4D36D1C35
:102D0000E8E770BDF8B504000D00160000272801A3
:102D100010F0300050EA841016F00F01084307004D
:102D20003900C9B2C320FFF7BAFFF1BD010000208E
:102D3000C9B20A00012A13D0022A0ED0032A0FD0EA
:102D40000B2A0DD0202A0ED0522A0CD0602A0AD08D
:102D5000D82A08D0EB2A03D008E00222100005E0B0
:102D60000422100002E006221000FFE7C0B2704704
:102D700070B50400002600250420FFF79AFFA07A12
:102D8000421CD2B200210120FFF7BCFF0421C62063
:102D9000FFF785FFD021C720FFF781FF0021DA2050
:102DA000FFF77DFF0021C820FFF779FF617AC92076
:102DB000FFF775FF2178CA20FFF771FF002006009A
:102DC000A07AF6B2864209D2F6B230194178B6F14D
:102DD0003500C0B2FFF763FF761CF1E72078FFF7FC
:102DE000A5FF2843050055F00101C9B2C420FFF733
:102DF00056FFC420FFF74CFFC007FAD4002006009E
:102E0000607AF6B2864209D2B6F13000C0B2FFF75E
:102E10003FFFF6B23119C872761CF1E7002070BD91
:102E20002DE9F84F04000D00160000275FF00008A0
:102E30005FF000095FF0000BA2460420FFF739FFA6
:102E4000C120FFF725FF83461BF0FE01C120FFF7DD
:102E500026FF052200210120FFF754FF0421C62090
:102E6000FFF71DFFD021C720FFF719FF0B21CA2054
:102E7000FFF715FF00200700BFB2B6B2B7425FD21E
:102E8000BFB27819010CC9B2CB20FFF708FFBFB25F
:102E90007819010AC9B2CC20FFF701FF7919C9B22C
:102EA000CD20FFF7FCFEB6B2BFB217F10800864294
:102EB00002DB0820814601E0F01B81460021DA2078
:102EC000FFF7EDFE0021C820FFF7E9FE4946C9B231
:102ED000C920FFF7E4FEC020FFF7DAFE10F0F8008B
:102EE00050F00101C9B2C020FFF7D9FE0521C4206E
:102EF000FFF7D5FEC420FFF7CBFEC007FAD4C020F1
:102F0000FFF7C6FE10F0F80050F00301C9B2C02070
:102F1000FFF7C5FE002080461FFA88F81FFA89F9DE
:102F2000C8450BD240463038C0B2FFF7B1FE8AF830
:102F300000001AF1010A18F10108EDE708379BE7D4
:102F40005946C9B2C120FFF7AAFEBDE8F18F2DE9AD
:102F5000F04186B0002400259F208DF8000003205A
:102F60008DF8090000208DF80A0000A8FFF700FF87
:102F70000400E4B2002C02D08148012101709DF8C8
:102F80000B0006009DF80C0007009DF80D00804620
:102F90007C4806707C4807707C4880F80080F6B258
:102FA00030001C2802D0C2280FD012E0784801213E
:102FB0000170FFB2702F07D15FFA88F8B8F1190FCE
:102FC00002D173480221017003E0714803210170AE
:102FD000FFE7F6B21C2E02D0F6B2C22E0FD10520AA
:102FE0008DF8000001208DF8090000208DF80A00FE
:102FF00000A8FFF7BDFE04009DF80B000500EDB230
:10300000002D2CD1F6B21C2E02D0F6B2C22E26D143
:1030100006208DF8000000208DF8090000208DF8B2
:103020000A0000A8FFF7A4FE01208DF80000002090
:103030008DF8090001208DF80A0040208DF801006C
:1030400000A8FFF795FE04208DF8000000208DF801
:10305000090000208DF80A0000A8FFF789FE06B0DD
:10306000BDE8F08110B504000420FFF722FEC02067
:10307000FFF70EFE10F0F80054EA0001C9B2C020BC
:10308000FFF70DFEE4B2002C09D0022C15D00DD3B1
:10309000042C20D018D3062C2BD023D330E03D486D
:1030A000032101703C48042101702FE039480B21B5
:1030B000017039480521017028E036483B21017034
:1030C00035480521017021E032486B2101703248FA
:1030D000052101701AE02F48BB2101702E480521FF
:1030E000017013E02B48EB2101702B480721017080
:1030F0000CE02848ED21017027480C21017005E003
:1031000024480B21017024480521017010BD30B501
:1031100085B004000025E4B2002C09D01F480078D7
:1031200000280ED11D4801210170B720050008E0DC
:103130001A480078012804D1184800210170E920BC
:103140000500EDB2002D0AD08DF8005000208DF85A
:10315000090000208DF80A0000A8FFF709FE05B05D
:1031600030BD80B5FFF7F3FE09480078022802D190
:103170000120FFF7CCFF0220FFF774FF01BD000024
:103180009F7600209C7600209D7600209E76002071
:10319000987600209A7600209B7600209976002071
:1031A0000EB400B582B003A9009100AB0246012124
:1031B000034878440A3002F0E3FD06BC5DF810FBDA
:1031C00015BD000010B50400E4B2002C04D00821A5
:1031D000554803F0DEFE03E00821534803F0DCFE0F
:1031E00010BD10B50400E4B2002C04D004214E48F8
:1031F00003F0CFFE03E004214B4803F0CDFE10BDE9
:1032000010B501240120FFF7ECFF0120FFF7DAFFE2
:103210000821454803F0B0FE002805D004214248AB
:1032200003F0AAFE002802D10020040005E00020DF
:10323000FFF7D7FF0020FFF7C5FF2000C0B210BD89
:1032400080B50020FFF7BEFF0020FFF7CAFF012076
:10325000FFF7B8FF0120FFF7C4FF01BDF8B5040078
:1032600080250026EDB2002D13D02000C0B22842E8
:1032700003D00120FFF7B5FF02E00020FFF7B1FF08
:103280000120FFF79FFF0020FFF79CFFEDB26D08C4
:10329000E8E70120FFF7A5FF0120FFF793FF0020DB
:1032A0000700FFB2642F07D204211F4803F064FE19
:1032B000002801D07F1CF4E704211B4803F05CFECA
:1032C00006000020FFF77EFF3000C0B2F2BD70B5EF
:1032D0000400002580260120FFF783FFF6B2002EB0
:1032E0000FD00120FFF76EFF04210F4803F044FECA
:1032F000012800D135430020FFF764FFF6B27608BD
:10330000ECE7E4B2002C03D00020FFF76AFF02E0F4
:103310000120FFF766FF0120FFF754FF0020FFF7B1
:1033200051FF2800C0B270BD0010014070B504000C
:103330000D00EDB2012D02D154F0010401E014F0B2
:10334000FE04032006003000461EC0B200280BD049
:10335000FFF756FF0028F6D02000C0B2FFF77EFF2F
:103360000028F0D1012000E0002070BD2DE9F041DF
:1033700004000D0016001F00032080464046B0F1F7
:103380000108C0B2002816D000212000C0B2FFF70B
:10339000CDFF0028F2D02800C0B2FFF75FFF012860
:1033A000ECD03800471EC0B2002804D03078FFF7B8
:1033B00055FF761CF5E7FFF743FF5FFA88F8B8F191
:1033C000000F01D1002000E00120BDE8F0812DE9CF
:1033D000F04104000D0016001F0003208046404607
:1033E000B0F10108C0B200281FD000212000C0B2F7
:1033F000FFF79CFF0028F2D02800C0B2FFF72EFF95
:103400000128ECD001212000C0B2FFF78FFF002877
:10341000E5D03800471EC0B2002806D03800C0B240
:10342000FFF755FF3070761CF3E7FFF709FF5FFAEF
:1034300088F8B8F1000F01D1002000E00120BDE8BC
:10344000F08138B504000D008DF80050012300AA6A
:103450002100C9B28A20FFF789FF31BD10B582B0C3
:103460000400012300AA2100C9B28A20FFF7AFFFA0
:103470009DF8000016BDFFFF10B504000420FFF703
:1034800018FCE4B2002C09D00020FFF701FC50F03A
:103490000401C9B20020FFF702FC07E00020FFF79B
:1034A000F7FB10F0FB010020FFF7F9FB10BD70B532
:1034B0000024002500260220FFF7FBFB1020FFF769
:1034C000E7FB05000D20FFF7E3FB10F0030006000B
:1034D000EDB2F6B27019123804000420FFF7E9FBD0
:1034E000A4B2210AC9B20E20FFF7D9FB2100C9B24C
:1034F0000F20FFF7D4FB70BDC0B2DFF80C2652F8E6
:103500002020C9B2002904D0137853F001031370AE
:1035100003E0137813F0FE031370704710B4C0B2C9
:10352000DFF8E42552F820200023C9B2042902D193
:103530000024230007E0C9B2062902D10124230098
:1035400001E002242300147814F03F04147014786E
:1035500054EA8314147010BC7047C0B2DFF8A82579
:1035600052F8202002F20D02C0B2002800D1121D34
:10357000C9B20B091370704730B4C0B2DFF8883598
:1035800053F82030002403F20A03C0B200280BD005
:103590001D7815F0C0052C0089B20D0A25431D7059
:1035A0005B1C19705B1C0CE092B2150A2C00240104
:1035B00089B20D0A2C431C705B1C19705B1C1A70BD
:1035C0005B1C30BC7047C0B2DFF83C2552F82020AD
:1035D00002F207020B0D1370521C0B0B1370521CDE
:1035E0000B091370C0B2002802D102F20E0201E0F2
:1035F00002F2060211F00F0313707047F0B4049C3E
:10360000C0B2DFF8045555F8205000266D1C92B268
:10361000170A3E00360189B20F0A3E432E706D1C18
:1036200029706D1C2A706D1CA4B2270A3E00360159
:103630009BB21F0A3E432E706D1C2B706D1C2C70AC
:103640006D1CF0BC7047F0B4049D059CC0B2DFF85F
:10365000B86416EB001606F2240651F080073770A6
:103660007280B380B5603473F0BC704710B4C0B2E0
:1036700000280FD0C0B2012802D0C0B2022803D166
:10368000DFF88844230002E0DFF884442300187048
:1036900059709A7010BC704738B50024002500207E
:1036A0000400E4B2092C13D2E4B2002C02D0601C56
:1036B000050001E000200500E4B2DFF84C04EDB2A3
:1036C000DFF8501411EB051140F82410641CE8E7F2
:1036D00000F019F800F009F800F030F80821002097
:1036E00000F051F800F052F931BD0020002108002F
:1036F000C0B2A02806D2C0B2DFF81814002242548B
:10370000401CF5E77047002000221000C0B20928D5
:1037100013D2C0B2DFF8F02312EB001202F224023F
:10372000110000220A7000224A8000228A800022B2
:103730008A60FF220A73401CE8E7704700200022DD
:103740001000C0B2022810D2C0B20322DFF8B83392
:1037500002FB003202F2B402110000220A700022C1
:103760004A7000228A70401CEBE7704780B5042045
:10377000FFF79FFA00210420FFF791FA00210620AD
:10378000FFF78DFA01BD2DE9F84304000D00002676
:1037900000275FF000080420FFF78BFA2700EDB246
:1037A000FFB2BD4242D3FFB2DFF85C0350F82700FE
:1037B0008146FFB2DFF86003385C8046DFF85C03C7
:1037C0008078032811D10E200600F6B2012E1BD3FB
:1037D000F6B216EB090010F8011C16EB0800401EAB
:1037E000C0B2FFF75CFA761EEFE700200600F6B2E3
:1037F000102E09D2F6B216F8091016EB0800C0B266
:10380000FFF74DFA761CF2E7FFB2002F0CD1F6B2AB
:10381000172E09D2F6B216F8091016EB0800C0B23E
:10382000FFF73DFA761CF2E77F1CB8E7BDE8F183AD
:103830002DE9F84304000D00002600275FF0000882
:103840000420FFF736FA2700EDB2FFB2BD421BD3CA
:10385000FFB2DFF8B40250F827008146FFB2DFF86C
:10386000B802385C804607200600F6B20A2E09D25C
:10387000F6B216F8091016EB0800C0B2FFF70FFAFF
:10388000761CF2E77F1CDFE7BDE8F1832DE9F84302
:1038900004000D00E4B29C4810EB041000F2240078
:1038A00081460420FFF705FA8020804658F0200862
:1038B000E4B2012C02D0E4B2022C02D158F0040888
:1038C00008E0B9F8020080B2000AC0B2002801D0B6
:1038D00058F008084146C9B21020FFF7B2FDB9F808
:1038E0000210C9B21120FFF7ACFD00200600B9F8A4
:1038F0000400402190FBF1F0F6B2864218DA402233
:10390000D9F80800F6B2402101FB06018448FFF710
:1039100087FA00200700BFB2402F07D2BFB280480D
:10392000395C1220FFF78DFD7F1CF4E7761CDEE783
:10393000EDB2FF2D28D0B9F80200EDB22818A9F891
:10394000020083208046E4B2012C02D0E4B2022CB3
:1039500002D158F0040808E0B9F8020080B2000A69
:10396000C0B2002801D058F008084146C9B2102062
:10397000FFF767FDB9F80210C9B21120FFF761FD2A
:103980007F211220FFF75DFDBDE8F18370B50024B3
:1039900000250420FFF78DF900200400E4B2022C7A
:1039A00025D2E4B20320584900FB041000F2B40011
:1039B000060030780101C9B2E4B26000001DC0B257
:1039C000FFF76DF970780500EDB2072D00D16D1C81
:1039D0002D01B07810F00F0005432900C9B2E4B200
:1039E0006000401DC0B2FFF75AF9641CD6E770BDF5
:1039F000F8B50400002500260420FFF75AF9E4B2C8
:103A0000012C02D0E4B2022C01D101200500EDB25C
:103A100003203D4900FB051000F2B4000700387890
:103A20000101C9B2EDB26800001DC0B2FFF737F95D
:103A300078780600F6B2072E00D1761C3601B878E9
:103A400010F00F0006433100C9B2EDB26800401D0E
:103A5000C0B2FFF724F9F1BDC0B22B4B53F82030B0
:103A60001A00137813F0CF031370C9B2002903D0E2
:103A7000137853F01003137002F20C02C0B2002846
:103A800000D1121D11707047C0B21F4B53F8203087
:103A90001A00C9B2002904D0137853F03003137010
:103AA00003E0137813F0CF03137002F20C02C0B2DC
:103AB000002800D1121D11707047F8B504000D00E8
:103AC0001600002783200700E4B2012C02D0E4B2E4
:103AD000022C02D157F0040706E0ADB2280AC0B2AA
:103AE000002801D057F008073900C9B21020FFF7AD
:103AF000A8FC2900C9B21120FFF7A3FC3100C9B20C
:103B00001220FFF79EFCF1BD08710020BF7100205C
:103B1000BC710020C471002040EF0000E05F002075
:103B20006472002062B38B0708D0521E11F8013B6B
:103B300000F8013B00F024808B07F6D1830740F0AA
:103B4000208000BF103A07D330B4B1E83810103AE3
:103B5000A0E83810F9D230BC530724BFB1E80810F0
:103B6000A0E8081044BF51F8043B40F8043BD207DA
:103B700024BF31F8022B20F8022B44BF0B780370CE
:103B80007047083A07D3B1E80810083A40F8043BF8
:103B900040F804CBF7D25307E4E7FFFF03490022C4
:103BA0000A60024909688142FBD3704760760020B1
:103BB00080B500F009F800F007F800F005F800F013
:103BC00003F800F001F801BD00BF00BF00BF00BF57
:103BD00000BF00BF00BF00BF00BF00BF00BF7047F5
:103BE00080B5DFF8DC090078002803D0DFF8D009C1
:103BF00000210170DFF8CC09007800282AD0DFF816
:103C0000C40900210170DFF8C00900793C280CD1FB
:103C1000DFF8B809006C01281CD1DFF8B0090021D9
:103C20000164012003F0CAFA14E0DFF89C0900796E
:103C3000342803D1002003F0C1FA0BE0DFF88C092F
:103C4000006C012806D1DFF88409002101640120FD
:103C500003F0B4FADFF8380A0078002803D0DFF860
:103C6000300A00210170DFF82C0A0078002803D008
:103C7000DFF8200A00210170DFF81C0A0078002814
:103C800003D0DFF8140A00210170DFF8100A007871
:103C9000002827D0DFF8040A00210170DFF8280986
:103CA000407801280AD1DFF82009C078C8214843AC
:103CB00010F5FA6080B203F034FE13E0DFF8080973
:103CC000407802280ED1DFF80009C078C821DFF85B
:103CD000F828927814235A4301FB0020BE3880B2A2
:103CE00003F01FFEDFF8B8090078002803D0DFF8E2
:103CF000B00900210170DFF8AC090078002803D07A
:103D0000DFF8A0090021017001BD80B5DFF8BC0813
:103D1000EA21017003F024FFDFF88C0903F034FF7F
:103D200000F089F803F027FF042002BD38B5002415
:103D3000DFF8740900680400DFF890080470DFF809
:103D40008C080078EA2873D1002005004FF4007039
:103D5000854209DADFF87408DFF84C1951F82510AC
:103D600040F825106D1CF1E7DFF86008C0791321D9
:103D700090FBF1F201FB1200DFF85018C871DFF878
:103D80004C08007A292190FBF1F201FB1200DFF8C8
:103D90003C180872DFF83408407A032190FBF1F2F6
:103DA00001FB1200DFF824184872DFF82008807A3F
:103DB000022190FBF1F202FB1102DFF8100882727F
:103DC000DFF80808807C292190FBF1F201FB12004A
:103DD000DFF8F8178874DFF8F407007D292190FBDD
:103DE000F1F201FB1200DFF8E4170875DFF8DC07D9
:103DF000407D292190FBF1F201FB1200DFF8CC1786
:103E00004875DFF8C807407E022190FBF1F202FB03
:103E10001102DFF8B8074276DFF8B007807E132181
:103E200090FBF1F201FB1200DFF8A017887601E0A9
:103E3000FFF76BFF31BD10B503F092FEDFF86808A5
:103E400003F0A2FE002004004FF4007084420CDA5C
:103E5000DFF8780750F82410A00000F1006010F59A
:103E6000FA3003F028FF641CEEE703F084FE10BD77
:103E700010B50400DFF854078078E4B2A04202D005
:103E8000002003F09BF9E4B20B2C06D14FF4007133
:103E9000DFF8180803F07DF805E04FF40071DFF853
:103EA0000C0803F079F82000C0B203F034F9DFF811
:103EB0001C078470DFF8F807407A002804D0DFF888
:103EC0000C07807F002852D1E4B22000032804D0E0
:103ED0000B281AD0122838D03EE000210020FCF731
:103EE0008FFDDFF8D0070078002805D0DFF8C8077D
:103EF0004FF47A61018003E0DFF8BC07C82101803C
:103F0000DFF8B8070121017081E0DFF8C006C07F4B
:103F1000002804D100210720FCF772FD14E0DFF82F
:103F2000AC06C07F012806D1DFF8A006417C032043
:103F3000FCF766FD08E0DFF89406C07F022803D195
:103F400000210020FCF75CFD61E0DFF88006C1780D
:103F50000220FCF755FD5AE0DFF87006C178022018
:103F6000FCF74EFDDFF86406122181704FE0E4B2E9
:103F70002000032804D00B281CD012283AD03EE0A1
:103F800000F0FBFA00210720FCF73AFDDFF82407D8
:103F90000078002805D0DFF820074FF47A6101800F
:103FA00003E0DFF81407C8210180DFF810070121C2
:103FB00001702CE0DFF81406C07F002804D1002136
:103FC0000720FCF71DFD14E0DFF80006C07F012884
:103FD00006D1DFF8F805417C0320FCF711FD08E06D
:103FE000DFF8E805C07F022803D100210020FCF79C
:103FF00007FD0CE000210720FCF702FD07E000218F
:104000000720FCF7FDFCDFF8C40512218170DFF802
:10401000BC053221016410BD10B500F07FFADFF855
:10402000AC05C07B002818D0DFF8A005007C002874
:1040300013D1DFF89805C07F03280ED0DFF88C0578
:1040400080780B2835D0DFF88405DFF88015897873
:1040500041700B20FFF70CFF2BE0DFF87005C07BF1
:10406000002813D0DFF86405007C00280ED0DFF8AC
:104070005C0580780B281CD14FF4FA70FFF78EFD99
:10408000DFF848054078FFF7F3FE12E0DFF83C0563
:1040900080780B280DD1DFF8340580780B2808D103
:1040A0004FF4FA70FFF77AFDDFF820054078FFF74C
:1040B000DFFEDFF81805807803284FD00B2803D0E7
:1040C000122800F0BE8013E1DFF80005C07F002851
:1040D0000DD1DFF8DC05007A00283ED0DFF8D005EE
:1040E0000021017200210720FDF790F835E0DFF88C
:1040F000DC04C07F012830D1DFF8C405408E00F019
:1041000067FA0400DFF8A805007A002809D0DFF874
:10411000A00500210172DFF8B404417C0320FDF703
:1041200075F8DFF89C0590F8380080B2A4B2A04280
:1041300013D0DFF88C0580F83840DFF8900490F851
:104140003000032809D1DFF8840490F831000028FA
:1041500003D110210320FDF759F8C9E0DFF860050D
:1041600090F8200000281ED0DFF8600490F830009E
:10417000072818D0DFF84805002180F82010DFF864
:104180004C0490F83000052804D000210520FCF7ED
:1041900037FC03E000210520FDF738F8DFF82005A3
:1041A00041F28831C186DFF81805C08E002809D198
:1041B000DFF8180490F83000052803D10021002012
:1041C000FCF71EFCDFF80404807F00280CD1DFF828
:1041D000FC0390F83000072832D100210020FCF7C2
:1041E0000FFC00F0DBF92BE0DFF8C404407A002874
:1041F0001AD0DFF8BC04007A002821D0DFF8B00420
:1042000000210172DFF8C40390F83000072804D0C1
:1042100000210720FCF7F4FB03E000210720FCF756
:10422000F5FF00F0AAF90BE0DFF8A00390F83000EA
:10423000072805D100210020FCF7E2FB00F0AEF9D1
:1042400056E0DFF888030079002815D0DFF87C03FA
:1042500000210171DFF8740390F8300004280BD0BE
:10426000DFF8680390F83000072805D0DFF85C031A
:10427000C1780220FCF7C4FBDFF85003807F0028E0
:104280000CD1DFF8480390F83000072830D1002126
:104290000020FCF7B5FB00F081F929E0DFF81004FD
:1042A000407A002818D0DFF80804007A00281FD0D0
:1042B000DFF8FC0300210172DFF8100390F83000F2
:1042C000072804D000210720FCF79AFB10E000210A
:1042D0000720FCF79BFF0BE0DFF8F00290F83000BE
:1042E000072805D1DFF8E402C1780220FCF788FB3B
:1042F00000F011F8DFF8CC030078002805D0102179
:10430000DFF8A80302F045FE04E01021DFF89C036B
:1043100002F042FE10BD80B5DFF8B00280780B28B5
:1043200000F0FB80DFF8A0030078002800F0848014
:10433000DFF89403002101700020032805DADFF87C
:104340008C1300224254401CF7E7DFF8840300215D
:104350000170DFF87403407900280DD0DFF8700396
:104360000078DFF8681300224254DFF86403007815
:10437000401CDFF85C130870DFF84C0380790028DC
:104380000DD0DFF84C030078DFF8401301224254CF
:10439000DFF83C030078401CDFF834130870DFF8C6
:1043A0002803407800280ED1DFF81C03807800280D
:1043B00009D1DFF81403C078002804D1DFF808031E
:1043C000007900280DD0DFF808030078DFF8FC1230
:1043D00002224254DFF8F8020078401CDFF8F012A5
:1043E0000870DFF8EC020078002825D1DFF8D80249
:1043F00001210172754890F83000042811D17348EA
:104400008078122805D17148C1780220FCF7F8FAAB
:1044100007E06E4890F833106C4890F83200FCF7D3
:10442000EFFA6A488078032806D1684890F830008F
:10443000002801D100F0B2F8DFF8940200780028DB
:104440006BD0DFF88402C068002866D1DFF87802FC
:10445000C079DFF87812405C002803D0022829D008
:1044600014D33FE0594890F83000042804D157484D
:1044700090F83100012803D001210420FCF7C0FA94
:10448000DFF844024FF47A71C1602BE04F4890F896
:104490003000042804D14D4890F83100002803D0A2
:1044A00000210420FCF7ACFADFF81C024FF47A710B
:1044B000C16017E0454890F83000042804D1434813
:1044C00090F83100022804D002210420FCF798FA69
:1044D00003E002210420FCF799FEDFF8EC014FF421
:1044E0007A71C16039488078032801D100F045F81D
:1044F000DFF8D401C079DFF8D8110978491E884265
:1045000007DADFF8C401C079401CDFF8BC11C871BC
:1045100003E0DFF8B4010021C17101BD6D480068FE
:10452000C00707D42948C07F032812D0274802219A
:1045300081730EE02548C06B00280AD12348C07F54
:10454000032806D02148407B012802D01F480021C3
:1045500081731E48807B022803D01C48407B0128C1
:1045600007D11A48C07F032806D018480121C1731B
:1045700002E016480021C173704780B50220FEF7A3
:1045800098FB20210420FEF78AFB00210320FEF780
:1045900086FB33210C20FEF782FB01BD80B5022093
:1045A000FEF787FB14210420FEF779FB002103208E
:1045B000FEF775FB2B210C20FEF771FB01BD0000FF
:1045C000C9760020CA76002034760020E05F002003
:1045D000010011F47F4140480068814201D1002070
:1045E00054E03D484068884227D23C48002202708F
:1045F0003A480078202817D238480078384A12EB19
:1046000080004068884209D334480078344A52F820
:104610002000884202D23148007837E02F480078E5
:10462000401C2E4A1070E3E72D48D0F880008842E5
:1046300001D21F202AE0002028E028480022027032
:1046400026480078202819D224480078224A52F8B7
:10465000200088420CD3214800781F4A12EB8000CA
:104660004068884204D21D4800782030C0B20DE076
:104670001A480078401C194A1070E1E71648D0F833
:104680008000814201D23F2000E0002070470000FE
:10469000CB760020CC760020CD760020CE76002090
:1046A000CF760020D076002000F4010800100140F1
:1046B0001C760020977600207476002096760020E5
:1046C000D8730020E0670020DC75002058760020B9
:1046D000AA7600200808014078EA0000B37600209E
:1046E000FCEA000038B504000D002900200003F0AA
:1046F00038FD31BD10B586B00400E4B2012C0BD0FA
:10470000C0F07681032C00F0908046D3052C00F099
:104710002481C0F0D6806BE1DFF8C806807A8DF87E
:104720000A00DFF8C00600680090DFF8B806007ADB
:104730008DF80800DFF8AC06407A8DF80900DFF844
:10474000A406C07A8DF80B00DFF89806007B8DF880
:104750000C00DFF89006407B8DF80D00DFF8840632
:10476000807B8DF80E00DFF87C06C07B8DF80F0093
:10477000DFF87006007C8DF81000DFF86806407CDA
:104780008DF81100DFF85C06807C8DF8120000A91E
:10479000DFF85406FFF7A6FF2AE1DFF84806807F1E
:1047A0008DF80A00DFF83C0640690090DFF8340617
:1047B000007F8DF80800DFF82C06407F8DF8090097
:1047C000DFF82006C07F8DF80B00DFF8180690F8A0
:1047D00020008DF80C00DFF80C0690F821008DF811
:1047E0000D00DFF8000690F822008DF80E00DFF8CB
:1047F000F40590F823008DF80F00DFF8E80590F835
:1048000024008DF81000DFF8DC0590F825008DF805
:104810001100DFF8D00590F826008DF8120000A9ED
:10482000DFF8C405FFF75EFFE2E0DFF8B80590F8B7
:1048300032008DF80A00DFF8AC05806A0090DFF8DE
:10484000A40590F830008DF80800DFF8980590F87E
:1048500031008DF80900DFF88C0590F833008DF8F1
:104860000B00DFF8800590F834008DF80C00DFF8BD
:10487000740590F835008DF80D00DFF8680590F8A4
:1048800036008DF80E00DFF85C0590F837008DF8E3
:104890000F00DFF8500590F838008DF81000DFF8B1
:1048A000440590F839008DF81100DFF8380590F8CC
:1048B0003A008DF8120000A9DFF82C05FFF712FF6F
:1048C00096E0DFF8200590F846008DF80A00DFF842
:1048D0001405C06B0090DFF80C0590F844008DF8CB
:1048E0000800DFF8000590F845008DF80900DFF8B2
:1048F000F40490F847008DF80B00DFF8E80490F816
:1049000048008DF80C00DFF8DC0490F849008DF8C1
:104910000D00DFF8D00490F84A008DF80E00DFF8A3
:10492000C40490F84B008DF80F00DFF8B80490F83D
:104930004C008DF81000DFF8AC0490F84D008DF8B5
:104940001100DFF8A00490F84E008DF8120000A9C5
:10495000DFF89404FFF7C6FE4AE0DFF8880490F819
:104960005A008DF80A00DFF87C04006D0090DFF833
:10497000740490F858008DF80800DFF8680490F887
:1049800059008DF80900DFF85C0490F85B008DF8A1
:104990000B00DFF8500490F85C008DF80C00DFF895
:1049A000440490F85D008DF80D00DFF8380490F8AD
:1049B0005E008DF80E00DFF82C0490F85F008DF893
:1049C0000F00DFF8200490F860008DF81000DFF889
:1049D000140490F861008DF81100DFF8080490F8D5
:1049E00062008DF8120000A9DFF8FC03FFF77AFEE1
:1049F00006B010BD30B583B004000D00EDB2002D3F
:104A000005D0022D1BD00ED3032D24D02EE0DFF8CD
:104A1000E01383B068461422FFF794F80EBC200020
:104A200000F025F822E0DFF8CC1383B068461422AA
:104A3000FFF788F80EBC200000F019F816E0DFF848
:104A4000B81383B068461422FFF77CF80EBC200030
:104A500000F00DF80AE0DFF8A41383B068461422D2
:104A6000FFF770F80EBC200000F001F837BD0EB45F
:104A700018B50400002C05D003A9DFF86C03FFF77C
:104A800031FE04E003A9DFF86403FFF72BFE11BC3D
:104A90005DF810FB00B585B0DFF86403C07A01282B
:104AA0000BD0C0F09981032800F0A78055D30528CA
:104AB00000F04381C0F0F1808EE1DFF8480390F808
:104AC00032008DF80A00DFF83C03806A0090DFF8BE
:104AD000340390F830008DF80800DFF8280390F8D0
:104AE00031008DF80900DFF81C0390F833008DF8D1
:104AF0000B00DFF8100390F834008DF80C00DFF89D
:104B0000040390F835008DF80D00DFF8F80290F8F6
:104B100036008DF80E00DFF8EC0290F837008DF8C3
:104B20000F00DFF8E00290F838008DF81000DFF891
:104B3000D40290F839008DF81100DFF8C80290F81F
:104B40003A008DF8120000A9DFF89C02FFF7CAFDB9
:104B5000DFF8AC020221C17242E1DFF8A80290F84E
:104B600046008DF80A00DFF89C02C06B0090DFF869
:104B7000940290F844008DF80800DFF8880290F85D
:104B800045008DF80900DFF87C0290F847008DF8A9
:104B90000B00DFF8700290F848008DF80C00DFF889
:104BA000640290F849008DF80D00DFF8580290F883
:104BB0004A008DF80E00DFF84C0290F84B008DF89B
:104BC0000F00DFF8400290F84C008DF81000DFF87D
:104BD000340290F84D008DF81100DFF8280290F8AB
:104BE0004E008DF8120000A9DFF8FC01FFF77AFDF6
:104BF000DFF80C020321C172F2E0DFF8080290F83E
:104C00005A008DF80A00DFF8FC01006D0090DFF813
:104C1000F40190F858008DF80800DFF8E80190F8EA
:104C200059008DF80900DFF8DC0190F85B008DF881
:104C30000B00DFF8D00190F85C008DF80C00DFF875
:104C4000C40190F85D008DF80D00DFF8B80190F810
:104C50005E008DF80E00DFF8AC0190F85F008DF873
:104C60000F00DFF8A00190F860008DF81000DFF869
:104C7000940190F861008DF81100DFF8880190F838
:104C800062008DF8120000A9DFF85C01FFF72AFD31
:104C9000DFF86C010421C172A2E0DFF8680190F82E
:104CA0006E008DF80A00DFF85C01406E0090DFF8BE
:104CB000540190F86C008DF80800DFF8480190F876
:104CC0006D008DF80900DFF83C0190F86F008DF859
:104CD0000B00DFF8300190F870008DF80C00DFF861
:104CE000240190F871008DF80D00DFF8180190F89C
:104CF00072008DF80E00DFF80C0190F873008DF84B
:104D00000F00DFF8000190F874008DF81000DFF854
:104D1000F40090F875008DF81100DFF8E80090F8C5
:104D200076008DF8120000A9DFF8BC00FFF7DAFC6E
:104D3000DFF8CC000521C17252E0DFF8C80090F81E
:104D400082008DF80A00DFF8BC00806F0090DFF869
:104D5000B40090F880008DF80800DFF8A80090F803
:104D600081008DF80900DFF89C0090F883008DF831
:104D70000B00DFF8900090F884008DF80C00DFF84D
:104D8000840090F885008DF80D00DFF8780090F829
:104D900086008DF80E00DFF86C0090F887008DF823
:104DA0000F00DFF8600090F888008DF81000DFF841
:104DB000540090F889008DF81100DFF8480090F851
:104DC0008A008DF8120000A90748FFF78BFCDFF876
:104DD00030001E21C17203E0DFF824001E21C172E1
:104DE00005B000BDB4EC0000006800400064004065
:104DF000C4ED0000D8ED0000ECED000000EE000076
:104E0000D8730020A4C3000000B587B0DFF8A40861
:104E100003F03CF8DFF8A00803F038F800A803F02E
:104E200066F900208DF8060000208DF807000020AC
:104E30008DF8080000208DF8090000208DF80A0088
:104E400000208DF80B0002208DF8020000208DF864
:104E500003000E208DF8040001208DF805000420C9
:104E6000ADF8000000A9DFF84C0803F02BF8002093
:104E70008DF8060000208DF8070000208DF808004E
:104E800000208DF8090000208DF80A0000208DF820
:104E90000B0000208DF8020000208DF803000E208A
:104EA0008DF8040001208DF805000820ADF8000001
:104EB00000A9DFF8040803F005F800208DF81600BB
:104EC00000208DF8170001208DF818004FF6E070D3
:104ED000ADF80C000020ADF80E000020ADF8140075
:104EE00001208DF8190003A803F078F8002003F0E2
:104EF00015F901220621DFF8BC0703F039FA012277
:104F00000621DFF8B40703F033FA07B000BD0FB491
:104F1000009840F24311884203D19DF80A00082806
:104F200000D019E0DFF89407002181729DF80D0090
:104F3000522809D1DFF8B00C01214173DFF8A80C29
:104F40004FF4FA61C16307E0DFF89C0C00210174A3
:104F5000DFF8940C0021417304B070470FB404B023
:104F600070470FB480B5029840F2F311884203D124
:104F70009DF81200082800D0BFE19DF8130080289A
:104F800004D1DFF82C07F62181806DE09DF8130035
:104F9000102804D1DFF818072021818064E09DF8F3
:104FA000130004280BD09DF81300202807D09DF88B
:104FB0001300022803D09DF81300402804D1DFF825
:104FC000F006212181804FE09DF81600A6284BD0E5
:104FD0009DF81500012804D1DFF8D4060521818051
:104FE00042E09DF81500802804D1DFF8C4060321B3
:104FF000818039E09DF81500082804D1DFF8B0065B
:105000000421818030E09DF81500022804D1DFF8EA
:10501000A0060121818027E09DF81500202804D1F9
:10502000DFF88C06022181801EE0DFF8E40B0088A7
:10503000401CDFF8DC1B0880DFF8D80B0021017072
:10504000DFF80C0C00210170DFF86406002181807C
:10505000DFF8BC0B00210180DFF8540600218171CC
:10506000DFF84C060021C171DFF844068088002873
:1050700015D0012800F0B580022800F0D880032860
:1050800063D0042800F0878005283BD0202800F05A
:10509000F480212800F00B81F62819D021E1DFF8F7
:1050A000740B00210170DFF8A80B00210170DFF8FC
:1050B000000600218180DFF8580B00210180DFF815
:1050C000F00500218171DFF8E8050021C17114E1CC
:1050D000DFF8DC058079401CDFF8D4158871DFF833
:1050E000D0058079012803D1F62000F07FFD08E08B
:1050F000DFF8BC0580790A2803D3DFF8B405022164
:105100008171FAE0DFF8A8058079401CDFF8A0156E
:105110008871DFF89C05807901280CD1052000F00A
:1051200065FDDFF8C40A80780B280DD1DFF8240B69
:105130000121817008E0DFF8780580790A2803D31F
:10514000DFF86C0502218171D7E0DFF86405807912
:10515000401CDFF85C158871DFF854058079012860
:105160000FD1032000F042FDDFF87C0A80780B2885
:1051700010D1DFF8E00A0078401EDFF8D81A087076
:1051800008E0DFF82C0580790A2803D3DFF8200532
:1051900002218171B1E0DFF818058079401CDFF849
:1051A00010158871DFF80805807901280FD10420D7
:1051B00000F01CFDDFF8300A80780B2810D1DFF8F2
:1051C000940A0078401CDFF88C1A087008E0DFF8B9
:1051D000E00480790A2803D3DFF8D4040221817126
:1051E0008BE0DFF8CC048079401CDFF8C4148871B0
:1051F000DFF8BC04807901280FD1012000F0F6FC13
:10520000DFF8E40980780B2810D1DFF8480A4078ED
:10521000401EDFF8401A487008E0DFF894048079F7
:105220000A2803D3DFF888040221817165E0DFF8E2
:1052300080048079401CDFF878148871DFF87004EE
:10524000807901280FD1022000F0D0FCDFF8980906
:1052500080780B2810D1DFF8FC094078401CDFF87B
:10526000F419487008E0DFF8480480790A2803D36D
:10527000DFF83C04022181713FE0DFF834048079DB
:10528000401CDFF82C148871DFF824048079012891
:1052900003D1202000F0AAFC08E0DFF81404807994
:1052A0000A2803D3DFF808040221817125E0DFF822
:1052B00000048079401CDFF8F8138871DFF8F003F0
:1052C0008079012803D1212000F090FC08E0DFF86C
:1052D000E00380790A2803D3DFF8D4030221817127
:1052E0000BE0DFF8CC0300218180DFF8C40300214C
:1052F0008171DFF8BC030021C17101BC5DF814FBB2
:1053000000000FB404B070470FB480B5029840F2AB
:105310000141884203D19DF81200082800D05DE1C8
:105320009DF81700012804D1DFF82C092021017213
:105330001EE0DFF828090088401CDFF820190880EB
:10534000DFF81C0900210170DFF818090021017045
:10535000DFF8040900210172DFF800090021018053
:10536000DFF8F40800214172DFF8EC0800218172B7
:10537000DFF8E408007A002815D0012800F0B58095
:10538000022800F0CC80032863D0042800F0878036
:1053900005283BD0202800F0DC80212800F0F88090
:1053A000F62819D00EE1DFF8B80800210170DFF807
:1053B000B40800210170DFF8A00800210172DFF8B5
:1053C0009C0800210180DFF8900800214172DFF87D
:1053D00088080021817201E1DFF87C08407A401CD6
:1053E000DFF874184872DFF87008407A012803D19A
:1053F000F62000F0FBFB08E0DFF85C08407A0A28A2
:1054000003D3DFF8540802214172E7E0DFF84808CF
:10541000407A401CDFF840184872DFF83C08407AB8
:1054200001280CD1052000F0E1FBDFF8BC078078F3
:105430000B280DD1DFF81C080121817008E0DFF88E
:105440001808407A0A2803D3DFF80C0802214172B9
:10545000C4E0DFF80408407A401CDFF8FC1748720B
:10546000DFF8F407407A01280FD1032000F0BEFBDB
:10547000DFF8740780780B2810D1DFF8D8070078A0
:10548000401EDFF8D017087008E0DFF8CC07407A3C
:105490000A2803D3DFF8C007022141729EE0DFF83B
:1054A000B807407A401CDFF8B0174872DFF8A80749
:1054B000407A01280FD1042000F098FBDFF828077C
:1054C00080780B2810D1DFF88C070078401CDFF8BB
:1054D0008417087008E0DFF88007407A0A2803D3B1
:1054E000DFF874070221417278E0DFF86C07407A38
:1054F000401CDFF864174872DFF85C07407A012827
:1055000003D1012000F072FB08E0DFF84C07407A7D
:105510000A2803D3DFF84007022141725EE0DFF87A
:105520003807407A401CDFF830174872DFF8280748
:10553000407A012803D1022000F058FB08E0DFF890
:105540001807407A0A2803D3DFF80C0702214172BA
:1055500044E0DFF80407407A401CDFF8FC1648728C
:10556000DFF8F406407A012808D1DFF87C0680785D
:1055700012280CD1202000F039FB08E0DFF8D80613
:10558000407A0A2803D3DFF8D0060221417225E0D1
:10559000DFF8C406407A401CDFF8BC164872DFF81A
:1055A000B806407A012803D1212000F01FFB08E053
:1055B000DFF8A406407A0A2803D3DFF89C0602210C
:1055C00041720BE0DFF8900600210172DFF88806D7
:1055D00000214172DFF880060021817201BC5DF874
:1055E00014FB0FB400982F280CD19DF80A0008284E
:1055F00008D19DF80E009DF80F1051EA0020DFF849
:105600005816488604B0704710B500242848C08B4F
:1056100000284AD100F000FB012828D002282BD016
:10562000032810D0042813D005282AD0062814D027
:10563000072817D020282FD0212827D05D2830D048
:10564000E42828D02EE0DFF820060321017029E0AD
:10565000DFF814060421017024E0DFF80C060121B4
:1056600001701FE0DFF80006022101701AE0DFF888
:10567000F8050121017015E0DFF8EC050221017049
:1056800010E0DFF8E405052101700BE0DFF8D80534
:105690000621017006E005E0DFF8CC050721017066
:1056A00000E0FFE702480A21C18310BD00000000AE
:1056B000D873002000640040006800401C76002081
:1056C0000FB4DFF8A805DFF8A41509780170DFF83A
:1056D000A005DFF89C1509780170DFF89805DFF860
:1056E000941509780170DFF89005DFF88C150978BA
:1056F0000170009840F2C52188420DD19DF80A0042
:10570000042809D1DFF85005022180F83910DFF8AC
:10571000D8044FF4FA614163009840F2C5218842F1
:1057200035D19DF80A00042831D19DF80B0010F006
:105730000F000F2819D1DFF82005022180F83B1057
:10574000DFF81405022180F83910DFF80C0502217A
:1057500080F83A10DFF890044FF4FA618163DFF8C3
:1057600088044FF4FA6141630AE09DF80B0010F0E1
:105770000F000D2804D1DFF8E004012180F83A1071
:105780009DF80B00C0B20009DFF8F014C870009853
:1057900040F2394188420DD19DF80A00042809D110
:1057A000DFF8D8049DF80D104170DFF8D0049DF8A3
:1057B0000E108170009840F29731884226D19DF8F2
:1057C0000A00082822D1DFF8B80440789DF80B10B1
:1057D00011F00F01884219D09DF80B0010F00F0056
:1057E000DFF89C1448709DF80B0010F00F000228A1
:1057F00004D1DFF890040121417003E0DFF8840454
:1058000000214170DFF87C0401210170009840F212
:105810009B31884226D19DF80A00082822D1DFF862
:10582000600480789DF80B1011F00F01884219D0A8
:105830009DF80B0010F00F00DFF8441488709DF8FD
:105840000B0010F00F00022804D1DFF8380401210A
:10585000817003E0DFF82C0400218170DFF824045C
:1058600001210170009840F2A331884226D19DF8B1
:105870000A00082822D1DFF80804C0789DF80B1030
:1058800011F00F01884219D09DF80B0010F00F00A5
:10589000DFF8EC13C8709DF80B0010F00F000E2815
:1058A00004D1DFF8E0030121C17003E0DFF8D40385
:1058B0000021C170DFF8CC0301210170009840F293
:1058C000A531884226D19DF80A00082822D1DFF8A8
:1058D000B00300799DF80B1011F00F01884219D028
:1058E0009DF80B0010F00F00DFF8941308719DF87D
:1058F0000B0010F00F000E2804D1DFF888030121FF
:10590000017103E0DFF87C0300210171DFF874030B
:1059100001210170009840F25131884220D19DF858
:105920000A0008281CD1DFF8580380799DF80B1075
:10593000884215D0DFF848039DF80B1081719DF85F
:105940000B00202804D1DFF83C030121817103E022
:10595000DFF8300300218171DFF828030121017095
:10596000009840F23731884220D19DF80A0004287F
:105970001CD1DFF80C0340799DF80B10884215D03C
:10598000DFF8FC029DF80B1041719DF80B006028B8
:1059900004D1DFF8F0020121417103E0DFF8E402F5
:1059A00000214171DFF8DC0201210170009840F212
:1059B0005331884275D19DF80A00082871D1A64854
:1059C00090F823009DF80D10884201D0012000E0DE
:1059D0000020C0B2002808D09F489DF80D1080F824
:1059E00023109D48012180F820109B4890F8220048
:1059F0009DF81210884201D0012000E00020C0B2C2
:105A0000002808D094489DF8121080F8221092487F
:105A1000012180F82010904890F824009DF8111082
:105A2000884208D08C489DF8111080F824108A48CC
:105A3000012180F82010884890F82A009DF80C1069
:105A4000884201D0012000E00020C0B2002808D028
:105A500081489DF80C1080F82A107F48012180F8B9
:105A600020107D4890F82D009DF80F10884208D036
:105A700079489DF80F1080F82D107748012180F8A3
:105A80002010754890F82E009DF81010884208D01C
:105A900071489DF8101080F82E106F48012180F891
:105AA0002010009840F2334188425CD19DF80A00F2
:105AB000082858D19DF80B00002803D09DF80B0052
:105AC000992803D170480021417202E06E480121FB
:105AD00041726E4800789DF80B10884206D06A48E3
