:10000000A89000207DFC0000E9C20000EBC20000C7
:10001000EDC20000EFC20000F1C2000000000000CD
:10002000000000000000000000000000F3C200001B
:10003000F5C2000000000000F7C20000F9C2000095
:10004000D1FC0000D5FC0000D9FC000069CC000008
:10005000E1FC0000E5FC0000E9FC0000EDFC000014
:1000600053C70000F5FC0000F9FC0000FDFC000097
:1000700001FD000005FD000009FD00000DFD000070
:1000800011FD000015FD000019FD00001DFD000020
:1000900051CB000025FD000029FD00002DFD0000D2
:1000A00031FD000035FD000039FD00003DFD000080
:1000B0005BC6000045FD000049FD00004DFD00004D
:1000C00051FD000055FD000059FD00005DFD0000E0
:1000D00061FD000075C700009FC70000F5C7000064
:1000E00071FD00007DCC000079FD000000000000E3
:1000F0000000000000000000000000000000000000
:1001000000000000000000007DFD000081FD0000F7
:1001100009CB00002DCB00008DFD000091FD0000FB
:1001200095FD000099FD00009DFD0000A1FD00006F
:10013000A5FD0000A9FD0000ADFD0000B1FD00001F
:100140007FCB0000B9FD0000BDFD0000C1FD000037
:1001500010B4DFF880482100047B14F001040C7215
:10016000447B641C220000242300DBB2092B05D24F
:10017000D40703D492B252085B1CF6E74B72C478E2
:1001800014F00F048C7284888C81C488CC81042480
:100190009C400C8210BC704770B504000D00002616
:1001A000012003F092FB10222100280003F03CFC08
:1001B0002878492802D16878542803D0DFF8180835
:1001C00003F0F2FDA8680600F0B2A860A86800027B
:1001D000A860360AA868F1B20843A860A8680002BF
:1001E000A860360AA868F1B20843A860A8680002AF
:1001F000A860360AA868F1B20843A86070BD38B597
:100200000400DFF8D057DFF814196068FFF7C4FF67
:10021000DFF80809FFF79CFF60681030286060680D
:10022000298A08181030686031BDF8B504000D0047
:10023000E4B2DFF8EC08205C06000421FF2003F0A4
:1002400004FF3000C0B203F00DFF0700EDB2002D37
:1002500007D057F00101C9B23000C0B203F0F5FE7B
:1002600005E017F0FE013000C0B203F0EEFEF1BD74
:1002700070B50400E4B2002C03D02000C0B203F03B
:1002800024FBDFF8A0080078022803D10320050032
:1002900006000BE0DFF88C080078002803D000206F
:1002A0000500060002E0032005000600042003F01C
:1002B00004FBEDB2092D06D200212800C0B2FFF7E1
:1002C000B4FF6D1CF5E7F6B2002E01D104F052F830
:1002D00070BD70B504000D00012003F0F6FA042093
:1002E00003F0EBFA2600EDB2F6B2B54206D30021D8
:1002F0003000C0B2FFF799FF761CF4E770BD00B57F
:100300008DB00120FFF7B4FFDFF81C1884B06846F9
:10031000402204F01BFA0FBC00F038F8DFF80C188C
:1003200084B06846402204F011FA0FBC00F02EF8A9
:10033000DFF8FC1784B06846402204F007FA0FBCCF
:1003400000F024F80DB000BD00B58DB00120FFF71E
:100350008FFFDFF8E01784B06846402204F0F6F91A
:100360000FBC00F013F80DB000BD00B58DB001203A
:10037000FFF77EFFDFF8C01784B06846402204F024
:10038000E5F90FBC00F002F80DB000BD0FB4F0B5F8
:1003900083B0DFF890070078002823D0DFF83456C8
:1003A0000D9F9DF83D0006003C00012003F068FE13
:1003B00003F0C8FF03F0ABFF03F09BFF2000FFF743
:1003C0001EFF207B0190286800902B8A109A92B221
:1003D000297A3000C0B203F03AFF00213000C0B2E9
:1003E00004F058F8F7BC5DF814FB0FB42DE9FC419C
:1003F000189CDFF8E065DDF83480270045460120D1
:1004000003F03EFE03F09EFF03F081FF03F071FF57
:10041000012003F05AFA2800FFF7F1FE287B019033
:1004200030680090338A109A92B2317A3800C0B2A4
:1004300003F00DFF00213800C0B204F02BF8BDE836
:10044000F3015DF814FB80B503F02AFF03F033FEDF
:1004500001BD80B503F016FAFFF7F5FF01BD0FB43B
:10046000F8B5DFF870550B9F9DF8350006003C008D
:1004700000213000C0B2FFF7D8FEF1BC5DF814FBDC
:100480000FB4F8B5DFF84C550B9F9DF8350006000A
:100490003C00012003F0F4FD03F054FF03F037FFAC
:1004A00003F027FF01202872082068720B9800785B
:1004B000002805D00B98407B10F00F00A87201E0D7
:1004C0000020A8720B98C089A8810B98008AE88147
:1004D0004FF4806028820B984068103028600B9899
:1004E0004068298A08181030686069683000C0B216
:1004F00003F06DFEEA89A9893000C0B203F040FE26
:10050000E8890090AB89099A92B20898D0F5A0606A
:10051000A989411A89B23000C0B203F073FE697A2A
:100520003000C0B203F0FEFD207BFF2805D0217B08
:100530003000C0B204F0ACF804E000213000C0B2DA
:1005400004F08EF800213000C0B203F00AFE012151
:100550003000C0B203F0D4FDA87A002806D0AA7AF1
:10056000697A3000C0B203F085FE01E003F0EAFED4
:10057000F6B2DFF8C81551F82610080000F20D0099
:100580000E994FF47062114201D0102101700120C8
:1005900003F09BF9A87A002803D03000C0B204F021
:1005A0002BF83100C9B23000C0B203F0F0FEF1BC4C
:1005B0005DF814FB0FB42DE9F843189CDFF81464C0
:1005C000DDF8348027004546012003F059FD03F093
:1005D000B9FE03F09CFE03F08CFE0120307208206F
:1005E00070720D980078002805D00D98407B10F0AF
:1005F0000F00B07201E00020B0720D98C089B08188
:100600000D98008AF0814FF4806030820D98406828
:10061000103030600D984068318A081810307060D2
:1006200071683800C0B203F0D2FDF289B189380098
:10063000C0B203F0A5FDF0890090B3890B9A92B285
:100640000A98D0F5A060B189411A89B23800C0B2C9
:1006500003F0D8FD717A3800C0B203F063FD287B47
:10066000FF2805D0297B3800C0B204F011F804E05F
:1006700000213800C0B203F0F3FF00213800C0B2FF
:1006800003F06FFD01213800C0B203F039FDB07AEC
:10069000002806D0B27A717A3800C0B203F0EAFDC1
:1006A00001E003F04FFEFFB2DFF8900450F827009E
:1006B000814609F20D0910984FF47061084205D087
:1006C000102089F80000012003F0FFF8012003F05A
:1006D000FCF8B07A002803D03800C0B203F08CFFD9
:1006E0003900C9B23800C0B203F051FE0121380010
:1006F000C0B203F005FD3900C9B23800C0B203F042
:1007000046FEBDE8F1035DF814FB0FB400B58DB0F3
:1007100003200C900EA984B06846402204F016F81D
:100720000FBCFFF762FE03200C900EA984B0684650
:10073000402204F00BF80FBCFFF73CFF01200C90A7
:100740000EA984B06846402204F000F80FBCFFF701
:100750004CFE01200C900EA984B06846402203F0A4
:10076000F5FF0FBCFFF726FF012003F0AEF80420D1
:1007700003F0A3F800210320FFF757FD0DB05DF84B
:1007800014FB0FB4F8B5934D0B9F9DF83500060090
:100790003C00012003F074FC03F0D4FD03F0B7FD2E
:1007A00003F0A7FD01202872082068720B980078DA
:1007B000002805D00B98407B10F00F00A87201E0D4
:1007C0000020A8720B98C089A8810B98008AE88144
:1007D0004FF4806028820B984068103028600B9896
:1007E0004068298A08181030686069683000C0B213
:1007F00003F0EDFCEA89A9893000C0B203F0C0FC27
:10080000E8890090AB89099A92B20898D0F5A06067
:10081000A989411A89B23000C0B203F0F3FC697AA9
:100820003000C0B203F07EFC207BFF2805D0217B86
:100830003000C0B203F02CFF04E000213000C0B251
:1008400003F00EFF00213000C0B203F08AFC00214B
:100850003000C0B203F054FCA87A002806D0AA7A6F
:10086000697A3000C0B203F005FD01E003F06AFDD3
:10087000F6B2B24951F82610080000F20D000E99A8
:100880004FF47062114201D010210170012003F079
:100890001CF8A87A002803D03000C0B203F0ACFEE8
:1008A0003100C9B23000C0B203F071FDF1BC5DF897
:1008B00014FB0FB42DE9F04782B0464D0F9F9DF811
:1008C000450006003C0001202872082068720F983D
:1008D0000078002805D00F98407B10F00F00A87218
:1008E00001E00020A8720F98C089A8810F98008AA3
:1008F000E8814FF4806028820F98406810302860AB
:100900000F984068298A08181030686069683000BC
:10091000C0B203F05CFCEA89A9893000C0B203F0E0
:100920002FFCE8890090AB890D9A92B20C98D0F513
:10093000A060A989411A89B23000C0B203F062FCFC
:10094000A87A002806D0AA7A697A3000C0B203F0EB
:1009500091FC01E003F0F6FC012002F0B6FF31004B
:10096000C9B23000C0B203F067FD5FF00008F6B214
:10097000012E02D0F6B2022E02D10120804601E003
:10098000002080465FF0000A03206C4900FB08103D
:1009900000F2B400814699F8010082465FFA8AFAB3
:1009A000BAF1070F01D11AF1010A5FEA0A1A99F8A0
:1009B000020010F00F0050EA0A0A5146C9B25FEA7D
:1009C0004800401DC0B202F06EFFBDE8F3075DF8BD
:1009D00014FB000070830020B8FB00000FB42DE969
:1009E000F8430D9C0E9D0F9EDFF8BC8BA1460120A5
:1009F00003F046FB03F0A6FC03F089FC03F079FC4E
:100A0000012088F80800082088F809009DF82000D7
:100A1000002806D09DF82D0010F00F0088F80A007D
:100A200002E0002088F80A00BDF82E00A8F80C00AB
:100A3000BDF83000A8F80E004FF48060A8F8100050
:100A400009981030C8F800000998B8F81010081874
:100A50001030C8F80400D8F804104846C0B203F0BB
:100A6000B6FBB8F80E20B8F80C104846C0B203F038
:100A700087FBB8F80E000090B8F80C30320092B244
:100A8000D5F5A060B8F80C10411A89B24846C0B23A
:100A900003F0B8FB98F809104846C0B203F042FBD7
:100AA000387BFF2805D0397B4846C0B203F0F0FD03
:100AB00004E000214846C0B203F0D2FD00214846C0
:100AC000C0B203F04EFB01214846C0B203F018FB50
:100AD00098F80A00002808D098F80A2098F8091019
:100AE0004846C0B203F0C6FB01E003F02BFC012036
:100AF00002F0EBFE98F80A00002803D04846C0B286
:100B000003F07AFD4946C9B24846C0B203F03FFC43
:100B1000BDF82E00BDE8F2035DF814FBC883002089
:100B20008CFC00009884002000000020C03C0020C5
:100B300040520020C010002080540020C07E0020C1
:100B4000F0B58DB004000D00DFF83C0C90F83400D7
:100B5000E4B2A04229D0DFF8300C90F8340002282B
:100B600008D0E4B2062C05D0DFF81C0C90F8340055
:100B7000092808D1DFF8100CDFF80C1C91F83410AC
:100B800080F8361004E0DFF8000C002180F8361001
:100B9000DFF8F40B80F83440DFF8F00B012101702E
:100BA000DFF8080A0121017003E0DFF8E00B002103
:100BB0000170DFF8D40BDFF8D01B91F8351080F806
:100BC0003710DFF8C40B80F83550DFF8C40B4068ED
:100BD000DFF8C01B0860E4B2002C18D0022C3ED015
:100BE0001AD3042C00F02981C0F08080062C00F07C
:100BF0000F82C0F0AD81082C00F0EE83C0F0A68318
:100C00000A2C00F06884C0F03C8400F097BC0120FE
:100C1000FFF72EFB00F092BCFFF796FBDFF8781B86
:100C200084B06846402203F091FD0FBCFFF728FC1A
:100C30000126202E11DA4020DFF85C1B00FB061194
:100C400084B06846402203F081FD0FBCFFF731FEFF
:100C5000142003F0A7FD761CEBE700F06FBCEDB2AB
:100C6000002D03D0022D27D00ED33DE00120FFF749
:100C7000FFFADFF8281B84B06846402203F066FDC7
:100C80000FBCFFF742FD2FE00120FFF7F1FADFF87C
:100C9000101B84B06846402203F058FD0FBCFFF7DC
:100CA00075FBDFF8FC1A84B06846402203F04EFD65
:100CB0000FBCFFF72AFD17E00120FFF7D9FADFF894
:100CC000E41A84B06846402203F040FD0FBCFFF7F1
:100CD0005DFBDFF8D01A84B06846402203F036FD91
:100CE0000FBCFFF712FDFFE700F028BCFFF707FB82
:100CF000DFF8980A0078002814D00126042E07DABD
:100D00002022310089B2082003F0DBFC761CF5E7D5
:100D100020220221012003F0D4FC20220C210120FA
:100D200003F0CFFCDFF85C1D84B06846402203F07E
:100D30000DFD0FBCFFF7A4FBDFF86C0A007802285A
:100D400016D3DFF8640A00780A2811D2DFF8580AAF
:100D500000784021DFF8302D01FB0020B0F1800148
:100D600084B06846402203F0F1FC0FBCFFF788FB1B
:100D7000DFF8340A0079022816D3DFF82C0A00794C
:100D80000A2811D2DFF8200A00794021DFF8FC2C74
:100D900001FB0020B0F1800184B06846402203F0DE
:100DA000D5FC0FBCFFF76CFBDFF8FC09C07902280B
:100DB00016D3DFF8F409C0790A2811D2DFF8E80960
:100DC000C0794021DFF8B42D01FB0020B0F1800193
:100DD00084B06846402203F0B9FC0FBCFFF750FB1B
:100DE000DFF8C409C078022816D3DFF8BC09C07840
:100DF0000A2811D2DFF8B009C0784021DFF8802D31
:100E000001FB0020B0F1800184B06846402203F06D
:100E10009DFC0FBCFFF734FBDFF8901984B06846E7
:100E2000402203F093FC0FBCFFF72AFBDFF8800998
:100E30004068DFF86019086080E3DFF8500901219D
:100E400001700120FFF714FAEDB2002D03D0022D3E
:100E50005FD02FD37BE0DFF83009407F002814D02B
:100E6000DFF8501984B06846402203F06FFC0FBCD5
:100E7000FFF78CFADFF83C1984B06846402203F093
:100E800065FC0FBCFFF7FCFA13E0DFF82C1984B007
:100E90006846402203F05AFC0FBCFFF777FADFF8F0
:100EA000181984B06846402203F050FC0FBCFFF7CD
:100EB000E7FA4CE0DFF8D008407F002814D0DFF8D4
:100EC000FC1884B06846402203F040FC0FBCFFF7DA
:100ED0005DFADFF8E81884B06846402203F036FC7B
:100EE0000FBCFFF7CDFA13E0DFF8D41884B06846E2
:100EF000402203F02BFC0FBCFFF748FADFF8C018C4
:100F000084B06846402203F021FC0FBCFFF7FDFBD4
:100F10001DE0DFF8B01884B06846402203F016FCEC
:100F20000FBCFFF733FADFF8A01884B06846402200
:100F300003F00CFC0FBCFFF729FADFF8881884B027
:100F40006846402203F002FC0FBCFFF799FAF5E275
:100F5000DFF8340890F8310000280CD1FFF705FACB
:100F6000DFF8681884B06846402203F0EFFB0FBC3E
:100F7000FFF786FA13E0DFF8100890F8360009282A
:100F800003D1DFF8080800210170DFF8441884B0AD
:100F90006846402203F0DAFB0FBCFFF771FADFF876
:100FA000341884B06846402203F0D0FB0FBCFFF732
:100FB00067FADFF8241884B06846402203F0C6FBC5
:100FC0000FBCFFF75DFADFF8141884B068464022C2
:100FD00003F0BCFB0FBCFFF753FADFF8041884B032
:100FE0006846402203F0B2FB0FBCFFF749FADFF876
:100FF000F41784B06846402203F0A8FB0FBCFFF74B
:101000003FFADFF88C074068DFF88817086095E240
:10101000EDB2002D12D0022D76D04DD3042D00F06C
:101020004481C0F01481062D00F0D880C0F0AD805E
:10103000082D00F06281C0F0E18086E1DFF84C0706
:101040000078002806D0DFF8440702210170012053
:10105000FFF70EF900210020FFF7E7F8DFF8881707
:1010600084B06846402203F071FB0FBCFFF78EF995
:10107000DFF818070078002803D100210720FFF7C8
:10108000D4F8DFF80807007800280AD0DFF85817EE
:1010900084B06846402203F059FB0FBCFFF7F0F91B
:1010A00009E0DFF8441784B06846402203F04EFBA5
:1010B0000FBCFFF7FEFB48E1DFF8301784B068464D
:1010C000402203F043FB0FBCFFF7F3FBDFF8B80649
:1010D000407F002802D001280BD014E0DFF8101761
:1010E00084B06846402203F031FB0FBCFFF7C8F91B
:1010F00009E0DFF8001784B06846402203F026FBC1
:101100000FBCFFF7BDF920E1DFF8EC1684B06846AC
:10111000402203F01BFB0FBCFFF7CBFBDFF8680698
:10112000C07F002805D0022819D00DD3032821D074
:101130002AE0DFF8C81684B06846402203F006FBB8
:101140000FBCFFF79DF91FE0DFF8B41684B06846C6
:10115000402203F0FBFA0FBCFFF792F914E0DFF82E
:10116000A41684B06846402203F0F0FA0FBCFFF7E3
:1011700087F909E0DFF8901684B06846402203F052
:10118000E5FA0FBCFFF77CF9DFE0DFF8801684B0EA
:101190006846402203F0DAFA0FBCFFF78AFBDFF85B
:1011A000E80590F82300002802D001280BD014E0B5
:1011B000DFF85C1684B06846402203F0C7FA0FBC23
:1011C000FFF75EF909E0DFF84C1684B0684640226C
:1011D00003F0BCFA0FBCFFF753F9B6E0DFF838169E
:1011E00084B06846402203F0B1FA0FBCFFF761FB00
:1011F0004E214FF44D7000F0DBF9A6E0DFF81C162D
:1012000084B06846402203F0A1FA0FBCFFF751FBFF
:10121000DFF8740590F82400002802D001280BD0D4
:1012200014E0DFF8FC1584B06846402203F08EFA23
:101230000FBCFFF725F909E0DFF8E81584B0684630
:10124000402203F083FA0FBCFFF71AF97DE000217A
:101250000020FEF7EAFFDFF834050078002810D000
:10126000DFF82805022101700120FFF701F8DFF8FF
:10127000B81584B06846402203F068FA0FBCFFF747
:1012800085F8DFF808050078002803D10021072041
:10129000FEF7CBFFDFF8901584B06846402203F0DC
:1012A00055FA0FBCFFF7ECF84FE0DFF8801584B07B
:1012B0006846402203F04AFA0FBCFFF7E1F8DFF876
:1012C000C804807F002802D001280BD014E0DFF88A
:1012D000601584B06846402203F038FA0FBCFFF76F
:1012E000CFF809E0DFF84C1584B06846402203F0DF
:1012F0002DFA0FBCFFF7C4F827E0DFF83C1584B0E7
:101300006846402203F022FA0FBCFFF7B9F8DFF875
:10131000780490F83100002802D001280BD014E0A6
:10132000DFF8181584B06846402203F00FFA0FBCAE
:10133000FFF7A6F809E0DFF8081584B068464022F8
:1013400003F004FA0FBCFFF79BF8F7E00120FEF76B
:101350008FFFDFF8341784B06846402203F0F6F9B7
:101360000FBCFFF713F8DFF8DC1484B068464022A6
:1013700003F0ECF90FBCFFF709F8DFF8301484B084
:101380006846402203F0E2F90FBCFEF7FFFFDFF8EA
:10139000FC030078002814D00126042E07DA40222E
:1013A000310089B2082003F08CF9761CF5E7402261
:1013B0000221012003F085F940220C21012003F0D5
:1013C00080F9DFF8801484B06846402203F0BEF94B
:1013D0000FBCFFF755F8B1E0EDB2002D50D1DFF8AA
:1013E000AC03022101700120FEF742FFDFF8581420
:1013F00084B06846402203F0A9F90FBCFEF7C6FF8F
:10140000DFF8441484B06846402203F09FF90FBC13
:10141000FFF736F8DFF8341484B06846402203F052
:1014200095F90FBCFFF7ADF9DFF8240400218171B5
:10143000042002F042FA242002F02EFA0700FFB244
:10144000252002F029FA50EA07200600B6B2DFF89C
:1014500000048079801F142101FB0066B6B2310AB6
:10146000C9B2242002F01FFA3100C9B2252002F0CF
:101470001AFA0121DFF8D00390F85D03FEF7D5FEDC
:101480005CE0C14890F83100002803D10120FEF74C
:10149000EFFE1FE00120FEF7EBFEDFF8B81384B08B
:1014A0006846402203F052F90FBCFEF76FFFC749B0
:1014B00084B06846402203F049F90FBCFEF766FF8E
:1014C000DFF8901384B06846402203F03FF90FBC68
:1014D000FEF7D6FF32E00120FEF7CAFEDFF87813F0
:1014E00084B06846402203F031F90FBCFEF74EFF8E
:1014F000DFF8681384B06846402203F027F90FBC78
:10150000FEF744FFD64984B06846402203F01EF936
:101510000FBCFEF73BFFD04984B06846402203F081
:1015200015F90FBCFEF7ACFFCC4984B068464022E9
:1015300003F00CF90FBCFEF7A3FFFFE72900C9B2C7
:101540002000C0B200F0BCF90DB0F0BDC548C649DE
:1015500009780170C348C54909784170C148C44938
:1015600009788170BF48C34909784171BD48C249B3
:1015700009788171BB48C1490978C171B9488C4962
:101580000978C170B748BE4909780171B548BD49AD
:1015900009780172B348BC4909784172B148BB4926
:1015A00009788172704700007083002099840020C0
:1015B0002DE9F04385B081468846B54C08274D4655
:1015C00046462078002800F0DC802000441C00788B
:1015D0002E2800F0B780302800F0A480312811D0E8
:1015E00032281FD033282DD034283BD0352849D07D
:1015F000362857D0372865D0382873D0392800F0DE
:101600008180AFE003960295FFB20197A14984B0B3
:101610006846142203F09AF80FBCFFF7DFF940196F
:101620000500A6E003960295FFB201979A4984B09F
:101630006846142203F08AF80FBCFFF7CFF940196F
:10164000050096E003960295FFB20197934984B096
:101650006846142203F07AF80FBCFFF7BFF940196F
:10166000050086E003960295FFB201978C4984B08D
:101670006846142203F06AF80FBCFFF7AFF940196F
:10168000050076E003960295FFB20197854984B084
:101690006846142203F05AF80FBCFFF79FF940196F
:1016A000050066E003960295FFB201977E4984B07B
:1016B0006846142203F04AF80FBCFFF78FF940196F
:1016C000050056E003960295FFB20197774984B072
:1016D0006846142203F03AF80FBCFFF77FF940196F
:1016E000050046E003960295FFB20197704984B069
:1016F0006846142203F02AF80FBCFFF76FF940196F
:10170000050036E003960295FFB20197694984B05F
:101710006846142203F01AF80FBCFFF75FF940196E
:10172000050026E003960295FFB20197624984B056
:101730006846142203F00AF80FBCFFF74FF940196E
:10174000050016E003960295FFB201975B4984B04D
:101750006846142202F0FAFF0FBCFFF73FF9401968
:10176000050006E0FFB20A2F03D2FFB2042F00D318
:101770007F1CFFB20A2F04D2FFB2042F01D37F1EB9
:101780001FE705B0BDE8F083986D00209884002025
:101790006C6D002018840020C01000204031002013
:1017A0004032002080320020D883002040520020A8
:1017B000746D0020C03200208031002000330020F2
:1017C0000032002000310020805000208054002092
:1017D000C0540020C02200200027002080400020AC
:1017E0000043002000540020C02D0020002E0020C7
:1017F000804B0020C04B0020402E0020402C0020B9
:10180000802C0020C02C0020002D00204030002023
:1018100080490020C0490020003000208030002096
:1018200080470020C0470020804400204036002030
:1018300080370020C03700200034002040350020D1
:1018400080350020C0310020C01E00200022002072
:101850000084002040330020505500209055002087
:10186000D05500205C830020246D00203C6D0020BA
:10187000446D00204C6D00205C6D0020646D0020E4
:101880007C6D0020346D00202C6D0020546D0020F4
:10189000A4FC0000486600205C6600207066002002
:1018A0008466002098660020AC660020C066002098
:1018B000D4660020E8660020FC6600201067002047
:1018C00030B58DB004000D00DFF83C0EDFF8381E97
:1018D00091F8351080F83710DFF82C0E80F835506D
:1018E000E4B22000032813D0042800F090870528D4
:1018F00000F08485062800F05482072800F0E9866D
:10190000082800F024850A2800F0FE8701F01AB8A4
:10191000EDB2102D17D1DFF8F00D002180F8351051
:10192000DFF8300E90F838004021564A01FB0020C5
:1019300010F1400184B06846402202F007FF0FBC5E
:10194000FEF7B7FF93E0DFF8100E0078022816D3F9
:10195000DFF8040E00780A2811D2DFF8FC0D0078B9
:101960004021494A01FB0020B0F1800184B0684663
:10197000402202F0EBFE0FBCFEF782FD08E0424978
:1019800084B06846402202F0E1FE0FBCFEF778FD0D
:10199000DFF8C40D0079022816D3DFF8BC0D0079FA
:1019A0000A2811D2DFF8B00D00794021374A01FB37
:1019B0000020B0F1800184B06846402202F0C6FEEB
:1019C0000FBCFEF75DFD08E0304984B06846402258
:1019D00002F0BCFE0FBCFEF753FDDFF87C0DC079B2
:1019E000022816D3DFF8700DC0790A2811D2DFF86B
:1019F000680DC0794021614A01FB0020B0F18001EF
:101A000084B06846402202F0A1FE0FBCFEF738FD0C
:101A100008E05A4984B06846402202F097FE0FBCA5
:101A2000FEF72EFDDFF8300DC078022816D3DFF860
:101A3000280DC0780A2811D2DFF81C0DC07840218B
:101A40004F4A01FB0020B0F1800184B0684640227B
:101A500002F07CFE0FBCFEF713FD08E0484984B09D
:101A60006846402202F072FE0FBCFEF709FDEDB29F
:101A7000002D0DD0022D00F0DE8058D3032D00F094
:101A800049818CE10000002080380020803E002049
:101A9000DFF8101E84B06846402202F057FE0FBCEB
:101AA000FEF7DDFCDFF8001E84B06846402202F03D
:101AB0004DFE0FBCFEF7D3FCDFF8980C90F8380011
:101AC0004021DFF8342E01FB002010F1400184B0EA
:101AD0006846402202F03AFE0FBCFEF7D1FCDFF868
:101AE0001C0E4068DFF8181E0860DFF8180E03218E
:101AF0000170DFF8100E0078DFF84C1E405CDFF854
:101B00004C1E0870DFF8FC0D0078DFF83C1E405CCE
:101B10004021DFF8EC2D126801FB002184B06846FB
:101B2000402202F013FE0FBCFEF7AAFC37E1DFF8FB
:101B3000C81D84B06846402202F008FE0FBCFEF7C4
:101B40009FFCDFF8140C007903281BD3DFF8080C86
:101B500000790A2816D2DFF8000C00794021DFF85E
:101B6000442D01FB0020B0F1C00184B06846402242
:101B700002F0ECFD0FBCFEF783FC0DE0803C002082
:101B8000803A0020DFF81C1D84B06846402202F035
:101B9000DDFD0FBCFEF763FCDFF8BC0BC07903284A
:101BA00017D3DFF8B40BC0790A2812D2DFF8A80BDC
:101BB000C0794021DFF8F02C01FB0020B0F1C0011A
:101BC00084B06846402202F0C1FD0FBCFEF758FC0D
:101BD00009E0DFF8D41C84B06846402202F0B6FD6C
:101BE0000FBCFEF73CFCDFF8140D4068DFF8101D59
:101BF0000860DFF8100D03210170DFF8080D007890
:101C0000DFF8441D405CDFF8441D0870DFF8F40C79
:101C10000078DFF8341D405C4021DFF8E42C1268C6
:101C200001FB002184B06846402202F08FFD0FBC0A
:101C3000FEF726FCB3E0DFF86C1C84B06846402257
:101C400002F084FD0FBCFEF70AFCDFF85C1C84B0D8
:101C50006846402202F07AFD0FBCFEF700FCDFF878
:101C6000981C84B06846402202F070FD0FBCFEF75D
:101C700007FCDFF8DC1C84B06846402202F066FDF9
:101C80000FBCFEF7FDFBDFF8F00D4068DFF8701CBD
:101C90000860DFF8700C04210170DFF86C0AC07D69
:101CA000DFF8601C0978DFF8A02C8854DFF89C1C52
:101CB0000870DFF8500C0078DFF88C1C405C402185
:101CC000DFF83C2C126801FB002184B068464022FA
:101CD00002F03CFD0FBCFEF7D3FBDFF8280C0078C8
:101CE000DFF8641C405C4021DFF8142C126801FB13
:101CF000002090F82D004021DFF8042C126801FB31
:101D0000002184B06846402202F020FD0FBCFEF79F
:101D1000B7FB44E0DFF88C1B84B06846402202F039
:101D200015FD0FBCFEF79BFBDFF87C1B84B06846FB
:101D3000402202F00BFD0FBCFEF791FBDFF8B81B51
:101D400084B06846402202F001FD0FBCFEF798FB0C
:101D5000DFF8A80B4068DFF8A81B0860DFF8A40BC9
:101D600003210170DFF89C0B0078DFF8DC1B405C7E
:101D7000DFF8D81B0870DFF88C0B0078DFF8C81B81
:101D8000405C4021DFF8782B126801FB002184B011
:101D90006846402202F0DAFC0FBCFEF771FB00F04F
:101DA000D1BDEDB2002D13D0022D00F07481C0F032
:101DB0001B81042D00F01D82C0F0C481062D00F0AF
:101DC000B580C0F0BA80082D00F06A8257D3BDE21A
:101DD000DFF8800B4068DFF8281B0860DFF8240B71
:101DE00000210170DFF81C0B0078DFF85C1B405C01
:101DF000DFF8581B087001F0D7FBDFF8081B0978E3
:101E0000DFF8442B895C4022DFF8F43A1B6802FBC0
:101E1000013191F82C1088421CD1DFF8E80A0078D3
:101E2000DFF8241B405C4021DFF8D42A126801FB54
:101E3000002090F82D004021DFF8C42A126801FB31
:101E4000002184B06846402202F080FC0FBCFEF7FF
:101E500017FB13E0DFF8AC0A0078DFF8EC1A405CFF
:101E60004021DFF89C2A126801FB002184B06846FB
:101E7000402202F06BFC0FBCFEF702FB66E2DFF8CB
:101E8000FC0B4068DFF8781A0860DFF8780A09214F
:101E90000170DFF8700A0078DFF8AC1A405CDFF8F8
:101EA000AC1A087001F080FBDFF8581A0978DFF8E7
:101EB000982A895C4022DFF8483A1B6802FB01310E
:101EC00091F82C1088421CD1DFF8380A0078DFF82E
:101ED000781A405C4021DFF8282A126801FB0020B4
:101EE00090F82D004021DFF8182A126801FB00212C
:101EF00084B06846402202F029FC0FBCFEF7C0FA0D
:101F000013E0DFF8000A0078DFF83C1A405C40215B
:101F1000DFF8EC29126801FB002184B068464022FA
:101F200002F014FC0FBCFEF7ABFA0FE2DFF8500B27
:101F30004068DFF8CC19086008E2DFF8440B40681D
:101F4000DFF8BC190860DFF8BC0908210170DFF870
:101F5000B4090078DFF8F019405CDFF8F019087078
:101F600001F022FBDFF89C190978DFF8DC29895C95
:101F70004022DFF88C391B6802FB013191F82C10EC
:101F800088421CD1DFF87C090078DFF8BC19405C7E
:101F90004021DFF86C29126801FB002090F82D0029
:101FA0004021DFF85C29126801FB002184B06846FB
:101FB000402202F0CBFB0FBCFEF762FA13E0DFF821
:101FC00044090078DFF88019405C4021DFF83029AF
:101FD000126801FB002184B06846402202F0B6FB83
:101FE0000FBCFEF74DFAB1E1DFF8980B4068DFF85F
:101FF00010190860DFF80C0901210170DFF80409ED
:102000000078DFF84419405CDFF84019087001F0EF
:10201000CBFADFF8F0180978DFF82C29895C402228
:10202000DFF8DC381B6802FB013191F82C10884284
:102030001CD1DFF8D0080078DFF80C19405C402193
:10204000DFF8BC28126801FB002090F82D00402129
:10205000DFF8AC28126801FB002184B068464022FA
:1020600002F074FB0FBCFEF70BFA13E0DFF89408E4
:102070000078DFF8D418405C4021DFF8842812682B
:1020800001FB002184B06846402202F05FFB0FBCD8
:10209000FEF7F6F95AE1DFF8F00A4068DFF8601859
:1020A0000860DFF8600802210170DFF85808007846
:1020B000DFF89418405CDFF89418087001F074FAA7
:1020C000DFF840180978DFF88028895C4022DFF8C3
:1020D00030381B6802FB013191F82C1088421CD16A
:1020E000DFF820080078DFF86018405C4021DFF856
:1020F0001028126801FB002090F82D004021DFF825
:102100000028126801FB002184B06846402202F0DA
:102110001DFB0FBCFEF7B4F913E0DFF8E807007809
:10212000DFF82418405C4021DFF8D427126801FB57
:10213000002184B06846402202F008FB0FBCFEF785
:102140009FF903E1DFF8440A4068DFF8B41708603C
:10215000DFF8B00705210170DFF8A8070078DFF885
:10216000E817405CDFF8E417087001F01DFADFF8AB
:1021700094170978DFF8D027895C4022DFF8803790
:102180001B6802FB013191F82C1088421CD1DFF84A
:1021900074070078DFF8B017405C4021DFF8602753
:1021A000126801FB002090F82D004021DFF8502735
:1021B000126801FB002184B06846402202F0C6FA92
:1021C0000FBCFEF75DF913E0DFF838070078DFF8A1
:1021D0007817405C4021DFF82827126801FB0021B6
:1021E00084B06846402202F0B1FA0FBCFEF748F90D
:1021F000ACE0DFF89C094068DFF804170860DFF8FE
:10220000040706210170DFF8FC060078DFF83817B4
:10221000405CDFF83817087001F0C6F9DFF8E41603
:102220000978DFF82427895C4022DFF8D4361B6860
:1022300002FB013191F82C1088421CD1DFF8C40652
:102240000078DFF80417405C4021DFF8B4261268FC
:1022500001FB002090F82D004021DFF8A426126831
:1022600001FB002184B06846402202F06FFA0FBCE7
:10227000FEF706F913E0DFF88C060078DFF8C816E1
:10228000405C4021DFF87826126801FB002184B011
:102290006846402202F05AFA0FBCFEF7F1F855E00A
:1022A000DFF8F0084068DFF858160860DFF85406D9
:1022B0000A210170DFF84C060078DFF88C16405CCC
:1022C000DFF88816087001F06FF9DFF83816097822
:1022D000DFF87426895C4022DFF824361B6802FB95
:1022E000013191F82C1088421CD1DFF818060078D3
:1022F000DFF85416405C4021DFF80426126801FB29
:10230000002090F82D004021DFF8F425126801FB31
:10231000002184B06846402202F018FA0FBCFEF794
:10232000AFF813E0DFF8DC050078DFF81C16405C3E
:102330004021DFF8CC25126801FB002184B06846FB
:10234000402202F003FA0FBCFEF79AF8FAE2DFF837
:1023500048084068DFF8A8150860DFF8A8050721DD
:102360000170DFF8A0050078DFF8DC15405CDFF8CD
:10237000DC15087001F018F9DFF888150978DFF826
:10238000C825895C4022DFF878351B6802FB0131E3
:1023900091F82C1088421CD1DFF868050078DFF82E
:1023A000A815405C4021DFF85825126801FB002089
:1023B00090F82D004021DFF84825126801FB00212C
:1023C00084B06846402202F0C1F90FBCFEF758F80D
:1023D00013E0DFF830050078DFF86C15405C402131
:1023E000DFF81C25126801FB002184B068464022FA
:1023F00002F0ACF90FBCFEF743F8A3E2D54890F821
:102400002D00E12814D3D34890F82D00E3380221A1
:1024100090FBF1F04021DFF8842701FB002184B01C
:102420006846402202F092F90FBCFEF729F81EE040
:10243000C84890F82D00E0280AD1DFF8641784B06E
:102440006846402202F082F90FBCFEF719F80EE050
:10245000C04890F82D00FE2809D1DFF8481784B055
:102460006846402202F072F90FBCFEF709F8B9483D
:1024700090F82E00E12814D3B64890F82E00E338E7
:10248000022190FBF1F04021DFF81C2701FB002125
:1024900084B06846402202F059F90FBCFDF7F0FF06
:1024A0001EE0AC4890F82E00E0280AD1DFF8FC16B8
:1024B00084B06846402202F049F90FBCFDF7E0FF06
:1024C0000EE0A44890F82E00FE2809D1DFF8E016AF
:1024D00084B06846402202F039F90FBCFDF7D0FF06
:1024E0009C4890F8230000060AD5DFF8C81684B08F
:1024F0006846402202F02AF90FBCFDF7C1FF5CE0FC
:10250000944890F82400112816D033284BD0552831
:102510003ED0662831D0882824D0992817D0CC28DE
:102520004BD1DFF8941684B06846402202F00EF9D1
:102530000FBCFDF7A5FF40E0DFF8801684B06846C9
:10254000402202F003F90FBCFDF79AFF35E0DFF8F7
:10255000701684B06846402202F0F8F80FBCFDF710
:102560008FFF2AE0DFF85C1684B06846402202F054
:10257000EDF80FBCFDF784FF1FE0DFF8241C84B0EA
:102580006846402202F0E2F80FBCFDF779FF14E044
:10259000DFF8101C84B06846402202F0D7F80FBC68
:1025A000FDF76EFF09E0DFF8001C84B068464022AA
:1025B00002F0CCF80FBCFDF763FF664890F82300EB
:1025C00040060AD5DFF8E41B84B06846402202F0DA
:1025D000BDF80FBCFDF754FF60E05E4890F82200A4
:1025E00000280ED011280DD0222816D033281FD055
:1025F000442828D0552831D066283AD0772843D0AF
:102600004CE04BE0DFF8A81B84B06846402202F0A3
:102610009DF80FBCFDF734FF40E0DFF8981B84B055
:102620006846402202F092F80FBCFDF729FF35E022
:10263000DFF8841B84B06846402202F087F80FBCA4
:10264000FDF71EFF2AE0DFF8741B84B068464022C5
:1026500002F07CF80FBCFDF713FF1FE0DFF8601BF2
:1026600084B06846402202F071F80FBCFDF708FF05
:1026700014E0DFF8501B84B06846402202F066F890
:102680000FBCFDF7FDFE09E0DFF83C1B84B0684697
:10269000402202F05BF80FBCFDF7F2FE2D4890F8E7
:1026A0002A0004280AD1DFF82C1C84B06846402296
:1026B00002F04CF80FBCFDF7E3FE09E0DFF8181C50
:1026C00084B06846402202F041F80FBCFDF7D8FE06
:1026D00038E121480078022818D31F4800780A28DA
:1026E00014D21D4800784021DFF8F02B01FB0020B8
:1026F000B0F1800184B06846402202F027F80FBC98
:10270000FDF7BEFE0CE000BF986D0020DFF8CC1B8B
:1027100084B06846402202F019F80FBCFDF7B0FE05
:102720000D480079022819D30B4800790A2815D2E0
:10273000094800794021DFF8A82B01FB0020B0F107
:10274000800184B06846402202F000F80FBCFDF71B
:1027500097FE0DE01C810020D8830020DFF8801B4D
:1027600084B06846402201F0F1FF0FBCFDF788FEFF
:10277000DFF8700BC079022817D3DFF8680BC07937
:102780000A2812D2DFF85C0BC0794021DFF8582B01
:1027900001FB0020B0F1800184B06846402201F0C6
:1027A000D5FF0FBCFDF76CFE09E0DFF83C1B84B0E1
:1027B0006846402201F0CAFF0FBCFDF761FEDFF85A
:1027C000240BC078022817D3DFF8180BC0780A282A
:1027D00012D2DFF8100BC0784021DFF8102B01FB7C
:1027E0000020B0F1800184B06846402201F0AEFFC5
:1027F0000FBCFDF745FE09E0DFF8F01A84B068462B
:10280000402201F0A3FF0FBCFDF73AFE9AE0DFF88B
:10281000E00A90F8350002286CD1DFF8D80A407839
:1028200000280AD0DFF8D01A84B06846402201F0B0
:102830008DFF0FBCFDF724FE09E0DFF8BC1A84B061
:102840006846402201F082FF0FBCFDF708FEDFF86A
:10285000A40A807800280AD0DFF8A01A84B068465D
:10286000402201F073FF0FBCFDF70AFE09E0DFF81C
:102870008C1A84B06846402201F068FF0FBCFDF757
:10288000EEFDDFF8700AC07800280FD0DFF8701A6C
:1028900084B06846402201F059FF0FBCFDF7F0FDFF
:1028A0000EE000BF804C0020804E0020DFF8501A60
:1028B00084B06846402201F049FF0FBCFDF7CFFD10
:1028C000DFF8300A007900280AD0DFF8381A84B01F
:1028D0006846402201F03AFF0FBCFDF7D1FD09E048
:1028E000DFF8201A84B06846402201F02FFF0FBCA9
:1028F000FDF7B5FD26E000BF00000020746D00204C
:10290000188400209C840020DFF8FC1984B06846FD
:10291000402201F01BFF0FBCFDF7B2FDDFF8EC1900
:1029200084B06846402201F011FF0FBCFDF7A8FDFE
:10293000DFF8DC1C84B06846402201F007FF0FBCC2
:10294000FDF79EFD0DB030BD5C8300209A84002011
:1029500080520020246D002070B58CB004000D0062
:102960001600F6B2012E36D1DFF82C0C0078DFF815
:102970002C1CDFF82C2C12784254DFF8240C007841
:102980004021DFF8202C126801FB002184B068464A
:10299000402201F0DBFE0FBCFDF772FDDFF8F80B03
:1029A0000078DFF8F81B405C4021DFF8F82B126854
:1029B00001FB002090F82D004021DFF8E82B126881
:1029C00001FB002184B06846402201F0BFFE0FBC2D
:1029D000FDF756FD4DE0F6B2002E48D1DFF8B80BFA
:1029E0000078DFF8B81BDFF8B82B12784254DFF814
:1029F000A80B0078DFF8A41B405C4021DFF8A42B73
:102A0000126801FB002090F82D004021DFF8942B84
:102A1000126801FB002184B06846402201F096FE56
:102A20000FBCFDF72DFDDFF8C808DFF8741B09782F
:102A3000C175DFF8E00B4078022809D1DFF8B00853
:102A4000C07DC000D0F1F500C0B200F0FFFE08E08C
:102A5000DFF89C08C07D0001D0F1D500C0B200F0C5
:102A6000F5FEDFF88C08C07D002802D101E0F6B247
:102A7000032E0CB070BD00007C6D00202C6D00207A
:102A8000346D002070B58CB004000D001600F6B255
:102A9000012E1AD1DFF8000B0078DFF8001BDFF8F9
:102AA000002B12784254DFF8F80A00784021DFF852
:102AB000F42A126801FB002184B06846402201F02C
:102AC00045FE0FBCFDF7DCFC5AE0F6B2002E55D1F6
:102AD000DFF8C40A0078DFF8C41ADFF8C42A1278D5
:102AE0004254DFF8BC0A00784021DFF8B82A1268A7
:102AF00001FB002090F82C00DFF81C1B0870DFF8A9
:102B0000180B0078002805D002281DD007D3032811
:102B10002FD035E0DFF8D8070121017430E0DFF86D
:102B2000D00790F83400032805D1DFF8C40790F8E7
:102B30003500002803D000210320FEF7C1FEDFF896
:102B4000B007002141741BE0DFF8A40790F83400BF
:102B5000032805D1DFF8980790F83500012803D045
:102B600001210320FEF7ACFEDFF884070121417448
:102B700006E002210320FEF7A3FE01E0F6B2032ED9
:102B80000CB070BD3C6D0020446D00204C6D0020E9
:102B90005C6D0020546D0020646D0020C022002078
:102BA000402600200026002080260020002A002049
:102BB000C029002080400020C0400020404100206B
:102BC00000420020404200202DE9F0418CB004007A
:102BD0000D001600F6B2012E49D1DFF8BC090078CD
:102BE000DFF8B819DFF8B8291278425400F0DCFC9D
:102BF000DFF8A4190978DFF8A429895C4022DFF8FE
:102C0000A4391B6802FB013191F82C1088421CD1B9
:102C1000DFF884090078DFF88419405C4021DFF890
:102C20008429126801FB002090F82D004021DFF874
:102C30007429126801FB002184B06846402201F02B
:102C400085FD0FBCFDF71CFCA6E2DFF854090078F7
:102C50004021DFF85029126801FB002184B068464A
:102C6000402201F073FD0FBCFDF70AFC94E2F6B2BE
:102C7000002E40F08F82DFF820090078DFF81C1961
:102C8000DFF81C2912784254DFF81409007840213B
:102C9000DFF81029126801FB002090F82C00DFF803
:102CA00078190870DFF8480690F83400062803D039
:102CB000082800F007826FE2DFF8340690F835004C
:102CC000002813D0012800F0C180022800F0018103
:102CD000032800F05A81042800F07081052870D084
:102CE000072829D0082800F0AA81EAE1DFF8B00817
:102CF0000078032807D01ED305280ED008D3072854
:102D000015D00FD317E002210620FDF719FF12E0BE
:102D100001210620FDF714FF0DE005210620FDF737
:102D20000FFF08E007210620FDF70AFF03E0062158
:102D30000620FDF705FFC4E1DFF8640800780028ED
:102D400001283DD8DFF8A805DFF85418097880F885
:102D50002410DFF84C0800784021DFF8482812687A
:102D600001FB002090F82D004021DFF83828126880
:102D700001FB002184B06846402201F0E7FC0FBC53
:102D8000FDF77EFBDFF8680590F82400002802D0EC
:102D900001280BD014E0DFF8401A84B068464022C6
:102DA00001F0D4FC0FBCFDF76BFB09E0DFF82C1A37
:102DB00084B06846402201F0C9FC0FBCFDF760FBFF
:102DC0007FE1DFF8DC070078002801283DD8DFF834
:102DD0002005DFF8CC17097880F82310DFF8C0074A
:102DE00000784021DFF8BC27126801FB002090F832
:102DF0002D004021DFF8AC27126801FB002184B0D0
:102E00006846402201F0A2FC0FBCFDF739FBDFF859
:102E1000E00490F82300002802D001280BD014E031
:102E2000DFF8BC1984B06846402201F08FFC0FBC6B
:102E3000FDF726FB09E0DFF8AC1984B068464022B4
:102E400001F084FC0FBCFDF71BFB3AE1DFF85007F3
:102E50000078002801283BD8DFF89404DFF84017F9
:102E600009784177DFF8380700784021DFF8342708
:102E7000126801FB002090F82D004021DFF8242784
:102E8000126801FB002184B06846402201F05EFC1C
:102E90000FBCFDF7F5FADFF85804407F002802D098
:102EA00001280BD014E0DFF8401984B068464022B6
:102EB00001F04CFC0FBCFDF7E3FA09E0DFF82C1938
:102EC00084B06846402201F041FC0FBCFDF7D8FAFF
:102ED000F7E0DFF8CC0600780028032854D8DFF8A4
:102EE0001004DFF8BC160978C177DFF8B406007863
:102EF0004021DFF8B026126801FB002090F82D0079
:102F00004021DFF8A026126801FB002184B068464A
:102F1000402201F01BFC0FBCFDF7B2FADFF8D00332
:102F2000C07F002805D0022819D00DD3032821D056
:102F30002AE0DFF8BC1884B06846402201F006FCA5
:102F40000FBCFDF79DFA1FE0DFF8A81884B06846B3
:102F5000402201F0FBFB0FBCFDF792FA14E0DFF812
:102F6000981884B06846402201F0F0FB0FBCFDF7D2
:102F700087FA09E0DFF8841884B06846402201F03F
:102F8000E5FB0FBCFDF77CFA9BE0DFF81406007848
:102F9000032804D011D305280BD005D30DE004215C
:102FA0000620FDF7CDFD08E000210820FDF7C8FD53
:102FB00003E008210620FDF7C3FD82E0DFF8E0050D
:102FC0000078401E012839D8C948DFF84C16097826
:102FD0008177DFF8CC0500784021DFF8C82512683A
:102FE00001FB002090F82D004021DFF8B825126881
:102FF00001FB002184B06846402201F0A7FB0FBC12
:10300000FDF73EFABA48807F002802D001280BD095
:1030100014E0DFF8EC1784B06846402201F096FB1C
:103020000FBCFDF72DFA09E0DFF8D81784B0684629
:10303000402201F08BFB0FBCFDF722FA41E0DFF8E4
:1030400060050078401E01283BD8A948DFF8C81564
:10305000097880F83110DFF8480500784021DFF862
:103060004425126801FB002090F82D004021DFF874
:103070003425126801FB002184B06846402201F02B
:1030800065FB0FBCFDF7FCF9994890F8310000286A
:1030900002D001280BD014E0DFF86C1784B068462A
:1030A000402201F053FB0FBCFDF7EAF909E0DFF81D
:1030B0005C1784B06846402201F048FB0FBCFDF766
:1030C000DFF969E0DFF8D8040078401E092804D948
:1030D0000A3818D0401E23D045E0DFF83407807945
:1030E00006280FD2DFF828078079DFF82417DFF8E9
:1030F000B02412784254DFF818078079401CDFF8BA
:10310000101788712FE0DFF808078079002806D0B3
:10311000DFF8FC068079401EDFF8F416887122E0A3
:10312000DFF8EC06002181715FF001080020070044
:10313000FFB2062F0ED2FFB2DFF8D406385C0828A3
:1031400001D000208046FFB2DFF8C40600213954C8
:103150007F1CEDE75FFA88F8B8F1000F03D000217B
:103160000620FDF7EDFC0027042000F0A6FBBFB20F
:10317000DFF89C068079142101FB0077BFB2390A81
:10318000C9B2242000F08FFB3900C9B2252000F01D
:103190008AFB01E0F6B2032E0CB0BDE8F08100001E
:1031A000C041002000410020804100204044002018
:1031B00080420020C0420020004300204043002005
:1031C00080430020C04300200044002070B504006C
:1031D0000D001600F6B2012E05D1DFF838064FF4C7
:1031E000FA61018075E0F6B2002E5AD1DFF82406AC
:1031F000002101803E4890F83400022850D0032876
:103200003ED0062802D0082845D062E0384890F821
:10321000350000282FD0022809D008D304282AD04E
:1032200013D3062803D002D3082824D027D230484D
:1032300090F83500062803D108210420FDF749F84D
:1032400000210620FDF77CFC19E008210320FDF792
:1032500040F800210020FDF73CF82548022180F8C5
:1032600034102348002180F83510DFF8AC054068A1
:10327000CC49086003E003210620FDF761FC28E04B
:103280001B4890F83500022804D11948417C0320DE
:10329000FEF716FB1DE003210620FDF751FC18E0A8
:1032A00017E0F6B2022E12D1DFF868050088012877
:1032B0000FD1DFF86005002101800D4890F834003F
:1032C000022806D103210620FDF73AFC01E0F6B200
:1032D000032E70BD40540020005400208038002090
:1032E000803E0020D8830020803C0020803A0020CF
:1032F000986D00209883002040510020005100204C
:10330000C050002080500020D055002010560020D2
:1033100030B58DB0A3480068DFF8FC1449688842D6
:1033200013D1DFF8F8040078401E042827D8DFF80E
:10333000EC0400210170DFF8E80400210170DFF8DF
:10334000E40400210170002023E196480068DFF8C2
:10335000D8144968884212D1DFF8C00400780328E5
:1033600004D1DFF8B8040121017008E0DFF8AC04F3
:103370000078042803D1DFF8A40402210170DFF8EB
:103380009C040078012856D0022815D0032800F0AC
:103390009180042800F09480052800F0AC80062875
:1033A00000F0B780072800F0C780082800F0D78019
:1033B000FE2800F0D880DFE0794800784021794A83
:1033C000126801FB002090F826007549087000F093
:1033D000EBF8734909784022724B1B6802FB0131FC
:1033E00091F82C10884216D16D48007840216D4A22
:1033F000126801FB002090F82D004021694A1268F4
:1034000001FB002184B06846402201F09FF90FBC07
:10341000FDF736F80EE0624800784021614A1268F4
:1034200001FB002184B06846402201F08FF90FBCF7
:10343000FDF726F8A0E05A4800784021594A126862
:1034400001FB002090F824005549087000F0ACF80A
:10345000534909784022534B1B6802FB013191F814
:103460002C10884216D14E48007840214D4A1268EF
:1034700001FB002090F82D0040214A4A126801FB10
:10348000002184B06846402201F060F90FBCFCF7CF
:10349000F7FF0EE0424800784021424A126801FBE3
:1034A000002184B06846402201F050F90FBCFCF7BF
:1034B000E7FF61E0002200210020FFF787FE5BE0CC
:1034C000374800784021374A126801FB002090F805
:1034D000270033490870324800784021314A126889
:1034E00001FB002184B06846402201F02FF90FBC97
:1034F000FCF7C6FF40E00022294801780020284B55
:103500001B784024274D2D6804FB03535B689847C4
:1035100032E0DFF81803807812280CD0DFF80C03B3
:1035200080780B2804D1DFF804031221417002E0F7
:10353000122001F0CAFA1FE0DFF8F00280780328B9
:103540000CD0DFF8E80280780B2804D1DFF8DC0229
:103550000321417002E0032001F0B7FA0CE00B20D8
:1035600001F0B3FA08E0DFF8BC020178DFF8B0023E
:103570000078FDF7E5FAFFE7DFF8A002002101700F
:10358000DFF89C0200210170DFF898020021017031
:1035900000200DB030BD00009C8400205C83002022
:1035A0009A84002018840020DFF8800290F834000C
:1035B00006282BD1DFF8740290F83500012814D0CA
:1035C000022816D0042818D0052809D0072802D0D0
:1035D000082816D01AE0DFF8540290F8240016E00C
:1035E000DFF8480290F8230011E0DFF84002407F46
:1035F0000DE0DFF83802C07F09E0DFF83002807F9D
:1036000005E0DFF8280290F8310000E0FE20704766
:1036100050560020F08300209B840020F8B5040061
:103620000D001600DFF804028078122861D1DFF85F
:10363000FC0190F8340006285BD0DFF8F00190F828
:103640003400082855D0DFF8E80100780B2807D0AF
:103650004CD30D2820D011D30F2839D02AD345E0E0
:1036600073480021017073480021017072480021E5
:1036700001700021714802F003F83AE06C48002123
:1036800001706C48002101706B480021017001211C
:103690006A4801F0F5FF2CE065480021017065489B
:1036A000002101706448002101700221634801F08B
:1036B000E7FF1EE05E48002101705E4800210170B6
:1036C0005D480021017003215C4801F0D9FF10E042
:1036D00057480021017057480021017056480021C9
:1036E00001700421554801F0CBFF02E05048002151
:1036F000017000200700FFB240205149096800FB1B
:103700000710006B4FF6FF71884229D0FFB24020AE
:103710004B49096800FB0710006BA4B2A0421DD200
:10372000A4B2FFB240204649096800FB0710806B35
:10373000844213D2FFB240204149096800FB0710C0
:10374000406BADB2A84209D2ADB2FFB240203C49B5
:10375000096800FB0710C06B854201D37F1CCAE7D4
:10376000FFB240203649096800FB0710006B4FF696
:10377000FF71884201D100202DE0FFB24020304986
:10378000096800FB0710806A2E490870FFB24020CC
:103790002B49096800FB071090F82C002A49087093
:1037A000F6B2012E07D0F6B2002E04D0F6B2022EE9
:1037B00001D0F6B2032E3200D2B23900C9B20020D5
:1037C000FFB24023DFF878C0DCF800C003FB07C37A
:1037D0005B6898470120F2BD80470020C047002069
:1037E00080490020C0490020804B0020C04B0020B1
:1037F000402C0020802C0020C02C0020002D002018
:1038000080370020C0370020403500208035002060
:10381000008400204A8400206C6D002097840020E2
:103820009584002096840020746D0020986D0020FF
:10383000938400208E8400208F8400200068004044
:10384000188400209A8400209B84002010B5040076
:10385000012000F032F82100C9B2112000F023F855
:1038600010BD50F8041B61B150F8042BD30744BFBE
:10387000A9F101039A18002342F8043B091FFAD169
:10388000EFE7704780B5002000F017F800F06DFA00
:10389000C82000F087FF01BD10B504002000C0B2B1
:1038A00000F0E0FB10BD38B504000D002900C9B2DE
:1038B0002000C0B200F0C9FB31BD10B504002100EA
:1038C000C9B2FF2000F0C1FB10BD70B50400002597
:1038D00000260020FFF7F1FF00200500EDB2E4B262
:1038E000A54212D2FF210220FFF7DDFF00200600D3
:1038F0000220FFF7D1FF400605D4761C4FF6FF707B
:10390000B6B28642F4D36D1CE8E770BDF8B504008A
:103910000D0016000027280110F0300050EA841036
:1039200016F00F01084307003900C9B2C320FFF7A2
:10393000BAFFF1BD01000020C9B20A00012A13D06C
:10394000022A0ED0032A0FD00B2A0DD0202A0ED027
:10395000522A0CD0602A0AD0D82A08D0EB2A03D0E9
:1039600008E00222100005E00422100002E0062216
:103970001000FFE7C0B2704770B5040000260025B4
:103980000420FFF79AFFA07A421CD2B20021012046
:10399000FFF7BCFF0421C620FFF785FFD021C72019
:1039A000FFF781FF0021DA20FFF77DFF0021C8200B
:1039B000FFF779FF617AC920FFF775FF2178CA20E8
:1039C000FFF771FF00200600A07AF6B2864209D206
:1039D000F6B230194178B6F13500C0B2FFF763FF97
:1039E000761CF1E72078FFF7A5FF2843050055F086
:1039F0000101C9B2C420FFF756FFC420FFF74CFFF6
:103A0000C007FAD400200600607AF6B2864209D2D6
:103A1000B6F13000C0B2FFF73FFFF6B23119C872FD
:103A2000761CF1E7002070BD2DE9F84F04000D0071
:103A3000160000275FF000085FF000095FF0000B40
:103A4000A2460420FFF739FFC120FFF725FF834678
:103A50001BF0FE01C120FFF726FF052200210120F7
:103A6000FFF754FF0421C620FFF71DFFD021C72018
:103A7000FFF719FF0B21CA20FFF715FF00200700F1
:103A8000BFB2B6B2B7425FD2BFB27819010CC9B2A9
:103A9000CB20FFF708FFBFB27819010AC9B2CC20CA
:103AA000FFF701FF7919C9B2CD20FFF7FCFEB6B2CE
:103AB000BFB217F10800864202DB0820814601E010
:103AC000F01B81460021DA20FFF7EDFE0021C8201F
:103AD000FFF7E9FE4946C9B2C920FFF7E4FEC0205E
:103AE000FFF7DAFE10F0F80050F00101C9B2C02073
:103AF000FFF7D9FE0521C420FFF7D5FEC420FFF74C
:103B0000CBFEC007FAD4C020FFF7C6FE10F0F800C5
:103B100050F00301C9B2C020FFF7C5FE0020804667
:103B20001FFA88F81FFA89F9C8450BD24046303889
:103B3000C0B2FFF7B1FE8AF800001AF1010A18F1CD
:103B40000108EDE708379BE75946C9B2C120FFF7E6
:103B5000AAFEBDE8F18F2DE9F04186B000240025D2
:103B60009F208DF8000003208DF8090000208DF8BB
:103B70000A0000A8FFF700FF0400E4B2002C02D006
:103B80008148012101709DF80B0006009DF80C0092
:103B900007009DF80D0080467C4806707C48077041
:103BA0007C4880F80080F6B230001C2802D0C22881
:103BB0000FD012E0784801210170FFB2702F07D1B9
:103BC0005FFA88F8B8F1190F02D173480221017029
:103BD00003E0714803210170FFE7F6B21C2E02D00A
:103BE000F6B2C22E0FD105208DF8000001208DF80D
:103BF000090000208DF80A0000A8FFF7BDFE0400B0
:103C00009DF80B000500EDB2002D2CD1F6B21C2E54
:103C100002D0F6B2C22E26D106208DF80000002078
:103C20008DF8090000208DF80A0000A8FFF7A4FE17
:103C300001208DF8000000208DF8090001208DF88A
:103C40000A0040208DF8010000A8FFF795FE04202F
:103C50008DF8000000208DF8090000208DF80A0082
:103C600000A8FFF789FE06B0BDE8F08110B504009A
:103C70000420FFF722FEC020FFF70EFE10F0F80030
:103C800054EA0001C9B2C020FFF70DFEE4B2002CD7
:103C900009D0022C15D00DD3042C20D018D3062C1B
:103CA0002BD023D330E03D48032101703C48042150
:103CB00001702FE039480B2101703948052101704E
:103CC00028E036483B21017035480521017021E08C
:103CD00032486B2101703248052101701AE02F48EB
:103CE000BB2101702E480521017013E02B48EB2108
:103CF00001702B48072101700CE02848ED2101706C
:103D000027480C21017005E024480B21017024484C
:103D10000521017010BD30B585B004000025E4B266
:103D2000002C09D01F48007800280ED11D48012121
:103D30000170B720050008E01A480078012804D176
:103D4000184800210170E9200500EDB2002D0AD0CD
:103D50008DF8005000208DF8090000208DF80A0031
:103D600000A8FFF709FE05B030BD80B5FFF7F3FEF0
:103D700009480078022802D10120FFF7CCFF022079
:103D8000FFF774FF01BD00005B8400205884002011
:103D9000598400205A840020548400205684002036
:103DA00057840020558400200EB400B582B003A9CA
:103DB000009100AB02460121034878440A3002F02A
:103DC000DFFE06BC5DF810FB59BE000010B5040014
:103DD000E4B2002C04D00821554803F0DAFF03E0D8
:103DE0000821534803F0D8FF10BD10B50400E4B219
:103DF000002C04D004214E4803F0CBFF03E0042143
:103E00004B4803F0C9FF10BD10B501240120FFF796
:103E1000ECFF0120FFF7DAFF0821454803F0ACFF73
:103E2000002805D00421424803F0A6FF002802D153
:103E30000020040005E00020FFF7D7FF0020FFF777
:103E4000C5FF2000C0B210BD80B50020FFF7BEFF47
:103E50000020FFF7CAFF0120FFF7B8FF0120FFF79E
:103E6000C4FF01BDF8B5040080250026EDB2002D89
:103E700013D02000C0B2284203D00120FFF7B5FFC5
:103E800002E00020FFF7B1FF0120FFF79FFF0020B5
:103E9000FFF79CFFEDB26D08E8E70120FFF7A5FFF3
:103EA0000120FFF793FF00200700FFB2642F07D225
:103EB00004211F4803F060FF002801D07F1CF4E7B5
:103EC00004211B4803F058FF06000020FFF77EFF87
:103ED0003000C0B2F2BD70B504000025802601207C
:103EE000FFF783FFF6B2002E0FD00120FFF76EFF21
:103EF00004210F4803F040FF012800D13543002082
:103F0000FFF764FFF6B27608ECE7E4B2002C03D0CA
:103F10000020FFF76AFF02E00120FFF766FF0120A3
:103F2000FFF754FF0020FFF751FF2800C0B270BD1B
:103F30000010014070B504000D00EDB2012D02D15A
:103F400054F0010401E014F0FE04032006003000E8
:103F5000461EC0B200280BD0FFF756FF0028F6D04F
:103F60002000C0B2FFF77EFF0028F0D1012000E062
:103F7000002070BD2DE9F04104000D0016001F0067
:103F8000032080464046B0F10108C0B2002816D098
:103F900000212000C0B2FFF7CDFF0028F2D028009A
:103FA000C0B2FFF75FFF0128ECD03800471EC0B257
:103FB000002804D03078FFF755FF761CF5E7FFF7AF
:103FC00043FF5FFA88F8B8F1000F01D1002000E04C
:103FD0000120BDE8F0812DE9F04104000D0016003C
:103FE0001F00032080464046B0F10108C0B20028FF
:103FF0001FD000212000C0B2FFF79CFF0028F2D0A4
:104000002800C0B2FFF72EFF0128ECD001212000CC
:10401000C0B2FFF78FFF0028E5D03800471EC0B2BE
:10402000002806D03800C0B2FFF755FF3070761C6C
:10403000F3E7FFF709FF5FFA88F8B8F1000F01D145
:10404000002000E00120BDE8F08138B504000D003B
:104050008DF80050012300AA2100C9B28A20FFF781
:1040600089FF31BD10B582B00400012300AA2100F0
:10407000C9B28A20FFF7AFFF9DF8000016BDFFFF11
:1040800010B504000420FFF718FCE4B2002C09D09E
:104090000020FFF701FC50F00401C9B20020FFF737
:1040A00002FC07E00020FFF7F7FB10F0FB01002007
:1040B000FFF7F9FB10BD70B5002400250026022093
:1040C000FFF7FBFB1020FFF7E7FB05000D20FFF7D4
:1040D000E3FB10F003000600EDB2F6B270191238DF
:1040E00004000420FFF7E9FBA4B2210AC9B20E20A4
:1040F000FFF7D9FB2100C9B20F20FFF7D4FB70BD39
:10410000C0B2DFF80C2652F82020C9B2002904D032
:10411000137853F00103137003E0137813F0FE03D8
:104120001370704710B4C0B2DFF8E42552F82020B5
:104130000023C9B2042902D10024230007E0C9B238
:10414000062902D10124230001E00224230014786F
:1041500014F03F041470147854EA8314147010BCE3
:104160007047C0B2DFF8A82552F8202002F20D02F5
:10417000C0B2002800D1121DC9B20B0913707047DC
:1041800030B4C0B2DFF8883553F82030002403F291
:104190000A03C0B200280BD01D7815F0C0052C0012
:1041A00089B20D0A25431D705B1C19705B1C0CE065
:1041B00092B2150A2C00240189B20D0A2C431C70FE
:1041C0005B1C19705B1C1A705B1C30BC7047C0B262
:1041D000DFF83C2552F8202002F207020B0D137085
:1041E000521C0B0B1370521C0B091370C0B2002829
:1041F00002D102F20E0201E002F2060211F00F03F8
:1042000013707047F0B4049CC0B2DFF8045555F841
:10421000205000266D1C92B2170A3E00360189B26A
:104220000F0A3E432E706D1C29706D1C2A706D1C88
:10423000A4B2270A3E0036019BB21F0A3E432E70ED
:104240006D1C2B706D1C2C706D1CF0BC7047F0B495
:10425000049D059CC0B2DFF8B86416EB001606F2A8
:10426000240651F0800737707280B380B5603473D4
:10427000F0BC704710B4C0B200280FD0C0B2012803
:1042800002D0C0B2022803D1DFF88844230002E044
:10429000DFF884442300187059709A7010BC70477E
:1042A00038B50024002500200400E4B2092C13D204
:1042B000E4B2002C02D0601C050001E000200500E3
:1042C000E4B2DFF84C04EDB2DFF8501411EB051145
:1042D00040F82410641CE8E700F019F800F009F831
:1042E00000F030F80821002000F051F800F052F9F9
:1042F00031BD002000210800C0B2A02806D2C0B203
:10430000DFF8181400224254401CF5E770470020E3
:1043100000221000C0B2092813D2C0B2DFF8F02387
:1043200012EB001202F22402110000220A70002295
:104330004A8000228A8000228A60FF220A73401C81
:10434000E8E77047002000221000C0B2022810D217
:10435000C0B20322DFF8B83302FB003202F2B4022B
:10436000110000220A7000224A7000228A70401C4C
:10437000EBE7704780B50420FFF79FFA0021042087
:10438000FFF791FA00210620FFF78DFA01BD2DE914
:10439000F84304000D00002600275FF00008042009
:1043A000FFF78BFA2700EDB2FFB2BD4242D3FFB256
:1043B000DFF85C0350F827008146FFB2DFF86003A6
:1043C000385C8046DFF85C038078032811D10E202A
:1043D0000600F6B2012E1BD3F6B216EB090010F858
:1043E000011C16EB0800401EC0B2FFF75CFA761EF7
:1043F000EFE700200600F6B2102E09D2F6B216F84A
:10440000091016EB0800C0B2FFF74DFA761CF2E770
:10441000FFB2002F0CD1F6B2172E09D2F6B216F861
:10442000091016EB0800C0B2FFF73DFA761CF2E760
:104430007F1CB8E7BDE8F1832DE9F84304000D00C7
:10444000002600275FF000080420FFF736FA270057
:10445000EDB2FFB2BD421BD3FFB2DFF8B40250F899
:1044600027008146FFB2DFF8B802385C804607209B
:104470000600F6B20A2E09D2F6B216F8091016EBAB
:104480000800C0B2FFF70FFA761CF2E77F1CDFE7E7
:10449000BDE8F1832DE9F84304000D00E4B29C4827
:1044A00010EB041000F2240081460420FFF705FA07
:1044B0008020804658F02008E4B2012C02D0E4B2FB
:1044C000022C02D158F0040808E0B9F8020080B2CA
:1044D000000AC0B2002801D058F008084146C9B20D
:1044E0001020FFF7B2FDB9F80210C9B21120FFF792
:1044F000ACFD00200600B9F80400402190FBF1F06B
:10450000F6B2864218DA4022D9F80800F6B2402105
:1045100001FB06018448FFF787FA00200700BFB2BD
:10452000402F07D2BFB28048395C1220FFF78DFDC3
:104530007F1CF4E7761CDEE7EDB2FF2D28D0B9F83A
:104540000200EDB22818A9F8020083208046E4B2E8
:10455000012C02D0E4B2022C02D158F0040808E089
:10456000B9F8020080B2000AC0B2002801D058F0A9
:1045700008084146C9B21020FFF767FDB9F80210DC
:10458000C9B21120FFF761FD7F211220FFF75DFD09
:10459000BDE8F18370B5002400250420FFF78DF9F4
:1045A00000200400E4B2022C25D2E4B203205849D2
:1045B00000FB041000F2B400060030780101C9B21B
:1045C000E4B26000001DC0B2FFF76DF9707805001D
:1045D000EDB2072D00D16D1C2D01B07810F00F0049
:1045E00005432900C9B2E4B26000401DC0B2FFF724
:1045F0005AF9641CD6E770BDF8B504000025002602
:104600000420FFF75AF9E4B2012C02D0E4B2022CE4
:1046100001D101200500EDB203203D4900FB05104A
:1046200000F2B400070038780101C9B2EDB26800A9
:10463000001DC0B2FFF737F978780600F6B2072EF2
:1046400000D1761C3601B87810F00F000643310017
:10465000C9B2EDB26800401DC0B2FFF724F9F1BD48
:10466000C0B22B4B53F820301A00137813F0CF034D
:104670001370C9B2002903D0137853F010031370DC
:1046800002F20C02C0B2002800D1121D1170704756
:10469000C0B21F4B53F820301A00C9B2002904D011
:1046A000137853F03003137003E0137813F0CF0343
:1046B000137002F20C02C0B2002800D1121D11705A
:1046C0007047F8B504000D0016000027832007008E
:1046D000E4B2012C02D0E4B2022C02D157F004075C
:1046E00006E0ADB2280AC0B2002801D057F0080792
:1046F0003900C9B21020FFF7A8FC2900C9B2112067
:10470000FFF7A3FC3100C9B21220FFF79EFCF1BDF8
:10471000C07E0020777F0020747F00207C7F0020F7
:104720008CFC0000986D00201C80002062B38B0779
:1047300008D0521E11F8013B00F8013B00F0248024
:104740008B07F6D1830740F0208000BF103A07D3D3
:1047500030B4B1E83810103AA0E83810F9D230BCC3
:10476000530724BFB1E80810A0E8081044BF51F86F
:10477000043B40F8043BD20724BF31F8022B20F859
:10478000022B44BF0B7803707047083A07D3B1E897
:104790000810083A40F8043B40F804CBF7D253071E
:1047A000E4E7FFFF034900220A60024909688142E9
:1047B000FBD370471C84002080B500F009F800F09E
:1047C00007F800F005F800F003F800F001F801BD6B
:1047D00000BF00BF00BF00BF00BF00BF00BF00BFE1
:1047E00000BF00BF00BF704780B5DFF85C0A0078EB
:1047F000002803D0DFF8500A00210170DFF84C0ACE
:10480000007800282AD0DFF8440A00210170DFF880
:10481000400A00793C280CD1DFF8380A406C0128A6
:104820001CD1DFF8300A00214164012003F0C6FBEF
:1048300014E0DFF81C0A0079342803D1002003F0CB
:10484000BDFB0BE0DFF80C0A406C012806D1DFF855
:10485000040A00214164012003F0B0FBDFF8F809ED
:104860000078002822D0DFF8F00900210170DFF87D
:10487000E4098078032819D1DFF8D80990F83400CA
:10488000092813D1DFF8D409007800280ED0DFF80A
:10489000CC0900210170DFF8BC0990F83100002834
:1048A00002D100F0C0FC01E000F0ACFCDFF8B00980
:1048B0000078002803D0DFF8A80900210170DFF894
:1048C000A4090078002803D0DFF8980900210170BE
:1048D000DFF894090078002827D0DFF88C09002140
:1048E0000170DFF86C09407801280AD1DFF860090F
:1048F000C078C821484310F5FA6080B203F011FF78
:1049000013E0DFF84C09407802280ED1DFF84009A7
:10491000C078C821DFF83829927814235A4301FB64
:104920000020BE3880B203F0FCFEDFF8000A0078F9
:10493000002803D0DFF8F40900210170DFF8F00946
:104940000078002803D0DFF8E8090021017001BDDC
:1049500080B5DFF80009EA210170DFF8F8080121CD
:1049600080F82310DFF8EC08012180F8241004F00F
:1049700011F8DFF8C00904F021F800F089F804F01C
:1049800014F8042002BD38B50024DFF8A809006837
:104990000400DFF8C0080470DFF8B8080078EA28DF
:1049A00073D1002005004FF40070854209DADFF86A
:1049B000A408DFF8801951F8251040F825106D1C67
:1049C000F1E7DFF89008C079132190FBF1F201FBC9
:1049D0001200DFF88018C871DFF87808007A292102
:1049E00090FBF1F201FB1200DFF868180872DFF8A3
:1049F0006408407A032190FBF1F201FB1200DFF81A
:104A000054184872DFF84C08807A022190FBF1F2CA
:104A100002FB1102DFF83C088272DFF83808807C64
:104A2000292190FBF1F201FB1200DFF828188874AD
:104A3000DFF82008007D292190FBF1F201FB120034
:104A4000DFF810180875DFF80C08407D292190FB6D
:104A5000F1F201FB1200DFF8FC174875DFF8F407EC
:104A6000407E022190FBF1F202FB1102DFF8E40725
:104A70004276DFF8E007807E132190FBF1F201FB24
:104A80001200DFF8D017887601E0FFF761FF31BD33
:104A900010B503F07FFFDFF89C0803F08FFF0020C4
:104AA00004004FF4007084420CDADFF8A80750F8D5
:104AB0002410A00000F1006010F5FA3003F0ADFF03
:104AC000641CEEE703F071FF10BD10B50400DFF8C1
:104AD00084078078E4B2A04202D0002003F06EFA8E
:104AE000E4B20B2C06D14FF40071DFF84C0803F050
:104AF00050F905E04FF40071DFF83C0803F04CF981
:104B00002000C0B203F007FADFF848078470DFF82E
:104B10002C08407A002804D0DFF83807807F00286E
:104B200042D1E4B22000032804D00B2825D012285B
:104B300028D02EE0DFF81C0790F83100002802D1C1
:104B400000F071FB01E000F05DFB00210920FBF7A4
:104B5000F7FFDFF8EC070078002805D0DFF8E4075E
:104B60004FF47A61018003E0DFF8D807C8210180A3
:104B7000DFF8D407012101704BE000210A20FBF788
:104B8000DFFF46E0DFF8CC06C1780220FBF7D8FF54
:104B90003FE0DFF8C006C1780220FBF7D1FFDFF865
:104BA000B4061221817034E0E4B22000032804D05E
:104BB0000B281CD012281FD023E000F023FB00217B
:104BC0000720FBF7BDFFDFF878070078002805D045
:104BD000DFF870074FF47A61018003E0DFF86407C3
:104BE000C8210180DFF860070121017011E0002178
:104BF0000A20FBF7A5FF0CE000210720FBF7A0FF30
:104C000007E000210720FBF79BFFDFF84806122191
:104C10008170DFF840063221416410BD10B500F00C
:104C2000C2FADFF83006C07B002818D0DFF824066F
:104C3000007C002813D1DFF81C06C07F03280ED0AB
:104C4000DFF8100680780B2835D0DFF80806DFF88B
:104C50000416897841700B20FFF737FF2BE0DFF84F
:104C6000F405C07B002813D0DFF8E805007C00289D
:104C70000ED0DFF8E00580780B281CD14FF4FA70D5
:104C8000FFF790FDDFF8CC054078FFF71EFF12E03C
:104C9000DFF8C00580780B280DD1DFF8B8058078E3
:104CA0000B2808D14FF4FA70FFF77CFDDFF8A4055C
:104CB0004078FFF70AFFDFF89C05807803284FD083
:104CC0000B2803D0122800F0E38041E1DFF88405CF
:104CD000C07F00280DD1DFF86406007A00283ED09E
:104CE000DFF858060021017200210720FCF7E8FDDB
:104CF00035E0DFF86005C07F012830D1DFF84C06D1
:104D0000408E00F0B3FA0400DFF83006007A002885
:104D100009D0DFF8280600210172DFF83805417C50
:104D20000320FCF7CDFDDFF8240690F8380080B2B0
:104D3000A4B2A04213D0DFF8140680F83840DFF8A0
:104D4000140590F83400032809D1DFF8080590F81D
:104D50003500002803D110210320FCF7B1FDF7E056
:104D6000DFF8E80590F82000002824D0DFF8E404FC
:104D700090F8340007281ED0DFF8D80490F83400EB
:104D8000042818D0DFF8C405002180F82010DFF8CF
:104D9000C40490F83400052804D000210520FBF756
:104DA000CFFE03E000210520FCF78AFDDFF89C051B
:104DB00041F28831C186DFF89405C08E002816D1F3
:104DC000DFF8900490F83400052810D10324092C52
:104DD00005DA00212000FBF728FA641CF7E7DFF86A
:104DE0007404DFF8701491F8361080F83410DFF88E
:104DF0006404807F002815D1DFF8580490F834004F
:104E0000072844D100210920FBF79AFEDFF844046B
:104E100090F83100002802D100F005FA37E000F0E8
:104E2000F1F934E0DFF81405407A00281AD0DFF8F1
:104E30000C05007A00282AD0DFF800050021017255
:104E4000DFF8100490F83400072804D00021072070
:104E5000FBF776FE03E000210720FCF731FD00F0B0
:104E6000D1F914E0DFF8EC0390F8340007280ED1F4
:104E700000210920FBF764FEDFF8D80390F8310029
:104E8000002802D100F0CFF901E000F0BBF95FE0AB
:104E9000DFF8C0030079002815D0DFF8B80300213F
:104EA0000171DFF8B00390F8340004280BD0DFF86C
:104EB000A40390F83400072805D0DFF89803C178E0
:104EC0000220FBF73DFEDFF88C03807F002815D120
:104ED000DFF8800390F83400072839D10021002042
:104EE000FBF72EFEDFF86C0390F83100002802D1AA
:104EF00000F099F92CE000F085F929E0DFF83C0496
:104F0000407A002818D0DFF83404007A00281FD037
:104F1000DFF8280400210172DFF8380390F834002C
:104F2000072804D000210720FBF70AFE10E000212B
:104F30000720FCF7C5FC0BE0DFF8180390F83400FD
:104F4000072805D1DFF80C03C1780220FBF7F8FD34
:104F500000F011F8DFF8F8030078002805D01021E0
:104F6000DFF8D40302F015FF04E01021DFF8C803D6
:104F700002F012FF10BD80B5DFF8D80280780B2850
:104F800000F01081DFF8CC030078002800F0998051
:104F9000DFF8C003002101700020032805DADFF8E4
:104FA000B81300224254401CF7E7DFF8B003002199
:104FB0000170DFF8A003407900280DD0DFF89C03D2
:104FC0000078DFF8941300224254DFF89003007851
:104FD000401CDFF888130870DFF878038079002818
:104FE0000DD0DFF878030078DFF86C13012242540B
:104FF000DFF868030078401CDFF860130870DFF802
:105000005403407800280ED1DFF848038078002848
:1050100009D1DFF84003C078002804D1DFF8340359
:10502000007900280DD0DFF834030078DFF828136A
:1050300002224254DFF824030078401CDFF81C13DE
:105040000870DFF81803007800283AD1DFF804036D
:1050500001210172DFF8FC0190F8340004281DD111
:10506000DFF8F0018078122806D1DFF8E801C17876
:105070000220FBF765FD11E0DFF8D80180780328F6
:1050800004D100210920FBF75BFD07E0714890F88F
:105090003710704890F83600FBF752FD6D48807865
:1050A00003280ED16B4890F83400092809D16948CB
:1050B00090F83100002802D100F0B5F801E000F0CE
:1050C000A1F8DFF89802007800286BD0DFF884029E
:1050D000C068002866D1DFF87C02C079DFF878125A
:1050E000405C002803D0022829D014D33FE059485F
:1050F00090F83400042804D1564890F8350001286F
:1051000003D001210420FBF71BFDDFF848024FF418
:105110007A71C1602BE04F4890F83400042804D124
:105120004C4890F83500002803D000210420FBF7FC
:1051300007FDDFF820024FF47A71C16017E045489F
:1051400090F83400042804D1424890F83500022831
:1051500004D002210420FBF7F3FC03E00221042029
:10516000FCF7AEFBDFF8EC014FF47A71C16039480F
:105170008078032801D100F045F8DFF8D801C07924
:10518000DFF8D8110978491E884207DADFF8C40130
:10519000C079401CDFF8BC11C87103E0DFF8B4012E
:1051A0000021C17101BD6E480068C00707D42948BD
:1051B000C07F032812D02748022181730EE02548C2
:1051C000006C00280AD12348C07F032806D021485C
:1051D000407B012802D01F48002181731D48807B3D
:1051E000022803D01B48407B012807D11948C07F03
:1051F000032806D017480121C17302E01548002199
:10520000C173704780B50220FEF757FB20210420B0
:10521000FEF749FB00210320FEF745FB33210C205C
:10522000FEF741FB01BD80B50220FEF746FB1421CD
:105230000420FEF738FB00210320FEF734FB2B216E
:105240000C20FEF730FB01BD858400208684002001
:10525000F0830020986D002087840020998400202E
:1052600088840020898400208A840020010011F4B1
:105270007F413C480068814201D1002054E0394818
:105280004068884227D238480022027036480078A9
:10529000202817D234480078344A12EB8000406846
:1052A000884209D330480078304A52F820008842BA
:1052B00002D22D48007837E02B480078401C2A4A5B
:1052C0001070E3E72948D0F88000884201D21F20FF
:1052D0002AE0002028E024480022027022480078BA
:1052E000202819D2204800781E4A52F8200088420F
:1052F0000CD31D4800781B4A12EB8000406888429E
:1053000004D2194800782030C0B20DE01648007869
:10531000401C154A1070E1E71248D0F88000814225
:1053200001D23F2000E00020704700008B84002065
:105330008C84002000F4010800100140D883002074
:105340005384002030840020528400201C810020DF
:105350009875002098830020148400206684002023
:1053600008080140B0F700006F84002034F8000006
:1053700038B504000D002900200003F03AFD31BDCE
:1053800010B586B00400E4B2012C0BD0C0F07681D9
:10539000032C00F0908046D3052C00F02481C0F04F
:1053A000D6806BE1DFF8E406807A8DF80A00DFF83A
:1053B000DC0600680090DFF8D406007A8DF808005B
:1053C000DFF8C806407A8DF80900DFF8C006C07A19
:1053D0008DF80B00DFF8B406007B8DF80C00DFF8C9
:1053E000AC06407B8DF80D00DFF8A006807B8DF8C1
:1053F0000E00DFF89806C07B8DF80F00DFF88C06F2
:10540000007C8DF81000DFF88406407C8DF81100D8
:10541000DFF87806807C8DF8120000A9DFF87006AE
:10542000FFF7A6FF2AE1DFF86406807F8DF80A0007
:10543000DFF8580640690090DFF85006007F8DF8CD
:105440000800DFF84806407F8DF80900DFF83C06C9
:10545000C07F8DF80B00DFF8340690F820008DF83F
:105460000C00DFF8280690F821008DF80D00DFF819
:105470001C0690F822008DF80E00DFF8100690F858
:1054800023008DF80F00DFF8040690F824008DF853
:105490001000DFF8F80590F825008DF81100DFF80E
:1054A000EC0590F826008DF8120000A9DFF8E00561
:1054B000FFF75EFFE2E0DFF8D40590F832008DF8E8
:1054C0000A00DFF8C805806A0090DFF8C00590F890
:1054D00030008DF80800DFF8B40590F831008DF841
:1054E0000900DFF8A80590F833008DF80B00DFF80D
:1054F0009C0590F834008DF80C00DFF8900590F8CA
:1055000035008DF80D00DFF8840590F836008DF831
:105510000E00DFF8780590F837008DF80F00DFF8FF
:105520006C0590F838008DF81000DFF8600590F8F1
:1055300039008DF81100DFF8540590F83A008DF825
:10554000120000A9DFF84805FFF712FF96E0DFF828
:105550003C0590F846008DF80A00DFF83005C06B76
:105560000090DFF8280590F844008DF80800DFF877
:105570001C0590F845008DF80900DFF8100590F83B
:1055800047008DF80B00DFF8040590F848008DF80F
:105590000C00DFF8F80490F849008DF80D00DFF8F2
:1055A000EC0490F84A008DF80E00DFF8E00490F863
:1055B0004B008DF80F00DFF8D40490F84C008DF804
:1055C0001000DFF8C80490F84D008DF81100DFF8E6
:1055D000BC0490F84E008DF8120000A9DFF8B0046A
:1055E000FFF7C6FE4AE0DFF8A40490F85A008DF8F1
:1055F0000A00DFF89804006D0090DFF8900490F83E
:1056000058008DF80800DFF8840490F859008DF8F0
:105610000900DFF8780490F85B008DF80B00DFF8E4
:105620006C0490F85C008DF80C00DFF8600490F8D2
:105630005D008DF80D00DFF8540490F85E008DF8E1
:105640000E00DFF8480490F85F008DF80F00DFF8D7
:105650003C0490F860008DF81000DFF8300490F8FA
:1056600061008DF81100DFF8240490F862008DF8D5
:10567000120000A9DFF81804FFF77AFE06B010BD8B
:1056800030B583B004000D00EDB2002D06D0022D20
:105690001CD00FD3042D31D024D33AE0DFF8F81317
:1056A00083B068461422FFF751F80EBC200000F0CA
:1056B00031F82EE0DFF8E41383B068461422FFF7D8
:1056C00045F80EBC200000F025F822E0DFF8D013EA
:1056D00083B068461422FFF739F80EBC200000F0B2
:1056E00019F816E0DFF8BC1383B068461422FFF700
:1056F0002DF80EBC200000F00DF80AE0DFF8A8132A
:1057000083B068461422FFF721F80EBC200000F099
:1057100001F837BD0EB418B50400002C05D003A95C
:10572000DFF86C03FFF724FE04E003A9DFF864034D
:10573000FFF71EFE11BC5DF810FB00B585B0DFF869
:105740006C03C07A01280BD0C0F09981032800F0C7
:10575000A78055D3052800F04381C0F0F1808EE189
:10576000DFF84C0390F832008DF80A00DFF84003B0
:10577000806A0090DFF8380390F830008DF8080058
:10578000DFF82C0390F831008DF80900DFF82003D2
:1057900090F833008DF80B00DFF8140390F8340014
:1057A0008DF80C00DFF8080390F835008DF80D0037
:1057B000DFF8FC0290F836008DF80E00DFF8F002FA
:1057C00090F837008DF80F00DFF8E40290F8380009
:1057D0008DF81000DFF8D80290F839008DF811002C
:1057E000DFF8CC0290F83A008DF8120000A9DFF83B
:1057F000A002FFF7BDFDDFF8B4020221C17242E151
:10580000DFF8AC0290F846008DF80A00DFF8A0023D
:10581000C06B0090DFF8980290F844008DF8080003
:10582000DFF88C0290F845008DF80900DFF880025F
:1058300090F847008DF80B00DFF8740290F84800EC
:105840008DF80C00DFF8680290F849008DF80D0023
:10585000DFF85C0290F84A008DF80E00DFF8500285
:1058600090F84B008DF80F00DFF8440290F84C00E0
:105870008DF81000DFF8380290F84D008DF8110017
:10588000DFF82C0290F84E008DF8120000A9DFF826
:105890000002FFF76DFDDFF814020321C172F2E090
:1058A000DFF80C0290F85A008DF80A00DFF80002C9
:1058B000006D0090DFF8F80190F858008DF80800AE
:1058C000DFF8EC0190F859008DF80900DFF8E001ED
:1058D00090F85B008DF80B00DFF8D40190F85C00C5
:1058E0008DF80C00DFF8C80190F85D008DF80D0010
:1058F000DFF8BC0190F85E008DF80E00DFF8B00113
:1059000090F85F008DF80F00DFF8A40190F86000B8
:105910008DF81000DFF8980190F861008DF8110003
:10592000DFF88C0190F862008DF8120000A9DFF812
:105930006001FFF71DFDDFF874010421C172A2E0D0
:10594000DFF86C0190F86E008DF80A00DFF8600156
:10595000406E0090DFF8580190F86C008DF8080058
:10596000DFF84C0190F86D008DF80900DFF8400178
:1059700090F86F008DF80B00DFF8340190F870009C
:105980008DF80C00DFF8280190F871008DF80D00FB
:10599000DFF81C0190F872008DF80E00DFF810019E
:1059A00090F873008DF80F00DFF8040190F8740090
:1059B0008DF81000DFF8F80090F875008DF81100F0
:1059C000DFF8EC0090F876008DF8120000A9DFF8FF
:1059D000C000FFF7CDFCDFF8D4000521C17252E012
:1059E000DFF8CC0090F882008DF80A00DFF8C000E4
:1059F000806F0090DFF8B80090F880008DF8080004
:105A0000DFF8AC0090F881008DF80900DFF8A00005
:105A100090F883008DF80B00DFF8940090F8840074
:105A20008DF80C00DFF8880090F885008DF80D00E7
:105A3000DFF87C0090F886008DF80E00DFF870002B
:105A400090F887008DF80F00DFF8640090F8880068
:105A50008DF81000DFF8580090F889008DF81100DB
:105A6000DFF84C0090F88A008DF8120000A9084871
:105A7000FFF77EFCDFF834001E21C17203E0DFF87F
:105A80002C001E21C17205B000BD000050FA0000BC
:105A90000068004000640040ECF9000000FA0000DB
:105AA00014FA000028FA00003CFA00001C810020D3
:105AB000DCD0000000B587B0DFF85C0903F02EF8F9
:105AC000DFF8580903F02AF800A803F058F900207D
:105AD0008DF8060000208DF8070000208DF80800E2
