:10000000C08E0020F5FD000061C4000063C4000044
:1000100065C4000067C4000069C40000000000005F
:100020000000000000000000000000006BC40000A1
:100030006DC40000000000006FC4000071C4000027
:1000400049FE00004DFE000051FE0000E1CD000021
:1000500059FE00005DFE000061FE000065FE00002C
:10006000CBC800006DFE000071FE000075FE0000B0
:1000700079FE00007DFE000081FE000085FE00008C
:1000800089FE00008DFE000091FE000095FE00003C
:10009000C9CC00009DFE0000A1FE0000A5FE0000EE
:1000A000A9FE0000ADFE0000B1FE0000B5FE00009C
:1000B000D3C70000BDFE0000C1FE0000C5FE000069
:1000C000C9FE0000CDFE0000D1FE0000D5FE0000FC
:1000D000D9FE0000EDC8000017C900006DC900007E
:1000E000E9FE0000F5CD0000F1FE00000000000078
:1000F0000000000000000000000000000000000000
:100100000000000000000000F5FE0000F9FE000005
:1001100081CC0000A5CC000005FF000009FF000015
:100120000DFF000011FF000015FF000019FF000087
:100130001DFF000021FF000025FF000029FF000037
:10014000F7CC000031FF000035FF000039FF000050
:1001500010B4DFF880482100047B14F001040C7215
:10016000447B641C220000242300DBB2092B05D24F
:10017000D40703D492B252085B1CF6E74B72C478E2
:1001800014F00F048C7284888C81C488CC81042480
:100190009C400C8210BC704770B504000D00002616
:1001A000012003F018FB10222100280003F0C2FBFD
:1001B0002878492802D16878542803D0DFF8180835
:1001C00003F078FDA8680600F0B2A860A8680002F5
:1001D000A860360AA868F1B20843A860A8680002BF
:1001E000A860360AA868F1B20843A860A8680002AF
:1001F000A860360AA868F1B20843A86070BD38B597
:100200000400DFF8D057DFF814196068FFF7C4FF67
:10021000DFF80809FFF79CFF60681030286060680D
:10022000298A08181030686031BDF8B504000D0047
:10023000E4B2DFF8EC08205C06000421FF2003F0A4
:100240008AFE3000C0B203F093FE0700EDB2002D2D
:1002500007D057F00101C9B23000C0B203F07BFEF5
:1002600005E017F0FE013000C0B203F074FEF1BDEE
:1002700070B50400E4B2002C03D02000C0B203F03B
:10028000AAFADFF8A0080078022803D103200500AD
:1002900006000BE0DFF88C080078002803D000206F
:1002A0000500060002E0032005000600042003F01C
:1002B0008AFAEDB2092D06D200212800C0B2FFF75C
:1002C000B4FF6D1CF5E7F6B2002E01D103F0D8FFA4
:1002D00070BD70B504000D00012003F07CFA04200D
:1002E00003F071FA2600EDB2F6B2B54206D3002152
:1002F0003000C0B2FFF799FF761CF4E770BD00B57F
:100300008DB00120FFF7B4FFDFF81C1884B06846F9
:10031000402204F0A1F90FBC00F038F8DFF80C1807
:1003200084B06846402204F097F90FBC00F02EF824
:10033000DFF8FC1784B06846402204F08DF90FBC4A
:1003400000F024F80DB000BD00B58DB00120FFF71E
:100350008FFFDFF8E01784B06846402204F07CF994
:100360000FBC00F013F80DB000BD00B58DB001203A
:10037000FFF77EFFDFF8C01784B06846402204F024
:100380006BF90FBC00F002F80DB000BD0FB4F0B572
:1003900083B0DFF890070078002823D0DFF83456C8
:1003A0000D9F9DF83D0006003C00012003F0EEFD8E
:1003B00003F04EFF03F031FF03F021FF2000FFF7B1
:1003C0001EFF207B0190286800902B8A109A92B221
:1003D000297A3000C0B203F0C0FE00213000C0B264
:1003E00003F0DEFFF7BC5DF814FB0FB42DE9FC4110
:1003F000189CDFF8E065DDF83480270045460120D1
:1004000003F0C4FD03F024FF03F007FF03F0F7FE41
:10041000012003F0E0F92800FFF7F1FE287B0190AE
:1004200030680090338A109A92B2317A3800C0B2A4
:1004300003F093FE00213800C0B203F0B1FFBDE825
:10044000F3015DF814FB80B503F0B0FE03F0B9FDD5
:1004500001BD80B503F09CF9FFF7F5FF01BD0FB4B6
:10046000F8B5DFF870550B9F9DF8350006003C008D
:1004700000213000C0B2FFF7D8FEF1BC5DF814FBDC
:100480000FB4F8B5DFF84C550B9F9DF8350006000A
:100490003C00012003F07AFD03F0DAFE03F0BDFE1C
:1004A00003F0ADFE01202872082068720B980078D6
:1004B000002805D00B98407B10F00F00A87201E0D7
:1004C0000020A8720B98C089A8810B98008AE88147
:1004D0004FF4806028820B984068103028600B9899
:1004E0004068298A08181030686069683000C0B216
:1004F00003F0F3FDEA89A9893000C0B203F0C6FD1C
:10050000E8890090AB89099A92B20898D0F5A0606A
:10051000A989411A89B23000C0B203F0F9FD697AA5
:100520003000C0B203F084FD207BFF2805D0217B82
:100530003000C0B204F032F804E000213000C0B254
:1005400004F014F800213000C0B203F090FD012146
:100550003000C0B203F05AFDA87A002806D0AA7A6B
:10056000697A3000C0B203F00BFE01E003F070FEC8
:10057000F6B2DFF8C81551F82610080000F20D0099
:100580000E994FF47062114201D0102101700120C8
:1005900003F021F9A87A002803D03000C0B203F09C
:1005A000B1FF3100C9B23000C0B203F076FEF1BC39
:1005B0005DF814FB0FB42DE9F843189CDFF81464C0
:1005C000DDF8348027004546012003F0DFFC03F00E
:1005D0003FFE03F022FE03F012FE012030720820DD
:1005E00070720D980078002805D00D98407B10F0AF
:1005F0000F00B07201E00020B0720D98C089B08188
:100600000D98008AF0814FF4806030820D98406828
:10061000103030600D984068318A081810307060D2
:1006200071683800C0B203F058FDF289B189380012
:10063000C0B203F02BFDF0890090B3890B9A92B2FF
:100640000A98D0F5A060B189411A89B23800C0B2C9
:1006500003F05EFD717A3800C0B203F0E9FC287B3C
:10066000FF2805D0297B3800C0B203F097FF04E0D3
:1006700000213800C0B203F079FF00213800C0B279
:1006800003F0F5FC01213800C0B203F0BFFCB07AE2
:10069000002806D0B27A717A3800C0B203F070FD3B
:1006A00001E003F0D5FDFFB2DFF8900450F8270019
:1006B000814609F20D0910984FF47061084205D087
:1006C000102089F80000012003F085F8012003F0D4
:1006D00082F8B07A002803D03800C0B203F012FFCD
:1006E0003900C9B23800C0B203F0D7FD012138008B
:1006F000C0B203F08BFC3900C9B23800C0B203F0BD
:10070000CCFDBDE8F1035DF814FB0FB400B58DB06E
:1007100003200C900EA984B06846402203F09CFF91
:100720000FBCFFF762FE03200C900EA984B0684650
:10073000402203F091FF0FBCFFF73CFF01200C901B
:100740000EA984B06846402203F086FF0FBCFFF775
:100750004CFE01200C900EA984B06846402203F0A4
:100760007BFF0FBCFFF726FF012003F034F80420C5
:1007700003F029F800210320FFF757FD0DB05DF8C5
:1007800014FB0FB4F8B5934D0B9F9DF83500060090
:100790003C00012003F0FAFB03F05AFD03F03DFD9D
:1007A00003F02DFD01202872082068720B98007854
:1007B000002805D00B98407B10F00F00A87201E0D4
:1007C0000020A8720B98C089A8810B98008AE88144
:1007D0004FF4806028820B984068103028600B9896
:1007E0004068298A08181030686069683000C0B213
:1007F00003F073FCEA89A9893000C0B203F046FC1B
:10080000E8890090AB89099A92B20898D0F5A06067
:10081000A989411A89B23000C0B203F079FC697A23
:100820003000C0B203F004FC207BFF2805D0217B00
:100830003000C0B203F0B2FE04E000213000C0B2CC
:1008400003F094FE00213000C0B203F010FC002140
:100850003000C0B203F0DAFBA87A002806D0AA7AEA
:10086000697A3000C0B203F08BFC01E003F0F0FCC9
:10087000F6B2B24951F82610080000F20D000E99A8
:100880004FF47062114201D010210170012002F07A
:10089000A2FFA87A002803D03000C0B203F032FED5
:1008A0003100C9B23000C0B203F0F7FCF1BC5DF812
:1008B00014FB0FB42DE9F04782B0464D0F9F9DF811
:1008C000450006003C0001202872082068720F983D
:1008D0000078002805D00F98407B10F00F00A87218
:1008E00001E00020A8720F98C089A8810F98008AA3
:1008F000E8814FF4806028820F98406810302860AB
:100900000F984068298A08181030686069683000BC
:10091000C0B203F0E2FBEA89A9893000C0B203F05B
:10092000B5FBE8890090AB890D9A92B20C98D0F58E
:10093000A060A989411A89B23000C0B203F0E8FB77
:10094000A87A002806D0AA7A697A3000C0B203F0EB
:1009500017FC01E003F07CFC012002F03CFF3100B9
:10096000C9B23000C0B203F0EDFC5FF00008F6B28F
:10097000012E02D0F6B2022E02D10120804601E003
:10098000002080465FF0000A03206C4900FB08103D
:1009900000F2B400814699F8010082465FFA8AFAB3
:1009A000BAF1070F01D11AF1010A5FEA0A1A99F8A0
:1009B000020010F00F0050EA0A0A5146C9B25FEA7D
:1009C0004800401DC0B202F0F4FEBDE8F3075DF838
:1009D00014FB00008C81002030FD00000FB42DE9D5
:1009E000F8430D9C0E9D0F9EDFF8488BA146012019
:1009F00003F0CCFA03F02CFC03F00FFC03F0FFFB38
:100A0000012088F80800082088F809009DF82000D7
:100A1000002806D09DF82D0010F00F0088F80A007D
:100A200002E0002088F80A00BDF82E00A8F80C00AB
:100A3000BDF83000A8F80E004FF48060A8F8100050
:100A400009981030C8F800000998B8F81010081874
:100A50001030C8F80400D8F804104846C0B203F0BB
:100A60003CFBB8F80E20B8F80C104846C0B203F0B2
:100A70000DFBB8F80E000090B8F80C30320092B2BE
:100A8000D5F5A060B8F80C10411A89B24846C0B23A
:100A900003F03EFB98F809104846C0B203F0C8FACC
:100AA000387BFF2805D0397B4846C0B203F076FD7D
:100AB00004E000214846C0B203F058FD002148463A
:100AC000C0B203F0D4FA01214846C0B203F09EFA46
:100AD00098F80A00002808D098F80A2098F8091019
:100AE0004846C0B203F04CFB01E003F0B1FB01202B
:100AF00002F071FE98F80A00002803D04846C0B200
:100B000003F000FD4946C9B24846C0B203F0C5FB38
:100B1000BDF82E00BDE8F2035DF814FBE48100206F
:100B200004FE0000B482002000000020803C002071
:100B3000005200208010002040540020DC7C002067
:100B4000F0B58DB004000D00DFF8A00D90F8340072
:100B5000E4B2A04229D0DFF8940D90F834000228C6
:100B600008D0E4B2062C05D0DFF8800D90F83400F0
:100B7000092808D1DFF8740DDFF8701D91F83410E2
:100B800080F8361004E0DFF8640D002180F836109C
:100B9000DFF8580D80F83440DFF8740B0121017044
:100BA000DFF8700B0121017003E0DFF8640B002116
:100BB0000170DFF8380DDFF8341D91F8351080F83A
:100BC0003710DFF8280D80F83550DFF84C0B4068FF
:100BD000DFF8481B0860E4B2002C15D0022C3BD093
:100BE00017D3042C00F025817CD3062C00F00C8256
:100BF000C0F0AA81082C00F0EB83C0F0A383092C7D
:100C000000F03A8400F061BC0120FFF731FB00F0F6
:100C10005CBCFFF799FBDFF8081B84B068464022F4
:100C200003F01AFD0FBCFFF72BFC0126202E11DA72
:100C30004020DFF8EC1A00FB061184B06846402221
:100C400003F00AFD0FBCFFF734FE142003F030FD63
:100C5000761CEBE700F039BCEDB2002D03D0022D7D
:100C600027D00ED33DE00120FFF702FBDFF8B41AD6
:100C700084B06846402203F0EFFC0FBCFFF745FD4F
:100C80002FE00120FFF7F4FADFF89C1A84B06846E1
:100C9000402203F0E1FC0FBCFFF778FBDFF8881A75
:100CA00084B06846402203F0D7FC0FBCFFF72DFD4F
:100CB00017E00120FFF7DCFADFF8701A84B068460D
:100CC000402203F0C9FC0FBCFFF760FBDFF85C1AA1
:100CD00084B06846402203F0BFFC0FBCFFF715FD4F
:100CE000FFE7F2E3FFF70BFBDFF8240A00780028A8
:100CF00014D00126042E07DA2022310089B2082000
:100D000003F065FC761CF5E720220221012003F0A8
:100D10005EFC20220C21012003F059FCDFF8C01DED
:100D200084B06846402203F097FC0FBCFFF7A8FB95
:100D3000DFF8FC090078022816D3DFF8F409007800
:100D40000A2811D2DFF8E80900784021DFF8942D55
:100D500001FB0020B0F1800184B06846402203F01E
:100D60007BFC0FBCFFF78CFBDFF8C409007902287D
:100D700016D3DFF8BC0900790A2811D2DFF8B009D0
:100D800000794021DFF8B02D01FB0020B0F1800197
:100D900084B06846402203F05FFC0FBCFFF770FB95
:100DA000DFF88C09C079022816D3DFF88409C079EE
:100DB0000A2811D2DFF87809C0794021DFF87C2DAC
:100DC00001FB0020B0F1800184B06846402203F0AE
:100DD00043FC0FBCFFF754FBDFF85409C07802282E
:100DE00016D3DFF84C09C0780A2811D2DFF8400981
:100DF000C0784021DFF8482D01FB0020B0F18001D0
:100E000084B06846402203F027FC0FBCFFF738FB94
:100E1000DFF8201984B06846402203F01DFC0FBCA7
:100E2000FFF72EFBDFF810094068DFF8F0180860C4
:100E30004BE3DFF8DC08012101700120FFF718FA0D
:100E4000EDB2002D03D0022D5FD02FD37BE0DFF871
:100E50009C0A407F002814D0DFF8E01884B0684670
:100E6000402203F0F9FB0FBCFFF790FADFF8CC1833
:100E700084B06846402203F0EFFB0FBCFFF700FB95
:100E800013E0DFF8BC1884B06846402203F0E4FBAE
:100E90000FBCFFF77BFADFF8A81884B06846402241
:100EA00003F0DAFB0FBCFFF7EBFA4CE0DFF83C0A8B
:100EB000407F002814D0DFF88C1884B068464022A8
:100EC00003F0CAFB0FBCFFF761FADFF8781884B0B3
:100ED0006846402203F0C0FB0FBCFFF7D1FA13E0D5
:100EE000DFF8641884B06846402203F0B5FB0FBCFD
:100EF000FFF74CFADFF8501884B06846402203F040
:100F0000ABFB0FBCFFF701FC1DE0DFF8401884B01D
:100F10006846402203F0A0FB0FBCFFF737FADFF86A
:100F2000301884B06846402203F096FB0FBCFFF7F0
:100F30002DFADFF8181884B06846402203F08CFBC5
:100F40000FBCFFF79DFAC0E2DFF8A00990F831006E
:100F500000280CD1FFF709FADFF8F81784B06846CB
:100F6000402203F079FB0FBCFFF78AFA13E0DFF8A9
:100F70007C0990F83600092803D1DFF89407002196
:100F80000170DFF8D41784B06846402203F064FB98
:100F90000FBCFFF775FADFF8C41784B0684640222B
:100FA00003F05AFB0FBCFFF76BFADFF8B41784B0FD
:100FB0006846402203F050FB0FBCFFF761FADFF8F0
:100FC000A41784B06846402203F046FB0FBCFFF72D
:100FD00057FADFF8941784B06846402203F03CFBD0
:100FE0000FBCFFF74DFADFF8841784B06846402243
:100FF00003F032FB0FBCFFF743FADFF81C07406831
:10100000DFF81817086060E2EDB2002D12D0022D53
:1010100076D04DD3042D00F04481C0F01481062D0C
:1010200000F0D880C0F0AD80082D00F06281C0F0E3
:10103000E18086E1DFF8D8060078002806D0DFF8E6
:10104000D006022101700120FFF712F900210020D3
:10105000FFF7EBF8DFF8181784B06846402203F07A
:10106000FBFA0FBCFFF792F9DFF8A406007800281E
:1010700003D100210720FFF7D8F8DFF894060078A5
:1010800000280AD0DFF8E81684B06846402203F052
:10109000E3FA0FBCFFF7F4F909E0DFF8D41684B0E7
:1010A0006846402203F0D8FA0FBCFFF702FC48E183
:1010B000DFF8C01684B06846402203F0CDFA0FBCBA
:1010C000FFF7F7FBDFF82408407F002802D0012853
:1010D0000BD014E0DFF8A01684B06846402203F07D
:1010E000BBFA0FBCFFF7CCF909E0DFF8901684B02B
:1010F0006846402203F0B0FA0FBCFFF7C1F920E1C7
:10110000DFF87C1684B06846402203F0A5FA0FBCD5
:10111000FFF7CFFBDFF8D407C07F002805D00228F7
:1011200019D00DD3032821D02AE0DFF8581684B057
:101130006846402203F090FA0FBCFFF7A1F91FE0C8
:10114000DFF8441684B06846402203F085FA0FBCED
:10115000FFF796F914E0DFF8341684B068464022B1
:1011600003F07AFA0FBCFFF78BF909E0DFF82016DD
:1011700084B06846402203F06FFA0FBCFFF780F995
:10118000DFE0DFF8101684B06846402203F064FA0E
:101190000FBCFFF78EFBDFF8540790F82300002800
:1011A00002D001280BD014E0DFF8EC1584B06846BB
:1011B000402203F051FA0FBCFFF762F909E0DFF8B3
:1011C000DC1584B06846402203F046FA0FBCFFF7F6
:1011D00057F9B6E0DFF8C81584B06846402203F03E
:1011E0003BFA0FBCFFF765FB4E214FF44D7000F04A
:1011F000A3F9A6E0DFF8AC1584B06846402203F0FE
:101200002BFA0FBCFFF755FBDFF8E00690F824003F
:10121000002802D001280BD014E0DFF88C1584B030
:101220006846402203F018FA0FBCFFF729F909E0DD
:10123000DFF8781584B06846402203F00DFA0FBC41
:10124000FFF71EF97DE000210020FEF7EEFFDFF83A
:10125000C0040078002810D0DFF8B4040221017027
:101260000120FFF705F8DFF8481584B068464022F2
:1012700003F0F2F90FBCFFF789F8DFF89404007867
:10128000002803D100210720FEF7CFFFDFF820154B
:1012900084B06846402203F0DFF90FBCFFF7F0F896
:1012A0004FE0DFF8101584B06846402203F0D4F90F
:1012B0000FBCFFF7E5F8DFF83406807F002802D086
:1012C00001280BD014E0DFF8F01484B06846402207
:1012D00003F0C2F90FBCFFF7D3F809E0DFF8DC1424
:1012E00084B06846402203F0B7F90FBCFFF7C8F896
:1012F00027E0DFF8CC1484B06846402203F0ACF954
:101300000FBCFFF7BDF8DFF8E40590F831000028C6
:1013100002D001280BD014E0DFF8A81484B068468E
:10132000402203F099F90FBCFFF7AAF809E0DFF8B3
:10133000981484B06846402203F08EF90FBCFFF782
:101340009FF8C2E00120FEF793FFDFF8981784B002
:101350006846402203F080F90FBCFFF717F8DFF86A
:101360006C1484B06846402203F076F90FBCFFF796
:101370000DF8DFF8C01384B06846402203F06CF922
:101380000FBCFFF703F8DFF888030078002814D0BB
:101390000126042E07DA4022310089B2082003F02A
:1013A00016F9761CF5E740220221012003F00FF91F
:1013B00040220C21012003F00AF9DFF8101484B058
:1013C0006846402203F048F90FBCFFF759F87CE06B
:1013D000EDB2002D4FD1CE48022101700120FEF761
:1013E00047FFDFF8EC1384B06846402203F034F97D
:1013F0000FBCFEF7CBFFDFF8D81384B0684640225D
:1014000003F02AF90FBCFFF73BF8DFF8C81384B0EC
:101410006846402203F020F90FBCFFF7B2F9DFF86D
:10142000B80300218171042002F0CDF9242002F0DC
:10143000B9F90700FFB2252002F0B4F950EA0720FD
:101440000600B6B2DFF890038079801F142101FBFB
:101450000066B6B2310AC9B2242002F0AAF93100FE
:10146000C9B2252002F0A5F90121DFF8640390F844
:101470005D03FEF7DAFE28E0DFF8700490F8310033
:10148000002803D10120FEF7F3FE1DE00120FEF746
:10149000EFFED24984B06846402203F0DDF80FBC6D
:1014A000FEF774FFAB4984B06846402203F0D4F8DD
:1014B0000FBCFEF76BFFC94984B06846402203F0B9
:1014C000CBF80FBCFEF7DCFFFFE72900C9B2200014
:1014D000C0B200F0B3F90DB0F0BDC148C149097800
:1014E0000170BF48C04909784170BD48BF490978BB
:1014F0008170BB48BE4909784171B948BD49097836
:101500008171B748BC490978C171B5488A490978E1
:10151000C170B348B94909780171B148B84909782F
:101520000172AF48B74909784172AD48B6490978A8
:10153000817270478C8100202DE9F04385B081468F
:101540008846B24C08274D4646462078002800F0D1
:10155000DC802000441C00782E2800F0B780302862
:1015600000F0A480312811D032281FD033282DD08C
:1015700034283BD0352849D0362857D0372865D075
:10158000382873D0392800F08180AFE003960295A7
:10159000FFB201979E4984B06846142203F05CF8BC
:1015A0000FBCFFF71BFA40190500A6E00396029551
:1015B000FFB20197974984B06846142203F04CF8B3
:1015C0000FBCFFF70BFA4019050096E00396029551
:1015D000FFB20197904984B06846142203F03CF8AA
:1015E0000FBCFFF7FBF94019050086E00396029552
:1015F000FFB20197894984B06846142203F02CF8A1
:101600000FBCFFF7EBF94019050076E00396029551
:10161000FFB20197824984B06846142203F01CF897
:101620000FBCFFF7DBF94019050066E00396029551
:10163000FFB201977B4984B06846142203F00CF88E
:101640000FBCFFF7CBF94019050056E00396029551
:10165000FFB20197744984B06846142202F0FCFF7F
:101660000FBCFFF7BBF94019050046E00396029551
:10167000FFB201976D4984B06846142202F0ECFF76
:101680000FBCFFF7ABF94019050036E00396029551
:10169000FFB20197664984B06846142202F0DCFF6D
:1016A0000FBCFFF79BF94019050026E00396029551
:1016B000FFB201975F4984B06846142202F0CCFF64
:1016C0000FBCFFF78BF94019050016E00396029551
:1016D000FFB20197584984B06846142202F0BCFF5B
:1016E0000FBCFFF77BF94019050006E0FFB20A2F97
:1016F00003D2FFB2042F00D37F1CFFB20A2F04D203
:10170000FFB2042F01D37F1E1FE705B0BDE8F083B1
:10171000B4820020B5820020886B00203482002033
:1017200080100020003100200032002040320020D4
:10173000F481002000520020906B002080320020B5
:1017400040310020C0320020C0310020C0300020D5
:10175000405000204054002080540020802200206F
:10176000C026002040400020C0420020C05300207E
:10177000802D0020C02D0020404B0020804B0020F9
:10178000002E0020002C0020402C0020802C002067
:10179000C02C00200030002040490020804900205B
:1017A000C02F00204030002040470020804700200C
:1017B00040440020003600204037002080370020C1
:1017C000C03300200035002040350020803100204B
:1017D000801E0020C02100201C8200200033002039
:1017E00078810020406B0020586B0020606B002047
:1017F000686B0020786B0020806B0020986B0020C5
:10180000506B0020486B0020706B00201CFE000015
:1018100064640020786400208C640020A0640020B0
:10182000B4640020C8640020DC640020F064002060
:1018300004650020186500202C65002030B58DB0AF
:1018400004000D002948294991F8351080F8371017
:10185000264880F83550E4B2032C10D0C0F0FE8743
:10186000052C00F08485C0F08887072C00F0EA86FC
:10187000C0F05082082C00F0238500F0EFBFEDB2DD
:10188000102D16D11948002180F83510DFF8300EE0
:1018900090F838004021924A01FB002010F14001ED
:1018A00084B06846402202F0D7FE0FBCFFF701F873
:1018B00096E0DFF8100E0078022819D3DFF8040E46
:1018C00000780A2814D2DFF8FC0D00784021854A00
:1018D00001FB0020B0F1800184B06846402202F094
:1018E000BBFE0FBCFEF7CCFD0BE000BFB46B0020CD
:1018F0007C4984B06846402202F0AEFE0FBCFEF781
:10190000BFFDDFF8C00D0079022816D3DFF8B40D53
:1019100000790A2811D2DFF8AC0D00794021864AFF
:1019200001FB0020B0F1800184B06846402202F043
:1019300093FE0FBCFEF7A4FD08E07F4984B0684623
:10194000402202F089FE0FBCFEF79AFDDFF8740D0D
:10195000C079022816D3DFF86C0DC0790A2811D29D
:10196000DFF8600DC0794021744A01FB0020B0F11E
:10197000800184B06846402202F06EFE0FBCFEF784
:101980007FFD08E06D4984B06846402202F064FEA5
:101990000FBCFEF775FDDFF82C0DC078022816D3BA
:1019A000DFF8200DC0780A2811D2DFF8180DC078B2
:1019B0004021634A01FB0020B0F1800184B06846F9
:1019C000402202F049FE0FBCFEF75AFD08E05C49D8
:1019D00084B06846402202F03FFE0FBCFEF750FD87
:1019E000EDB2002D07D0022D00F0DE8051D3032D83
:1019F00000F049818CE1DFF8141E84B06846402273
:101A000002F02AFE0FBCFEF72AFDDFF8041E84B0A8
:101A10006846402202F020FE0FBCFEF720FDDFF8F2
:101A2000A00C90F8380040212D4A01FB002010F155
:101A3000400184B06846402202F00EFE0FBCFEF763
:101A40001FFDDFF81C0E4068DFF8181E0860DFF885
:101A5000180E03210170DFF8100E0078DFF80C1E5D
:101A6000405CDFF80C1E0870DFF8FC0D0078DFF832
:101A7000FC1D405C4021DFF8EC2D126801FB0021C9
:101A800084B06846402202F0E7FD0FBCFEF7F8FC88
:101A90003EE1134984B06846402202F0DDFD0FBCF0
:101AA000FEF7EEFCDFF81C0C007903281CD3DFF8EE
:101AB000140C00790A2817D2DFF8080C00794021AD
:101AC000DFF8482D01FB0020B0F1C00184B068466A
:101AD000402202F0C1FD0FBCFEF7D2FC0EE000BFB9
:101AE0000000002040380020DFF8201D84B0684648
:101AF000402202F0B1FD0FBCFEF7B1FCDFF8C40BD1
:101B0000C07903281ED3DFF8BC0BC0790A2819D28C
:101B1000DFF8B00BC0794021DFF8F42C01FB002086
:101B2000B0F1C00184B06846402202F095FD0FBCC0
:101B3000FEF7A6FC10E000BF403E0020403C002025
:101B4000403A0020DFF8C81C84B06846402202F00A
:101B500083FD0FBCFEF783FCDFF8040D4068DFF85F
:101B6000041D0860DFF8000D03210170DFF8F80C98
:101B70000078DFF8F81C405CDFF8F41C0870DFF830
:101B8000E80C0078DFF8E41C405C4021DFF8D42C3E
:101B9000126801FB002184B06846402202F05CFD1F
:101BA0000FBCFEF76DFCB3E0DFF8601C84B0684644
:101BB000402202F051FD0FBCFEF751FCDFF8501C33
:101BC00084B06846402202F047FD0FBCFEF747FC98
:101BD000DFF8C01D84B06846402202F03DFD0FBC16
:101BE000FEF74EFCDFF88C1C84B06846402202F001
:101BF00033FD0FBCFEF744FCDFF87C0C4068DFF8D7
:101C0000641C0860DFF8600C04210170DFF8880DA7
:101C1000C07DDFF8541C0978DFF8502C8854DFF8B9
:101C2000501C0870DFF8400C0078DFF8401C405C66
:101C30004021DFF8302C126801FB002184B0684697
:101C4000402202F009FD0FBCFEF71AFCDFF8180C69
:101C50000078DFF8181C405C4021DFF8082C12687F
:101C600001FB002090F82D004021DFF8F82B1268CE
:101C700001FB002184B06846402202F0EDFC0FBC5D
:101C8000FEF7FEFB44E0DFF8841B84B06846402288
:101C900002F0E2FC0FBCFEF7E2FBDFF8741B84B03D
:101CA0006846402202F0D8FC0FBCFEF7D8FBDFF8F4
:101CB000E41C84B06846402202F0CEFC0FBCFEF764
:101CC000DFFBDFF89C0B4068DFF8981B0860DFF84B
:101CD000980B03210170DFF8900B0078DFF88C1B64
:101CE000405CDFF88C1B0870DFF87C0B0078DFF8B5
:101CF0007C1B405C4021DFF86C2B126801FB00214B
:101D000084B06846402202F0A7FC0FBCFEF7B8FB87
:101D100000F0A4BDEDB2002D13D0022D00F07481AF
:101D2000C0F01B81042D00F01D82C0F0C481062D7F
:101D300000F0B580C0F0BA80082D00F06A8257D359
:101D4000BDE2DFF8580C4068DFF8181B0860DFF8C8
:101D5000180B00210170DFF8100B0078DFF80C1B66
:101D6000405CDFF80C1B087001F0AEFBDFF8F81ADE
:101D70000978DFF8F82A895C4022DFF8E83A1B6826
:101D800002FB013191F82C1088421CD1DFF8D80AEF
:101D90000078DFF8D81A405C4021DFF8C82A1268C2
:101DA00001FB002090F82D004021DFF8B82A1268CE
:101DB00001FB002184B06846402202F04DFC0FBCBC
:101DC000FEF75EFB13E0DFF8A00A0078DFF89C1A4C
:101DD000405C4021DFF88C2A126801FB002184B0AE
:101DE0006846402202F038FC0FBCFEF749FB66E271
:101DF000DFF8AC0B4068DFF86C1A0860DFF8680A9F
:101E000009210170DFF8600A0078DFF8601A405C91
:101E1000DFF85C1A087001F057FBDFF84C1A0978FC
:101E2000DFF8482A895C4022DFF8383A1B6802FB59
:101E3000013191F82C1088421CD1DFF82C0A00786F
:101E4000DFF8281A405C4021DFF8182A126801FBED
:101E5000002090F82D004021DFF8082A126801FBCD
:101E6000002184B06846402202F0F6FB0FBCFEF76A
:101E700007FB13E0DFF8F0090078DFF8F019405CA9
:101E80004021DFF8E029126801FB002184B0684698
:101E9000402202F0E1FB0FBCFEF7F2FA0FE2DFF89E
:101EA000040C4068DFF8BC19086008E2DFF8F40BA6
:101EB0004068DFF8B0190860DFF8AC09082101704C
:101EC000DFF8A4090078DFF8A419405CDFF8A01956
:101ED000087001F0F9FADFF890190978DFF88C2919
:101EE000895C4022DFF87C391B6802FB013191F8E4
:101EF0002C1088421CD1DFF870090078DFF86C19CB
:101F0000405C4021DFF85C29126801FB002090F85A
:101F10002D004021DFF84C29126801FB002184B01C
:101F20006846402202F098FB0FBCFEF7A9FA13E0C6
:101F3000DFF834090078DFF83419405C4021DFF81D
:101F40002429126801FB002184B06846402202F077
:101F500083FB0FBCFEF794FAB1E1DFF84C0B40684D
:101F6000DFF800190860DFF8000901210170DFF8CF
:101F7000F8080078DFF8F418405CDFF8F41808700F
:101F800001F0A2FADFF8E0180978DFF8E028895CB0
:101F90004022DFF8D0381B6802FB013191F82C1089
:101FA00088421CD1DFF8C0080078DFF8C018405C18
:101FB0004021DFF8B028126801FB002090F82D00C6
:101FC0004021DFF8A028126801FB002184B0684698
:101FD000402202F041FB0FBCFEF752FA13E0DFF89B
:101FE00088080078DFF88418405C4021DFF8742806
:101FF000126801FB002184B06846402202F02CFBED
:102000000FBCFEF73DFA5AE1DFF8A00A4068DFF89E
:1020100054180860DFF8500802210170DFF8480802
:102020000078DFF84818405CDFF84418087001F0C9
:102030004BFADFF834180978DFF83028895C402241
:10204000DFF820381B6802FB013191F82C10884220
:102050001CD1DFF814080078DFF81018405C40212C
:10206000DFF80028126801FB002090F82D004021C5
:10207000DFF8F027126801FB002184B06846402297
:1020800002F0EAFA0FBCFEF7FBF913E0DFF8D8071D
:102090000078DFF8D817405C4021DFF8C8271268C5
:1020A00001FB002184B06846402202F0D5FA0FBC43
:1020B000FEF7E6F903E1DFF8F8094068DFF8A41756
:1020C0000860DFF8A40705210170DFF89C0700789D
:1020D000DFF89817405CDFF89817087001F0F4F902
:1020E000DFF884170978DFF88427895C4022DFF85D
:1020F00074371B6802FB013191F82C1088421CD107
:10210000DFF864070078DFF86417405C4021DFF8EF
:102110005427126801FB002090F82D004021DFF8C1
:102120004427126801FB002184B06846402202F077
:1021300093FA0FBCFEF7A4F913E0DFF82C07007840
:10214000DFF82817405C4021DFF81827126801FBF0
:10215000002184B06846402202F07EFA0FBCFEF7F0
:102160008FF9ACE0DFF84C094068DFF8F81608603A
:10217000DFF8F40606210170DFF8EC060078DFF8DE
:10218000EC16405CDFF8E816087001F09DF9DFF806
:10219000D8160978DFF8D426895C4022DFF8C436E7
:1021A0001B6802FB013191F82C1088421CD1DFF82A
:1021B000B8060078DFF8B416405C4021DFF8A426AA
:1021C000126801FB002090F82D004021DFF89426D2
:1021D000126801FB002184B06846402202F03CFAFC
:1021E0000FBCFEF74DF913E0DFF87C060078DFF84E
:1021F0007C16405C4021DFF86C26126801FB002150
:1022000084B06846402202F027FA0FBCFEF738F986
:1022100055E0DFF8A4084068DFF848160860DFF8EA
:1022200048060A210170DFF840060078DFF83C1606
:10223000405CDFF83C16087001F046F9DFF828161C
:102240000978DFF82826895C4022DFF818361B68F9
:1022500002FB013191F82C1088421CD1DFF80806EE
:102260000078DFF80816405C4021DFF8F825126896
:1022700001FB002090F82D004021DFF8E8251268CE
:1022800001FB002184B06846402202F0E5F90FBC52
:10229000FEF7F6F813E0DFF8D0050078DFF8CC158C
:1022A000405C4021DFF8BC25126801FB002184B0AE
:1022B0006846402202F0D0F90FBCFEF7E1F8CDE20B
:1022C000DFF8F8074068DFF89C150860DFF898052C
:1022D00007210170DFF890050078DFF89015405C69
:1022E000DFF88C15087001F0EFF8DFF87C1509783D
:1022F000DFF87825895C4022DFF868351B6802FB2F
:10230000013191F82C1088421CD1DFF85C0500786F
:10231000DFF85815405C4021DFF84825126801FBC2
:10232000002090F82D004021DFF83825126801FBCD
:10233000002184B06846402202F08EF90FBCFEF7FF
:102340009FF813E0DFF820050078DFF82015405CE7
:102350004021DFF81025126801FB002184B0684697
:10236000402202F079F90FBCFEF78AF876E2D448F1
:1023700090F82D00E12814D3D14890F82D00E338CF
:10238000022190FBF1F04021DFF8342701FB00210E
:1023900084B06846402202F05FF90FBCFEF770F887
:1023A0001EE0C74890F82D00E0280AD1DFF8141786
:1023B00084B06846402202F04FF90FBCFEF760F887
:1023C0000EE0BF4890F82D00FE2809D1DFF8F8167E
:1023D00084B06846402202F03FF90FBCFEF750F887
:1023E000B74890F82E00E12814D3B54890F82E0095
:1023F000E338022190FBF1F04021DFF8D02601FB09
:10240000002184B06846402202F026F90FBCFEF796
:1024100037F81EE0AA4890F82E00E0280AD1DFF82D
:10242000B01684B06846402202F016F90FBCFEF7E1
:1024300027F80EE0A24890F82E00FE2809D1DFF818
:10244000941684B06846402202F006F90FBCFEF7ED
:1024500017F89B4890F8230000060AD5DFF8781695
:1024600084B06846402202F0F7F80FBCFEF708F887
:102470005CE0934890F82400112816D033284BD004
:1024800055283ED0662831D0882824D0992817D0E6
:10249000CC284BD1DFF8241C84B06846402202F0DF
:1024A000DBF80FBCFDF7ECFF40E0DFF8141C84B054
:1024B0006846402202F0D0F80FBCFDF7E1FF35E09E
:1024C000DFF8001C84B06846402202F0C5F80FBC5B
:1024D000FDF7D6FF2AE0DFF8F01B84B06846402203
:1024E00002F0BAF80FBCFDF7CBFF1FE0DFF8DC1BF2
:1024F00084B06846402202F0AFF80FBCFDF7C0FF81
:1025000014E0DFF8CC1B84B06846402202F0A4F847
:102510000FBCFDF7B5FF09E0DFF8B81B84B06846D3
:10252000402202F099F80FBCFDF7AAFF644890F82A
:10253000230040060AD5DFF8A01B84B0684640227D
:1025400002F08AF80FBCFDF79BFF60E05C4890F852
:10255000220000280ED011280DD0222816D03328B2
:102560001FD0442828D0552831D066283AD0772863
:1025700043D04CE04BE0DFF8641B84B06846402257
:1025800002F06AF80FBCFDF77BFF40E0DFF8501B5C
:1025900084B06846402202F05FF80FBCFDF770FF80
:1025A00035E0DFF8401B84B06846402202F054F862
:1025B0000FBCFDF765FF2AE0DFF8441C84B06846D5
:1025C000402202F049F80FBCFDF75AFF1FE0DFF888
:1025D000341C84B06846402202F03EF80FBCFDF780
:1025E0004FFF14E0DFF8201C84B06846402202F060
:1025F00033F80FBCFDF744FF09E0DFF8101C84B08E
:102600006846402202F028F80FBCFDF739FF2C483D
:1026100090F82A0004280AD1DFF8F41B84B0684639
:10262000402202F019F80FBCFDF72AFF09E0DFF89D
:10263000E41B84B06846402202F00EF80FBCFDF7A0
:102640001FFF0BE11F480078022815D31D480078B2
:102650000A2811D21B4800784021DFF8BC2B01FB6F
:102660000020B0F1800184B06846402201F0F4FF00
:102670000FBCFDF705FF09E0DFF89C1B84B068463E
:10268000402201F0E9FF0FBCFDF7FAFE0D4800798A
:10269000022819D30B4800790A2815D20948007975
:1026A0004021DFF8782B01FB0020B0F1800184B0DD
:1026B0006846402201F0D0FF0FBCFDF7E1FE0DE0BF
:1026C000387F0020F4810020DFF8501B84B068467A
:1026D000402201F0C1FF0FBCFDF7D2FEDFF8400B36
:1026E000C079022817D3DFF8380BC0790A2812D234
:1026F000DFF82C0BC0794021DFF8282B01FB0020EC
:10270000B0F1800184B06846402201F0A5FF0FBC03
:10271000FDF7B6FE09E0DFF80C1B84B068464022E6
:1027200001F09AFF0FBCFDF7ABFEDFF8F40AC078AA
:10273000022817D3DFF8E80AC0780A2812D2DFF897
:10274000E00AC0784021DFF8E02A01FB0020B0F168
:10275000800184B06846402201F07EFF0FBCFDF787
:102760008FFE09E0DFF8C01A84B06846402201F00D
:1027700073FF0FBCFDF784FE70E0874890F83500CA
:1027800002286BD1DFF8A40A407800280AD0DFF8CD
:10279000A01A84B06846402201F05EFF0FBCFDF72E
:1027A0006FFE09E0DFF8881A84B06846402201F025
:1027B00053FF0FBCFDF753FEDFF8700A8078002846
:1027C0000AD0DFF8701A84B06846402201F044FF56
:1027D0000FBCFDF755FE09E0DFF8581A84B06846D3
:1027E000402201F039FF0FBCFDF739FEDFF83C0A4B
:1027F000C07800280ED0DFF8401A84B06846402226
:1028000001F02AFF0FBCFDF73BFE0DE0404C00201D
:10281000404E0020DFF8201A84B06846402201F0C4
:102820001BFF0FBCFDF71BFEDFF8000A0079002834
:102830000AD0DFF8EC1C84B06846402201F00CFF9F
:102840000FBCFDF71DFE09E0DFF8D41C84B068461C
:10285000402201F001FF0FBCFDF701FE0DB030BDBD
:10286000906B002034820020B88200207881002004
:10287000B682002040520020986B002070B58CB0CA
:1028800004000D001600F6B2012E36D1DFF8280C38
:102890000078DFF8281CDFF8282C12784254DFF883
:1028A000200C00784021DFF81C2C126801FB00216D
:1028B00084B06846402201F0CFFE0FBCFDF7E0FD7A
:1028C000DFF8F40B0078DFF8F41B405C4021DFF800
:1028D000F42B126801FB002090F82D004021DFF856
:1028E000E42B126801FB002184B06846402201F00D
:1028F000B3FE0FBCFDF7C4FD49E0F6B2002E44D193
:10290000DFF8B40B0078DFF8B41BDFF8B42B1278D3
:102910004254DFF8A40B0078DFF8A01B405C402194
:10292000DFF8A02B126801FB002090F82D00402159
:10293000DFF8902B126801FB002184B0684640222A
:1029400001F08AFE0FBCFDF79BFD1348DFF8701BFA
:102950000978C175DFF8CC0B4078022808D10E4801
:10296000C07DC000D0F1F500C0B200F0F5FE07E078
:102970000948C07D0001D0F1D500C0B200F0ECFEE6
:102980000548C07D002802D101E0F6B2032E0CB04C
:1029900070BD000000000020B46B0020406B0020E0
:1029A000486B002070B58CB004000D001600F6B224
:1029B000012E1AD1DFF8000B0078DFF8001BDFF8DA
:1029C000002B12784254DFF8F80A00784021DFF833
:1029D000F42A126801FB002184B06846402201F00D
:1029E0003BFE0FBCFDF74CFD5AE0F6B2002E55D170
:1029F000DFF8C40A0078DFF8C41ADFF8C42A1278B6
:102A00004254DFF8BC0A00784021DFF8B82A126887
:102A100001FB002090F82C00DFF80C1B0870DFF899
:102A2000080B0078002805D002281DD007D3032802
:102A30002FD035E0DFF8AC0C0121017430E0DFF875
:102A4000A40C90F83400032805D1DFF8980C90F816
:102A50003500002803D000210320FEF7EFFEDFF849
:102A6000840C002141741BE0DFF8780C90F83400EE
:102A7000032805D1DFF86C0C90F83500012803D04D
:102A800001210320FEF7DAFEDFF8580C0121417422
:102A900006E002210320FEF7D1FE01E0F6B2032E8C
:102AA0000CB070BD506B0020586B0020606B002094
:102AB000686B0020786B0020706B0020806B00201A
:102AC0008022002000260020C02500204026002073
:102AD000C029002080290020404000202DE9F0413D
:102AE0008CB004000D001600F6B2012E49D1DFF8BB
:102AF000C8090078DFF8C419DFF8C42912784254F5
:102B000000F0E2FCDFF8B0190978DFF8B029895C41
:102B10004022DFF8B0391B6802FB013191F82C101C
:102B200088421CD1DFF890090078DFF89019405CEA
:102B30004021DFF89029126801FB002090F82D0059
:102B40004021DFF88029126801FB002184B068462B
:102B5000402201F081FD0FBCFDF792FCAAE2DFF8F4
:102B6000600900784021DFF85C29126801FB002130
:102B700084B06846402201F06FFD0FBCFDF780FC79
:102B800098E2F6B2002E40F09382DFF82C0900782C
:102B9000DFF82819DFF8282912784254DFF82009D5
:102BA00000784021DFF81C29126801FB002090F812
:102BB0002C00DFF874190870DFF8280B90F8340047
:102BC000062803D0082800F00B8273E2DFF8140B0C
:102BD00090F83500002813D0012800F0C1800228A9
:102BE00000F00181032800F05A81042800F0708170
:102BF000052870D0072829D0082800F0AC81EEE124
:102C0000DFF8BC080078032807D01ED305280ED0B3
:102C100008D3072815D00FD317E002210620FDF7AF
:102C20008FFF12E001210620FDF78AFF0DE005214C
:102C30000620FDF785FF08E007210620FDF780FF4D
:102C400003E006210620FDF77BFFC8E1DFF87008EE
:102C50000078002801283DD8DFF8880ADFF86018DE
:102C6000097880F82410DFF8580800784021DFF850
:102C70005428126801FB002090F82D004021DFF855
:102C80004428126801FB002184B06846402201F00C
:102C9000E3FC0FBCFDF7F4FBDFF8480A90F82400D2
:102CA000002802D001280BD014E0DFF83C1A84B0D1
:102CB0006846402201F0D0FC0FBCFDF7E1FB09E0C3
:102CC000DFF8281A84B06846402201F0C5FC0FBC2A
:102CD000FDF7D6FB83E1DFF8E8070078002801283C
:102CE0003DD8DFF8000ADFF8D817097880F82310FC
:102CF000DFF8CC0700784021DFF8C827126801FB15
:102D0000002090F82D004021DFF8B827126801FB61
:102D1000002184B06846402201F09EFC0FBCFDF704
:102D2000AFFBDFF8C00990F82300002802D001288B
:102D30000BD014E0DFF8B81984B06846402201F0E7
:102D40008BFC0FBCFDF79CFB09E0DFF8A81984B0F1
:102D50006846402201F080FC0FBCFDF791FB3EE18C
:102D6000DFF85C070078002801283BD8DFF87409F9
:102D7000DFF84C1709784177DFF8440700784021E5
:102D8000DFF84027126801FB002090F82D00402159
:102D9000DFF83027126801FB002184B0684640222A
:102DA00001F05AFC0FBCFDF76BFBDFF83809407FE0
:102DB000002802D001280BD014E0DFF83C1984B0C1
:102DC0006846402201F048FC0FBCFDF759FB09E0C2
:102DD000DFF8281984B06846402201F03DFC0FBCA2
:102DE000FDF74EFBFBE0DFF8D8060078002803284B
:102DF00054D8DFF8F008DFF8C8160978C177DFF893
:102E0000C00600784021DFF8BC26126801FB0020D4
:102E100090F82D004021DFF8AC26126801FB00215C
:102E200084B06846402201F017FC0FBCFDF728FB78
:102E3000DFF8B008C07F002805D0022819D00DD3D4
:102E4000032821D02AE0DFF8B81884B06846402271
:102E500001F002FC0FBCFDF713FB1FE0DFF8A41824
:102E600084B06846402201F0F7FB0FBCFDF708FB79
:102E700014E0DFF8941884B06846402201F0ECFBBF
:102E80000FBCFDF7FDFA09E0DFF8801884B0684652
:102E9000402201F0E1FB0FBCFDF7F2FA9FE0DFF802
:102EA00020060078032804D011D305280BD005D3C1
:102EB0000DE004210620FDF743FE08E00021082074
:102EC000FDF73EFE03E008210620FDF739FE86E00F
:102ED000DFF8EC050078401E01283BD8DFF8040835
:102EE000DFF8441609788177DFF8D40500784021AF
:102EF000DFF8D025126801FB002090F82D0040215A
:102F0000DFF8C025126801FB002184B0684640222A
:102F100001F0A2FB0FBCFDF7B3FADFF8C807807F12
:102F2000002802D001280BD014E0DFF8E41784B0A9
:102F30006846402201F090FB0FBCFDF7A1FA09E0C2
:102F4000DFF8D01784B06846402201F085FB0FBC43
:102F5000FDF796FA43E0DFF868050078401E012887
:102F60003DD8DFF88007DFF8C015097880F8311008
:102F7000DFF84C0500784021DFF84825126801FB96
:102F8000002090F82D004021DFF83825126801FB61
:102F9000002184B06846402201F05EFB0FBCFDF7C3
:102FA0006FFADFF8400790F83100002802D00128BE
:102FB0000BD014E0DFF8601784B06846402201F0BF
:102FC0004BFB0FBCFDF75CFA09E0DFF8501784B04B
:102FD0006846402201F040FB0FBCFDF751FA69E062
:102FE000DFF8DC040078401E092804D90A3818D01C
:102FF000401E23D045E0DFF82807807906280FD24D
:10300000DFF81C078079DFF81817DFF8B42412788E
:103010004254DFF80C078079401CDFF804178871F0
:103020002FE0DFF8FC068079002806D0DFF8F006F4
:103030008079401EDFF8E816887122E0DFF8E006AC
:10304000002181715FF0010800200700FFB2062F08
:103050000ED2FFB2DFF8C806385C082801D0002085
:103060008046FFB2DFF8B806002139547F1CEDE737
:103070005FFA88F8B8F1000F03D000210620FDF7B1
:103080005FFD0027042000F09EFBBFB2DFF8900632
:103090008079142101FB0077BFB2390AC9B224201C
:1030A00000F087FB3900C9B2252000F082FB01E067
:1030B000F6B2032E0CB0BDE8F08100008040002085
:1030C00000410020C041002000420020804100203B
:1030D000C040002040410020004400204042002029
:1030E00080420020C042002070B504000D00160090
:1030F000F6B2012E05D1DFF82C064FF4FA610180FB
:103100007DE0F6B2002E61D1DFF8180600210180C3
:10311000DFF8D00590F83400022856D0032842D0BA
:10312000062802D008284BD069E0DFF8B80590F8EF
:103130003500002832D0022809D008D304282DD029
:1031400014D3062803D002D3082827D02AD2DFF8C8
:10315000940590F83500062803D108210420FDF7D6
:10316000B8F800210620FDF7EBFC1BE00821032046
:10317000FDF7AFF800210020FDF7ABF8DFF864059C
:10318000022180F83410DFF85C05002180F835104A
:10319000DFF894054068CB49086003E0032106206E
:1031A000FDF7CEFC2BE0DFF83C0590F83500022857
:1031B00005D1DFF83005417C0320FEF73FFB1EE020
:1031C00003210620FDF7BCFC19E018E0F6B2022E40
:1031D00013D1DFF850050088012810D1DFF844052D
:1031E00000210180DFF8FC0490F83400022806D1A9
:1031F00003210620FDF7A4FC01E0F6B2032E70BD0A
:10320000004300204043002080430020C0430020B2
:1032100000540020C053002040380020403E0020D1
:10322000F4810020403C0020403A0020B48100207E
:1032300000510020C05000208050002030B58DB0DB
:10324000A0480068DFF8E0144968884213D1DFF82D
:10325000DC040078401E042827D8DFF8D0040021C1
:103260000170DFF8CC0400210170DFF8C8040021F0
:10327000017000201DE193480068DFF8BC14496824
:10328000884212D1DFF8A4040078032804D1DFF8C3
:103290009C040121017008E0DFF890040078042804
:1032A00003D1DFF8880402210170DFF88004007880
:1032B000012856D0022815D0032800F09180042858
:1032C00000F09480052800F0AC80062800F0B7805C
:1032D000072800F0C480082800F0D180FE2800F004
:1032E000D280D9E0764800784021764A126801FB06
:1032F000002090F826007249087000F0E5F8704947
:10330000097840226F4B1B6802FB013191F82C10A9
:10331000884216D16A48007840216A4A126801FB47
:10332000002090F82D004021664A126801FB002120
:1033300084B06846402201F08FF90FBCFDF7A0F879
:103340000EE05F48007840215E4A126801FB0021D0
:1033500084B06846402201F07FF90FBCFDF790F879
:103360009AE0574800784021564A126801FB002035
:1033700090F824005249087000F0A6F850490978E6
:103380004022504B1B6802FB013191F82C108842FF
:1033900016D14B48007840214A4A126801FB0020B0
:1033A00090F82D004021474A126801FB002184B0AB
:1033B0006846402201F050F90FBCFDF761F80EE0BD
:1033C0003F48007840213F4A126801FB002184B049
:1033D0006846402201F040F90FBCFDF751F85BE070
:1033E000002200210020FFF77FFE55E034480078DE
:1033F0004021344A126801FB002090F82700304930
:1034000008702F48007840212E4A126801FB0021E5
:1034100084B06846402201F01FF90FBCFDF730F878
:103420003AE00022264801780020254B1B784024F2
:10343000244D2D6804FB03535B6898472CE0A94892
:10344000807812280AD0A74880780B2803D1A54895
:103450001221417002E0122001F0BDFA1CE0A148E7
:10346000807803280AD09F4880780B2803D19D4894
:103470000321417002E0032001F0ADFA0CE00B20C3
:1034800001F0A9FA08E0DFF8AC020178DFF8A00249
:103490000078FDF755FBFFE7DFF89002002101708F
:1034A000DFF88C0200210170DFF888020021017032
:1034B00000200DB030BD0000B882002078810020CF
:1034C000B682002034820020864890F83400062816
:1034D00024D1844890F83500012812D0022813D056
:1034E000042814D0052808D0072802D0082811D0B5
:1034F00014E07C4890F8240011E07A4890F823000A
:103500000DE07848407F0AE07648C07F07E07548C4
:10351000807F04E0734890F8310000E0FE2070479F
:10352000405000200C820020B7820020F8B5040033
:103530000D0016006B48807812285FD1694890F81A
:10354000340006285AD0674890F83400082855D02F
:10355000DFF8E80100780B2807D04CD30D2820D0E5
:1035600011D30F2839D02AD345E0744800210170C7
:1035700073480021017073480021017000217248D6
:1035800002F03CF83AE06D48002101706C480021DF
:1035900001706C480021017001216B4802F02EF887
:1035A0002CE06648002101706548002101706548E3
:1035B000002101700221644802F020F81EE05F48FB
:1035C000002101705E48002101705E4800210170F9
:1035D00003215D4802F012F810E058480021017004
:1035E00057480021017057480021017004215648B6
:1035F00002F004F802E051480021017000200700A9
:10360000FFB240205149096800FB0710006B4FF6DC
:10361000FF71884229D0FFB240204C49096800FB65
:103620000710006BA4B2A0421DD2A4B2FFB240208A
:103630004649096800FB0710806B844213D2FFB231
:1036400040204249096800FB0710406BADB2A84218
:1036500009D2ADB2FFB240203C49096800FB071017
:10366000C06B854201D37F1CCAE7FFB240203749B7
:10367000096800FB0710006B4FF6FF71884201D10B
:1036800000202DE0FFB240203049096800FB071000
:10369000806A2F490870FFB240202C49096800FB5E
:1036A000071090F82C002B490870F6B2012E07D0B5
:1036B000F6B2002E04D0F6B2022E01D0F6B2032EDE
:1036C0003200D2B23900C9B20020FFB24023DFF885
:1036D0007CC0DCF800C003FB07C35B68984701208F
:1036E000F2BD0000B46B002040470020804700205E
:1036F0004049002080490020404B0020804B0020A2
:10370000002C0020402C0020802C0020C02C002009
:103710004037002080370020003500204035002051
:103720001C82002066820020886B0020B38200206B
:10373000B1820020B2820020906B0020AF82002076
:10374000AA820020AB820020006800403482002062
:10375000B6820020B782002010B50400012000F0DE
:1037600032F82100C9B2112000F023F810BD50F842
:10377000041B61B150F8042BD30744BFA9F1010326
:103780009A18002342F8043B091FFAD1EFE770476B
:1037900080B5002000F017F800F06DFAC82000F0A6
:1037A00087FF01BD10B504002000C0B200F0E0FBAF
:1037B00010BD38B504000D002900C9B22000C0B208
:1037C00000F0C9FB31BD10B504002100C9B2FF20D3
:1037D00000F0C1FB10BD70B50400002500260020DC
:1037E000FFF7F1FF00200500EDB2E4B2A54212D2CE
:1037F000FF210220FFF7DDFF002006000220FFF777
:10380000D1FF400605D4761C4FF6FF70B6B2864253
:10381000F4D36D1CE8E770BDF8B504000D00160088
:103820000027280110F0300050EA841016F00F0134
:10383000084307003900C9B2C320FFF7BAFFF1BD42
:1038400001000020C9B20A00012A13D0022A0ED0BA
:10385000032A0FD00B2A0DD0202A0ED0522A0CD0CA
:10386000602A0AD0D82A08D0EB2A03D008E0022226
:10387000100005E00422100002E006221000FFE71D
:10388000C0B2704770B50400002600250420FFF781
:103890009AFFA07A421CD2B200210120FFF7BCFFA0
:1038A0000421C620FFF785FFD021C720FFF781FF45
:1038B0000021DA20FFF77DFF0021C820FFF779FF04
:1038C000617AC920FFF775FF2178CA20FFF771FFE1
:1038D00000200600A07AF6B2864209D2F6B230196C
:1038E0004178B6F13500C0B2FFF763FF761CF1E70F
:1038F0002078FFF7A5FF2843050055F00101C9B264
:10390000C420FFF756FFC420FFF74CFFC007FAD4CE
:1039100000200600607AF6B2864209D2B6F1300085
:10392000C0B2FFF73FFFF6B23119C872761CF1E75B
:10393000002070BD2DE9F84F04000D00160000278F
:103940005FF000085FF000095FF0000BA246042062
:10395000FFF739FFC120FFF725FF83461BF0FE016B
:10396000C120FFF726FF052200210120FFF754FFA9
:103970000421C620FFF71DFFD021C720FFF719FF44
:103980000B21CA20FFF715FF00200700BFB2B6B217
:10399000B7425FD2BFB27819010CC9B2CB20FFF792
:1039A00008FFBFB27819010AC9B2CC20FFF701FFA6
:1039B0007919C9B2CD20FFF7FCFEB6B2BFB217F13C
:1039C0000800864202DB0820814601E0F01B8146A8
:1039D0000021DA20FFF7EDFE0021C820FFF7E9FE05
:1039E0004946C9B2C920FFF7E4FEC020FFF7DAFE5E
:1039F00010F0F80050F00101C9B2C020FFF7D9FE65
:103A00000521C420FFF7D5FEC420FFF7CBFEC00779
:103A1000FAD4C020FFF7C6FE10F0F80050F0030102
:103A2000C9B2C020FFF7C5FE002080461FFA88F803
:103A30001FFA89F9C8450BD240463038C0B2FFF7AB
:103A4000B1FE8AF800001AF1010A18F10108EDE749
:103A500008379BE75946C9B2C120FFF7AAFEBDE867
:103A6000F18F2DE9F04186B0002400259F208DF8CC
:103A7000000003208DF8090000208DF80A0000A83E
:103A8000FFF700FF0400E4B2002C02D081480121BE
:103A900001709DF80B0006009DF80C0007009DF8D2
:103AA0000D0080467C4806707C4807707C4880F892
:103AB0000080F6B230001C2802D0C2280FD012E0DD
:103AC000784801210170FFB2702F07D15FFA88F8A2
:103AD000B8F1190F02D173480221017003E0714857
:103AE00003210170FFE7F6B21C2E02D0F6B2C22EFF
:103AF0000FD105208DF8000001208DF8090000206D
:103B00008DF80A0000A8FFF7BDFE04009DF80B0029
:103B10000500EDB2002D2CD1F6B21C2E02D0F6B26B
:103B2000C22E26D106208DF8000000208DF8090055
:103B300000208DF80A0000A8FFF7A4FE01208DF8F0
:103B4000000000208DF8090001208DF80A004020B7
:103B50008DF8010000A8FFF795FE04208DF8000005
:103B600000208DF8090000208DF80A0000A8FFF75A
:103B700089FE06B0BDE8F08110B504000420FFF70F
:103B800022FEC020FFF70EFE10F0F80054EA0001FC
:103B9000C9B2C020FFF70DFEE4B2002C09D0022C00
:103BA00015D00DD3042C20D018D3062C2BD023D322
:103BB00030E03D48032101703C48042101702FE0B2
:103BC00039480B21017039480521017028E0364839
:103BD0003B21017035480521017021E032486B21FD
:103BE00001703248052101701AE02F48BB21017095
:103BF0002E480521017013E02B48EB2101702B4862
:103C0000072101700CE02848ED21017027480C21A4
:103C1000017005E024480B21017024480521017042
:103C200010BD30B585B004000025E4B2002C09D0E9
:103C30001F48007800280ED11D4801210170B720CF
:103C4000050008E01A480078012804D1184800212E
:103C50000170E9200500EDB2002D0AD08DF800506A
:103C600000208DF8090000208DF80A0000A8FFF759
:103C700009FE05B030BD80B5FFF7F3FE09480078B6
:103C8000022802D10120FFF7CCFF0220FFF774FFCA
:103C900001BD000077820020748200207582002020
:103CA00076820020708200207282002073820020C1
:103CB000718200200EB400B582B003A9009100AB60
:103CC00002460121034878440A3002F017FF06BC7F
:103CD0005DF810FBC5C0000010B50400E4B2002C74
:103CE00004D00821554804F012F803E00821534895
:103CF00004F010F810BD10B50400E4B2002C04D09C
:103D000004214E4804F003F803E004214B4804F07A
:103D100001F810BD10B501240120FFF7ECFF0120D0
:103D2000FFF7DAFF0821454803F0E4FF002805D03B
:103D30000421424803F0DEFF002802D100200400E5
:103D400005E00020FFF7D7FF0020FFF7C5FF2000A8
:103D5000C0B210BD80B50020FFF7BEFF0020FFF706
:103D6000CAFF0120FFF7B8FF0120FFF7C4FF01BD24
:103D7000F8B5040080250026EDB2002D13D02000F8
:103D8000C0B2284203D00120FFF7B5FF02E00020B7
:103D9000FFF7B1FF0120FFF79FFF0020FFF79CFF17
:103DA000EDB26D08E8E70120FFF7A5FF0120FFF75E
:103DB00093FF00200700FFB2642F07D204211F48A1
:103DC00003F098FF002801D07F1CF4E704211B4872
:103DD00003F090FF06000020FFF77EFF3000C0B226
:103DE000F2BD70B50400002580260120FFF783FF97
:103DF000F6B2002E0FD00120FFF76EFF04210F480E
:103E000003F078FF012800D135430020FFF764FF5D
:103E1000F6B27608ECE7E4B2002C03D00020FFF7FE
:103E20006AFF02E00120FFF766FF0120FFF754FF61
:103E30000020FFF751FF2800C0B270BD0010014004
:103E400070B504000D00EDB2012D02D154F0010453
:103E500001E014F0FE04032006003000461EC0B24C
:103E600000280BD0FFF756FF0028F6D02000C0B284
:103E7000FFF77EFF0028F0D1012000E0002070BD98
:103E80002DE9F04104000D0016001F0003208046BC
:103E90004046B0F10108C0B2002816D00021200031
:103EA000C0B2FFF7CDFF0028F2D02800C0B2FFF764
:103EB0005FFF0128ECD03800471EC0B2002804D0B4
:103EC0003078FFF755FF761CF5E7FFF743FF5FFA01
:103ED00088F8B8F1000F01D1002000E00120BDE812
:103EE000F0812DE9F04104000D0016001F000320B1
:103EF00080464046B0F10108C0B200281FD0002122
:103F00002000C0B2FFF79CFF0028F2D02800C0B20A
:103F1000FFF72EFF0128ECD001212000C0B2FFF7EF
:103F20008FFF0028E5D03800471EC0B2002806D019
:103F30003800C0B2FFF755FF3070761CF3E7FFF78B
:103F400009FF5FFA88F8B8F1000F01D1002000E006
:103F50000120BDE8F08138B504000D008DF8005057
:103F6000012300AA2100C9B28A20FFF789FF31BDD1
:103F700010B582B00400012300AA2100C9B28A2032
:103F8000FFF7AFFF9DF8000016BDFFFF10B504005E
:103F90000420FFF718FCE4B2002C09D00020FFF742
:103FA00001FC50F00401C9B20020FFF702FC07E059
:103FB0000020FFF7F7FB10F0FB010020FFF7F9FBF3
:103FC00010BD70B50024002500260220FFF7FBFB82
:103FD0001020FFF7E7FB05000D20FFF7E3FB10F0D3
:103FE00003000600EDB2F6B2701912380400042086
:103FF000FFF7E9FBA4B2210AC9B20E20FFF7D9FBF3
:104000002100C9B20F20FFF7D4FB70BDC0B2DFF8AA
:104010000C2652F82020C9B2002904D0137853F09E
:104020000103137003E0137813F0FE03137070475D
:1040300010B4C0B2DFF8E42552F820200023C9B242
:10404000042902D10024230007E0C9B2062902D1C5
:104050000124230001E002242300147814F03F041B
:104060001470147854EA8314147010BC7047C0B2F2
:10407000DFF8A82552F8202002F20D02C0B2002875
:1040800000D1121DC9B20B091370704730B4C0B211
:10409000DFF8883553F82030002403F20A03C0B259
:1040A00000280BD01D7815F0C0052C0089B20D0A30
:1040B00025431D705B1C19705B1C0CE092B2150A45
:1040C0002C00240189B20D0A2C431C705B1C197052
:1040D0005B1C1A705B1C30BC7047C0B2DFF83C251B
:1040E00052F8202002F207020B0D1370521C0B0B2A
:1040F0001370521C0B091370C0B2002802D102F2D7
:104100000E0201E002F2060211F00F031370704775
:10411000F0B4049CC0B2DFF8045555F820500026D6
:104120006D1C92B2170A3E00360189B20F0A3E4357
:104130002E706D1C29706D1C2A706D1CA4B2270A8C
:104140003E0036019BB21F0A3E432E706D1C2B7041
:104150006D1C2C706D1CF0BC7047F0B4049D059C68
:10416000C0B2DFF8B86416EB001606F2240651F070
:10417000800737707280B380B5603473F0BC7047CD
:1041800010B4C0B200280FD0C0B2012802D0C0B213
:10419000022803D1DFF88844230002E0DFF88444DA
:1041A0002300187059709A7010BC704738B50024FD
:1041B000002500200400E4B2092C13D2E4B2002C44
:1041C00002D0601C050001E000200500E4B2DFF829
:1041D0004C04EDB2DFF8501411EB051140F8241037
:1041E000641CE8E700F019F800F009F800F030F876
:1041F0000821002000F051F800F052F931BD0020F4
:1042000000210800C0B2A02806D2C0B2DFF81814FE
:1042100000224254401CF5E77047002000221000A5
:10422000C0B2092813D2C0B2DFF8F02312EB00129B
:1042300002F22402110000220A7000224A800022A9
:104240008A8000228A60FF220A73401CE8E77047D8
:10425000002000221000C0B2022810D2C0B20322F7
:10426000DFF8B83302FB003202F2B4021100002280
:104270000A7000224A7000228A70401CEBE77047E7
:1042800080B50420FFF79FFA00210420FFF791FA80
:1042900000210620FFF78DFA01BD2DE9F843040047
:1042A0000D00002600275FF000080420FFF78BFABE
:1042B0002700EDB2FFB2BD4242D3FFB2DFF85C038C
:1042C00050F827008146FFB2DFF86003385C804673
:1042D000DFF85C038078032811D10E200600F6B2C7
:1042E000012E1BD3F6B216EB090010F8011C16EBD9
:1042F0000800401EC0B2FFF75CFA761EEFE7002010
:104300000600F6B2102E09D2F6B216F8091016EB16
:104310000800C0B2FFF74DFA761CF2E7FFB2002F9B
:104320000CD1F6B2172E09D2F6B216F8091016EB18
:104330000800C0B2FFF73DFA761CF2E77F1CB8E731
:10434000BDE8F1832DE9F84304000D0000260027A5
:104350005FF000080420FFF736FA2700EDB2FFB245
:10436000BD421BD3FFB2DFF8B40250F827008146EC
:10437000FFB2DFF8B802385C804607200600F6B2CC
:104380000A2E09D2F6B216F8091016EB0800C0B2D0
:10439000FFF70FFA761CF2E77F1CDFE7BDE8F18339
:1043A0002DE9F84304000D00E4B29C4810EB041022
:1043B00000F2240081460420FFF705FA80208046A1
:1043C00058F02008E4B2012C02D0E4B2022C02D151
:1043D00058F0040808E0B9F8020080B2000AC0B240
:1043E000002801D058F008084146C9B21020FFF754
:1043F000B2FDB9F80210C9B21120FFF7ACFD0020E0
:104400000600B9F80400402190FBF1F0F6B28642B4
:1044100018DA4022D9F80800F6B2402101FB060163
:104420008448FFF787FA00200700BFB2402F07D269
:10443000BFB28048395C1220FFF78DFD7F1CF4E786
:10444000761CDEE7EDB2FF2D28D0B9F80200EDB200
:104450002818A9F8020083208046E4B2012C02D07B
:10446000E4B2022C02D158F0040808E0B9F80200C6
:1044700080B2000AC0B2002801D058F008084146B6
:10448000C9B21020FFF767FDB9F80210C9B21120B8
:10449000FFF761FD7F211220FFF75DFDBDE8F1838D
:1044A00070B5002400250420FFF78DF900200400DA
:1044B000E4B2022C25D2E4B20320584900FB0410D8
:1044C00000F2B400060030780101C9B2E4B2600025
:1044D000001DC0B2FFF76DF970780500EDB2072D31
:1044E00000D16D1C2D01B07810F00F00054329009C
:1044F000C9B2E4B26000401DC0B2FFF75AF9641CB3
:10450000D6E770BDF8B50400002500260420FFF7AB
:104510005AF9E4B2012C02D0E4B2022C01D10120FC
:104520000500EDB203203D4900FB051000F2B40088
:10453000070038780101C9B2EDB26800001DC0B2B1
:10454000FFF737F978780600F6B2072E00D1761C0F
:104550003601B87810F00F0006433100C9B2EDB251
:104560006800401DC0B2FFF724F9F1BDC0B22B4B6B
:1045700053F820301A00137813F0CF031370C9B228
:10458000002903D0137853F01003137002F20C02C9
:10459000C0B2002800D1121D11707047C0B21F4B6D
:1045A00053F820301A00C9B2002904D0137853F010
:1045B0003003137003E0137813F0CF03137002F28B
:1045C0000C02C0B2002800D1121D11707047F8B55E
:1045D00004000D001600002783200700E4B2012C20
:1045E00002D0E4B2022C02D157F0040706E0ADB2CB
:1045F000280AC0B2002801D057F008073900C9B214
:104600001020FFF7A8FC2900C9B21120FFF7A3FC76
:104610003100C9B21220FFF79EFCF1BDDC7C002006
:10462000937D0020907D0020987D002004FE0000F6
:10463000B46B0020387E002062B38B0708D0521E76
:1046400011F8013B00F8013B00F024808B07F6D104
:10465000830740F0208000BF103A07D330B4B1E8A0
:104660003810103AA0E83810F9D230BC530724BFF4
:10467000B1E80810A0E8081044BF51F8043B40F826
:10468000043BD20724BF31F8022B20F8022B44BF91
:104690000B7803707047083A07D3B1E80810083A5E
:1046A00040F8043B40F804CBF7D25307E4E7FFFFA0
:1046B000034900220A60024909688142FBD370471E
:1046C0003882002080B500F009F800F007F800F00B
:1046D00005F800F003F800F001F801BD00BF00BFCD
:1046E00000BF00BF00BF00BF00BF00BF00BF00BFD2
:1046F00000BF704780B5DFF8880A0078002803D033
:10470000DFF87C0A00210170DFF8780A00780028C1
:104710002AD0DFF8700A00210170DFF8B00A0079B2
:104720003C280CD1DFF8A80A406C01281CD1DFF826
:10473000A00A00214164012003F0FEFB14E0DFF831
:104740008C0A0079342803D1002003F0F5FB0BE03C
:10475000DFF87C0A406C012806D1DFF8740A0021DA
:104760004164012003F0E8FBDFF8680A00780028C4
:1047700022D0DFF8600A00210170DFF8540A807847
:10478000032819D1DFF8480A90F83400092813D11A
:10479000DFF8440A007800280ED0DFF83C0A002138
:1047A0000170DFF82C0A90F83100002802D100F0E7
:1047B000FCFC01E000F0E8FCDFF8200A00780028AB
:1047C00003D0DFF8180A00210170DFF8140A00781E
:1047D000002803D0DFF8080A00210170DFF8040A7E
:1047E0000078002827D0DFF8FC0900210170DFF8ED
:1047F000DC09407801280AD1DFF8D009C078C82147
:10480000484310F5FA6080B203F049FF13E0DFF887
:10481000BC09407802280ED1DFF8B009C078C82161
:10482000DFF8A829927814235A4301FB0020BE38F0
:1048300080B203F034FFDFF8B0090078002803D01D
:10484000DFF8A40900210170DFF8600A0078002871
:1048500003D0DFF8580A0021017001BD80B5DFF8F0
:104860007009EA210170DFF86809012180F823103E
:10487000DFF85C09012180F8241004F049F8DFF822
:10488000300A04F059F800F089F804F04CF80420DC
:1048900002BD38B50024DFF8180A00680400DFF80C
:1048A00030090470DFF828090078EA2873D1002065
:1048B00005004FF40070854209DADFF81409DFF8CB
:1048C000F01951F8251040F825106D1CF1E7DFF8BC
:1048D0000009C079132190FBF1F201FB1200DFF80F
:1048E000F018C871DFF8E808007A292190FBF1F28E
:1048F00001FB1200DFF8D8180872DFF8D408407AFC
:10490000032190FBF1F201FB1200DFF8C41848729A
:10491000DFF8BC08807A022190FBF1F202FB110261
:10492000DFF8AC088272DFF8A808807C292190FBB0
:10493000F1F201FB1200DFF898188874DFF8900894
:10494000007D292190FBF1F201FB1200DFF88018B5
:104950000875DFF87C08407D292190FBF1F201FB0E
:104960001200DFF86C184875DFF86408407E0221F9
:1049700090FBF1F202FB1102DFF854084276DFF8F7
:104980005008807E132190FBF1F201FB1200DFF84A
:104990004018887601E0FFF761FF31BD10B503F0E4
:1049A000B7FFDFF80C0903F0C7FF002004004FF445
:1049B000007084420CDADFF8180850F82410A000C8
:1049C00000F1006010F5FA3004F04DF8641CEEE7D9
:1049D00003F0A9FF10BD10B50400DFF8F4078078DC
:1049E000E4B2A04202D0002003F0A6FAE4B20B2CFD
:1049F00006D14FF40071DFF8BC0803F088F905E038
:104A00004FF40071DFF8AC0803F084F92000C0B265
:104A100003F03FFADFF8B8078470DFF89C08407AAB
:104A2000002804D0DFF8A807807F00285DD1E4B219
:104A30002000032804D00B2825D0122843D049E0B9
:104A4000DFF88C0790F83100002802D100F0ADFBB0
:104A500001E000F099FB00210920FCF771F8DFF874
:104A60005C080078002805D0DFF854084FF47A611C
:104A7000018003E0DFF84808C8210180DFF844081E
:104A80000121017081E0DFF84807C07F002804D1D0
:104A900000210720FCF754F814E0DFF83407C07F4A
:104AA000012806D1DFF82807417C0320FCF748F8ED
:104AB00008E0DFF81C07C07F022803D10021002096
:104AC000FCF73EF861E0DFF80807C1780220FCF748
:104AD00037F85AE0DFF8F806C1780220FCF730F822
:104AE000DFF8EC06122181704FE0E4B220000328C9
:104AF00004D00B281CD012283AD03EE000F044FB32
:104B000000210720FCF71CF8DFF8B0070078002828
:104B100005D0DFF8AC074FF47A61018003E0DFF8DD
:104B2000A007C8210180DFF89C07012101702CE05B
:104B3000DFF89C06C07F002804D100210720FBF786
:104B4000FFFF14E0DFF88806C07F012806D1DFF8F8
:104B50008006417C0320FBF7F3FF08E0DFF87006D6
:104B6000C07F022803D100210020FBF7E9FF0CE001
:104B700000210720FBF7E4FF07E000210720FBF7F7
:104B8000DFFFDFF84C0612218170DFF84406322186
:104B9000416410BD10B500F0C2FADFF83406C07BE6
:104BA000002818D0DFF82806007C002813D1DFF891
:104BB0002006C07F03280ED0DFF8140680780B286B
:104BC00035D0DFF80C06DFF80816897841700B2025
:104BD000FFF701FF2BE0DFF8F805C07B002813D0BA
:104BE000DFF8EC05007C00280ED0DFF8E4058078C3
:104BF0000B281CD14FF4FA70FFF75AFDDFF8D005EF
:104C00004078FFF7E8FE12E0DFF8C40580780B2853
:104C10000DD1DFF8BC0580780B2808D14FF4FA706D
:104C2000FFF746FDDFF8A8054078FFF7D4FEDFF870
:104C3000A005807803284FD00B2803D0122800F05D
:104C4000E38041E1DFF88805C07F00280DD1DFF85F
:104C50006806007A00283ED0DFF85C060021017269
:104C600000210720FCF7EAFD35E0DFF86405C07F8E
:104C7000012830D1DFF85006408E00F0B7FA04006A
:104C8000DFF83406007A002809D0DFF82C0600216E
:104C90000172DFF83C05417C0320FCF7CFFDDFF813
:104CA000280690F8380080B2A4B2A04213D0DFF8F2
:104CB000180680F83840DFF8180590F8340003280B
:104CC00009D1DFF80C0590F83500002803D1102138
:104CD0000320FCF7B3FDF7E0DFF8EC0590F82000C7
:104CE000002824D0DFF8E80490F8340007281ED00C
:104CF000DFF8DC0490F83400042818D0DFF8C80589
:104D0000002180F82010DFF8C80490F8340005284E
:104D100004D000210520FBF713FF03E0002105204C
:104D2000FCF78CFDDFF8A00541F28831C186DFF881
:104D30009805C08E002816D1DFF8940490F834004E
:104D4000052810D10324092C05DA00212000FBF7E7
:104D50006CFA641CF7E7DFF87804DFF8741491F854
:104D6000361080F83410DFF86804807F002815D1F1
:104D7000DFF85C0490F83400072844D100210920B2
:104D8000FBF7DEFEDFF8480490F83100002802D17E
:104D900000F00BFA37E000F0F7F934E0DFF818051F
:104DA000407A00281AD0DFF81005007A00282AD0AF
:104DB000DFF8040500210172DFF8140490F83400D4
:104DC000072804D000210720FBF7BAFE03E00021EA
:104DD0000720FCF733FD00F0D7F914E0DFF8F0030B
:104DE00090F8340007280ED100210920FBF7A8FE17
:104DF000DFF8DC0390F83100002802D100F0D5F98B
:104E000001E000F0C1F95FE0DFF8C4030079002899
:104E100015D0DFF8BC0300210171DFF8B40390F86E
:104E2000340004280BD0DFF8A80390F834000728DA
:104E300005D0DFF89C03C1780220FBF781FEDFF884
:104E40009003807F002815D1DFF8840390F83400A8
:104E5000072839D100210020FBF772FEDFF870032C
:104E600090F83100002802D100F09FF92CE000F00A
:104E70008BF929E0DFF84004407A002818D0DFF8E9
:104E80003804007A00281FD0DFF82C0400210172BA
:104E9000DFF83C0390F83400072804D000210720F5
:104EA000FBF74EFE10E000210720FCF7C7FC0BE0EB
:104EB000DFF81C0390F83400072805D1DFF8100351
:104EC000C1780220FBF73CFE00F011F8DFF8FC038C
:104ED0000078002805D01021DFF8D80302F017FF72
:104EE00004E01021DFF8CC0302F014FF10BD80B500
:104EF000DFF8DC0280780B2800F01081DFF8D003A7
:104F00000078002800F09980DFF8C40300210170C8
:104F10000020032805DADFF8BC1300224254401CAD
:104F2000F7E7DFF8B40300210170DFF8A40340794C
:104F300000280DD0DFF8A0030078DFF898130022D6
:104F40004254DFF894030078401CDFF88C1308709B
:104F5000DFF87C03807900280DD0DFF87C0300782F
:104F6000DFF8701301224254DFF86C030078401C14
:104F7000DFF864130870DFF85803407800280ED17A
:104F8000DFF84C038078002809D1DFF84403C078AB
:104F9000002804D1DFF83803007900280DD0DFF8AD
:104FA00038030078DFF82C1302224254DFF828037C
:104FB0000078401CDFF820130870DFF81C0300782D
:104FC00000283AD1DFF8080301210172DFF800025E
:104FD00090F8340004281DD1DFF8F40180781228FD
:104FE00006D1DFF8EC01C1780220FBF7A9FD11E042
:104FF000DFF8DC018078032804D100210920FBF7C9
:105000009FFD07E0724890F83710714890F836001D
:10501000FBF796FD6E48807803280ED16C4890F817
:105020003400092809D16A4890F83100002802D1DB
:1050300000F0BBF801E000F0A7F8DFF89C02007870
:1050400000286BD0DFF88802C068002866D1DFF83E
:105050008002C079DFF87C12405C002803D002286F
:1050600029D014D33FE05A4890F83400042804D1E2
:10507000574890F83500012803D001210420FBF7A0
:105080005FFDDFF84C024FF47A71C1602BE05048AD
:1050900090F83400042804D14D4890F835000028D9
:1050A00003D000210420FBF74BFDDFF824024FF46E
:1050B0007A71C16017E0464890F83400042804D1A2
:1050C000434890F83500022804D002210420FBF761
:1050D00037FD03E002210420FCF7B0FBDFF8F0010C
:1050E0004FF47A71C1603A488078032801D100F00A
:1050F0004BF8DFF8DC01C079DFF8DC110978491ED4
:10510000884207DADFF8C801C079401CDFF8C01117
:10511000C87103E0DFF8B8010021C17101BD6F481B
:105120000068C00707D42A48C07F032812D0284847
:10513000022181730EE02648006C00280AD1244821
:10514000C07F032806D02248407B012802D0204897
:10515000002181731E48807B022803D01C48407BBD
:10516000012807D11A48C07F032806D0184801211A
:10517000C17302E016480021C173704700000000AF
:10518000A1820020A282002080B50220FEF71BFB36
:1051900020210420FEF70DFB00210320FEF709FB70
:1051A00033210C20FEF705FB01BD80B50220FEF780
:1051B0000AFB14210420FEF7FCFA00210320FEF76D
:1051C000F8FA2B210C20FEF7F4FA01BD0C82002026
:1051D000B46B0020A3820020B5820020A4820020AE
:1051E000A5820020A6820020A7820020010011F4E1
:1051F0007F413B480068814201D1002054E038489B
:105200004068884227D2374800220270354800782B
:10521000202817D233480078334A12EB80004068C8
:10522000884209D32F4800782F4A52F8200088423C
:1052300002D22C48007837E02A480078401C294ADE
:105240001070E3E72848D0F88000884201D21F2080
:105250002AE0002028E0234800220270214800783C
:10526000202819D21F4800781D4A52F82000884291
:105270000CD31C4800781A4A12EB80004068884220
:1052800004D2184800782030C0B20DE015480078EC
:10529000401C144A1070E1E71148D0F880008142A8
:1052A00001D23F2000E0002070470000A8820020CB
:1052B00000F4010800100140F48100206F820020FA
:1052C0004C8200206E820020387F0020B4730020C2
:1052D000B481002030820020828200200808014032
:1052E00028F900008B820020ACF9000038B50400DA
:1052F0000D002900200003F00CFE31BD10B586B072
:105300000400E4B2012C0BD0C0F07681032C00F035
:10531000908046D3052C00F02481C0F0D6806BE14C
:10532000DFF8E406807A8DF80A00DFF8DC06006812
:105330000090DFF8D406007A8DF80800DFF8C80680
:10534000407A8DF80900DFF8C006C07A8DF80B00AE
:10535000DFF8B406007B8DF80C00DFF8AC06407B6C
:105360008DF80D00DFF8A006807B8DF80E00DFF8C9
:105370009806C07B8DF80F00DFF88C06007C8DF856
:105380001000DFF88406407C8DF81100DFF8780605
:10539000807C8DF8120000A9DFF87006FFF7A6FFE9
:1053A0002AE1DFF86406807F8DF80A00DFF85806EE
:1053B00040690090DFF85006007F8DF80800DFF8A4
:1053C0004806407F8DF80900DFF83C06C07F8DF865
:1053D0000B00DFF8340690F820008DF80C00DFF8A1
:1053E000280690F821008DF80D00DFF81C0690F8D3
:1053F00022008DF80E00DFF8100690F823008DF8DB
:105400000F00DFF8040690F824008DF81000DFF894
:10541000F80590F825008DF81100DFF8EC0590F8FC
:1054200026008DF8120000A9DFF8E005FFF75EFF07
:10543000E2E0DFF8D40590F832008DF80A00DFF8DA
:10544000C805806A0090DFF8C00590F830008DF83C
:105450000800DFF8B40590F831008DF80900DFF896
:10546000A80590F833008DF80B00DFF89C0590F844
:1054700034008DF80C00DFF8900590F835008DF8B9
:105480000D00DFF8840590F836008DF80E00DFF887
:10549000780590F837008DF80F00DFF86C0590F86C
:1054A00038008DF81000DFF8600590F839008DF8AD
:1054B0001100DFF8540590F83A008DF8120000A9A9
:1054C000DFF84805FFF712FF96E0DFF83C0590F89B
:1054D00046008DF80A00DFF83005C06B0090DFF859
:1054E000280590F844008DF80800DFF81C0590F8B6
:1054F00045008DF80900DFF8100590F847008DF899
:105500000B00DFF8040590F848008DF80C00DFF878
:10551000F80490F849008DF80D00DFF8EC0490F8DD
:105520004A008DF80E00DFF8E00490F84B008DF88B
:105530000F00DFF8D40490F84C008DF81000DFF86D
:10554000C80490F84D008DF81100DFF8BC0490F805
:105550004E008DF8120000A9DFF8B004FFF7C6FE78
:105560004AE0DFF8A40490F85A008DF80A00DFF84A
:105570009804006D0090DFF8900490F858008DF8C2
:105580000800DFF8840490F859008DF80900DFF86E
:10559000780490F85B008DF80B00DFF86C0490F84D
:1055A0005C008DF80C00DFF8600490F85D008DF869
:1055B0000D00DFF8540490F85E008DF80E00DFF85F
:1055C000480490F85F008DF80F00DFF83C0490F875
:1055D00060008DF81000DFF8300490F861008DF85D
:1055E0001100DFF8240490F862008DF8120000A981
:1055F000DFF81804FFF77AFE06B010BD30B583B0AF
:1056000004000D00EDB2002D06D0022D1CD00FD3EA
:10561000042D31D024D33AE0DFF8F81383B0684684
:105620001422FFF719F80EBC200000F031F82EE02C
:10563000DFF8E41383B068461422FFF70DF80EBCC0
:10564000200000F025F822E0DFF8D01383B0684690
:105650001422FFF701F80EBC200000F019F816E044
:10566000DFF8BC1383B068461422FEF7F5FF0EBCCA
:10567000200000F00DF80AE0DFF8A81383B06846B8
:105680001422FEF7E9FF0EBC200000F001F837BD40
:105690000EB418B50400002C05D003A9DFF86C0384
:1056A000FFF724FE04E003A9DFF86403FFF71EFE02
:1056B00011BC5DF810FB00B585B0DFF86C03C07A53
:1056C00001280BD0C0F09981032800F0A78055D3A2
:1056D000052800F04381C0F0F1808EE1DFF84C0333
:1056E00090F832008DF80A00DFF84003806A0090DD
:1056F000DFF8380390F830008DF80800DFF82C034D
:1057000090F831008DF80900DFF8200390F833009D
:105710008DF80B00DFF8140390F834008DF80C00BE
:10572000DFF8080390F835008DF80D00DFF8FC0273
:1057300090F836008DF80E00DFF8F00290F8370090
:105740008DF80F00DFF8E40290F838008DF81000B3
:10575000DFF8D80290F839008DF81100DFF8CC029C
:1057600090F83A008DF8120000A9DFF8A002FFF7C8
:10577000BDFDDFF8B4020221C17242E1DFF8AC02E4
:1057800090F846008DF80A00DFF8A002C06B009088
:10579000DFF8980290F844008DF80800DFF88C02DA
:1057A00090F845008DF80900DFF8800290F8470076
:1057B0008DF80B00DFF8740290F848008DF80C00AB
:1057C000DFF8680290F849008DF80D00DFF85C0200
:1057D00090F84A008DF80E00DFF8500290F84B0068
:1057E0008DF80F00DFF8440290F84C008DF810009F
:1057F000DFF8380290F84D008DF81100DFF82C0228
:1058000090F84E008DF8120000A9DFF80002FFF7B3
:105810006DFDDFF814020321C172F2E0DFF80C0223
:1058200090F85A008DF80A00DFF80002006D009031
:10583000DFF8F80190F858008DF80800DFF8EC0167
:1058400090F859008DF80900DFF8E00190F85B004E
:105850008DF80B00DFF8D40190F85C008DF80C0097
:10586000DFF8C80190F85D008DF80D00DFF8BC018D
:1058700090F85E008DF80E00DFF8B00190F85F0040
:105880008DF80F00DFF8A40190F860008DF810008B
:10589000DFF8980190F861008DF81100DFF88C01B5
:1058A00090F862008DF8120000A9DFF86001FFF7A0
:1058B0001DFDDFF874010421C172A2E0DFF86C0164
:1058C00090F86E008DF80A00DFF86001406E0090DD
:1058D000DFF8580190F86C008DF80800DFF84C01F3
:1058E00090F86D008DF80900DFF8400190F86F0026
:1058F0008DF80B00DFF8340190F870008DF80C0083
:10590000DFF8280190F871008DF80D00DFF81C0118
:1059100090F872008DF80E00DFF8100190F8730017
:105920008DF80F00DFF8040190F874008DF8100076
:10593000DFF8F80090F875008DF81100DFF8EC0042
:1059400090F876008DF8120000A9DFF8C000FFF78C
:10595000CDFCDFF8D4000521C17252E0DFF8CC00A5
:1059600090F882008DF80A00DFF8C000806F009088
:10597000DFF8B80090F880008DF80800DFF8AC0080
:1059800090F881008DF80900DFF8A00090F88300FE
:105990008DF80B00DFF8940090F884008DF80C006F
:1059A000DFF8880090F885008DF80D00DFF87C00A6
:1059B00090F886008DF80E00DFF8700090F88700F0
:1059C0008DF80F00DFF8640090F888008DF8100063
:1059D000DFF8580090F889008DF81100DFF84C00CE
:1059E00090F88A008DF8120000A90848FFF77EFCA5
:1059F000DFF834001E21C17203E0DFF82C001E2105
:105A0000C17205B000BD0000C8FB00000068004086
:105A10000064004064FB000078FB00008CFB000089
:105A2000A0FB0000B4FB0000387F002054D200002F
:105A300000B587B0DFF85C0903F000F9DFF858091A
:105A400003F0FCF800A803F02AFA00208DF8060005
:105A500000208DF8070000208DF8080000208DF848
:105A6000090000208DF80A0000208DF80B000220AC
:105A70008DF8020000208DF803000E208DF8040040
:105A800001208DF805000420ADF8000000A9DFF822
:105A9000040903F0EFF800208DF8060000208DF8CF
:105AA000070000208DF8080000208DF80900002074
:105AB0008DF80A0000208DF80B0000208DF8020000
:105AC00000208DF803000E208DF8040001208DF8D1
:105AD00005000820ADF8000000A9DFF8BC0803F0BD
